:100000000C9452010C9483010C9483010C94830191
:100010000C9483010C9483010C9483010C94830150
:100020000C9483010C9483010C9483010C94830140
:100030000C9483010C9483010C9483010C94830130
:100040000C9483010C945B060C9483010C94830143
:100050000C9483010C9483010C9483010C94270568
:100060000C9483010C949B050C9471050C948301F2
:100070000C9483010C9483010C9483010C948301F0
:100080000C942D060C9483010C9483010C94830131
:100090000C9483010C9483010C9483010C948301D0
:1000A0000C9483010C9483010C94FF050C94830140
:1000B0000C9483010C9483010C9483010C94D1055E
:1000C0000C9483010C9483010C9483010C948301A0
:1000D0000C9483010C9483010C9483010C94830190
:1000E0000C9483010C9428080C943E020C945F0835
:1000F0000C94F9010C94B5010C9415080C94D401DE
:100100000C947B080C9445080C94BE080C94E101F7
:100110000C9401020C9411020C94D8010C94F3017C
:100120000C94A4060C9497080C94E1080C943508E0
:100130000C9486080C940B020C94A2080C94B00842
:100140000C9407020C94CC010C94C5080C94D308B1
:100150000C946F020C94BA010C94A9080C946102DF
:100160000C94B7080C94EB010C94D0010C944F083C
:100170000C944D020C94FD010C94EF010C94DB01E6
:100180000C94CC080C94E5010C942B080C94DA0820
:100190000C94A7020C946A080C94F402000021004D
:1001A000240027002A002D00300033000101000048
:1001B000040107010A0100002200250028002B008D
:1001C0002E003100340002010000050108010B017E
:1001D00005050505070508080808020202020A0AC3
:1001E00008080404040401010101010101010303E1
:1001F000030303030303040707070C0C0C0C0C0C8C
:100200000C0C0202020206060606060606060B0B88
:100210000B0B0B0B0B0B01021020200808102040C9
:1002200010204080020102010804020101020408BA
:100230001020408080402010080402018004020148
:100240008040201008040201080402010102040891
:1002500010204080010204081020408000000A0B9A
:1002600002090C0D0E080703040100000000000045
:10027000000000000000000000000000000000007E
:10028000000000000000000012111000000000003B
:10029000000000000000000000000000000000005E
:1002A0000000A40611241FBECFEFD1E2DEBFCDBFF8
:1002B00000E00CBF12E0A0E0B2E0E2ECF2E100E00E
:1002C0000BBF02C007900D92AE31B107D9F723E002
:1002D000AEE1B2E001C01D92A836B207E1F711E02D
:1002E000C2E5D1E000E006C021970109802FFE01A0
:1002F0000E945709C135D10780E00807A9F70E947D
:10030000E4060C945F090C940000282F30E0F901FA
:10031000E45AFD4F9491F901EA5EFD4F4491205358
:100320003E4FF9012491222309F435C0992311F19C
:1003300091509231F8F4E92FF0E08827ED55FE4F07
:100340008F4F0C945709D401D801B501CC01D001CD
:10035000BA01DB01E101E501EB01EF01F301F90174
:10036000FD01BA01010207020B02809180008F7724
:1003700080938000E22FF0E0EE0FFF1FEA54FE4F63
:10038000A591B4918FB7F894EC91611148C0409554
:100390004E234C938FBF0895809180008F7DE8CFCE
:1003A00080918000877FE4CF84B58F7784BDE2CFD2
:1003B00084B58F7DFBCF8091B0008F778093B000A4
:1003C000D9CF8091B0008F7DF9CF809190008F7749
:1003D00080939000CFCF809190008F7DF9CF809156
:1003E0009000877FF5CF8091A0008F778093A00049
:1003F000C1CF8091A0008F7DF9CF8091A000877F31
:10040000F5CF809120018F7780932001B3CF809129
:1004100020018F7DF9CF80912001877FF5CF4E2B72
:10042000B8CFAF92BF92CF92DF92EF92FF920F932D
:100430001F93CF93DF936C017B018B01040F151F7A
:10044000EB015E01AE18BF08C017D10759F06991E2
:10045000D601ED91FC910190F081E02DC601199536
:10046000892B79F7C501DF91CF911F910F91FF90F3
:10047000EF90DF90CF90BF90AF900895FC01538D27
:10048000448D252F30E0842F90E0821B930B54176E
:1004900010F0CF96089501970895FC01918D828DFB
:1004A000981761F0A28DAE0FBF2FB11D5D968C9194
:1004B000928D9F5F9F73928F90E008958FEF9FEFD3
:1004C0000895FC01918D828D981731F0828DE80F8F
:1004D000F11D858D90E008958FEF9FEF0895FC0149
:1004E000918D228D892F90E0805C9F4F821B910916
:1004F0008F73992708958CEB92E00E946F0221E0A0
:10050000892B09F420E0822F0895FC01A48DA80F07
:10051000B92FB11DA35ABF4F2C91848D90E0019645
:100520008F739927848FA689B7892C93A089B18965
:100530008C91837080648C93938D848D981306C006
:100540000288F389E02D80818F7D80830895EF926A
:10055000FF920F931F93CF93DF93EC0181E0888F7D
:100560009B8D8C8D98131AC0E889F989808185FF4D
:1005700015C09FB7F894EE89FF896083E889F989EF
:1005800080818370806480839FBF81E090E0DF91F1
:10059000CF911F910F91FF90EF900895F62E0B8D44
:1005A00010E00F5F1F4F0F731127E02E8C8D8E11FF
:1005B0000CC00FB607FCFACFE889F989808185FF66
:1005C000F5CFCE010E948502F1CFEB8DEC0FFD2F10
:1005D000F11DE35AFF4FF0829FB7F8940B8FEA8921
:1005E000FB8980818062CFCFCF93DF93EC01888D30
:1005F0008823B9F0AA89BB89E889F9898C9185FD9E
:1006000003C0808186FD0DC00FB607FCF7CF8C912B
:1006100085FFF2CF808185FFEDCFCE010E9485025C
:10062000E9CFDF91CF910895CF92DF92EF92FF92C1
:10063000CF93DF93EC01603282E07807CCF5653B25
:10064000710514F064EB70E0898128E830E0281B24
:10065000310987FD3395220F331F220F331F6901A4
:10066000330FEE08FF088A8128E532E0281B3109A4
:1006700087FD3395220F331F220F331F032E000CEB
:10068000440B550B2C193D094E095F09DB0177FF1F
:1006900002C0B0E0A0E00E94120924EB30E040E08C
:1006A00050E00E94E808C20ED31EE41EF51EB601FB
:1006B000E881E03370F5298188E890E0821B910998
:1006C00027FD9395880F991F880F991F6817790741
:1006D0007CF02A8188E592E0821B910927FD9395A1
:1006E000880F991F880F991F681779070CF4CB01A1
:1006F0000297880F991F4FB7F8942E2F30E0F90119
:10070000EE0FFF1FE20FF31FED5DFD4F928381831C
:100710004FBFDF91CF91FF90EF90DF90CF90089582
:10072000CF93DF93DC018C91803308F06DC0CB0157
:10073000FB01EA5EFD4F249180539E4FFC018491A2
:10074000882399F090E0880F991FFC01E456FE4F32
:10075000C591D491FC01EA54FE4F859194918FB7D5
:10076000F894E881E22BE8838FBF8C91282F30E04A
:10077000F901EE0FFF1FE20FF31FED5DFD4F962F06
:100780009F736081607C692B608311961C92119726
:1007900012961C9212972CE0622F0E944B09829FA6
:1007A000B001112430E020E0AB01420F531FFA01E9
:1007B000EE0FFF1FE40FF51FED5DFD4F908196FDDD
:1007C00016C02F5F3F4F2C30310571F7813001F596
:1007D0001092800082E08093810010928500109238
:1007E0008400B19A80916F00826080936F00EC91D9
:1007F0008E2F90E0FC01EE0FFF1FE80FF91FED5D5B
:10080000FD4F8081806480838C91DF91CF9108952A
:10081000823061F4109290008093910010929500C4
:100820001092940088BB80937100E1CF833069F40B
:100830001092A00082E08093A1001092A500109277
:10084000A40089BB80937200D2CF8111D0CF1092C7
:10085000200182E080932101109225011092240151
:100860008ABB80937300C3CFAF92BF92CF92DF92C7
:10087000EF92FF920F931F93CF93DF936B017A0157
:10088000EC01C25EDD4F28813CE0389F8001399F3A
:10089000100D1124A0902202B12C27FF1FC0FB01D4
:1008A0001182108288818F5F888388819801280F48
:1008B000311D87FD3A95F6012A153B051CF4888108
:1008C0008C30C4F180819181049680349C4908F475
:1008D00073C0F60180819181049670C0888198016F
:1008E000280F311D87FD3A952A153B05DCF68881D6
:1008F000A801480F511D87FD5A95FA01EE0FFF1F01
:10090000E40FF51FED5DFD4F808186FFCBCF888121
:10091000F801E80FF11D87FDFA95CF01EE0FFF1FDB
:10092000E80FF91FED5DFD4F808160E08F730E943D
:100930008501B8CF808191812881A801420F511D86
:1009400027FD5A959A01FA01EE0FFF1FE20FF31FE0
:10095000ED5DFD4F21813281820F931FF70191835D
:10096000808388819801280F311D87FD3A95F90110
:10097000EE0FFF1FE20FF31FED5DFD4F808186FF3D
:1009800022C08881080F111D87FD1A95F801EE0F0E
:10099000FF1FE00FF11FED5DFD4F808161E08F7360
:1009A000DF91CF911F910F91FF90EF90DF90CF904B
:1009B000BF90AF900C94850180E49CE9F70191838E
:1009C00080838FEF8883DF91CF911F910F91FF90EC
:1009D000EF90DF90CF90BF90AF9008958CEB92E0B6
:1009E0000E944D0280930A0260910A028CEB92E011
:1009F0000C94A7020E947B0281110E94EE0480E009
:100A000090E0892B49F080E090E0892B29F00E944A
:100A1000000081110E94000080E090E0892B49F0E5
:100A200080E090E0892B29F00E94000081110E9453
:100A3000000080E090E0892B49F080E090E0892B75
:100A400029F00E94000081110C94000008951F926B
:100A50000F920FB60F9211242F933F938F939F9372
:100A6000AF93BF938091B8029091B902A091BA025E
:100A7000B091BB023091B70223E0230F2D3758F518
:100A80000196A11DB11D2093B7028093B8029093E7
:100A9000B902A093BA02B093BB028091B3029091C5
:100AA000B402A091B502B091B6020196A11DB11D8C
:100AB0008093B3029093B402A093B502B093B602B0
:100AC000BF91AF919F918F913F912F910F900FBE4A
:100AD0000F901F90189526E8230F0296A11DB11DB7
:100AE000D2CF1F920F920FB60F9211240BB60F9216
:100AF0002F933F934F935F936F937F938F939F9326
:100B0000AF93BF93EF93FF938CEB92E00E9485022B
:100B1000FF91EF91BF91AF919F918F917F916F91D5
:100B20005F914F913F912F910F900BBE0F900FBE91
:100B30000F901F9018951F920F920FB60F921124CD
:100B40000BB60F922F938F939F93EF93FF93E091A8
:100B5000CC02F091CD028081E091D202F091D302DB
:100B600082FD1DC090818091D5028F5F8F7320918F
:100B7000D602821741F0E091D502F0E0E454FD4F37
:100B8000958F8093D502FF91EF919F918F912F9137
:100B90000F900BBE0F900FBE0F901F901895808185
:100BA000F2CF1F920F920FB60F9211240BB60F9235
:100BB0002F933F934F935F936F937F938F939F9365
:100BC000AF93BF93EF93FF9348E251E064E271E08B
:100BD00090E080E00E943404FF91EF91BF91AF91CB
:100BE0009F918F917F916F915F914F913F912F9145
:100BF0000F900BBE0F900FBE0F901F9018951F9275
:100C00000F920FB60F9211240BB60F922F933F93B2
:100C10004F935F936F937F938F939F93AF93BF9304
:100C2000EF93FF9348EA50E064EA70E083E090E0DD
:100C30000E943404FF91EF91BF91AF919F918F91EA
:100C40007F916F915F914F913F912F910F900BBECC
:100C50000F900FBE0F901F9018951F920F920FB616
:100C60000F9211240BB60F922F933F934F935F93E4
:100C70006F937F938F939F93AF93BF93EF93FF9364
:100C800048E950E064E970E082E090E00E943404BA
:100C9000FF91EF91BF91AF919F918F917F916F9154
:100CA0005F914F913F912F910F900BBE0F900FBE10
:100CB0000F901F9018951F920F920FB60F9211244C
:100CC0000BB60F922F933F934F935F936F937F9346
:100CD0008F939F93AF93BF93EF93FF9348E850E0B8
:100CE00064E870E081E090E00E943404FF91EF91AD
:100CF000BF91AF919F918F917F916F915F914F9134
:100D00003F912F910F900BBE0F900FBE0F901F9031
:100D10001895FC0190912202903398F481E0890F9C
:100D2000809322029083892F90E0FC01EE0FFF1F39
:100D3000E80FF91FED5DFD4F88EB9BE09283818307
:100D400008958FEF80830895ECEBF2E01382128216
:100D500088EE93E0A0E0B0E084839583A683B78318
:100D60008FE092E09183808385EC90E09587848783
:100D700084EC90E09787868780EC90E0918B808B65
:100D800081EC90E0938B828B82EC90E0958B848B4E
:100D900086EC90E0978B868B118E128E138E148EBC
:100DA00085E693E00E94890682E693E00E94890628
:100DB0008FE593E00E9489068CE593E00E94890606
:100DC00089E593E00C948906789484B5826084BDAB
:100DD00084B5816084BD85B5826085BD85B581603F
:100DE00085BD80916E00816080936E0010928100BD
:100DF0008091810082608093810080918100816078
:100E00008093810080918000816080938000809138
:100E1000B10084608093B1008091B00081608093C4
:100E2000B000809191008260809391008091910048
:100E30008160809391008091900081608093900008
:100E40008091A10082608093A1008091A1008160C7
:100E50008093A1008091A00081608093A000809188
:100E60002101826080932101809121018160809322
:100E700021018091200181608093200180917A007E
:100E8000846080937A0080917A00826080937A00F7
:100E900080917A00816080937A0080917A008068E6
:100EA00080937A001092C10064E070E085E693E0E0
:100EB0000E949003609108027091090285E693E018
:100EC0000E94140365E070E082E693E00E949003C4
:100ED000609106027091070282E693E00E9414037B
:100EE00066E070E08FE593E00E9490036091040259
:100EF000709105028FE593E00E94140367E070E0B3
:100F00008CE593E00E9490036091020270910302CD
:100F10008CE593E00E94140368E070E089E593E0BB
:100F20000E949003609100027091010289E593E0B4
:100F30000E941403E091CC02F091CD0282E0808304
:100F4000E091C802F091C9021082E091CA02F091CA
:100F5000CB0280E180831092D402E091D002F09124
:100F6000D10286E08083E091CE02F091CF028081B1
:100F700080618083E091CE02F091CF028081886011
:100F80008083E091CE02F091CF02808180688083DF
:100F9000E091CE02F091CF0280818F7D8083CAE5FF
:100FA00004EB10E0E0910A02E154E43308F050C091
:100FB0000E2E000CFF0B8827EF51F84F8F4F0C942B
:100FC0005709A208B008BE08CC08DA082808280883
:100FD000280835082808280886084F0828082808FF
:100FE000280828086A082808150828082808280852
:100FF0002808280828082808280828082808280871
:101000002808A908B708C508D308E108280828084F
:10101000280845082808280897085F08280828088D
:10102000280828087B0828082B086091080270917E
:101030000902643B710554F46F5F7F4F709309029E
:101040006093080285E693E00E941403C0930A02AD
:101050000E94FA04A7CF6091080270910902161647
:101060001706A4F761507109E9CF609106027091EB
:101070000702643B710554F76F5F7F4F709307025F
:101080006093060282E693E0DFCF609106027091E2
:10109000070216161706D4F661507109EFCF60915A
:1010A000040270910502643B710584F66F5F7F4F07
:1010B00070930502609304028FE593E0C5CF6091C1
:1010C000040270910502161617060CF0BFCF61508E
:1010D0007109EECF6091020270910302643B7105C9
:1010E0000CF0B4CF6F5F7F4F7093030260930202E6
:1010F0008CE593E0A9CF609102027091030216166D
:1011000017060CF0A3CF61507109EECF6091000279
:1011100070910102643B71050CF098CF6F5F7F4FB7
:10112000709301026093000289E593E08DCF609196
:10113000000270910102161617060CF087CF61505D
:101140007109EECF109309020093080264EB70E07E
:1011500079CF109209021092080270E060E072CF1D
:10116000109307020093060264EB70E08BCF10929D
:1011700007021092060270E060E084CF109305022F
:101180000093040264EB70E097CF10920502109276
:10119000040270E060E090CF10930302009302021B
:1011A00064EB70E0A5CF109203021092020270E08F
:1011B00060E09ECF109301020093000264EB70E0A8
:1011C000B3CF109201021092000270E060E0ACCF49
:1011D000052E97FB1EF400940E94FF0857FD07D0D0
:1011E0000E941A0907FC03D04EF40C94FF08509596
:1011F0004095309521953F4F4F4F5F4F0895909503
:101200008095709561957F4F8F4F9F4F08950E94F5
:101210003C09A59F900DB49F900DA49F800D911D3A
:1012200011240895B7FF0C9407090E940709821B37
:10123000930B0895A1E21A2EAA1BBB1BFD010DC042
:10124000AA1FBB1FEE1FFF1FA217B307E407F50776
:1012500020F0A21BB30BE40BF50B661F771F881F52
:10126000991F1A9469F760957095809590959B01E8
:10127000AC01BD01CF010895A29FB001B39FC00191
:10128000A39F700D811D1124911DB29F700D811DB2
:101290001124911D0895991B79E004C0991F961798
:1012A00008F0961B881F7A95C9F780950895EE0F70
:1012B000FF1F881F8BBF0790F691E02D1994F894BB
:0212C000FFCF5E
:1012C2005A005A005A005A005A005A00000000A759
:0E12D2000211023E02F4026F024D02610200A0
:00000001FF
