:100000000C9466010C9497010C9497010C94970141
:100010000C9497010C9497010C9497010C94970100
:100020000C9497010C944C090C944C090C944C09B9
:100030000C9497010C9497010C9497010C949701E0
:100040000C9497010C941E090C9497010C94970141
:100050000C9497010C9497010C9497010C94EA0767
:100060000C9497010C945E080C9434080C9497013E
:100070000C9497010C9497010C9497010C949701A0
:100080000C94F0080C9497010C9497010C94970130
:100090000C9497010C9497010C9497010C94970180
:1000A0000C9497010C9497010C94C2080C9497013E
:1000B0000C9497010C9497010C9497010C9494085C
:1000C0000C9497010C9497010C9497010C94970150
:1000D0000C9497010C9497010C9497010C94970140
:1000E0000C9497010C9403020C94A5020C94140335
:1000F0000C949B020C946A030C94E8010C94B902D2
:100100000C942E030C94CE010C9496020C94C10214
:100110000C94C9020C94F6020C948E020C942803E1
:100120000C9438060C94F9010C9411040C940A03F5
:100130000C94DD020C94F5010C9415020C949506B8
:100140000C94C9010C94E0010C94EC010C943B0E4E
:100150000C9400030C945B030C94FF010C940C07AB
:100160000C941E030C9411020C94E4010C947E0375
:100170000C948C030C94AB060C9420060C941B027C
:100180000C9439060C94D3020C94C4030C9407020B
:100190000C94AF020C94E3090C94EF010C940D0243
:1001A0000C941F020C94E702000021002400270099
:1001B0002A002D0030003300010100000401070176
:1001C0000A0100000A0B02090C0D0E0807030401C6
:1001D000000000000000000000000000000000001F
:1001E00000000000000000000000000000001211EC
:1001F00010000000000000000000000000000000EF
:100200000000000000000000000020002300260085
:1002100029002C002F00320000010000030106011C
:10022000090100002200250028002B002E003100CB
:10023000340002010000050108010B010505050558
:10024000070508080808020202020A0A080804044E
:10025000040401010101010101010303030303037C
:100260000303040707070C0C0C0C0C0C0C0C02020B
:10027000020206060606060606060B0B0B0B0B0B08
:100280000B0B010210202008081020401020408095
:10029000020102010804020101020408102040804A
:1002A00080402010080402018004020180402010D8
:1002B0000804020108040201010204081020408021
:1002C0000102040810204080E3093B0E11241FBEE8
:1002D000CFEFD1E2DEBFCDBF00E00CBF12E0A0E067
:1002E000B2E0E2E7F2E200E00BBF02C007900D923D
:1002F000AC33B107D9F723E0ACE3B2E001C01D9203
:10030000A13FB207E1F711E0C5E6D1E000E006C089
:1003100021970109802FFE010E94020FC436D107E8
:1003200080E00807A9F70E94A10A0C9427110C94F9
:100330000000282F30E0F901EE53FE4F9491F901AF
:10034000EE57FD4F4491245C3D4FF9012491222347
:1003500009F435C0992311F191509231F8F4E92F45
:10036000F0E08827E954FE4F8F4F0C94020FE8010C
:10037000EC01C901E001E401CE01EF01F501F90151
:10038000FF01030207020D021102CE0115021B023A
:100390001F02809180008F7780938000E22FF0E031
:1003A000EE0FFF1FEE5DFD4FA591B4918FB7F8944E
:1003B000EC91611148C040954E234C938FBF089536
:1003C000809180008F7DE8CF80918000877FE4CF8F
:1003D00084B58F7784BDE2CF84B58F7DFBCF8091CC
:1003E000B0008F778093B000D9CF8091B0008F7D1F
:1003F000F9CF809190008F7780939000CFCF80913C
:1004000090008F7DF9CF80919000877FF5CF80910C
:10041000A0008F778093A000C1CF8091A0008F7D36
:10042000F9CF8091A000877FF5CF809120018F7751
:1004300080932001B3CF809120018F7DF9CF8091EF
:100440002001877FF5CF4E2BB8CFCF93DF9390E07D
:10045000FC01EE57FD4F2491845C9D4FFC0184917B
:100460008823D1F090E0880F991FFC01E855FE4FDA
:10047000A591B491FC01EE5DFD4FC591D491611140
:100480000EC09FB7F8948C91E22FE0958E238C9349
:100490002881E223E8839FBFDF91CF9108958FB732
:1004A000F894EC91E22BEC938FBFF6CF1F93CF9390
:1004B000DF93182FEB0161E00E942502209739F4A9
:1004C00060E0812FDF91CF911F910C949901CF3F74
:1004D000D10511F461E0F5CFE12FF0E0EE53FE4FCE
:1004E000E491E150E23108F0B3C0F0E08827E4582D
:1004F000FD4F8F4F0C94020F8E0296029B02A502B5
:10050000AF022803B902C102C902D302DD02E70229
:10051000F602000328030A0314031E0384B580684F
:1005200084BDC7BDDF91CF911F91089584B58062CE
:1005300084BDC8BDF7CF8091800080688093800023
:10054000D0938900C0938800EDCF809180008062B5
:1005500080938000D0938B00C0938A00E3CF80917A
:100560008000886080938000D0938D00C0938C00C1
:10057000D9CF8091B00080688093B000C093B30061
:10058000D1CF8091B00080628093B000C093B4005E
:10059000C9CF80919000806880939000D09399009B
:1005A000C0939800BFCF80919000806280939000AC
:1005B000D0939B00C0939A00B5CF80919000886043
:1005C00080939000D0939D00C0939C00ABCF80910E
:1005D000A00080688093A0008091A0008F7B809312
:1005E000A000D093A900C093A8009CCF8091A00048
:1005F00080628093A000D093AB00C093AA0092CFFA
:100600008091A00088608093A000D093AD00C0933B
:10061000AC0088CF80912001806880932001D09326
:100620002901C09328017ECF8091200180628093B0
:100630002001D0932B01C0932A0174CF8091200117
:10064000886080932001D0932D01C0932C016ACF44
:10065000C038D1050CF03ECF33CF0895AF92BF9292
:10066000CF92DF92EF92FF920F931F93CF93DF937E
:100670006C017B018B01040F151FEB015E01AE18AD
:10068000BF08C017D10759F06991D601ED91FC91CF
:100690000190F081E02DC6011995892B79F7C501EC
:1006A000DF91CF911F910F91FF90EF90DF90CF904E
:1006B000BF90AF900895FC01538D448D252F30E0FD
:1006C000842F90E0821B930B541710F0CF9608955F
:1006D00001970895FC01918D828D981761F0A28D8C
:1006E000AE0FBF2FB11D5D968C91928D9F5F9F7352
:1006F000928F90E008958FEF9FEF0895FC01918D08
:10070000828D981731F0828DE80FF11D858D90E074
:1007100008958FEF9FEF0895FC01918D228D892F11
:1007200090E0805C9F4F821B91098F7399270895F9
:1007300082E293E00E948C0321E0892B09F420E0FF
:10074000822F0895FC01A48DA80FB92FB11DA35AC3
:10075000BF4F2C91848D90E001968F739927848FE1
:10076000A689B7892C93A089B1898C918370806404
:100770008C93938D848D981306C00288F389E02DA5
:1007800080818F7D80830895EF92FF920F931F9356
:10079000CF93DF93EC0181E0888F9B8D8C8D981334
:1007A0001AC0E889F989808185FF15C09FB7F89440
:1007B000EE89FF896083E889F9898081837080648C
:1007C00080839FBF81E090E0DF91CF911F910F91D7
:1007D000FF90EF900895F62E0B8D10E00F5F1F4FE6
:1007E0000F731127E02E8C8D8E110CC00FB607FCF5
:1007F000FACFE889F989808185FFF5CFCE010E9483
:10080000A203F1CFEB8DEC0FFD2FF11DE35AFF4F4B
:10081000F0829FB7F8940B8FEA89FB898081806210
:10082000CFCFCF93DF93EC01888D8823B9F0AA89CD
:10083000BB89E889F9898C9185FD03C0808186FD9B
:100840000DC00FB607FCF7CF8C9185FFF2CF8081EA
:1008500085FFEDCFCE010E94A203E9CFDF91CF91BA
:10086000089580E090E0892B29F00E94980381117F
:100870000E94000080E090E0892B49F080E090E049
:10088000892B29F00E94000081110E94000080E065
:1008900090E0892B49F080E090E0892B29F00E94BC
:1008A000000081110E94000080E090E0892B49F057
:1008B00080E090E0892B29F00E94000081110C94C7
:1008C00000000895CF92DF92EF92FF92CF93DF93D3
:1008D000EC01603282E07807CCF5653B710514F0DD
:1008E00064EB70E0898128E830E0281B310987FD3E
:1008F0003395220F331F220F331F6901330FEE0888
:10090000FF088A8128E532E0281B310987FD3395ED
:10091000220F331F220F331F032E000C440B550BE5
:100920002C193D094E095F09DB0177FF02C0B0E0D9
:10093000A0E00E94BD0E24EB30E040E050E00E94B9
:10094000930EC20ED31EE41EF51EB601E881E033FD
:1009500070F5298188E890E0821B910927FD939525
:10096000880F991F880F991F681779077CF02A81D3
:1009700088E592E0821B910927FD9395880F991FC6
:10098000880F991F681779070CF4CB010297880F1D
:10099000991F4FB7F8942E2F30E0F901EE0FFF1F8B
:1009A000E20FF31FEF57FD4F928381834FBFDF911B
:1009B000CF91FF90EF90DF90CF9008951F93CF934A
:1009C000DF93EC01162F8881803308F04EC061E080
:1009D000812F0E9425028881282F30E0F901EE0F37
:1009E000FF1FE20FF31FEF57FD4F1F736081607C05
:1009F000612B608319821A822CE0622F0E94F60E0E
:100A0000829FB001112430E020E0AB01420F531F60
:100A1000FA01EE0FFF1FE40FF51FEF57FD4F908116
:100A200096FD16C02F5F3F4F2C30310571F7813096
:100A300009F51092800082E0809381001092850079
:100A400010928400B19A80916F00826080936F0051
:100A5000E8818E2F90E0FC01EE0FFF1FE80FF91FD9
:100A6000EF57FD4F8081806480838881DF91CF9133
:100A70001F910895823061F410929000809391004C
:100A8000109295001092940088BB80937100E0CF83
:100A9000833069F41092A00082E08093A10010924C
:100AA000A5001092A40089BB80937200D1CF811160
:100AB000CFCF1092200182E0809321011092250176
:100AC000109224018ABB80937300C2CFAF92BF9271
:100AD000CF92DF92EF92FF920F931F93CF93DF930A
:100AE0006B017A01EC01C458DD4F28813CE0389F4E
:100AF0008001399F100D1124A0908002B12C27FF96
:100B00001FC0FB011182108288818F5F88838881DA
:100B10009801280F311D87FD3A95F6012A153B05EE
:100B20001CF488818C30C4F18081918104968034DA
:100B30009C4908F473C0F60180819181049670C0CD
:100B400088819801280F311D87FD3A952A153B05AC
:100B5000DCF68881A801480F511D87FD5A95FA01DE
:100B6000EE0FFF1FE40FF51FEF57FD4F808186FF4B
:100B7000CBCF8881F801E80FF11D87FDFA95CF01F1
:100B8000EE0FFF1FE80FF91FEF57FD4F808160E068
:100B90008F730E949901B8CF808191812881A8012B
:100BA000420F511D27FD5A959A01FA01EE0FFF1FC2
:100BB000E20FF31FEF57FD4F21813281820F931F08
:100BC000F7019183808388819801280F311D87FD6B
:100BD0003A95F901EE0FFF1FE20FF31FEF57FD4F9C
:100BE000808186FF22C08881080F111D87FD1A951C
:100BF000F801EE0FFF1FE00FF11FEF57FD4F80814F
:100C000061E08F73DF91CF911F910F91FF90EF9073
:100C1000DF90CF90BF90AF900C94990180E49CE955
:100C2000F701918380838FEF8883DF91CF911F91AC
:100C30000F91FF90EF90DF90CF90BF90AF9008950D
:100C400020911303309114032817390771F4909100
:100C5000110380911203981741F0E0911103F0E025
:100C6000E45CFD4F808190E008958FEF9FEF089541
:100C70000895EF92FF920F931F93CF93DF93DC01C0
:100C80005C96ED90FC905D97E114F10479F481E0BD
:100C900090E013969C938E93129790E080E0DF9102
:100CA000CF911F910F91FF90EF9008955196ED9184
:100CB000FC91529750968C915097982F90950FB722
:100CC0005E962C915E97122F127021FD6095F8941C
:100CD0002081112319F1282B2083E7012197F1F7B7
:100CE00028E0462F50E0308160FF1AC0382B308357
:100CF000E7012197F1F7BA0175956795215089F7BA
:100D0000112381F08081892380830FBF5C968D91B0
:100D10009C910197F1F781E090E0C1CF2923DCCFCE
:100D20003923E5CF9081892BEFCF209113033091A8
:100D300014032817390761F48091120320911103DD
:100D400090E0805C9F4F821B91098F7399270895D3
:100D500090E080E008952091130330911403281748
:100D60003907B9F49091110380911203981789F013
:100D7000E0911103F0E0E45CFD4F808120911103CC
:100D800030E02F5F3F4F2F7333272093110390E004
:100D900008958FEF9FEF08952FB7F89480911E0369
:100DA00090911F03A0912003B09121032FBF809346
:100DB000D6039093D703A093D803B093D9038EECB6
:100DC00093E00E94AB0697FF26C02FB7F89480915E
:100DD0001E0390911F03A0912003B09121032FBF08
:100DE0004091D6035091D7036091D8037091D903F5
:100DF000841B950BA60BB70B4091D2035091D303E4
:100E00006091D4037091D50384179507A607B7079F
:100E1000B0F28FEF9FEF089590E080E00895FC011D
:100E200001900020E9F73197AF01481B590BBC0135
:100E300082E293E00C942E038F929F92AF92BF9226
:100E40000F931F93CF93DF93CDB7DEB7A1970FB664
:100E5000F894DEBF0FBECDBF19A2423008F44AE0BD
:100E60008E010F5D1F4F842E912CB12CA12CA5015A
:100E700094010E94C50EE62FB901CA01EA30F4F4CC
:100E8000E05DD801EE938D01232B242B252B79F7E0
:100E900090E080E0109719F0CD010E940F07A19615
:100EA0000FB6F894DEBF0FBECDBFDF91CF911F917B
:100EB0000F91BF90AF909F908F900895E95CE1CF24
:100EC000CF92DF92EF92FF92CF93DF936B017C0181
:100ED0006DE282E293E00E94C403EC01662777276B
:100EE000CB016C197D098E099F094AE00E941C07FD
:100EF0008C0F9D1FDF91CF91FF90EF90DF90CF90EF
:100F00000895CF93DF93EC0188819981009711F0C8
:100F10000E94AD0F198218821D821C821B821A82C8
:100F2000DF91CF910895FC0180819181009711F0AC
:100F30000C94AD0F08950F931F93CF93DF93EC01A3
:100F400088819981009759F02A813B8126173707BC
:100F500030F081E0DF91CF911F910F9108958B01C7
:100F60006F5F7F4F0E943610009759F099838883F6
:100F70001B830A832C813D81232B59F7FC011082AE
:100F8000E8CF80E0E7CFEF92FF920F931F93CF93CC
:100F9000DF93EC017B018A01BA010E949B0781115A
:100FA0000BC0CE010E948107CE01DF91CF911F912E
:100FB0000F91FF90EF9008951D830C83B7018881F6
:100FC00099810E942011F0CF50E040E063E372E08D
:100FD0000C94C3071F920F920FB60F9211242F93F8
:100FE0003F938F939F93AF93BF9380911E039091F4
:100FF0001F03A0912003B091210330911D0323E032
:10100000230F2D3758F50196A11DB11D20931D0307
:1010100080931E0390931F03A0932003B09321039A
:101020008091190390911A03A0911B03B0911C03A6
:101030000196A11DB11D8093190390931A03A093EB
:101040001B03B0931C03BF91AF919F918F913F9170
:101050002F910F900FBE0F901F90189526E8230F29
:101060000296A11DB11DD2CF1F920F920FB60F9203
:1010700011240BB60F922F933F934F935F936F936F
:101080007F938F939F93AF93BF93EF93FF9382E2EE
:1010900093E00E94A203FF91EF91BF91AF919F91C6
:1010A0008F917F916F915F914F913F912F910F9011
:1010B0000BBE0F900FBE0F901F9018951F920F92AE
:1010C0000FB60F9211240BB60F922F938F939F930D
:1010D000EF93FF93E0913203F09133038081E0912D
:1010E0003803F091390382FD1DC0908180913B034C
:1010F0008F5F8F7320913C03821741F0E0913B0397
:10110000F0E0EE5DFC4F958F80933B03FF91EF91F4
:101110009F918F912F910F900BBE0F900FBE0F904C
:101120001F9018958081F2CF1F920F920FB60F92E9
:1011300011240BB60F922F933F934F935F936F93AE
:101140007F938F939F93AF93BF93EF93FF9348E267
:1011500051E064E271E090E080E00E946605FF915A
:10116000EF91BF91AF919F918F917F916F915F911F
:101170004F913F912F910F900BBE0F900FBE0F908C
:101180001F9018951F920F920FB60F9211240BB655
:101190000F922F933F934F935F936F937F938F9310
:1011A0009F93AF93BF93EF93FF9348EA50E064EAB5
:1011B00070E083E090E00E946605FF91EF91BF919F
:1011C000AF919F918F917F916F915F914F913F91DF
:1011D0002F910F900BBE0F900FBE0F901F90189580
:1011E0001F920F920FB60F9211240BB60F922F93EE
:1011F0003F934F935F936F937F938F939F93AF939F
:10120000BF93EF93FF9348E950E064E970E082E018
:1012100090E00E946605FF91EF91BF91AF919F9181
:101220008F917F916F915F914F913F912F910F908F
:101230000BBE0F900FBE0F901F9018951F920F922C
:101240000FB60F9211240BB60F922F933F934F932B
:101250005F936F937F938F939F93AF93BF93EF931E
:10126000FF9348E850E064E870E081E090E00E947D
:101270006605FF91EF91BF91AF919F918F917F9103
:101280006F915F914F913F912F910F900BBE0F90F7
:101290000FBE0F901F9018951F920F920FB60F92CE
:1012A00011240BB60F922F933F934F935F936F933D
:1012B0007F938F939F93AF93BF93EF93FF93E091AF
:1012C0001303F0911403309749F0A685B7858585FF
:1012D000968D91FF16C09C918923B1F4FF91EF91F7
:1012E000BF91AF919F918F917F916F915F914F913E
:1012F0003F912F910F900BBE0F900FBE0F901F903C
:1013000018959C91892351F7A389B4899C9185896B
:10131000809589238C93868997890197F1F7608D51
:10132000718DA685B785558538E020E0CB01019702
:10133000F1F7822F90E095958795282F4C914523C2
:1013400009F02068315091F7868D81FD20958091BC
:10135000120390E001968F7399273091110338178B
:1013600099F0A0911203B0E0A45CBD4F2C93809340
:101370001203828D938D0197F1F7A389B4898C9123
:101380009589892B8C93AACF868D8160868FF1CF2A
:10139000FC0190918002903398F481E0890F809352
:1013A00080029083892F90E0FC01EE0FFF1FE80F71
:1013B000F91FEF57FD4F88EB9BE0928381830895DF
:1013C0008FEF80830895109225031092240388EEF6
:1013D00093E0A0E0B0E08093260390932703A093CE
:1013E0002803B09329032AE032E0309323032093AB
:1013F000220325EC30E030932F0320932E0324ECBE
:1014000030E0309331032093300320EC30E0309310
:1014100033032093320321EC30E0309335032093E3
:10142000340322EC30E0309337032093360326EC6C
:1014300030E0309339032093380310923B0310922D
:101440003C0310923D0310923E031092D103109280
:10145000D0038093D2039093D303A093D403B0938B
:10146000D5038CE192E09093CF038093CE0310924A
:10147000E5031092E4031092E7031092E603109242
:10148000E9031092E8031092EB031092EA036091D3
:10149000EC036E7F6D7F6093EC036695617081E075
:1014A000682787E30E94990161E087E30E94250293
:1014B000E9EBF2E0E491E093DE03E3E7F2E0E491AC
:1014C000F0E0EE0FFF1FEE5DFD4F8591949190933C
:1014D000E0038093DF0360E086E30E9425028091B1
:1014E000EC0381FD04C061E086E30E94990186E37C
:1014F0008093DA03E8EBF2E0E491E093DB03E2E7C8
:10150000F2E0E491F0E0EE0FFF1FE85FFD4F859100
:1015100094919093DD038093DC038BEC93E00E9425
:10152000C80988EC93E00E94C80985EC93E00E940A
:10153000C80982EC93E00E94C8098FEB93E00C94F9
:10154000C809CF93DF93CDB7DEB72E970FB6F894C7
:10155000DEBF0FBECDBF789484B5826084BD84B5F4
:10156000816084BD85B5826085BD85B5816085BD9E
:1015700080916E00816080936E0010928100809156
:1015800081008260809381008091810081608093DE
:101590008100809180008160809380008091B10003
:1015A00084608093B1008091B00081608093B0002E
:1015B0008091910082608093910080919100816080
:1015C0008093910080919000816080939000809141
:1015D000A10082608093A1008091A100816080932E
:1015E000A1008091A00081608093A00080912101E2
:1015F000826080932101809121018160809321018B
:101600008091200181608093200180917A00846024
:1016100080937A0080917A00826080937A00809132
:101620007A00816080937A0080917A00806880934C
:101630007A001092C1001092E9031092E803109210
:10164000E7031092E6031092E5031092E4038DE99C
:1016500091E09093EB038093EA038091DA0396EF95
:10166000980F943048F02EEC280F243028F022EC0C
:10167000280F283008F061C02DEB30E03093E503EF
:101680002093E4032BE931E03093E7032093E60352
:101690002CE231E03093E9032093E803943050F0DA
:1016A0002EEC280F243030F022EC280FF0E0E0E0A0
:1016B000283010F4E8E6F0E02081943028F032EC95
:1016C000380F383008F440C131E0232B943048F013
:1016D0009EEC980F943028F08E53F0E0E0E08830D4
:1016E00010F4E8E6F0E020832091DA0336EF320FC1
:1016F000343008F42BC18EEC820F843008F426C1FC
:1017000082EC820F883008F024C18DE690E090933F
:10171000E2038093E103343008F01EC12650330BFE
:1017200081E001C0880F2A95EAF78093E303809156
:10173000EA039091EB030197F1F78091E803909110
:10174000E903892B49F1E0911303F091140383E03D
:10175000EE3CF80709F1309739F0A389B4899C91E0
:101760008589809589238C938091EC038E7F80936B
:10177000EC0310921203109211038EEC93E09093FD
:10178000140380931303E091E103F091E20380815D
:101790009091E303892B8083E0913203F09133032E
:1017A00082E08083E0912E03F0912F031082E0917C
:1017B0003003F09131038FEC808310923A03E09173
:1017C0003603F091370386E08083E0913403F09193
:1017D0003503808180618083E0913403F09135038B
:1017E000808188608083E0913403F09135038081AB
:1017F00080688083E0913403F091350380818F7D90
:10180000808361E088E00E94250261E087E00E9419
:10181000250261E084E00E94250261E08CE00E94E4
:10182000250261E08BE00E94250261E085E00E94D4
:10183000250261E086E00E94250261E083E00E94CB
:10184000250261E089E00E94250261E08AE00E94B1
:10185000250267E170E08BEC93E00E94DE0469E111
:1018600070E088EC93E00E94DE046BE170E085ECB0
:1018700093E00E94DE046DE170E082EC93E00E9450
:10188000DE046FE170E08FEB93E00E94DE046AE516
:1018900070E08BEC93E00E9462046AE570E088ECF3
:1018A00093E00E9462046AE570E085EC93E00E9498
:1018B00062046AE570E082EC93E00E94620470E0EA
:1018C00060E08FEB93E00E94620488EE482E83E094
:1018D000582E612C712C94EBA92EB12C18861F82E6
:1018E0001A8619861C861B86CE0107960E94E4077D
:1018F0001A8219821C821B821E821D82CE010196D1
:101900000E94E4070E94CC0697FD3BC083329105FC
:10191000C1F18D871E860D811E810F5F1F4FB8019B
:10192000CE0101960E949B07882361F329813A81A9
:101930008D819E81BE01635F7F4F820F931F0E9446
:1019400020111E830D83DECF34E0BFCE8BE690E006
:10195000DECE90E080E0DBCE88E0223309F4E5CEF5
:1019600084E0233309F4E1CE82E0243309F4DDCEB0
:1019700082EC820F883018F42E53330BD1CE81E0E5
:10198000D4CE8F819885009709F438C169817A8116
:101990006115710509F430C149855A852D813E8153
:1019A0004217530708F428C10E9420118D819E819F
:1019B0009C878B871E821D82CE0101960E94930711
:1019C0001A8219821C821B821E821D82CE01019600
:1019D0000E94E4070B851C850115110519F10330E0
:1019E000110510F003E010E0EF81F885E00FF11F22
:1019F000F08010826F8178856115710509F40FC13F
:101A0000FB0101900020E9F73197AF01461B570B0E
:101A1000CE0101960E94C3078F819885080F191F78
:101A2000F801F08289819A81009709F4FDC00E9433
:101A3000570E7093180360931703CE0101960E940E
:101A400093071A8219821C821B821E821D82CE017C
:101A500001960E94E4070B851C850430110518F1DE
:101A60000730110510F007E010E0EF81F885E00F76
:101A7000F11FF08010826F8178856D5F7F4F09F4D0
:101A8000D7C0FB0101900020E9F73197AF01461B59
:101A9000570BCE0101960E94C3078F819885080FCE
:101AA000191FF801F08289819A81009709F4C5C055
:101AB0000E94570E7093160360931503CE01019692
:101AC0000E9493078AE292E00E940F076091170339
:101AD00070911803072E000C880B990B97FFB1C06B
:101AE0000E94600781E392E00E940F0784E392E086
:101AF0000E940F076091150370911603072E000CCA
:101B0000880B990B97FFA1C00E94600781E392E0C8
:101B10000E940F07CE0107960E949307A09115031C
:101B2000B09116032FEF30E00E940A0FA30192013B
:101B30000E94930E69013093160320931503809140
:101B4000170390911803853B910534F08856914016
:101B50009093180380931703B60185E00E94560204
:101B6000B60186E00E945602B60183E00E9456024A
:101B7000B60189E00E945602B6018AE00E94560230
:101B8000E0901703F09018038701F7FE04C00027C8
:101B900011270E191F09B8018BEC93E00E94620413
:101BA000B80188EC93E00E946204C501801B910B90
:101BB0008C01BC0185EC93E00E946204B80182ECC8
:101BC00093E00E946204F7FC44C060E088E00E9459
:101BD000990160E087E00E94990160E084E00E9442
:101BE000990160E08CE00E94990160E08BE00E9426
:101BF00099010E94310472CE0E94AD0F89819A81B1
:101C000098878F838B819C819A8789878D819E811C
:101C10009C878B871A8219821C821B82CBCECE01B5
:101C200001960E948107F8CE60E070E0CB0101CF01
:101C3000CE0101960E94810730CF60E070E0CB01B9
:101C400039CF4AE00E941C074DCF4AE00E941C0792
:101C50005DCF61E088E00E94990161E087E00E9429
:101C6000990161E084E00E94990161E08CE00E94AA
:101C7000990161E0BBCF8CE192E09093CF03809318
:101C8000CE0380911303909114038E5C934071F402
:101C9000E091E103F091E20390818091E30380956C
:101CA00089238083109214031092130308951F93C5
:101CB000FC0199278827BC01E89411911032E9F3BF
:101CC000193010F01E30C8F31B3251F01D3249F4A8
:101CD000689406C00E947E0E610F711D811D911DCA
:101CE000119110531A30B0F33EF490958095709591
:101CF00061957F4F8F4F9F4F1F910895592F482F08
:101D0000372F262F660F771F881F991F660F771FA3
:101D1000881F991F620F731F841F951F660F771FFF
:101D2000881F991F0895052E97FB1EF400940E94AA
:101D3000AA0E57FD07D00E94C50E07FC03D04EF433
:101D40000C94AA0E50954095309521953F4F4F4FDA
:101D50005F4F089590958095709561957F4F8F4F57
:101D60009F4F08950E94E70EA59F900DB49F900D80
:101D7000A49F800D911D11240895B7FF0C94B20EFD
:101D80000E94B20E821B930B0895A1E21A2EAA1B89
:101D9000BB1BFD010DC0AA1FBB1FEE1FFF1FA2171B
:101DA000B307E407F50720F0A21BB30BE40BF50B18
:101DB000661F771F881F991F1A9469F760957095A1
:101DC000809590959B01AC01BD01CF010895A29F24
:101DD000B001B39FC001A39F700D811D1124911DFF
:101DE000B29F700D811D1124911D0895991B79E0FA
:101DF00004C0991F961708F0961B881F7A95C9F79B
:101E000080950895EE0FFF1F881F8BBF0790F691F6
:101E1000E02D19940E94E70EB7FF0895821B930BE3
:101E200008950F931F93CF93DF938230910510F4A1
:101E300082E090E0E091EF03F091F00330E020E0E9
:101E4000B0E0A0E0309799F42115310509F44AC0BB
:101E5000281B390B24303105D8F58A819B81611507
:101E6000710589F1FB0193838283FE0111C04081DA
:101E700051810281138148175907E0F0481759072B
:101E800099F4109761F012960C93129713961C9385
:101E90003296CF01DF91CF911F910F91089500935A
:101EA000EF031093F003F4CF2115310551F04217E1
:101EB000530738F0A901DB019A01BD01DF01F801E8
:101EC000C1CFEF01F9CF9093F0038093EF03CDCF13
:101ED000FE01E20FF31F8193919322503109398360
:101EE0002883D7CF2091ED033091EE03232B41F4CB
:101EF00020910202309103023093EE032093ED0310
:101F000020910002309101022115310541F42DB7D5
:101F10003EB74091040250910502241B350BE0911D
:101F2000ED03F091EE03E217F307A0F42E1B3F0B35
:101F30002817390778F0AC014E5F5F4F241735073B
:101F400048F04E0F5F1F5093EE034093ED038193D3
:101F500091939FCFF0E0E0E09CCFCF93DF93009789
:101F6000E9F0FC01329713821282A091EF03B09145
:101F7000F003ED0130E020E01097A1F420813181E1
:101F8000820F931F2091ED033091EE03281739073C
:101F900009F061C0F093EE03E093ED03DF91CF9180
:101FA0000895EA01CE17DF07E8F54A815B819E01BB
:101FB00041155105B1F7E901FB83EA834991599134
:101FC000C40FD51FEC17FD0761F480819181029643
:101FD000840F951FE90199838883828193819B8374
:101FE0008A83F0E0E0E012968D919C911397009720
:101FF000B9F52D913C911197CD010296820F931F57
:102000002091ED033091EE032817390739F6309708
:1020100051F51092F0031092EF03B093EE03A093EA
:10202000ED03BCCFD383C28340815181840F951FC0
:10203000C817D90761F44E5F5F4F88819981480FB7
:10204000591F518340838A819B8193838283211509
:10205000310509F0B0CFF093F003E093EF039ECF8A
:10206000FD01DC01C0CF13821282D7CF4F925F9265
:102070006F927F928F929F92AF92BF92CF92DF9298
:10208000EF92FF920F931F93CF93DF938C010097F2
:1020900099F4CB01DF91CF911F910F91FF90EF90B9
:1020A000DF90CF90BF90AF909F908F907F906F9078
:1020B0005F904F900C94110FFC01E60FF71F9C01ED
:1020C00022503109E217F30708F4AEC0D901CD91CF
:1020D000DC911197C617D70720F1C530D10578F0EC
:1020E000CE0104978617970750F0C61BD70B22978F
:1020F000C193D1936D937C93CF010E94AD0FC80122
:10210000DF91CF911F910F91FF90EF90DF90CF90D3
:10211000BF90AF909F908F907F906F905F904F9007
:1021200008955B01AC1ABD0A4C018C0E9D1EA09156
:10213000EF03B091F003512C412CF12CE12C1097BE
:1021400031F58091ED039091EE038815990509F022
:102150005CC04616570608F058C080910002909166
:102160000102009741F48DB79EB74091040250914F
:102170000502841B950BE817F90708F055C0F0938A
:10218000EE03E093ED03F90171836083B8CF8D9185
:102190009C91119712966C90129713967C901397BE
:1021A000A815B90559F56C0142E0C40ED11CCA143A
:1021B000DB0420F1AC014A195B09DA01129615978C
:1021C00080F06282738251834083D9016D937C9346
:1021D000E114F10471F0D7011396FC93EE9312977A
:1021E0008ECF22968C0F9D1FF90191838083F3017E
:1021F000EFCFF093F003E093EF0381CF4816590639
:1022000008F42C017D01D3019ACFCB010E94110F5C
:102210007C01009749F0AE01B8010E941711C80176
:102220000E94AD0F87016BCF10E000E068CFFB018B
:10223000DC0102C001900D9241505040D8F7089542
:10224000FB01DC0101900D920020E1F7089511E0FF
:10225000C5E6D1E000E006C0802FFE010E94020F1B
:102260002196011DC636D10780E00807A9F7F8942A
:02227000FFCF9E
:102272000000F103800000000000C4032E035B0392
:1022820011048C036A037E030000000039062E034A
:102292000C0738069506AB062006416E676C653D55
:0C22A200000D0A0053706565643D0000EB
:00000001FF
