:100000000C94FC000C9424010C9424010C94EF0A31
:100010000C94EF0A0C94EF0A0C9424010C94240124
:100020000C9424010C9424010C9424010C942401BC
:100030000C9424010C9424010C9424010C942401AC
:100040000C944D0A0C9424010C94BD0A0C94970A4C
:100050000C9424010C9424010C9424010C9424018C
:100060000C9424010C942401556E6B6E6F776E20F6
:100070006572726F720041204D49464152452050D1
:1000800049434320726573706F6E646564207769BD
:100090007468204E414B2E00546865204352435FE4
:1000A0004120646F6573206E6F74206D61746368A6
:1000B0002E00496E76616C696420617267756D65AA
:1000C0006E742E00496E7465726E616C206572727A
:1000D0006F7220696E2074686520636F64652E20DE
:1000E00053686F756C64206E6F7420686170706502
:1000F0006E2E004120627566666572206973206EFF
:100100006F742062696720656E6F7567682E005492
:10011000696D656F757420696E20636F6D6D756EA6
:1001200069636174696F6E2E00436F6C6C697369EB
:100130006F6E2064657465637465642E0045727229
:100140006F7220696E20636F6D6D756E6963617487
:10015000696F6E2E00537563636573732E0052656D
:100160006164696E67206661696C65643A2000416C
:10017000757468656E7469636174696F6E20666119
:10018000696C65643A20002A2A4341524420444560
:100190005445435445442A2A000000000024002707
:1001A000002A00000000080002010000030407000C
:1001B00000000000000000000000002300260029CD
:1001C0000000000000250028002B000404040404A3
:1001D00004040402020202020203030303030301F4
:1001E00002040810204080010204081020010204CB
:1001F00008102000670B081111241FBECFEFD8E0B4
:10020000DEBFCDBF23E0A8E0B2E001C01D92A93857
:10021000B207E1F712E0A0E0B1E0E2EDF6E202C0E1
:1002200005900D92A830B107D9F710E0CBEFD0E0E0
:1002300004C02197FE010E945B11CA3FD107C9F794
:100240000E94480C0C945C130C9400008CBD9DBD66
:100250000895833081F028F4813099F08230A9F03C
:1002600008958730A9F08830C9F08430B1F48091C6
:1002700080008F7D03C0809180008F778093800005
:10028000089584B58F7784BD089584B58F7DFBCFA5
:100290008091B0008F778093B00008958091B00076
:1002A0008F7DF9CF1F93CF93DF93282F30E0F90193
:1002B000ED55FE4F8491F901E152FE4FD491F901C1
:1002C000E553FE4FC491CC23A9F0162F81110E9453
:1002D0002901EC2FF0E0EE0FFF1FEF53FE4FA59129
:1002E000B4918FB7F894EC91111108C0D095DE232A
:1002F000DC938FBFDF91CF911F910895DE2BF8CF54
:10030000CF93DF9390E0FC01E152FE4F249185539F
:100310009E4FFC0184918823D1F090E0880F991FB3
:10032000FC01E756FE4FA591B491FC01EF53FE4F3F
:10033000C591D49161110EC09FB7F8948C91E22FB2
:10034000E0958E238C932881E223E8839FBFDF9181
:10035000CF9108958FB7F894EC91E22BEC938FBF77
:10036000F6CF1F93CF93DF93182FEB0161E00E942C
:100370008001209739F460E0812FDF91CF911F91A8
:100380000C945201CF3FD10511F461E0F5CFE12F7C
:10039000F0E0ED55FE4FE491E33031F140F4E1300F
:1003A000B1F0E230E1F0C038D1057CF7E4CFE730BE
:1003B00029F1E83059F1E430B1F780918000806292
:1003C00080938000D0938B00C0938A0004C084B5D2
:1003D000806884BDC7BDDF91CF911F91089584B51A
:1003E000806284BDC8BDF7CF809180008068809313
:1003F0008000D0938900C0938800EDCF8091B00039
:1004000080688093B000C093B300E5CF8091B000C6
:1004100080628093B000C093B400DDCF3FB7F89402
:100420008091540290915502A0915602B0915702CA
:1004300026B5A89B05C02F3F19F00196A11DB11D3F
:100440003FBFBA2FA92F982F8827BC01CD01620F7B
:10045000711D811D911D42E0660F771F881F991F36
:100460004A95D1F708958F929F92AF92BF92CF9203
:10047000DF92EF92FF920E940E024B015C0182E339
:10048000C82ED12CE12CF12C0E940E02681979099A
:100490008A099B09683E734081059105A8F321E014
:1004A000C21AD108E108F10888EE880E83E0981E90
:1004B000A11CB11CC114D104E104F10429F7FF907F
:1004C000EF90DF90CF90BF90AF909F908F90089566
:1004D000AF92BF92CF92DF92EF92FF920F931F9352
:1004E000CF93DF936C017B018B01040F151FEB0190
:1004F0005E01AE18BF08C017D10759F06991D60147
:10050000ED91FC910190F081E02DC6010995892BB8
:1005100079F7C501DF91CF911F910F91FF90EF9077
:10052000DF90CF90BF90AF900895FC01538D448D24
:10053000252F30E0842F90E0821B930B541710F08E
:10054000CF96089501970895FC01918D828D98179B
:1005500061F0A28DAE0FBF2FB11D5D968C91928D73
:100560009F5F9F73928F90E008958FEF9FEF0895A4
:10057000FC01918D828D981731F0828DE80FF11D6D
:10058000858D90E008958FEF9FEF0895FC01918D88
:10059000228D892F90E0805C9F4F821B91098F7381
:1005A0009927089588E592E00E94C60221E0892BF0
:1005B00009F420E0822F089580E090E0892B29F053
:1005C0000E94D20281110C9400000895FC01A48DB8
:1005D000A80FB92FB11DA35ABF4F2C91848D90E065
:1005E00001968F739927848FA689B7892C93A08948
:1005F000B1898C91837080648C93938D848D9813D2
:1006000006C00288F389E02D80818F7D8083089564
:10061000EF92FF920F931F93CF93DF93EC0181E052
:10062000888F9B8D8C8D98131AC0E889F9898081F9
:1006300085FF15C09FB7F894EE89FF896083E8892C
:10064000F98980818370806480839FBF81E090E01E
:10065000DF91CF911F910F91FF90EF900895F62EAB
:100660000B8D10E00F5F1F4F0F731127E02E8C8D45
:100670008E110CC00FB607FCFACFE889F98980818A
:1006800085FFF5CFCE010E94E602F1CFEB8DEC0F96
:10069000FD2FF11DE35AFF4FF0829FB7F8940B8FA7
:1006A000EA89FB8980818062CFCF0F931F93CF931C
:1006B000DF938C01D0E0C0E0F801EC0FFD1F6491E6
:1006C000662341F088E592E00E940803892B11F02F
:1006D0002196F2CFCE01DF91CF911F910F91089516
:1006E000CF93DF93EC01888D8823B9F0AA89BB8969
:1006F000E889F9898C9185FD03C0808186FD0DC054
:100700000FB607FCF7CF8C9185FFF2CF808185FF74
:10071000EDCFCE010E94E602E9CFDF91CF9108959F
:1007200020914A0230914B022817390771F49091B9
:10073000480280914902981741F0E0914802F0E0A8
:10074000E85FFD4F808190E008958FEF9FEF08955F
:100750000895EF92FF920F931F93CF93DF93DC01E5
:100760005C96ED90FC905D97E114F10479F481E0E2
:1007700090E013969C938E93129790E080E0DF9127
:10078000CF911F910F91FF90EF9008955196ED91A9
:10079000FC91529750968C915097982F90950FB747
:1007A0005E962C915E97122F127021FD6095F89441
:1007B0002081112319F1282B2083E7012197F1F7DC
:1007C00028E0462F50E0308160FF1AC0382B30837C
:1007D000E7012197F1F7BA0175956795215089F7DF
:1007E000112381F08081892380830FBF5C968D91D6
:1007F0009C910197F1F781E090E0C1CF2923DCCFF4
:100800003923E5CF9081892BEFCF20914A02309197
:100810004B022817390761F4809149022091480260
:1008200090E0805C9F4F821B91098F7399270895F8
:1008300090E080E0089520914A0230914B02281701
:100840003907B9F49091480280914902981789F0CC
:10085000E0914802F0E0E85FFD4F8081209148027E
:1008600030E02F5F3F4F2F7333272093480290E0F3
:1008700008958FEF9FEF089590E080E00895BC0108
:100880006E5F7F4FDC01ED91FC910190F081E02DD6
:1008900040E0099591E0811190E0892F089584301E
:1008A000F1F050F4813091F030F1823091F08330EA
:1008B00099F088E690E008958630B9F098F0873096
:1008C000B9F08F3FB1F786E790E008958DE391E0AE
:1008D000089589E291E008958FE091E0089583EF13
:1008E00090E0089584EC90E0089582EB90E0089504
:1008F00088E990E0089585E591E0089508958EBD1A
:1009000000000DB407FEFDCF8EB50895DF92EF9283
:10091000FF920F931F93CF93DF937C01062FD42E6A
:10092000152F80E590E00E94260160E0F7018685A2
:100930000E94520182E10E947F04CD2DD12F0C0F25
:100940001D2F111DC017D10721F089910E947F042E
:10095000F9CF61E0F7018685DF91CF911F910F916B
:10096000FF90EF90DF900C9452011F93CF93DF9391
:10097000EC01162F80E590E00E94260160E08E8554
:100980000E945201812F80680E947F0480E00E94B3
:100990007F04182F61E08E850E945201812FDF9124
:1009A000CF911F9108950F931F93CF93DF93EC0185
:1009B000062F142F80E590E00E94260160E08E85CE
:1009C0000E945201802F0E947F04812F0E947F0489
:1009D00061E08E85DF91CF911F910F910C945201B0
:1009E000CF92DF92EF92FF920F931F93CF93DF93FB
:1009F000EC016B01F42E890140E062E00E94D30417
:100A000044E06AE0CE010E94D30440E864E1CE01F4
:100A10000E94D304A6016F2DCE010E94860443E0FC
:100A200062E0CE010E94D3048FB7F894C0905002C8
:100A3000D0905102E0905202F09053028FBF89E5AE
:100A4000C80ED11CE11CF11C6AE0CE010E94B50465
:100A500082FF1BC040E062E0CE010E94D30464E448
:100A6000CE010E94B504F801808362E4CE010E94A9
:100A7000B504F801818380E0DF91CF911F910F9140
:100A8000FF90EF90DF90CF9008952FB7F89480916A
:100A9000500290915102A0915202B09153022FBF87
:100AA0008C159D05AE05BF0578F283E0E5CF2F924A
:100AB0003F924F925F926F927F928F929F92AF92EE
:100AC000BF92CF92DF92EF92FF920F931F93CF933B
:100AD000DF9300D0CDB7DEB73C01162F942E29014D
:100AE00080E0A114B10411F0F5018081382C32941A
:100AF00090EF3922380E40E062E0C3010E94D30437
:100B00004FE768E0C3010E94D30440E864E1C301F9
:100B10000E94D304A201602FC3010E948604432DCA
:100B20006AE1C3010E94D304412F62E0C3010E9425
:100B3000D3041C3051F46AE1C3010E94B504482F6C
:100B400040686AE1C3010E94D3048FB7F8942090F3
:100B500050023090510240905202509053028FBF89
:100B6000F4E22F0E311C411C511C68E0C3010E94AD
:100B7000B504982F992109F0BFC080FF16C083E00B
:100B80000F900F90DF91CF911F910F91FF90EF90F9
:100B9000DF90CF90BF90AF909F908F907F906F909D
:100BA0005F904F903F902F9008952FB7F8948091C9
:100BB000500290915102A0915202B09153022FBF66
:100BC00082159305A405B50580F2D9CFE114F1048F
:100BD00009F467C0C114D10409F463C064E1C3011E
:100BE0000E94B504982EF6018081891508F47EC014
:100BF00090829920C9F180E590E00E94260160E092
:100C0000F30186850E9452019A9482E90E947F0432
:100C1000882099F00FEF10E001C0000F8A94EAF7E6
:100C200082E90E947F04902F9095F7012081922302
:100C30008023982B9083882483948701080D111DAD
:100C4000891440F482E90E947F04F80181938F01A6
:100C50008394F6CF80E00E947F04F801808361E0F6
:100C6000F30186850E94520168E1C3010E94B50428
:100C70008770A114B10411F0F501808353FC38C0D2
:100C8000E114F104B9F1C114D104A1F19F899923B0
:100C900089F1F6014081413031F4843029F58FEF3C
:100CA0006FCF80E0EBCF4230F8F081111DC0425091
:100CB0009E012F5F3F4FB701C3010E94F0048111D5
:100CC0005FCFF6019081E90EF11CF7013297208188
:100CD0009981291309C0F1E0EF1AF108F701208189
:100CE0009A81291709F44CCF87E04ACF84E048CF96
:100CF00082E046CF80E044CF6CE0C3010E94B5049F
:100D0000582E837109F462CF81E03ACF0F931F937D
:100D1000CF93DF938C01D62FC42F0E94B504C095CA
:100D20004C2F48236D2FC801DF91CF911F910F9158
:100D30000C94D3046F927F928F92AF92BF92CF9216
:100D4000DF92EF92FF920F93CF93DF9300D000D00A
:100D50001F92CDB7DEB73C0182E08D8340E064E2B4
:100D6000C3010E94D30440E066E2C3010E94D304A1
:100D700046E268E4C3010E94D30486E28B838D813E
:100D80008230C8F140E86CE1C3010E94860687E02A
:100D90008C831F92812CCE0104965C0101966C011C
:100DA00004977C0101E09E012D5F3F4F40E36CE022
:100DB000C3010E945705982F0F90811119C08D8192
:100DC0008230C9F48C81811116C081E00F900F90A0
:100DD0000F900F900F90DF91CF910F91FF90EF90B8
:100DE000DF90CF90BF90AF908F907F906F900895DD
:100DF00081E0923059F380E0E9CF2F923F924F92F9
:100E00005F926F927F928F929F92AF92BF92CF929A
:100E1000DF92EF92FF920F931F93CF93DF93CDB7A3
:100E2000DEB72E970FB6F894DEBF0FBECDBF06E03B
:100E3000413508F046C14E873B012C0140E86CE18A
:100E40000E94860683E989832E85222329F081E08A
:100E5000F3019081953008F480E0992493941C86E6
:100E60009C85990F990F990F1E85191B17FD10E08E
:100E700032E0882319F098E89B8333E021E0912F3A
:100E8000977009F420E0912F959595959595290FE8
:100E9000D1F094E0811193E0291708F4922F2C856A
:100EA000E22FF0E03196E60DF71D232F4191A1E0EE
:100EB000B0E0AC0FBD1FA20FB11D4C932F5F422FAE
:100EC000431B491798F38111185F10320CF484C04A
:100ED00080E78A838B819C8189279D8189279E81D8
:100EE00089278F839E01285F3F4F47E0BE016F5FD8
:100EF0007F4FC2010E94F004082F8111E2C01A86C0
:100F000093E09B871D87FE0137961F0109E08A84C5
:100F1000482D4295407F480D6AE1C2010E94D304EA
:100F20001F92CE010A965C01FE013B966F01710192
:100F30009E012F5F3F4F40E36CE0C2010E945705C6
:100F4000082F0F90823009F065C06CE1C2010E9449
:100F5000B50485FDB6C08F7109F480E2282F30E01A
:100F6000412F110F550B421753070CF09EC0182F3D
:100F7000E22FE595E595E595EF5F922F977081E07B
:100F800009F480E0E80F81E090E08C0F9D1F8E0F48
:100F9000911DFC01215031092770332781E090E039
:100FA00002C0880F991F2A95E2F79C018081822B4D
:100FB00080838BCF85E98983FE85FF2331F081E033
:100FC000F3019081983008F04BCF80E049CF87E95A
:100FD0008983F6E0FC87F9CF912F97709A87812F4C
:100FE0008595859585958E5F282F2295207F290FE1
:100FF0002A8301E0911101C000E0080F222423940C
:10100000312C2C0E3D1E280E311CF9E0F81BFB87FD
:101010001D877DCF811155C010E29D8590320CF463
:1010200057CF8B81883809F042C083E093E02C854C
:10103000E22FF0E03196E60DF71D980FA1E0B0E049
:10104000AC0FBD1FA80FB11D2C9121938F5F891389
:10105000F5CF8B858C87833009F04DC08A8581114F
:101060004AC09E012D5F3F4F41E0B101C2010E9485
:10107000F004082F811125C09B81F1018181981313
:101080003CC09C818281981338C0808182FF12C04D
:101090009394F2E09F1609F48DCF23E0921609F4A1
:1010A00096CF81E0981609F4CDCE05E00AC082E023
:1010B00094E0BDCFF3018387892D880F980E939418
:1010C0009082802F2E960FB6F894DEBF0FBECDBF54
:1010D000DF91CF911F910F91FF90EF90DF90CF9014
:1010E000BF90AF909F908F907F906F905F904F9048
:1010F0003F902F90089501E0E4CF07E0E2CF0F93F7
:101100001F93CF93DF93082F162FD42FC8E06D2F96
:10111000661F6627661F802F0E945201DD0F61E067
:10112000812F0E94520160E0812F0E945201C15024
:1011300071F7DF91CF911F910F9108950F931F9336
:10114000CF93DF93082F162F60E0809103030E9456
:101150005201D0E0C0E0809105038C171D0689F094
:1011600084F0402F60910403809102030E947F0865
:10117000412F60910403809102030E947F08219611
:10118000EACF60E0809103030E94520161E0809108
:101190000303DF91CF911F910F910C9452012F9275
:1011A0003F924F925F926F927F928F929F92AF92F7
:1011B000BF92CF92DF92EF92FF920F931F93CF9344
:1011C000DF9300D000D01F92CDB7DEB77C01FC01C9
:1011D0002080312C8180912CF8E08F16910409F445
:1011E0006CC002E013E09D838C83F12CE12C412C38
:1011F000512C32014394E214F3040CF0D0C08E2D34
:10120000869586958695E82FF0E0FA83E983D12CC0
:10121000C12C8E2D87708F5F8B83C814D9040CF07E
:10122000B3C0F0E5EF16F1040CF0AAC028E0C21636
:10123000D1040CF0A5C0D301C2010C2C04C0880F4E
:10124000991FAA1FBB1F0A94D2F7F8014481EC81B1
:10125000FD81228130E00C2C02C0359527950A943F
:10126000E2F720FF7BC0842BF801848360E080914B
:1012700003030E945201B12CA12C809105038A1511
:101280001B0409F00CF472C0609104038091020306
:1012900029813A812A153B0509F063C04B810E94E0
:1012A0007F08F801448160910403809102030E9449
:1012B0007F08FFEFAF1ABF0AE0CF10E000E0021591
:1012C00013050CF06CC0003511050CF044C0F7019B
:1012D000E00FF11F22812983A02EA694A694A69444
:1012E000B12C60E0809103030E945201D12CC12CEB
:1012F000302F37703F5F3B83809105038C151D04B1
:10130000D9F0D4F06091040380910203AC14BD04C1
:1013100071F44B810E947F084981609104038091A0
:1013200002030E947F088FEFC81AD80AE5CF40E079
:101330000E947F0840E0F1CF60E0809103030E94AB
:10134000520161E0809103030E945201F801EE5FB7
:10135000FC4F998194830F5F1F4FB1CF80958423F9
:1013600083CF40E00E947F0840E09DCF60E0809105
:1013700003030E94520161E0809103030E94520125
:101380002FEFC21AD20A49CF3FEFE31AF30A0F5FD9
:101390001F4F8C819D8101969D838C832CCF0F9054
:1013A0000F900F900F900F90DF91CF911F910F91A1
:1013B000FF90EF90DF90CF90BF90AF909F908F9075
:1013C0007F906F905F904F903F902F900895FC0119
:1013D00001900020E9F73197AF01481B590BBC0180
:1013E00088E592E00C946802CF93DF930E94550346
:1013F000EC0186E691E00E94E7098C0F9D1FDF91CA
:10140000CF910895CF93DF930E94E709EC0186E620
:1014100091E00E94E7098C0F9D1FDF91CF91089505
:10142000FC0124813581232B39F421E0FB018081EB
:10143000882349F020E007C0808191810E944C13ED
:1014400021E0892BB9F7822F08950F931F93CF9333
:10145000DF93EC0188819981009759F02A813B81C3
:101460002617370730F081E0DF91CF911F910F9160
:1014700008958B016F5F7F4F0E948612009759F08D
:10148000998388831B830A832C813D81232B59F701
:10149000FC011082E8CF80E0E7CF1F920F920FB6D9
:1014A0000F9211242F933F938F939F93AF93BF93EA
:1014B0008091500290915102A0915202B09153023A
:1014C00030914F0223E0230F2D3758F50196A11DCF
:1014D000B11D20934F028093500290935102A0932C
:1014E0005202B09353028091540290915502A09100
:1014F0005602B09157020196A11DB11D809354026E
:1015000090935502A0935602B0935702BF91AF91AA
:101510009F918F913F912F910F900FBE0F901F9031
:10152000189526E8230F0296A11DB11DD2CF1F9258
:101530000F920FB60F9211242F933F934F935F9307
:101540006F937F938F939F93AF93BF93EF93FF938B
:1015500088E592E00E94E602FF91EF91BF91AF9182
:101560009F918F917F916F915F914F913F912F91BB
:101570000F900FBE0F901F9018951F920F920FB6ED
:101580000F9211242F938F939F93EF93FF93E091EA
:101590006802F09169028081E0916E02F0916F0221
:1015A00082FD1BC09081809171028F5F8F732091AB
:1015B0007202821741F0E0917102F0E0E85AFD4FAB
:1015C000958F80937102FF91EF919F918F912F9151
:1015D0000F900FBE0F901F9018958081F4CF1F922F
:1015E0000F920FB60F9211242F933F934F935F9357
:1015F0006F937F938F939F93AF93BF93EF93FF93DB
:10160000E0914A02F0914B02309749F0A685B785E8
:101610008585968D91FF14C09C918923A1F4FF913B
:10162000EF91BF91AF919F918F917F916F915F915A
:101630004F913F912F910F900FBE0F901F901895D3
:101640009C91892361F7A389B4899C9185898095B0
:1016500089238C93868997890197F1F7608D718D25
:10166000A685B785558538E020E0CB010197F1F7D5
:10167000822F90E095958795282F4C91452309F06E
:101680002068315091F7868D81FD20958091490227
:1016900090E001968F73992730914802381799F09E
:1016A000A0914902B0E0A85FBD4F2C9380934902FE
:1016B000828D938D0197F1F7A389B4898C919589D7
:1016C000892B8C93ACCF868D8160868FF1CF109261
:1016D0005B0210925A0288EE93E0A0E0B0E08093A3
:1016E0005C0290935D02A0935E02B0935F022CE3D4
:1016F00031E0309359022093580225EC30E03093CA
:1017000065022093640224EC30E03093670220935A
:10171000660220EC30E0309369022093680221ECED
:1017200030E030936B0220936A0222EC30E0309379
:101730006D0220936C0226EC30E030936F02209310
:101740006E02109271021092720210927302109245
:1017500074022FEF2093F5021092F7021092F60216
:1017600010920103109200034FEF5FEFBA01409314
:10177000FC025093FD026093FE027093FF0220E68C
:1017800031E0309376032093750320E120938303A7
:101790002FE02093840310925903109258038093F2
:1017A0005A0390935B03A0935C03B0935D038EE4B4
:1017B00091E0909357038093560310926D0310921B
:1017C0006C0310926F0310926E03109271031092CB
:1017D00070031092730310927203609174036E7F12
:1017E0006D7F609374036695617081E0682785E082
:1017F0000E94520161E085E00E948001E4EEF1E088
:10180000E491E0936603E0EDF1E0E491F0E0EE0FA7
:10181000FF1FEF53FE4F859194919093680380933F
:10182000670360E084E00E9480018091740381FD81
:1018300004C061E084E00E94520184E0809362036E
:10184000E3EEF1E0E491E0936303EFECF1E0E49187
:10185000F0E0EE0FFF1FE954FE4F859194919093B5
:1018600065038093640383E08093020382E08093A6
:10187000030388E08093040381E080930503E6E09E
:10188000F3E086E593E011928E179F07E1F7089544
:10189000CF93DF93CDB7DEB7A5970FB6F894DEBF31
:1018A0000FBECDBF789484B5826084BD84B581605D
:1018B00084BD85B5826085BD85B5816085BD80911B
:1018C0006E00816080936E00109281008091810093
:1018D000826080938100809181008160809381008B
:1018E000809180008160809380008091B10084604D
:1018F0008093B1008091B00081608093B0008091AE
:101900007A00846080937A0080917A00826080936C
:101910007A0080917A00816080937A0080917A00C9
:10192000806880937A001092C10061E08CE00E9490
:10193000800161E08AE00E94800161E080E10E9414
:10194000800161E081E10E94800161E089E00E9404
:1019500080010E943302E0916802F091690282E006
:101960008083E0916402F09165021082E09166024A
:10197000F09167028FEC808310927002E0916C020C
:10198000F0916D0286E08083E0916A02F0916B0233
:10199000808180618083E0916A02F0916B02808196
:1019A00088608083E0916A02F0916B028081806898
:1019B0008083E0916A02F0916B0280818F7D808349
:1019C000109271031092700310926F0310926E03C5
:1019D00010926D0310926C038DE991E09093730364
:1019E0008093720390916203963108F047C02DEB0B
:1019F00030E030936D0320936C032BE931E030939A
:101A00006F0320936E032CE231E030937103209337
:101A100070032091680084E0983048F031E09E30F7
:101A200008F430E081E001C0880F3A95EAF7822B94
:101A3000809368002DE630E0983050F02BE630E0DF
:101A40009E3030F02CE630E0963110F030E020E0AF
:101A500030936A0320936903292F30E0983008F00F
:101A600091C081E001C0880F9A95EAF780936B03DB
:101A700080917203909173030197F1F78091700345
:101A800090917103892B49F1E0914A02F0914B0248
:101A900083E0E635F80709F1309739F0A389B48976
:101AA0009C918589809589238C93809174038E7F86
:101AB00080937403109249021092480286E593E0E5
:101AC00090934B0280934A02E0916903F0916A037C
:101AD000808190916B03892B808389E691E00E943D
:101AE000020A61E0809102030E94800161E080911E
:101AF00004030E94800161E0809103030E94800141
:101B000061E0809104030E94520167E08BE00E9433
:101B10009E0860E089E00E949E0861E08CE00E94DF
:101B20009E0860E08FE00E949E0801E010E060E007
:101B3000809103030E945201480191E0891A9108A3
:101B400072E0472E73E0572E312C212C8091050333
:101B50008215130421F11CF1402F60910403809140
:101B600002030E947F0840E0609104038091020319
:101B70000E947F08F2011482FFEF2F1A3F0A480CDF
:101B8000591CE4CF9E3040F42850310981E001C057
:101B9000880F2A95EAF76ACF2E503109F7CF60E017
:101BA000809103030E94520161E0809103030E942F
:101BB00052010F5F1F4F0930110509F0B8CFE6E061
:101BC000F3E086E593E011928E179F07E1F76FE04F
:101BD0008AE00E949E0868E08AE00E949E081FB783
:101BE000F89480914C02811127C0E5EDF1E08491D9
:101BF000E9EEF1E09491E82FF0E0EE0FFF1FE756D9
:101C0000FE4FA591B491EC91E92321F461E08AE0C3
:101C10000E94520161E08AE00E9480018CB58061DF
:101C20008CBD8CB580648CBD61E08DE00E9480012C
:101C300061E08BE00E94800180914C028F5F809375
:101C40004C021FBF61E0809183030E94800161E02C
:101C5000809183030E945201809184038F3F09F495
:101C600027C160E00E9480012091840330E0F901E7
:101C7000ED55FE4F8491F901E152FE4F9490F90128
:101C8000E553FE4F1491111104C161E0809184036A
:101C90000E94800160E0809184030E94520183E0F1
:101CA00090E00197F1F761E0809184030E94520176
:101CB0000E94330240E064E285E793E00E94D3048F
:101CC00040E066E285E793E00E94D30446E268E4E0
:101CD00085E793E00E94D30440E864E585E793E05C
:101CE0000E94D30449EA66E585E793E00E94D304A5
:101CF00043E068E585E793E00E94D30448EE6AE597
:101D000085E793E00E94D30440E46AE285E793E02C
:101D10000E94D3044DE362E285E793E00E94D3047E
:101D200068E285E793E00E94B504982F93709330A2
:101D300039F0482F436068E285E793E00E94D304BE
:101D40008AE791E00E94020A2E018FE1480E511CA1
:101D5000FE013D96FDA3ECA31E01F1E12F0E311C07
:101D60008FEF898F8A8F8B8F8C8F8D8F8E8F85E7EA
:101D700093E00E949A06882309F44BC085E793E01C
:101D80000E943F04882309F444C087E891E00E9440
:101D9000F40982E18BA380E6898384E08A83DE01F3
:101DA0005996FE0133969E2E1F2F8D9181934A16D0
:101DB0005B06D9F7E0917703E150FF0BEB58FC4F3E
:101DC000DE01199681918D938CA19DA18A179B07A5
:101DD000C9F71F92812CB12CA12CD12CC12CF12C34
:101DE000E12C0CE09E012F5F3F4F40E16EE085E764
:101DF00093E00E945705082F0F90882309F46BC0C9
:101E00008FE691E00E945503802F0E944F040E94AC
:101E1000F40980914D0290914E028615970561F16B
:101E2000F1E06F16710409F063C163E486E593E0A5
:101E30000E94A9038EEC91E00E94020A88E291E0E0
:101E40000E94CF086FEF70E089E00E94B10161E06D
:101E500081E10E94520160E080E10E9452016FEF37
:101E600070E08AE00E94B10161E08CE00E945201C2
:101E700070924E0260924D0280E090E0892B09F44E
:101E80006FCF0E94D202882309F46ACF0E9400001B
:101E900067CF81110E942901E12FF0E0EE0FFF1FB3
:101EA000E954FE4FA591B491EC919E2209F4EDCE38
:101EB0004FE062E085E793E00E94D30413E00E94C4
:101EC000330262E085E793E00E94B50484FFF2CE1E
:101ED0001150A9F7EFCE8BA1823170F180E3898395
:101EE00084E08A83292D312F42E0BE016F5F7F4F4E
:101EF00085E793E00E94F004182F811117C081E05C
:101F00008F93812CB12CA12CFE01B3966F01CE01D1
:101F100001967C0104E09C0140E36CE085E793E0DE
:101F20000E945705182F0F90882341F08EE591E00D
:101F30000E945503812F69CF14E0F8CF1C8A1B8AB9
:101F40001E8A1D8A188E1F8A70E060E0CE014396BB
:101F50000E94250A2B893C8981117BC021153105FE
:101F600019F0C9010E94FD111C8A1B8A188E1F8A54
:101F70001E8A1D8AFE0131963F01F30181913F01C6
:101F80008032C1F08F8F18A20F89188D0F5F1F4FFD
:101F9000B801CE0143960E94250A882359F02B8967
:101FA0003C898F89988DB201820F931F0E9455132F
:101FB000188F0F8B2614370401F784E891E00E94F4
:101FC000E7094F89588D6B897C8988E592E00E94EA
:101FD000680286E691E00E94E70980E58F8F18A2EB
:101FE0009E012F5D3F4F42E0B20185E793E00E94E2
:101FF000F004811111C01F92812CB12CA12CD12C85
:10200000C12CF12CE12C04E0920140E36CE085E767
:1020100093E00E9457050F9048E060E185E793E068
:102020000E9486066BE871E0CE0143960E94100A7A
:102030008823B9F08DE891E00E94020A6624639437
:10204000712C8B899C89009709F4E3CE0E94FD11C5
:10205000E0CE188E1F8A68E671E0C9010E94551310
:1020600089CF63E971E0CE0143960E94100A88236C
:1020700041F085E991E00E94020A32E0632E712C62
:10208000E0CF6DE971E0CE0143960E94100A8823EB
:1020900041F08FE991E00E94020A23E0622E712C48
:1020A000D0CF68EA71E0CE0143960E94100A8823DF
:1020B00041F08BEA91E00E94020A94E0692E712CB3
:1020C000C0CF65EB71E0CE0143960E94100A8823D1
:1020D00041F087EB91E00E94020A85E0682E712CA6
:1020E000B0CF82EC91E00E94020A712C612CA9CF42
:1020F00082E06816710409F567E486E593E00E94C2
:10210000A90384ED91E00E94020A8EE191E00E9411
:10211000CF086FEF70E089E00E94B10161E081E1DA
:102120000E94520160E080E10E94520170E060E094
:102130008AE00E94B10160E098CE93E069167104D4
:10214000C1F464E486E593E00E94A9038CED91E07C
:102150000E94020A84E191E00E94CF086FEF70E0D4
:1021600089E00E94B10160E081E10E94520161E0DA
:10217000DACFE4E06E167104E9F462E586E593E0F7
:102180000E94A90384EE91E00E94020A8AE091E095
:102190000E94CF0868E270E089E00E94B10161E02E
:1021A00081E10E94520160E080E10E94520160EAF8
:1021B00070E057CEF5E06F167104E9F460E586E54E
:1021C00093E00E94A9038EEE91E00E94020A80E053
:1021D00091E00E94CF086FEF70E089E00E94B101AA
:1021E00060E081E10E94520160E080E10E945201C2
:1021F0006FEF70E09DCF6114710409F03DCE88EF60
:1022000091E00E94020A10924E0210924D0234CECA
:102210008EE491E0909357038093560380914A0295
:1022200090914B028655934071F4E0916903F091CF
:102230006A03908180916B0380958923808310923B
:102240004B0210924A0208952F923F924F925F9252
:102250006F927F928F929F92AF92BF92CF92DF92B6
:10226000EF92FF920F931F93CF93DF93CDB7DEB71B
:10227000CA1BDB0B0FB6F894DEBF0FBECDBF0994AF
:102280002A88398848885F846E847D848C849B8406
:10229000AA84B984C884DF80EE80FD800C811B8114
:1022A000AA81B981CE0FD11D0FB6F894DEBF0FBE43
:1022B000CDBFED010895EE0FFF1F0590F491E02DC5
:1022C00009940F931F93CF93DF938230910510F4FD
:1022D00082E090E0E0918703F091880330E020E015
:1022E000B0E0A0E0309799F42115310509F44AC017
:1022F000281B390B24303105D8F58A819B81611563
:10230000710589F1FB0193838283FE0111C0408135
:1023100051810281138148175907E0F04817590786
:1023200099F4109761F012960C93129713961C93E0
:102330003296CF01DF91CF911F910F9108950093B5
:10234000870310938803F4CF2115310551F042170C
:10235000530738F0A901DB019A01BD01DF01F80143
:10236000C1CFEF01F9CF9093880380938703CDCF3E
:10237000FE01E20FF31F81939193225031093983BB
:102380002883D7CF2091850330918603232B41F4F6
:1023900020913401309135013093860320938503D9
:1023A00020913201309133012115310541F42DB7CF
:1023B0003EB74091360150913701241B350BE09117
:1023C0008503F0918603E217F307A0F42E1B3F0B61
:1023D0002817390778F0AC014E5F5F4F2417350797
:1023E00048F04E0F5F1F50938603409385038193FF
:1023F00091939FCFF0E0E0E09CCFCF93DF930097E5
:10240000E9F0FC01329713821282A0918703B09108
:102410008803ED0130E020E01097A1F420813181A4
:10242000820F931F20918503309186032817390767
:1024300009F061C0F0938603E0938503DF91CF91AB
:102440000895EA01CE17DF07E8F54A815B819E0116
:1024500041155105B1F7E901FB83EA83499159918F
:10246000C40FD51FEC17FD0761F48081918102969E
:10247000840F951FE90199838883828193819B83CF
:102480008A83F0E0E0E012968D919C91139700977B
:10249000B9F52D913C911197CD010296820F931FB2
:1024A00020918503309186032817390739F6309734
:1024B00051F51092880310928703B0938603A0937E
:1024C0008503BCCFD383C28340815181840F951F84
:1024D000C817D90761F44E5F5F4F88819981480F13
:1024E000591F518340838A819B8193838283211565
:1024F000310509F0B0CFF0938803E09387039ECFB6
:10250000FD01DC01C0CF13821282D7CFB0E0A0E082
:10251000ECE8F2E10C9426118C01009751F4CB0108
:102520000E9461118C01C801CDB7DEB7E0E10C94C7
:102530004211FC01E60FF71F9C0122503109E217FE
:10254000F30708F49DC0D901CD91DC911197C6170E
:10255000D70798F0C530D10530F3CE010497861720
:10256000970708F3C61BD70B2297C193D1936D939E
:102570007C93CF010E94FD11D6CF5B01AC1ABD0A3E
:102580004C018C0E9D1EA0918703B0918803512CA5
:10259000412CF12CE12C109731F58091850390911D
:1025A00086038815990509F05CC04616570608F0A1
:1025B00058C08091320190913301009741F48DB75A
:1025C0009EB74091360150913701841B950BE81757
:1025D000F90708F055C0F0938603E0938503F901ED
:1025E00071836083A0CF8D919C91119712966C900E
:1025F000129713967C901397A815B90559F56C019D
:1026000042E0C40ED11CCA14DB0420F1AC014A190B
:102610005B09DA011296159780F06282738251830A
:102620004083D9016D937C93E114F10471F0D701DB
:102630001396FC93EE93129776CF22968C0F9D1FE4
:10264000F90191838083F301EFCFF0938803E09346
:10265000870369CF4816590608F42C017D01D30180
:102660009ACFCB010E9461117C01009749F0AE0125
:10267000B8010E944313C8010E94FD11870153CF86
:1026800010E000E050CFFB01DC0102C001900D9290
:1026900041505040D8F70895FB01DC018D91019025
:1026A00080190110D9F3990B0895FB01DC01019009
:1026B0000D920020E1F7089510E0CBEFD0E004C0C8
:1026C000FE010E945B112196CC3FD107C9F7F89417
:0226D000FFCF3A
:1026D200080808083E493006493E080822414936A2
:1026E200427F40000808625149462745453908089B
:1026F20062514946364949360808274545393E411F
:10270200413E0000890380000000000008036802C7
:1027120095027003C602A402B80200000000A903D9
:1027220068023C04A80305041B0490030000000097
:10273200FD069A063F040D0A005354415254494E75
:102742004720434F44452E2E2E00494E49542044E3
:102752004F4E45004E414D453A2000430043414D06
:10276200454C004700474952414646450044004413
:102772004F4C5048494E450043520043524F434F3D
:1027820044494C45005000504F4C41525F42454134
:1027920052006E6F74206D617463686564004361FA
:1027A2006D656C004769726166666500446F6C70A6
:1027B20068696E0043726F636F64696C6500506F85
:1027C2006C617242656172004E6F74207265636F54
:0827D200676E697A656400007E
:00000001FF
