:100000000C94C3000C94EB000C94EB000C94970E32
:100010000C94970E0C94970E0C94EB000C94EB0040
:100020000C94EB000C94EB000C94EB000C94DB0DA7
:100030000C94EB000C94EB000C94EB000C94EB0094
:100040000C941A0C0C94EB000C948A0C0C94640C19
:100050000C94EB000C94EB000C94EB000C94EB0074
:100060000C94BC0C0C94EB00FF0000008B00000013
:100070008B0000008B0000008B0000008B00000054
:100080008B0000008B000000FF0000008B000000D0
:10009000EBCE8700EBCE8700E6D8AD00FFFFFF0078
:1000A000E6D8AD00EBCE87000000FF00002AD500A7
:1000B0000055AB00007FAB0000ABAB0000D5560095
:1000C00000FF00002AD5000055AB0000AA56000032
:1000D000FF000000D5002A00AB00550081007F0022
:1000E0005500AB002B00D5000000FF000000000011
:1000F0000055AB000000000000ABAB0000000000AA
:1001000000FF00000000000055AB000000000000F0
:10011000FF00000000000000AB00550000000000E0
:100120005500AB0000000000000000002400270084
:100130002A0000000008000201000003040700007C
:10014000000000000000000000002300260029003D
:1001500000000000250028002B000404040404040F
:100160000404020202020202030303030303010266
:100170000408102040800102040810200102040835
:1001800010200F0F991811241FBECFEFD8E0DEBF4B
:10019000CDBF12E0A0E0B1E0E6EFF2E302C00590CF
:1001A0000D92AC31B107D9F724E0ACE1B2E001C067
:1001B0001D92A93EB207E1F710E0C2ECD0E004C006
:1001C0002197FE010E946319C13CD107C9F70E9423
:1001D0002D100C946E190C940000ACEAB3E0FC01F5
:1001E00045915591659174916C9311965C9311971B
:1001F00012964C9312970496139623E0AC3DB207E7
:1002000071F78CEA93E0089590E0FC01EE5CFE4FFC
:100210002491FC01E259FE4F3491FC01E65AFE4F55
:10022000E491EE23C9F0222339F0233001F1A8F440
:10023000213019F1223029F1F0E0EE0FFF1FE05BD1
:10024000FE4FA591B4918FB7F894EC91611126C03F
:1002500030953E233C938FBF08952730A9F0283076
:10026000C9F0243049F7809180008F7D03C08091D0
:1002700080008F7780938000DFCF84B58F7784BD37
:10028000DBCF84B58F7DFBCF8091B0008F778093DB
:10029000B000D2CF8091B0008F7DF9CF3E2BDACF66
:1002A000CF93DF9390E0FC01E259FE4F2491865AF0
:1002B0009E4FFC0184918823D1F090E0880F991F14
:1002C000FC01E85DFE4FA591B491FC01E05BFE4F9F
:1002D000C591D49161110EC09FB7F8948C91E22F13
:1002E000E0958E238C932881E223E8839FBFDF91E2
:1002F000CF9108958FB7F894EC91E22BEC938FBFD8
:10030000F6CF3FB7F8948091A8039091A903A091EC
:10031000AA03B091AB0326B5A89B05C02F3F19F0E7
:100320000196A11DB11D3FBFBA2FA92F982F882775
:10033000BC01CD01620F711D811D911D42E0660F50
:10034000771F881F991F4A95D1F708958F929F9222
:10035000AF92BF92CF92DF92EF92FF924B015C017E
:100360000E9481016B017C010E9481016C197D0951
:100370008E099F09683E734081059105A8F321E02D
:10038000821A9108A108B10888EEC80E83E0D81E31
:10039000E11CF11C81149104A104B10429F7FF9020
:1003A000EF90DF90CF90BF90AF909F908F90089587
:1003B0002FB7F8946091A4037091A5038091A603D0
:1003C0009091A7032FBF089580E991E008950895C3
:1003D0000895DC01ED91FC910190F081E02D0994EC
:1003E000AF92BF92CF92DF92EF92FF920F931F9343
:1003F000CF93DF936C017B018B01040F151FEB0181
:100400005E01AE18BF08C017D10759F06991D60137
:10041000ED91FC910190F081E02DC6010995892BA9
:1004200079F7C501DF91CF911F910F91FF90EF9068
:10043000DF90CF90BF90AF900895FC01538D448D15
:10044000252F30E0842F90E0821B930B541710F07F
:10045000CF96089501970895FC01918D828D98178C
:1004600061F0A28DAE0FBF2FB11D5D968C91928D64
:100470009F5F9F73928F90E008958FEF9FEF089595
:10048000FC01918D828D981731F0828DE80FF11D5E
:10049000858D90E008958FEF9FEF0895FC01918D79
:1004A000228D892F90E0805C9F4F821B91098F7372
:1004B000992708958CED93E00E944E0221E0892B4C
:1004C00009F420E0822F089580E090E0892B29F044
:1004D0000E945A0281110C9400000895FC01A48D21
:1004E000A80FB92FB11DA35ABF4F2C91848D90E056
:1004F00001968F739927848FA689B7892C93A08939
:10050000B1898C91837080648C93938D848D9813C2
:1005100006C00288F389E02D80818F7D8083089555
:10052000EF92FF920F931F93CF93DF93EC0181E043
:10053000888F9B8D8C8D98131AC0E889F9898081EA
:1005400085FF15C09FB7F894EE89FF896083E8891D
:10055000F98980818370806480839FBF81E090E00F
:10056000DF91CF911F910F91FF90EF900895F62E9C
:100570000B8D10E00F5F1F4F0F731127E02E8C8D36
:100580008E110CC00FB607FCFACFE889F98980817B
:1005900085FFF5CFCE010E946E02F1CFEB8DEC0FFF
:1005A000FD2FF11DE35AFF4FF0829FB7F8940B8F98
:1005B000EA89FB8980818062CFCFCF93DF93EC0102
:1005C000888D8823B9F0AA89BB89E889F9898C913B
:1005D00085FD03C0808186FD0DC00FB607FCF7CFF7
:1005E0008C9185FFF2CF808185FFEDCFCE010E94F7
:1005F0006E02E9CFDF91CF9108952091C702260FB7
:100600003327331F21323105ECF42091EB02FC013A
:1006100090E080E0243069F082E00895A091C70264
:100620002191AC0149555D4FA40FB52FB11D2C93FD
:100630000196861798F38091C702680F6093C702EE
:1006400080E0089581E008951092EB0281E08093AC
:10065000ED021092EC0261E082E10E94040161E08F
:1006600083E10E940401E9EBF0E080818E7F8083CA
:1006700080818D7F808388E48093B80085E48093B7
:10068000BC000895CF93DF9391E09093A602882356
:10069000B9F0C091B800D091BA008091BC008A7BBB
:1006A0008093BC0060E082E10E94040160E083E18D
:1006B0000E9404010E942403D093BA00C093B800A2
:1006C000DF91CF9108950895E0911C0380911B0361
:1006D000E81730F4F0E0EF57FD4F808190E0089587
:1006E0008FEF9FEF089590911C0380911B032FEFD4
:1006F0003FEF981748F4E92FF0E0EF57FD4F2081C6
:1007000030E09F5F90931C03C901089580911B0303
:1007100090911C03891B990B0895CF92DF92EF9261
:10072000FF920F931F93CF93DF937C01CB018A013C
:1007300020918002222389F0EB016B01C40ED51EAB
:10074000CC15DD0569F06991D701ED91FC9101901F
:10075000F081E02DC7010995F3CF642F0E94FD02BF
:10076000C801DF91CF911F910F91FF90EF90DF9023
:10077000CF900895CF93DF931F92CDB7DEB76983F3
:10078000209180022223F9F020911903203258F0A1
:1007900021E030E0FC013383228390E080E00F9081
:1007A000DF91CF91089580911A03E82FF0E0E05A8D
:1007B000FD4F998190838F5F80931A038093190373
:1007C00081E090E0ECCF61E0CE0101960E94FD0255
:1007D000F7CFCF92DF92EF92FF920F931F93CF93B9
:1007E000DF93FC01C48121E020938002C0935F026B
:1007F00010921A03109219038385682B89E794E0FD
:100800000E94BA03D0911903D13208F092C00E941D
:1008100081016B017C018091EB02811165C082E056
:100820008093EB0281E08093ED028FEF8093EA02E8
:1008300010920F03D0930E03A0E6B2E0EEEEF2E0CA
:1008400080E0D81385C01092100380911003CC0F64
:10085000C82BC09310038091EC02813009F07CC05A
:100860001092EC020E9481016B017C0180911003C7
:100870008093BB008091A2029091A302A091A40258
:10088000B091A502892B8A2B8B2B99F00E948101B4
:100890000091A2021091A3022091A4023091A5021E
:1008A0006C197D098E099F09061717072807390754
:1008B000E0F18091BC0083FDD9CF85EC8093BC0032
:1008C0000E9481016B017C018091EB02823009F46E
:1008D00045C08091EA028F3F61F18091EA02803247
:1008E00041F18091EA0225C08091A2029091A30279
:1008F000A091A402B091A502892B8A2B8B2B09F41D
:100900008ACF0E9481010091A2021091A30220913E
:10091000A4023091A5026C197D098E099F09061762
:1009200017072807390708F076CF8091A1020E94A7
:10093000420310921A031092190310928002DF9161
:10094000CF911F910F91FF90EF90DF90CF9008957E
:100950009D9191938F5F75CF85EEB0CF8091A2026C
:100960009091A302A091A402B091A502892B8A2B99
:100970008B2B09F4A9CF0E9481010091A202109152
:10098000A3022091A4023091A5026C197D098E0961
:100990009F09061717072807390708F095CFC5CF15
:1009A00008958F929F92AF92BF92FF920F931F93E1
:1009B000CF93DF93FC01F0808BE08F1508F44AC0E1
:1009C000828108E512E0081B110987FD1395000FCD
:1009D000111F000F111F8181C8E8D0E0C81BD10989
:1009E00087FDD395CC0FDD1FCC0FDD1F4E010D2EE3
:1009F000000CAA08BB089801012E000C440B550BF3
:100A0000281939094A095B09DB010E94DF1824EB28
:100A100030E040E050E00E94B518820E931EA41E04
:100A2000B51E8C169D062CF0E801801691060CF47C
:100A3000E4012297CC0FDD1F2FB7F8948F2D90E0A3
:100A4000FC01EE0FFF1FE80FF91FEF54FB4FD2839D
:100A5000C1832FBFDF91CF911F910F91FF90BF9066
:100A6000AF909F908F9008951F93CF93DF93EC01E9
:100A7000162F88818C3008F04EC061E0812F0E94D3
:100A800050018881282F30E0F901EE0FFF1FE20F9F
:100A9000F31FEF54FB4F1F736081607C612B6083F9
:100AA00019821A822CE0622F0E942819829FB001BD
:100AB000112430E020E0AB01420F531FFA01EE0F8A
:100AC000FF1FE40FF51FEF54FB4F908196FD16C0FA
:100AD0002F5F3F4F2C30310571F781110FC01092FD
:100AE000800082E080938100109285001092840043
:100AF000B19A80916F00826080936F00E8818E2FA1
:100B000090E0FC01EE0FFF1FE80FF91FEF54FB4FC1
:100B10008081806480838881DF91CF911F910895C7
:100B200020911303309114032817390771F4909121
:100B3000110380911203981741F0E0911103F0E046
:100B4000E25EFD4F808190E008958FEF9FEF089562
:100B5000EF92FF920F931F93CF93DF93DC015C968C
:100B6000ED90FC905D97E114F10479F481E090E060
:100B700013969C938E93129790E080E0DF91CF9133
:100B80001F910F91FF90EF9008955196ED91FC9178
:100B9000529750968C915097982F90950FB75E96DC
:100BA0002C915E97122F127021FD6095F894208190
:100BB000112319F1282B2083E7012197F1F728E071
:100BC000462F50E0308160FF1AC0382B3083E70198
:100BD0002197F1F7BA0175956795215089F711238F
:100BE00081F08081892380830FBF5C968D919C91D9
:100BF0000197F1F781E090E0C1CF2923DCCF3923C1
:100C0000E5CF9081892BEFCF20911303309114030E
:100C10002817390761F4809112032091110390E0A5
:100C2000805C9F4F821B91098F739927089590E0F4
:100C300080E0089520911303309114032817390799
:100C4000B9F49091110380911203981789F0E09103
:100C50001103F0E0E25EFD4F80812091110330E04E
:100C60002F5F3F4F2F7333272093110390E0089598
:100C70008FEF9FEF089590E080E0089521303105D7
:100C800029F59C01922F832F2F5F3F4F6C33710505
:100C90001CF06C537109F6CF90933803809339039D
:100CA000962F872F6F5F7F4F4C3351051CF04C53AD
:100CB0005109F6CF90934403809345035093430327
:100CC0004093420381E0809346030895223031052A
:100CD00021F59C01922F832F2F5F3F4F6C337105BD
:100CE0001CF06C537109F6CF90935703809358030F
:100CF000962F872F6F5F7F4F4C3351051CF04C535D
:100D00005109F6CF909353038093540350935003AB
:100D100040934F0381E08093590308950F931F93ED
:100D2000CF93DF9320911D022F5F322F37703093C6
:100D30001D0220FF2BC020E831FD2064347009F033
:100D40002062205FFC01EC01239600E011E0648545
:100D5000662329F070E0C8010E9434196F5F618733
:100D6000322F369F030E30E0311D1124311110C097
:100D70001682662311F0615061873196EC17FD07EA
:100D800031F7DF91CF911F910F91089520E0D4CFDB
:100D900031503683EECF4F925F927F928F929F9227
:100DA000AF92BF92CF92DF92EF92FF920F931F9379
:100DB000CF93DF932C01EB010E948101F201278583
:100DC0003089621B730B6A307105B0F3F8948A8125
:100DD0009B81181619060CF0CDC1E881F9816BB121
:100DE000862E689483F83BB1377F3BB9DA848F81D4
:100DF0002D2D281B822F2F834F85042E000C550B81
:100E0000AA81BB817D85FC84EE847F5FF394E394AB
:100E10009E819884B984AB841181C12C6C2D0C2DDA
:100E20002C2D2181112788942111280F08F42FEFF0
:100E30008195889470FD120F1795889471FD120F9B
:100E40001795889472FD120F1795889473FD120FF1
:100E50001795889474FD120F1795889475FD120FDD
:100E60001795889476FD120F1795889477FD120FC9
:100E700017958894622F7111612F8D0D162F002CFC
:100E80008BB800C000C017FF3BB92081662788944B
:100E900000C0002C3BB92111290F00C0002C8BB8D9
:100EA00000C000C016FF3BB908F42FEF919588945D
:100EB00000C0002C3BB9F0FC620F00C0002C8BB8C6
:100EC00000C000C015FF3BB967958894F1FC620F24
:100ED00000C0002C3BB96795889400C0002C8BB8EB
:100EE00000C000C014FF3BB9F2FC620F6795889404
:100EF00000C0002C3BB9F3FC620F00C0002C8BB883
:100F000000C000C013FF3BB967958894F4FC620FE2
:100F100000C0002C3BB96795889400C0002C8BB8AA
:100F200000C000C012FF3BB9F5FC620F67958894C2
:100F300000C0002C3BB9F6FC620F00C0002C8BB83F
:100F400000C000C011FF3BB967958894F7FC620FA1
:100F500000C0002C3BB96795889400C0002C8BB86A
:100F600000C000C010FF3BB9122FF110162F9B0DCF
:100F700000C0002C3BB900C000C0002C8BB800C0E2
:100F800000C017FF3BB922816627889400C0002C5F
:100F90003BB92111290D00C0002C8BB800C000C046
:100FA00016FF3BB908F42FEFE40FF51F00C0002C2B
:100FB0003BB9E0FC620F00C0002C8BB800C000C041
:100FC00015FF3BB967958894E1FC620F00C0002CC7
:100FD0003BB96795889400C0002C8BB800C000C056
:100FE00014FF3BB9E2FC620F6795889400C0002CA7
:100FF0003BB9E3FC620F00C0002C8BB800C000C0FE
:1010000013FF3BB967958894E4FC620F00C0002C85
:101010003BB96795889400C0002C8BB800C000C015
:1010200012FF3BB9E5FC620F6795889400C0002C65
:101030003BB9E6FC620F00C0002C8BB800C000C0BA
:1010400011FF3BB967958894E7FC620F00C0002C44
:101050003BB96795889400C0002C8BB800C000C0D5
:1010600010FF3BB9122FE110162F919400C0002CF5
:101070003BB99A0C00C000C08BB800C000C017FF7D
:101080003BB921816627889400C0002C3BB921110F
:10109000280F00C0002C8BB800C000C016FF3BB961
:1010A00008F42FEF8195889400C0002C3BB970FDA7
:1010B000620F00C0002C8BB800C000C015FF3BB908
:1010C0006795889471FD620F00C0002C3BB967954D
:1010D000889400C0002C8BB800C000C014FF3BB93E
:1010E00072FD620F6795889400C0002C3BB973FDB8
:1010F000620F00C0002C8BB800C000C013FF3BB9CA
:101100006795889474FD620F00C0002C3BB9679509
:10111000889400C0002C8BB800C000C012FF3BB9FF
:1011200075FD620F6795889400C0002C3BB976FD71
:10113000620F00C0002C8BB800C000C011FF3BB98B
:101140006795889477FD620F00C0002C3BB96795C6
:10115000889400C0002C8BB800C000C010FF3BB9C1
:10116000122F7111162F8D0D00C0002C3BB9119755
:1011700009F086CE4A815B8120EE31E0DA010E94DF
:101180004819DC01CB01F4E0B695A79597958795B2
:10119000FA95D1F730E020E0B901EAE94E9F040E5C
:1011A000611D5E9F600D711D1124650F711D860FFD
:1011B000971FA11DB11D893E43E09407A105B1050C
:1011C00008F434C0885E9340A109B10942E0B695A5
:1011D000A795979587954A95D1F747E0849F080E84
:1011E000211D949F200D311D1124290F311D609167
:1011F0001C0270E0860F971F820F931F4091A4037B
:101200005091A5036091A6037091A703292F33275E
:10121000420F531F611D711D4093A4035093A503FA
:101220006093A6037093A70380931C0278940E9496
:101230008101F201708B6787DF91CF911F910F9130
:10124000FF90EF90DF90CF90BF90AF909F908F90E6
:101250007F905F904F900895539A08956F927F9278
:101260008F92CF92DF92EF92FF920F931F93CF93C3
:10127000DF93CDB7DEB762970FB6F894DEBF0FBE2F
:10128000CDBF6C017A013801822EDC011C962C91B5
:10129000CA0157FF04C088279927841B950B7A83BE
:1012A00069839C838B839E838D836D867E868F86E8
:1012B000213049F5CE0101960E948E0683E0888B8D
:1012C0001A8A198AF7FE02C08DEF888BD601ED913C
:1012D000FC910484F585E02DBE016F5F7F4FC60150
:1012E000099562960FB6F894DEBF0FBECDBFDF91B1
:1012F000CF911F910F91FF90EF90DF90CF908F9043
:101300007F906F9008951C861B861A861986188612
:101310001F82D4CFEF92FF920F931F93CF93DF934F
:10132000CDB7DEB762970FB6F894DEBF0FBECDBF64
:101330007C01DC011C968C917A8369835C834B83EE
:101340005E834D830D871E872F878130F9F4CE0190
:1013500001960E948E06188A1A8A198AD701ED9181
:10136000FC910484F585E02DBE016F5F7F4FC701BE
:10137000099562960FB6F894DEBF0FBECDBFDF9120
:10138000CF911F910F91FF90EF9008951C861B86BF
:101390001A86198618861F82DECF90E080E00895B5
:1013A000FC018585968508950F931F93CF93DF9356
:1013B00000D01F92CDB7DEB7AB0119821A821B8213
:1013C000DC01ED91FC910190F081E02D00E010E056
:1013D00020E0BE016F5F7F4F09950F900F900F9037
:1013E000DF91CF911F910F9108950F931F93CF938A
:1013F0008C01C62F0E94E9036C2F6460C8010E9413
:10140000E9036C2F6B7FC8010E94E90383EC90E035
:101410000197F1F7CF911F910F9108950F931F93AB
:10142000CF93DF938C01D62FC42F607F642B0E9453
:10143000F50980E1D89FB00111246C2BC801DF9120
:10144000CF911F910F910C94F509CF93DF93CDB7F6
:10145000DEB728970FB6F894DEBF0FBECDBF98E079
:10146000E1E1F1E0DE01119601900D929A95E1F72C
:101470009091E504961710F46FEF690F262F30E076
:10148000220F331F41E050E04C0F5D1F240F351F2A
:10149000F9016081680F606840E08DED94E0289666
:1014A0000FB6F894DEBF0FBECDBFDF91CF910C9485
:1014B0000E0A41E00E940E0A81E090E008950E9429
:1014C0006919FB0101900020E9F73197AF01461B34
:1014D000570BDC01ED91FC910280F381E02D099422
:1014E000BC018DED94E00C94610A66E070E08AED39
:1014F00094E00E94340565E070E087ED94E00E947E
:10150000340562E080E00E94250A8DE791E00E94A8
:10151000700A6AE570E08AED94E00E94D1046AE501
:1015200070E087ED94E00E94D10464EF71E080E008
:1015300090E00E94A60164EB70E08AED94E00E94C6
:10154000D10464EB70E087ED94E00E94D1046EE179
:1015500070E080E090E00E94A601E091DA048E2F16
:1015600090E0FC01EE0FFF1FE80FF91FEF54FB4F57
:1015700080818F7B8083E091D7048E2F90E0FC01E7
:10158000EE0FFF1FE80FF91FEF54FB4F80818F7B99
:1015900080836EE170E080E090E00E94A60162E04E
:1015A00080E00E94250A84E891E00C94700A0F9371
:1015B0001F93CF93DF9361E080E00E94250A8BE8C0
:1015C00091E00E94700A61E08CE00E94040160E0FA
:1015D0008DE00E940401CFEFD0E00DE311E061E067
:1015E0008BE00E945001CF3FD10529F461E08BE0F0
:1015F0000E94040122C0F80184918330A9F148F4CB
:101600008130B9F0823059F1C038D1057CF760E003
:10161000EECF873099F18830C9F18430A9F78091F5
:101620008000806280938000D0938B00C0938A00FA
:1016300004C084B5806884BDC7BD6AE070E080E006
:1016400090E00E94A6012197C834D10541F681E0BF
:101650008093D604DF91CF911F910F91089584B5A7
:10166000806284BDC8BDE9CF80918000806880938E
:101670008000D0938900C0938800DFCF8091B000B4
:1016800080688093B000C093B300D7CF8091B00042
:1016900080628093B000C093B400CFCF61E080E05F
:1016A0000E94250A82E991E00E94700A61E08CE0C4
:1016B0000E94040161E08DE00E9404011092D604B2
:1016C00008958F929F92AF92BF92CF92DF92EF9246
:1016D000FF920F931F93CF93DF93CDB7DEB7A19700
:1016E0000FB6F894DEBF0FBECDBF6C01990FEE08A8
:1016F000FF08F7FE43C06DE28DED94E00E94E90122
:101700008C0122273327A9012C193D094E095F09B5
:1017100019A2CE0181967C019AE0892E912CA12CF0
:10172000B12CCA01B901A50194010E94E718605DBE
:10173000F70162937F01211531054105510589F7B4
:1017400090E080E0309729F0BF018DED94E00E9499
:10175000610A800F911FA1960FB6F894DEBF0FBEED
:10176000CDBFDF91CF911F910F91FF90EF90DF9050
:10177000CF90BF90AF909F908F900895A701960152
:1017800019A28E010F5D1F4F8AE0C82ED12CE12CCB
:10179000F12CCA01B901A70196010E94E718605D0A
:1017A000F80162938F01211531054105510589F733
:1017B00090E080E0309779F2BF018DED94E00E94D7
:1017C000610AC9CF85ED8093BC008091A2029091FF
:1017D000A302A091A402B091A5020796A11DB11D7C
:1017E00023E0B695A795979587952A95D1F72091EF
:1017F000BC0024FD03C01092EB0208954091A202A8
:101800005091A3026091A4027091A502452B462B32
:10181000472B69F30097A105B10541F02AE22A950B
:10182000F1F700C00197A109B109E1CF8091A102B0
:101830000C9442031F920F920FB60F9211242F9314
:101840003F938F939F93AF93BF938091A403909105
:10185000A503A091A603B091A7033091A30323E0B1
:10186000230F2D3758F50196A11DB11D2093A30319
:101870008093A4039093A503A093A603B093A7031A
:101880008091A8039091A903A091AA03B091AB0302
:101890000196A11DB11D8093A8039093A903A09365
:1018A000AA03B093AB03BF91AF919F918F913F91EA
:1018B0002F910F900FBE0F901F90189526E8230FC1
:1018C0000296A11DB11DD2CF1F920F920FB60F929B
:1018D00011242F933F934F935F936F937F938F9335
:1018E0009F93AF93BF93EF93FF938CED93E00E9490
:1018F0006E02FF91EF91BF91AF919F918F917F9178
:101900006F915F914F913F912F910F900FBE0F906C
:101910001F9018951F920F920FB60F9211242F93BC
:101920008F939F93EF93FF93E091EC03F091ED037E
:101930008081E091F203F091F30382FD1BC090815E
:101940008091F5038F5F8F732091F603821741F02A
:10195000E091F503F0E0E452FC4F958F8093F5039E
:10196000FF91EF919F918F912F910F900FBE0F904C
:101970001F9018958081F4CF1F920F920FB60F928F
:1019800011242F933F934F935F936F937F938F9384
:101990009F93AF93BF93EF93FF938091B900887F9C
:1019A000803609F44AC0F0F5883209F4A7C018F56A
:1019B000803109F49BC0B8F4882309F4F9C0883059
:1019C00009F494C0FF91EF91BF91AF919F918F91D6
:1019D0007F916F915F914F913F912F910F900FBE2B
:1019E0000F901F901895883109F488C0803251F704
:1019F0008093EA0214C0803409F49DC040F480331F
:101A0000B9F38833F9F68093EA0285ECB0C08035EB
:101A100009F485C0883509F496C0883499F60E9487
:101A2000E20BD0CF883909F48CC038F5883729F01B
:101A300050F4883611F0803729F683E08093EB026A
:101A40001092E90257C0883809F47BC0803919F038
:101A5000803809F0B7CF8091E902803208F071C078
:101A6000E091E90281E08E0F8093E9028091BB0052
:101A7000F0E0E753FD4F80833DC0803B39F0E0F458
:101A8000803A09F479C0883A09F09CCF84E08093C9
:101A9000EB021092C8021092C702E0911703F09176
:101AA000180309958091C70281110FC081E08093CE
:101AB000C7021092A70209C0803C09F4A6CF883C57
:101AC00009F4A3CF883B09F07DCFE091C80281E003
:101AD0008E0F8093C802F0E0E955FD4F808180931E
:101AE000BB009091C8028091C70229C08091100369
:101AF0008093BB0085EC8093BC0064CF90910F0372
:101B000080910E03981758F5E0910F0381E08E0F36
:101B100080930F03F0E0E251FD4F8081E9CFE09127
:101B20000F0381E08E0F80930F038091BB00F0E0E4
:101B3000E251FD4F808390910F0380910E0398171F
:101B4000C8F285E8D8CFE0910F0381E08E0F809333
:101B50000F038091BB00F0E0E251FD4F8083809144
:101B6000ED0281115CCF81E08093EC0284EA8093E6
:101B7000BC001092EB0226CF85EC8093BC00109243
:101B8000EB028091E902803230F4E091E902F0E06A
:101B9000E753FD4F10826091E90270E0E091150378
:101BA000F091160389EC92E009951092E9020ACFB0
:101BB0001092EA0234CF1F920F920FB60F921124A7
:101BC0002F933F934F935F936F937F938F939F9345
:101BD000AF93BF93CF93DF93EF93FF9380915E0218
:101BE000C091D504D0E087FF24C0109285001092E8
:101BF000840080915E028F5F80935E0280915E021E
:101C0000082E000C990B8C179D0724F480915E021E
:101C10008C30C4F1809184009091850004968034CA
:101C20009C4908F47AC080918400909185000496C4
:101C300076C080915E02082E000C990B8C179D07D0
:101C4000C4F6E0915E028E2FEE0F990BFC01EE0FB1
:101C5000FF1FE80FF91FEF54FB4F808186FFC9CFAC
:101C6000E0915E028E2FEE0F990BFC01EE0FFF1F2D
:101C7000E80FF91FEF54FB4F808160E08F730E94E3
:101C80000401B7CF2091840030918500E0915E027D
:101C90008E2FEE0F990BFC01EE0FFF1FE80FF91FBF
:101CA000EF54FB4F81819281820F931F90938900A3
:101CB00080938800E0915E028E2FEE0F990BFC015D
:101CC000EE0FFF1FE80FF91FEF54FB4F808186FFD7
:101CD00011C0E0915E028E2FEE0F990BFC01EE0F0A
:101CE000FF1FE80FF91FEF54FB4F808161E08F73F6
:101CF0000E940401FF91EF91DF91CF91BF91AF91CD
:101D00009F918F917F916F915F914F913F912F9113
:101D10000F900FBE0F901F90189580E49CE9909350
:101D20008900809388008FEF80935E02E3CF1F923B
:101D30000F920FB60F9211242F933F934F935F93FF
:101D40006F937F938F939F93AF93BF93EF93FF9383
:101D5000E0911303F0911403309749F0A685B785FD
:101D60008585968D91FF14C09C918923A1F4FF91E4
:101D7000EF91BF91AF919F918F917F916F915F9103
:101D80004F913F912F910F900FBE0F901F9018957C
:101D90009C91892361F7A389B4899C918589809559
:101DA00089238C93868997890197F1F7608D718DCE
:101DB000A685B785558538E020E0CB010197F1F77E
:101DC000822F90E095958795282F4C91452309F017
:101DD0002068315091F7868D81FD20958091120306
:101DE00090E001968F73992730911103381799F07D
:101DF000A0911203B0E0A25EBD4F2C93809312031A
:101E0000828D938D0197F1F7A389B4898C9195897F
:101E1000892B8C93ACCF868D8160868FF1CF109209
:101E2000DF031092DE0388EE93E0A0E0B0E0809341
:101E3000E0039093E103A093E203B093E3032FE365
:101E400031E03093DD032093DC0325EC30E0309368
:101E5000E9032093E80324EC30E03093EB03209374
:101E6000EA0320EC30E03093ED032093EC0321EC07
:101E700030E03093EF032093EE0322EC30E0309318
:101E8000F1032093F00326EC30E03093F30320932A
:101E9000F2031092F5031092F6031092F7031092DA
:101EA000F80310927C0410927B0480937D0490933D
:101EB0007E04A0937F04B093800421E531E0309349
:101EC0007A04209379042FEF2093850410928704DD
:101ED0001092860410929104109290044FEF5FEFDD
:101EE000BA0140938C0450938D0460938E047093D8
:101EF0008F0410929504109294048093960490930A
:101F00009704A0939804B093990483E691E090938A
:101F10009304809392041092A9041092A804109242
:101F2000AB041092AA041092AD041092AC0410926B
:101F3000AF041092AE046091B0046E7F6D7F609329
:101F4000B0046695617081E0682785E00E94040115
:101F500061E085E00E945001E3E7F1E0E491E09365
:101F6000A204EFE5F1E0E491F0E0EE0FFF1FE05B8B
:101F7000FE4F859194919093A4048093A30460E014
:101F800084E00E9450018091B00481FD04C061E0B2
:101F900084E00E94040184E080939E04E2E7F1E083
:101FA000E491E0939F04EEE5F1E0E491F0E0EE0FC0
:101FB000FF1FEA5BFE4F259134913093A1042093DB
:101FC000A0041092E0041092DF0425E731E0309382
:101FD000DE042093DD0497E29093E10494E1909372
:101FE000E6048093E7041092E8048091D5048C30D5
:101FF00060F591E0980F9093D5048093DA0490E017
:10200000FC01EE0FFF1FE80FF91FEF54FB4F88EBA9
:102010009BE0928381838091D5048C30D0F491E051
:10202000980F9093D5048093D70490E0FC01EE0FB5
:10203000FF1FE80FF91FEF54FB4F88EB9BE09283E3
:10204000818381E08093D60408958FEF8093DA0432
:10205000E2CF8FEF8093D704F4CFCF93DF9300D0FC
:1020600000D01F92CDB7DEB7789484B5826084BD6E
:1020700084B5816084BD85B5826085BD85B581608C
:1020800085BD80916E00816080936E00109281000A
:1020900080918100826080938100809181008160C5
:1020A0008093810080918000816080938000809186
:1020B000B10084608093B1008091B0008160809312
:1020C000B00080917A00846080937A0080917A00D9
:1020D000826080937A0080917A00816080937A0098
:1020E00080917A00806880937A001092C100E0911C
:1020F000EC03F091ED0382E08083E091E803F0913E
:10210000E9031082E091EA03F091EB038FEC808306
:102110001092F403E091F003F091F10386E08083E4
:10212000E091EE03F091EF03808180618083E09184
:10213000EE03F091EF03808188608083E091EE03ED
:10214000F091EF03808180688083E091EE03F0914D
:10215000EF0380818F7D80831092AD041092AC04D8
:102160001092AB041092AA041092A9041092A80431
:102170008DE991E09093AF048093AE0490919E041A
:10218000963108F047C02DEB30E03093A90420933E
:10219000A8042BE931E03093AB042093AA042CE28D
:1021A00031E03093AD042093AC042091680084E0CA
:1021B000983048F031E09E3008F430E081E001C012
:1021C000880F3A95EAF7822B809368002DE630E07D
:1021D000983050F02BE630E09E3030F02CE630E0C6
:1021E000963110F030E020E03093A6042093A5044F
:1021F000292F30E0983008F052C381E001C0880FE9
:102200009A95EAF78093A7048091AE049091AF0469
:102210000197F1F78091AC049091AD04892B49F1BD
:10222000E0911303F091140324E0E239F20709F17D
:10223000309739F0A389B4899C9185898095892349
:102240008C938091B0048E7F8093B004109212031F
:102250001092110382E994E0909314038093130386
:10226000E091A504F091A60480819091A704892BA8
:10227000808366E070E08AED94E00E94340565E0BA
:1022800070E087ED94E00E94340564EB70E08AED25
:1022900094E00E94D10464EB70E087ED94E00E942A
:1022A000D10410921C0310921B0310921A03109277
:1022B00019030E94240387EE91E090931803809302
:1022C000170388EE91E09093160380931503109204
:1022D000E2048091E704823018F098E09093E204E1
:1022E0008093E50462E370E080E090E00E94A60144
:1022F0006091E8048DED94E00E94E90368EE73E0DC
:1023000080E090E00E94A60160E38DED94E00E94E1
:10231000F5090BE416E4C8010197F1F760E38DEDD0
:1023200094E00E94F509C8010197F1F760E38DED93
:1023300094E00E94F50983E592E00197F1F760E2ED
:102340008DED94E00E94F5096091E204606240E046
:102350008DED94E00E940E0A84E08093E30440E057
:102360006CE08DED94E00E940E0A40E061E08DED9E
:1023700094E00E940E0A0BE31FE1C8010197F1F7F8
:1023800082E08093E40440E066E08DED94E00E94FA
:102390000E0A40E062E08DED94E00E940E0AC80152
:1023A0000197F1F788E08093E80460E08DED94E018
:1023B0000E94E90361E08BE00E94500161E08CE043
:1023C0000E94500161E08DE00E94500160E080E0D9
:1023D0000E94250A89E991E00E94700A40E060E4C9
:1023E0008DED94E00E940E0A08E011E020E1E22E5B
:1023F00021E0F22ED8016D918D018DED94E00E94C7
:10240000590AE016F106B1F740E068E48DED94E07A
:102410000E940E0A00E011E0F80161918F018DED3C
:1024200094E00E94590AF1E008301F07A9F713E071
:10243000612F82E00E94250A60E08DED94E00E9409
:10244000590A612F81E10E94250A60E08DED94E038
:102450000E94590A64EF71E080E090E00E94A601BA
:10246000612F82E00E94250A60E28DED94E00E94D7
:10247000590A612F81E10E94250A60E28DED94E006
:102480000E94590A1150A0F660E080E00E94250ADF
:1024900089E991E00E94700A61E080E00E94250ACB
:1024A0008EEA91E00E94700A62E080E00E94250AB4
:1024B00083EC91E00E94700A63E080E00E94250AAC
:1024C00088ED91E00E94700A6DEE71E08CED93E072
:1024D0000E94610A62E072E08CED93E00E94610A62
:1024E00068EB7BE080E090E00E94A60180913003E1
:1024F000811144C0109222031092210310932503EE
:102500001093260310932703109328031093290395
:1025100010932A0381E080932B0310922D031092D5
:102520002C03109224031092230380918403909132
:102530008503892B31F48FE193E090938503809399
:102540008403E0911D03F0911E03309721F08FE189
:1025500093E0958384838FE193E090931E038093AF
:102560001D0310922F0310922E038DE291E09093A1
:10257000200380931F0381E080933003539A8AE500
:1025800093E090932203809321038CE090E090935A
:102590002D0380932C038091880490918904A0914D
:1025A0008A04B0918B04843C29E09207A105B1050F
:1025B00020F484EC99E0A0E0B0E08093880490934C
:1025C0008904A0938A04B0938B048FEF8093250332
:1025D00080EB8093260380EF8093270380E4809331
:1025E000850488EA90E00E94ED0081E090E09093FD
:1025F00093038093920365E072E08CED93E00E9478
:10260000610A62E072E08CED93E00E94610A8BE364
:10261000C82ED12CAA24A394B12C809159038823CD
:1026200009F45AC0009157031091580310935603B0
:102630000093550380915303909154039093520358
:102640008093510380914F039091500390934E03D8
:1026500080934D031092590362E08CE00E94250A9A
:10266000075F1F4F0331110528F460E38DED94E0FF
:102670000E94E90180915503909156030E94610BDD
:102680008AE192E00E94700A809151039091520376
:102690000996439728F460E38DED94E00E94E901E8
:1026A00080915103909152030E94610B8AE192E064
:1026B0000E94700A80914D0390914E0309964397B2
:1026C00028F460E38DED94E00E94E90180914D03D0
:1026D00090914E030E94610B8091D604882309F4E7
:1026E000EBC080918B03882309F45AC000919003BA
:1026F0001091910310934C0300934B0380918E0330
:1027000090918F0390934A038093490380918C03A7
:1027100090918D03909348038093470310928B030D
:1027200061E08CE00E94250A075F1F4F033111050D
:1027300028F460E38DED94E00E94E90180914B0361
:1027400090914C030E94610B8AE192E00E94700A12
:102750008091490390914A030996439728F460E3D6
:102760008DED94E00E94E9018091490390914A0324
:102770000E94610B8AE192E00E94700A80914703F7
:10278000909148030996439728F460E38DED94E017
:102790000E94E90180914703909148030E94610BD8
:1027A0000E94D80100913E0310913F032091400305
:1027B00030914103601B710B820B930B6B307105E1
:1027C0008105910568F081E08093A2030E94D80101
:1027D00060933E0370933F038093400390934103C3
:1027E0000E94D80100913A0310913B0320913C03D1
:1027F00030913D03601B710B820B930B10E0683E20
:1028000073408105910508F45CC18091900390911B
:102810009103892B61F480918E0390918F03892B12
:1028200031F480918C0390918D03892BB1F18091CB
:10283000380390913903892B61F48091440390917E
:102840004503892B31F48091420390914303892BF6
:1028500021F120914B0330914C03121613068CF09A
:102860008091490390914A031816190654F0892B58
:1028700009F059C08091470390914803892B09F4CE
:1028800052C080914703909148031816190684F5A9
:102890000197909348038093470310E04DC09E300A
:1028A00040F42850310981E001C0880F2A95EAF7E9
:1028B000A9CC2E503109F7CF80914603882309F423
:1028C0006FCF009144031091450310934C03009384
:1028D0004B0310934A030093490380914203909164
:1028E000430390934803809347031092460318CF05
:1028F0008091490390914A03009779F4D0924A035A
:10290000C09249032150310930934C0320934B036B
:10291000D0924803C0924703C0CF019790934A03D7
:1029200080934903F5CF8091D604882309F4DAC156
:1029300081E08093460312E0809157039091580301
:10294000892B61F48091530390915403892B31F4C6
:1029500080914F0390915003892B29F120915503C9
:1029600030915603121613068CF08091510390910A
:1029700052031816190654F0892B09F0D3C180911F
:102980004D0390914E03892B09F4CCC180914D03E6
:1029900090914E03181619060CF0A9C10197909357
:1029A0004E0380934D0361E08CE00E94250A8091E4
:1029B0004B0390914C030996439728F460E38DED07
:1029C00094E00E94E90180914B0390914C030E9496
:1029D000610B8AE192E00E94700A80914903909114
:1029E0004A030996439728F460E38DED94E00E9432
:1029F000E9018091490390914A030E94610B8AE1A9
:102A000092E00E94700A80914703909148030996D2
:102A1000439728F460E38DED94E00E94E9018091F2
:102A20004703909148030E94610B62E08CE00E9492
:102A3000250A80915503909156030996439728F4EF
:102A400060E38DED94E00E94E9018091550390913F
:102A500056030E94610B8AE192E00E94700A809105
:102A60005103909152030996439728F460E38DED4A
:102A700094E00E94E90180915103909152030E94D9
:102A8000610B8AE192E00E94700A80914D0390915F
:102A90004E030996439728F460E38DED94E00E947D
:102AA000E90180914D0390914E030E94610B0E94B9
:102AB000D80160933A0370933B0380933C03909357
:102AC0003D031093A1038091A203882309F474C1EC
:102AD00060918A0351E0560F50938A0380919203CC
:102AE00090919303EAE5F3E06B5D752F72957F702B
:102AF000152F1F70272F220F270FA22FB0E0A455EC
:102B0000BC4F112319F001E0009709F400E04C914B
:102B100011963C91119712962C911297002309F46B
:102B20002EC013967F3011F4ACEAB3E01295107FFB
:102B3000012F0095742F709F070E70E0711D4C914E
:102B4000419F040E40E0411D470F732F709F070EF9
:102B500070E0711D11963C911197319F030E30E08A
:102B6000311D370F722F709F070E70E0711D129686
:102B70002C91219F020E20E0211D270F112440835C
:102B8000318322835D5F33966513AFCF90908504C8
:102B90008091880490918904A0918A04B0918B045B
:102BA000892B8A2B8B2BD9F00E94810100918603FF
:102BB000109187032091880330918903601B710B6A
:102BC000820B930B009188041091890420918A0450
:102BD00030918B046017710782079307C8F20E9437
:102BE0008101609386037093870380938803909399
:102BF0008903E0919004F0919104309759F040914D
:102C00008C0450918D0460918E0470918F04892DF5
:102C10000995982EE0908403F0908503492C512C5F
:102C2000712C612CE114F10409F481C0F701848452
:102C300080918604909187048436910508F4148667
:102C4000D701ED91FC91828193819D838C831982C0
:102C50001A821B82992091F187010A5F1F4FF0E0D1
:102C6000E0E0D8012D918D01222321F112963C90B4
:102C7000332001F130E050E040E02F5F3F4F4F4FF5
:102C80005F4FC301B2010E9418199B01AC01832D53
:102C900090E0B0E0A0E0BC01CD016F5F7F4F8F4FAF
:102CA0009F4F0E941819A1E0B0E0AC0FBD1FAE0FFE
:102CB000BF1F8C933196E330F10599F609811A8193
:102CC0002B81F7014585568562817381C701EC81AF
:102CD000FD810995D7011C968C921C971496ED9056
:102CE000FC90A0CF81E080938B0311E025CE8091F2
:102CF000510390915203009779F4D0925203C092FD
:102D00005103215031093093560320935503D0923B
:102D10004E03C0924D0347CE019790935203809388
:102D20005103F5CF81E08093590313E03CCE8091AD
:102D30008203909183038C010F5F1F4F10938303D5
:102D4000009382034997B4F10E94D80140907E031A
:102D500050907F0360908003709081039B01AC01D1
:102D6000241935094609570921F421E030E040E0F3
:102D700050E0E8EEF3E00E9FB0010F9F700D1E9F34
:102D8000700D1124072E000C880B990B0E94E71878
:102D90003093870420938604109283031092820359
:102DA0000E94D80160937E0370937F038093800319
:102DB000909381031092A20382E994E00E9404069A
:102DC000892BF1F082E994E00E941A068093A00317
:102DD000682F8CED93E00E94E9012091A00380ED23
:102DE000820F8A3008F0C5C080911001833509F444
:102DF000AAC0A4F5883409F44EC08D3409F48DC0FE
:102E00008091A003833409F44EC10CF0E7C08134F3
:102E100009F4FFC0823409F471C18091A1038230AA
:102E200009F479C1833009F481C1813051F488E615
:102E300090E00E94ED00B0929303A09292030E9452
:102E4000D70A80E090E0892B09F4E7CB0E945A0270
:102E5000882309F4E2CB0E940000DFCB8D3689F194
:102E6000833709F444C0883659F680919E039091C7
:102E70009F033AE0389FA001399F500D1124022E84
:102E8000000C330B20533109240F351F30939F035F
:102E900020939E03B5CF80919C0390919D033AE0CF
:102EA000389FA001399F500D1124022E000C330BC6
:102EB00020533109240F351F30939D0320939C0329
:102EC0009FCF80919A0390919B033AE0389FA00195
:102ED000399F500D1124022E000C330B2053310961
:102EE000240F351F30939B0320939A0389CF809141
:102EF0009803909199033AE0389FA001399F500DB3
:102F00001124022E000C330B20533109240F351FDE
:102F1000309399032093980373CF809196039091F7
:102F200097033AE0389FA001399F500D1124022EDB
:102F3000000C330B20533109240F351F30939703B6
:102F4000209396035DCF40919403509195033AE00E
:102F5000349FC001359F900D1124022E000C330BBD
:102F600020533109820F931F90939503809394030C
:102F700047CF822F8F7D81548A3108F041CF209333
:102F80001001233531F154F42834A1F02D3409F027
:102F900037CF109297031092960332CF2D3679F0E7
:102FA000233791F0283609F02BCF10929F0310920F
:102FB0009E0326CF10929D0310929C0321CF109266
:102FC0009B0310929A031CCF1092990310929803BE
:102FD00017CF109295031092940312CF843409F402
:102FE00073C0853409F019CF21E030E050E040E0B3
:102FF00070E060E090E080E00E943E0688EA90E0A9
:103000000E94ED00B0929303A09292030E944E0B97
:1030100047C0409198035091990380919A039091F1
:103020009B0320919E0330919F03722F632F2F5F8C
:103030003F4F8C33910514F0CC97F7CF70939003EA
:1030400060939103382F292F01964C3351051CF0C2
:103050004C535109F7CF30938E0320938F03509335
:103060008D0340938C0381E080938B034091940304
:1030700050919503609196037091970321E030E0A1
:1030800080919C0390919D030E943E060E94D70A66
:1030900088E690E00E94ED00B0929303A092920324
:1030A0001092A003BACE4091980350919903609179
:1030B0009A0370919B0322E030E080919E039091EF
:1030C0009F030E943E06ECCF109291031092900352
:1030D00010928F0310928E0310928D0310928C0326
:1030E00081E080938B0388EA90E00E94ED00B0922B
:1030F0009303A09292030E94D70AD2CF22E030E03D
:1031000050E040E070E060E090E080E00E943E0629
:103110000E94750AC5CF88EE90E00E94ED001092E3
:103120009303109292030E944E0B8BCE0E94750A5D
:1031300088CE83E691E090939304809392048091EB
:103140001303909114038259944071F4E091A50403
:10315000F091A60490818091A704809589238083B3
:1031600010921403109213030895052E97FB1EF47A
:1031700000940E94CC1857FD07D00E94E71807FC66
:1031800003D04EF40C94CC18509540953095219571
:103190003F4F4F4F5F4F0895909580957095619583
:1031A0007F4F8F4F9F4F08950E940919A59F900D43
:1031B000B49F900DA49F800D911D11240895B7FF19
:1031C0000C94D4180E94D418821B930B0895A1E28A
:1031D0001A2EAA1BBB1BFD010DC0AA1FBB1FEE1F91
:1031E000FF1FA217B307E407F50720F0A21BB30BDC
:1031F000E40BF50B661F771F881F991F1A9469F758
:1032000060957095809590959B01AC01BD01CF01B3
:103210000895A29FB001B39FC001A39F700D811DAF
:103220001124911DB29F700D811D1124911D0895CF
:10323000DB018F939F930E94D418BF91AF91A29FFF
:10324000800D911DA39F900DB29F900D11240895A4
:10325000991B79E004C0991F961708F0961B881FE8
:103260007A95C9F78095089597FB072E16F4009478
:1032700007D077FD09D00E944F1907FC05D03EF416
:10328000909581959F4F0895709561957F4F089512
:103290000E940919B7FF0895821B930B0895AA1B7A
:1032A000BB1B51E107C0AA1FBB1FA617B70710F031
:1032B000A61BB70B881F991F5A95A9F78095909563
:1032C000BC01CD010895EE0FFF1F0590F491E02D94
:1032D000099481E090E0F8940C946E1910E0C2EC2F
:1032E000D0E004C0FE010E9463192196C33CD107BF
:0632F000C9F7F894FFCFBE
:1032F600000A1511110A041B040A1111110A041BF4
:10330600410000400014005400000000005F0A5F06
:103316000A5F0AD409D009CD09000000008A092EE7
:10332600092C09D409D009E401CB0600000000905D
:1033360002F0011D02DD024E022C024002000000D6
:1033460000BA038D033B066303860373036403001D
:10335600000000A805F0013B06630304061A069068
:103366000500000000590AF0013B06D00446454519
:10337600443D4F00464545443D580050554D503D4F
:103386004F0050554D503D58002A2A2A2A204151B7
:1033960055412D504F4E4943202A2A2A2A0050557E
:1033A6004D503D587C54494D453D30303A30303AC9
:1033B600303000464545443D587C54494D453D30E6
:1033C600303A30303A3030002A2A2A2A20505952D0
:1033D600414D414B45525A202A2A2A2A00496E69F4
:1033E6007469616C697A696E67204C4344202E2E9D
:1033F6002E000D0A00496E697469616C697A696EFE
:0C3406006720524742202E2E2E003A0074
:00000001FF
