:100000000C9463000C948B000C948B000C941006E1
:100010000C9410060C9410060C948B000C948B001E
:100020000C948B000C948B000C948B000C948B0024
:100030000C948B000C948B000C948B000C948B0014
:100040000C946E050C948B000C94DE050C94B80592
:100050000C948B000C948B000C948B000C948B00F4
:100060000C9488060C948B000000000024002700EC
:100070002A0000000008000201000003040700003D
:1000800000000000000000000000230026002900FE
:1000900000000000250028002B00040404040404D0
:1000A0000404020202020202030303030303010227
:1000B00004081020408001020408102001020408F6
:1000C0001020A707B10B11241FBECFEFD8E0DEBF71
:1000D000CDBF11E0A0E0B1E0E6EFF9E102C005908C
:1000E0000D92AE34B107D9F723E0AEE4B1E001C020
:1000F0001D92A332B207E1F710E0C2E6D0E004C0DF
:100100002197FE010E94E80CC136D107C9F70E9471
:1001100064080C94EE0C0C94000090910A028091FB
:1001200009022FEF3FEF981748F4E92FF0E0E7516D
:10013000FE4F208130E09F5F90930A02C90108952D
:1001400090910A02809109022FEF3FEF981748F42F
:10015000E92FF0E0E751FE4F208130E09F5F909360
:100160000A02C901089590E0FC01EE58FF4F249166
:10017000FC01E255FF4F3491FC01E656FF4FE4913C
:10018000EE23C9F0222339F0233001F1A8F4213005
:1001900019F1223029F1F0E0EE0FFF1FE057FF4F79
:1001A000A591B4918FB7F894EC91611126C0309568
:1001B0003E233C938FBF08952730A9F02830C9F023
:1001C000243049F7809180008F7D03C080918000AA
:1001D0008F7780938000DFCF84B58F7784BDDBCFAE
:1001E00084B58F7DFBCF8091B0008F778093B00076
:1001F000D2CF8091B0008F7DF9CF3E2BDACFCF9355
:10020000DF9390E0FC01E255FF4F249186569F4F0B
:10021000FC0184918823D1F090E0880F991FFC01A4
:10022000E859FF4FA591B491FC01E057FF4FC591EC
:10023000D49161110EC09FB7F8948C91E22FE09594
:100240008E238C932881E223E8839FBFDF91CF9197
:1002500008958FB7F894EC91E22BEC938FBFF6CF13
:100260003FB7F8948091E5019091E601A091E701F4
:10027000B091E80126B5A89B05C02F3F19F0019663
:10028000A11DB11D3FBFBA2FA92F982F8827BC01F0
:10029000CD01620F711D811D911D42E0660F771F18
:1002A000881F991F4A95D1F7089508950895AF9230
:1002B000BF92CF92DF92EF92FF920F931F93CF9353
:1002C000DF936C017B018B01040F151FEB015E01B5
:1002D000AE18BF08C017D10759F06991D601ED914A
:1002E000FC910190F081E02DC6010995892B79F7E9
:1002F000C501DF91CF911F910F91FF90EF90DF909B
:10030000CF90BF90AF900895FC01538D448D252F61
:1003100030E0842F90E0821B930B541710F0CF969F
:10032000089501970895FC01918D828D981761F0D1
:10033000A28DAE0FBF2FB11D5D968C91928D9F5FE8
:100340009F73928F90E008958FEF9FEF0895FC01C7
:10035000918D828D981731F0828DE80FF11D858D7A
:1003600090E008958FEF9FEF0895FC01918D228D0D
:10037000892F90E0805C9F4F821B91098F73992792
:1003800008958BE592E00E94B50121E0892B09F4E4
:1003900020E0822F089580E090E0892B29F00E94D0
:1003A000C10181110C9400000895FC01A48DA80FD7
:1003B000B92FB11DA35ABF4F2C91848D90E00196A7
:1003C0008F739927848FA689B7892C93A089B189C7
:1003D0008C91837080648C93938D848D981306C068
:1003E0000288F389E02D80818F7D80830895EF92CC
:1003F000FF920F931F93CF93DF93EC0181E0888FDF
:100400009B8D8C8D98131AC0E889F989808185FFAE
:1004100015C09FB7F894EE89FF896083E889F98950
:1004200080818370806480839FBF81E090E0DF9152
:10043000CF911F910F91FF90EF900895F62E0B8DA5
:1004400010E00F5F1F4F0F731127E02E8C8D8E1160
:100450000CC00FB607FCFACFE889F989808185FFC7
:10046000F5CFCE010E94D501F1CFEB8DEC0FFD2F22
:10047000F11DE35AFF4FF0829FB7F8940B8FEA8982
:10048000FB8980818062CFCFCF93DF93EC01888D91
:100490008823B9F0AA89BB89E889F9898C9185FDFF
:1004A00003C0808186FD0DC00FB607FCF7CF8C918D
:1004B00085FFF2CF808185FFEDCFCE010E94D5016F
:1004C000E9CFDF91CF9108952091D4013091D501EA
:1004D0002817390771F49091D2018091D3019817B0
:1004E00041F0E091D201F0E0EE56FE4F808190E0C5
:1004F00008958FEF9FEF08950895EF92FF920F9365
:100500001F93CF93DF93DC015C96ED90FC905D9799
:10051000E114F10479F481E090E013969C938E93BA
:10052000129790E080E0DF91CF911F910F91FF90A3
:10053000EF9008955196ED91FC91529750968C91C1
:100540005097982F90950FB75E962C915E97122F2B
:10055000127021FD6095F8942081112319F1282B48
:100560002083E7012197F1F728E0462F50E0308102
:1005700060FF1AC0382B3083E7012197F1F7BA01E9
:1005800075956795215089F7112381F08081892322
:1005900080830FBF5C968D919C910197F1F781E06C
:1005A00090E0C1CF2923DCCF3923E5CF9081892B7F
:1005B000EFCF2091D4013091D5012817390761F48C
:1005C0008091D3012091D20190E0805C9F4F821BEB
:1005D00091098F739927089590E080E00895209104
:1005E000D4013091D50128173907B9F49091D2017F
:1005F0008091D301981789F0E091D201F0E0EE5696
:10060000FE4F80812091D20130E02F5F3F4F2F734A
:1006100033272093D20190E008958FEF9FEF089544
:1006200020916F01260F3327331F21323105ECF45F
:1006300020913102FC0190E080E0243069F082E0FA
:100640000895A0916F012191AC01415B5E4FA40F11
:10065000B52FB11D2C930196861798F380916F01E9
:10066000680F60936F0180E0089581E00895109213
:10067000310281E08093300210920B0261E082E14E
:100680000E94B30061E083E10E94B300E9EBF0E077
:1006900080818E7F808380818D7F808388E48093BA
:1006A000B80085E48093BC000895CF93DF9391E078
:1006B00090934E018823B9F0C091B800D091BA0050
:1006C0008091BC008A7B8093BC0060E082E10E9444
:1006D000B30060E083E10E94B3000E943703D0932F
:1006E000BA00C093B800DF91CF9108958F929F9286
:1006F000AF92BF92CF92DF92EF92FF920F931F9330
:10070000CF93DF93D0915A02D13208F0D7C0182F7F
:10071000C09159020E9430016B017C01809131022D
:1007200081116BC082E080933102109330028FEF11
:1007300080932F0210922E02D0932D02A9E3B2E0F3
:10074000EDE0F2E080E0D81391C010920C028091AD
:100750000C02CC0FC82BC0930C0280910B0281308D
:1007600009F088C010920B020E9430016B017C01DD
:1007700080910C028093BB008091330290913402EF
:10078000A0913502B0913602892B8A2B8B2BA1F0D8
:100790000E94300100913302109134022091350201
:1007A000309136026C197D098E099F0906171707CB
:1007B0002807390708F442C08091BC0083FDD8CFD8
:1007C00085EC8093BC000E9430016B017C0180911C
:1007D0003102823009F450C080912F028F3F09F41A
:1007E0006FC080912F02803209F46CC080912F027B
:1007F000803309F469C084E026C08091330290916F
:100800003402A0913502B0913602892B8A2B8B2BB2
:1008100009F484CF0E94300180903302909034021A
:10082000A0903502B09036026C197D098E099F099F
:1008300086169706A806B90608F070CF8091320296
:100840000E94550385E01092380210925A021092CD
:100850003702DF91CF911F910F91FF90EF90DF90C2
:10086000CF90BF90AF909F908F9008959D9191935E
:100870008F5F69CF85EEA5CF8091330290913402CE
:10088000A0913502B0913602892B8A2B8B2B09F46B
:100890009ECF0E94300100913302109134022091CA
:1008A0003502309136026C197D098E099F090617B1
:1008B00017072807390708F08ACFC0CF81E0C3CFD8
:1008C00080E0C1CF82E0BFCF83E0BDCFE0910A02DC
:1008D00080910902E81730F4F0E0E751FE4F808183
:1008E00090E008958FEF9FEF089580910902909115
:1008F0000A02891B990B0895CF92DF92EF92FF9223
:100900000F931F93CF93DF937C01CB018A0120913A
:100910003702222389F0EB016B01C40ED51ECC15E2
:10092000DD0569F06991D701ED91FC910190F081AD
:10093000E02DC7010995F3CF642F0E941003C80171
:10094000DF91CF911F910F91FF90EF90DF90CF90AB
:100950000895CF93DF931F92CDB7DEB769832091BF
:1009600037022223F9F020915A02203258F021E078
:1009700030E0FC013383228390E080E00F90DF9130
:10098000CF91089580913802E82FF0E0E75CFD4FA9
:10099000998190838F5F8093380280935A0281E01F
:1009A00090E0ECCF61E0CE0101960E941003F7CFFA
:1009B00090E080E00895FB0101900020E9F7319775
:1009C000AF01461B570BDC01ED91FC910280F381D6
:1009D000E02D09948F929F92AF92BF92EF92FF9277
:1009E0000F931F93CF93DF93CDB7DEB7A1970FB6C9
:1009F000F894DEBF0FBECDBF7C01FA01CB0119A276
:100A0000223008F42AE08E010F5D1F4F822E912CB8
:100A1000B12CA12CBF01A50194010E94EC0BF9019E
:100A2000CA016A300CF5605DD8016E938D01232BED
:100A3000242B252B79F790E080E0109721F0BD0161
:100A4000C7010E94DB04A1960FB6F894DEBF0FBE6B
:100A5000CDBFDF91CF911F910F91FF90EF90BF908D
:100A6000AF909F908F900895695CDECF85ED809365
:100A7000BC008091330290913402A0913502B09174
:100A800036020796A11DB11D23E0B695A79597954F
:100A900087952A95D1F72091BC0024FD03C01092C0
:100AA0003102089540913302509134026091350231
:100AB00070913602452B462B472B69F30097A10511
:100AC000B10541F02AE22A95F1F700C00197A1098A
:100AD000B109E1CF809132020C9455031F920F921D
:100AE0000FB60F9211242F933F938F939F93AF9341
:100AF000BF938091E1019091E201A091E301B09157
:100B0000E4013091E00123E0230F2D3758F50196E1
:100B1000A11DB11D2093E0018093E1019093E201BA
:100B2000A093E301B093E4018091E5019091E60187
:100B3000A091E701B091E8010196A11DB11D80933C
:100B4000E5019093E601A093E701B093E801BF911E
:100B5000AF919F918F913F912F910F900FBE0F906A
:100B60001F90189526E8230F0296A11DB11DD2CF24
:100B70001F920F920FB60F9211242F933F934F9312
:100B80005F936F937F938F939F93AF93BF93EF93F5
:100B9000FF938BE592E00E94D501FF91EF91BF9109
:100BA000AF919F918F917F916F915F914F913F9105
:100BB0002F910F900FBE0F901F9018951F920F92BC
:100BC0000FB60F9211242F938F939F93EF93FF9360
:100BD000E0916B02F0916C028081E0917102F091E2
:100BE000720282FD1BC09081809174028F5F8F73AF
:100BF00020917502821741F0E0917402F0E0E55A0D
:100C0000FD4F958F80937402FF91EF919F918F918B
:100C10002F910F900FBE0F901F9018958081F4CFE9
:100C20001F920F920FB60F9211242F933F934F9361
:100C30005F936F937F938F939F93AF93BF93EF9344
:100C4000FF93E091D401F091D501309749F0A6854A
:100C5000B7858585968D91FF14C09C918923A1F459
:100C6000FF91EF91BF91AF919F918F917F916F9184
:100C70005F914F913F912F910F900FBE0F901F905A
:100C800018959C91892361F7A389B4899C918589E2
:100C9000809589238C93868997890197F1F7608DD8
:100CA000718DA685B785558538E020E0CB01019789
:100CB000F1F7822F90E095958795282F4C91452349
:100CC00009F02068315091F7868D81FD2095809143
:100CD000D30190E001968F7399273091D201381794
:100CE00099F0A091D301B0E0AE56BE4F2C93809303
:100CF000D301828D938D0197F1F7A389B4898C91EB
:100D00009589892B8C93ACCF868D8160868FF1CFAE
:100D10001F920F920FB60F9211242F933F934F9370
:100D20005F936F937F938F939F93AF93BF93EF9353
:100D3000FF938091B900887F803609F44AC0F0F5AE
:100D4000883209F4A7C018F5803109F49BC0B8F4C3
:100D5000882309F4F9C0883009F494C0FF91EF9119
:100D6000BF91AF919F918F917F916F915F914F91C3
:100D70003F912F910F900FBE0F901F9018958831C3
:100D800009F488C0803251F780932F0214C0803458
:100D900009F49DC040F48033B9F38833F9F68093A9
:100DA0002F0285ECB0C0803509F485C0883509F480
:100DB00096C0883499F60E943605D0CF883909F458
:100DC0008CC038F5883729F050F4883611F0803718
:100DD00029F683E0809331021092910157C0883840
:100DE00009F47BC0803919F0803809F0B7CF8091C1
:100DF0009101803208F071C0E091910181E08E0F85
:100E0000809391018091BB00F0E0EF58FE4F80830A
:100E10003DC0803B39F0E0F4803A09F479C0883A6B
:100E200009F09CCF84E080933102109270011092FF
:100E30006F01E091D801F091D901099580916F017E
:100E400081110FC081E080936F0110924F0109C0A2
:100E5000803C09F4A6CF883C09F4A3CF883B09F075
:100E60007DCFE091700181E08E0F80937001F0E002
:100E7000E15BFE4F80818093BB0090917001809177
:100E80006F0129C080910C028093BB0085EC809398
:100E9000BC0064CF90912E0280912D02981758F5D6
:100EA000E0912E0281E08E0F80932E02F0E0E35F4E
:100EB000FD4F8081E9CFE0912E0281E08E0F80937B
:100EC0002E028091BB00F0E0E35FFD4F80839091A4
:100ED0002E0280912D029817C8F285E8D8CFE091B4
:100EE0002E0281E08E0F80932E028091BB00F0E0F5
:100EF000E35FFD4F80838091300281115CCF81E000
:100F000080930B0284EA8093BC001092310226CFBA
:100F100085EC8093BC001092310280919101803267
:100F200030F4E0919101F0E0EF58FE4F10826091B3
:100F3000910170E0E091D601F091D70181E791E055
:100F40000995109291010ACF10922F0234CF10927E
:100F50005E0210925D0288EE93E0A0E0B0E0809324
:100F60005F0290936002A0936102B093620224E05A
:100F700031E030935C0220935B0225EC30E030934B
:100F800068022093670224EC30E030936A022093D9
:100F9000690220EC30E030936C0220936B0221EC6C
:100FA00030E030936E0220936D0222EC30E03093FB
:100FB000700220936F0226EC30E03093720220938F
:100FC00071021092740210927502109276021092C1
:100FD00077021092FB021092FA028093FC02909327
:100FE000FD02A093FE02B093FF0226E131E03093B0
:100FF000F9022093F80210920703109206038093DF
:10100000080390930903A0930A03B0930B0388E2AB
:1010100091E0909305038093040310921B031092B8
:101020001A0310921D0310921C0310921F031092BA
:101030001E031092210310922003609122036E7F01
:101040006D7F609322036695617081E0682785E07B
:101050000E94B30061E085E00E94FF00E3EBF0E056
:10106000E491E0931403EFE9F0E0E491F0E0EE0F97
:10107000FF1FE057FF4F8591949190931603809343
:10108000150360E084E00E94FF008091220381FD4F
:1010900004C061E084E00E94B30084E08093100308
:1010A000E2EBF0E0E491E0931103EEE9F0E0E4918B
:1010B000F0E0EE0FFF1FEA57FF4F85919491909358
:1010C0001303809312030895789484B5826084BDDD
:1010D00084B5816084BD85B5826085BD85B581603C
:1010E00085BD80916E00816080936E0010928100BA
:1010F0008091810082608093810080918100816075
:101100008093810080918000816080938000809135
:10111000B10084608093B1008091B00081608093C1
:10112000B00080917A00846080937A0080917A0088
:10113000826080937A0080917A00816080937A0047
:1011400080917A00806880937A001092C100E091CB
:101150006B02F0916C0282E08083E0916702F09173
:1011600068021082E0916902F0916A028FEC80833C
:1011700010927302E0916F02F091700286E080831A
:10118000E0916D02F0916E02808180618083E09138
:101190006D02F0916E02808188608083E0916D0223
:1011A000F0916E02808180688083E0916D02F09101
:1011B0006E0280818F7D808310921F0310921E0328
:1011C00010921D0310921C0310921B0310921A031D
:1011D0008DE991E090932103809320039091100377
:1011E000963108F047C02DEB30E030931B0320937D
:1011F0001A032BE931E030931D0320931C032CE2EA
:1012000031E030931F0320931E032091680084E097
:10121000983048F031E09E3008F430E081E001C0C1
:10122000880F3A95EAF7822B809368002DE630E02C
:10123000983050F02BE630E09E3030F02CE630E075
:10124000963110F030E020E030931803209317031C
:10125000292F30E0983008F042C181E001C0880FAA
:101260009A95EAF7809319038091200390912103C6
:101270000197F1F780911E0390911F03892B49F18B
:10128000E091D401F091D50123E0E430F20709F1B7
:10129000309739F0A389B4899C91858980958923F9
:1012A0008C93809122038E7F809322031092D3012E
:1012B0001092D20184E093E09093D5018093D40101
:1012C000E0911703F0911803808190911903892B05
:1012D000808361E08CE00E94FF0061E08DE00E946D
:1012E000FF0061E08AE00E94FF0010920A02109263
:1012F00009021092380210925A020E94370385E5C3
:1013000091E09093D9018093D80186E591E0909384
:10131000D7018093D60181E08093370288E68093DD
:1013200059026BE688EF92E00E94A90460E088EF22
:1013300092E00E94A90481E00E94760366E371E0D6
:101340008BE592E00E94DB046AE471E08BE592E0B9
:101350000E94DB0444244A9493E0592E612C712CA2
:101360001FEF00E400937C0080917A0080648093FA
:101370007A0080917A0086FDFCCFA0917800B09130
:1013800079002FEA30E00E94CD0CA30192010E9467
:10139000CD0BCA01B901635D7F4F8F4F9F4F0E94F4
:1013A000550C0E941D0C6B01EB0161E08AE00E946C
:1013B000FF00209709F0A0C060E08AE00E94B3001F
:1013C00060E08CE00E94B30061E08DE00E94B30019
:1013D0008091DE019091DF019093DD018093DC012B
:1013E00081E080933702F8E6F093590210923802B8
:1013F00010925A026BE388EF92E00E94A90480E009
:101400000E9476030E9430016B017C0180913102C1
:101410008111B9C081E08093310280933002109332
:101420002F0210922E029DE090932D0280930C02C9
:1014300080910C02806D80930C0280910B028130B0
:1014400009F067C110920B020E9430016B017C0110
:1014500080910C028093BB00809133029091340202
:10146000A0913502B0913602892B8A2B8B2BA1F0EB
:101470000E9430018090330290903402A090350297
:10148000B09036026C197D098E099F098616970661
:10149000A806B90608F498C08091BC0083FDD8CF97
:1014A00025EC2093BC000E9430016B017C018091EF
:1014B0003102813009F431C180912E028E3008F062
:1014C0004EC180912E02ADE0B2E0E9EEF1E090E095
:1014D000981709F47EC02D9121939F5FF9CF9E301C
:1014E00040F42850310981E001C0880F2A95EAF7BD
:1014F000B9CE2E503109F7CFCF3FD10511F461E0BD
:101500005CCFECE7F0E08491833019F140F4813056
:10151000B1F08230C9F0C038D1058CF74DCF87309B
:1015200011F1883041F18430B1F780918000806200
:1015300080938000D0928B00C0928A0041CF84B506
:10154000806884BDC7BC3CCF84B5806284BDC8BC04
:1015500037CF80918000806880938000D09289008E
:10156000C09288002DCF8091B00080688093B00039
:10157000C092B30025CF8091B00080628093B0000C
:10158000C092B4001DCF8091330290913402A0919B
:101590003502B0913602892B8A2B8B2B09F436CF7A
:1015A0000E9430018090330290903402A090350266
:1015B000B09036026C197D098E099F098616970630
:1015C000A806B90608F022CF809132020E94550386
:1015D00080E010920A02809309020E94A000C82FA6
:1015E0000E94A0003C2E212CE101C82BD92B0E9487
:1015F000A0000E94A0000E94A0000E94A0000E94E3
:10160000A0000E94A0000E94A0000E94A0000E94D2
:10161000A0000E94A0000E94A0000E94A000C4564A
:10162000D109D093DF01C093DE018091DC0190915C
:10163000DD01FE01E81BF90BCF0163EC70E0E33C38
:10164000F10514F46DE37FEF0E94B90C7093DB0198
:101650006093DA01AB01770F660B770B2AE084E029
:1016600093E00E94EA04C090DA01D090DB010D2CD7
:10167000000CEE08FF082AE0B701A601F7FE0DC036
:101680006DE28BE592E00E94F70144275527BA01ED
:101690004C195D096E097F092AE08BE592E00E94F2
:1016A000EA046AE471E08BE592E00E94DB040E94A8
:1016B00030014B015C018EE5C82EDD24D394E12C72
:1016C000F12C0E943001681979098A099B09683E4A
:1016D000734081059105A8F3F1E0CF1AD108E10824
:1016E000F10828EE820E23E0921EA11CB11CC11449
:1016F000D104E104F10429F780E090E0892B09F49A
:1017000031CE0E94C101882309F42BCE0E94000033
:1017100028CE35EE3093BC00C6CE80913302909136
:101720003402A0913502B0913602892B8A2B8B2B83
:1017300009F4BDCE0E9430018090330290903402B3
:10174000A0903502B09036026C197D098E099F0970
:1017500086169706A806B90608F0A9CE35CF8EE002
:10176000B2CE88E291E090930503809304038091C8
:10177000D4019091D5018450934071F4E091170306
:10178000F0911803908180911903809589238083BB
:101790001092D5011092D4010895052E97FB1EF4E6
:1017A00000940E94E40B57FD07D00E94EC0B07FC4D
:1017B00003D04EF40C94E40B509540953095219550
:1017C0003F4F4F4F5F4F089590958095709561956D
:1017D0007F4F8F4F9F4F0895A1E21A2EAA1BBB1B6C
:1017E000FD010DC0AA1FBB1FEE1FFF1FA217B307ED
:1017F000E407F50720F0A21BB30BE40BF50B661F03
:10180000771F881F991F1A9469F7609570958095C6
:1018100090959B01AC01BD01CF010895A29FB0013D
:10182000B39FC001A39F700D811D1124911DB29F14
:10183000700D811D1124911D08950E94240C68943F
:10184000B1110C94B30C08950E94980C88F09F5726
:1018500098F0B92F9927B751B0F0E1F0660F771FD4
:10186000881F991F1AF0BA95C9F714C0B13091F0CA
:101870000E94B20CB1E008950C94B20C672F782F3F
:101880008827B85F39F0B93FCCF38695779567958F
:10189000B395D9F73EF490958095709561957F4FFB
:1018A0008F4F9F4F0895E89409C097FB3EF49095A1
:1018B0008095709561957F4F8F4F9F4F9923A9F029
:1018C000F92F96E9BB279395F695879577956795B8
:1018D000B795F111F8CFFAF4BB0F11F460FF1BC0FC
:1018E0006F5F7F4F8F4F9F4F16C0882311F096E98F
:1018F00011C0772321F09EE8872F762F05C066233D
:1019000071F096E8862F70E060E02AF09A95660FF5
:10191000771F881FDAF7880F9695879597F90895AE
:1019200057FD9058440F551F59F05F3F71F0479590
:10193000880F97FB991F61F09F3F79F08795089575
:10194000121613061406551FF2CF4695F1DF08C094
:10195000161617061806991FF1CF869571056105B1
:1019600008940895E894BB2766277727CB0197F959
:10197000089597FB072E16F4009407D077FD09D041
:101980000E94D40C07FC05D03EF4909581959F4FA2
:101990000895709561957F4F08950E940E0CB7FFD2
:1019A0000895821B930B0895AA1BBB1B51E107C02E
:1019B000AA1FBB1FA617B70710F0A61BB70B881FDF
:1019C000991F5A95A9F780959095BC01CD0108956E
:1019D000EE0FFF1F0590F491E02D099410E0C2E690
:1019E000D0E004C0FE010E94E80C2196C336D10766
:0619F000C9F7F894FFCFD7
:1019F60000000000F701570184014402B50193017C
:101A0600A70100000000A9047C04D8047C02750428
:101A16008D006604000000007D025701D8047C0298
:101A2600D902EF026402496E697469616C697A656C
:0E1A360020436F6465202E2E2E000D0A000046
:00000001FF
