:100000000C9464000C948C000C948C000C948C0068
:100010000C948C000C948C000C948C000C94110F9C
:100020000C948C000C948C000C948C000C94E410B8
:100030000C948C000C948C000C948C000C948C0010
:100040000C94C70E0C948C000C94930F0C946D0FB1
:100050000C948C000C948C000C948C000C948C00F0
:100060000C94C50F0C948C000000000024002700A5
:100070002A000000000023002600290000000008DC
:10008000000201000003040700000000000000005F
:10009000010204081020408001020408102001021F
:1000A0000408102000000000250028002B00040494
:1000B0000404040404040202020202020303030310
:1000C00003030200A0113C1611241FBECFEFD8E09D
:1000D000DEBFCDBF12E0A0E0B1E0ECE2F2E302C08F
:1000E00005900D92A43FB107D9F725E0A4EFB2E047
:1000F00001C01D92A734B207E1F710E0C3E6D0E0DB
:1001000004C02197FE010E940817C236D107C9F723
:100110000E947A120C9409190C94000096E0899FB1
:10012000D0011124A454BB4F90967C936E935F979B
:1001300091E091969C939197E0912905F0912A0581
:1001400090912805992339F0309751F0811108C01A
:100150008091D8040994309719F05C968C91FACF6D
:100160000895CF92DF92EF92FF920F931F9396E044
:10017000899FF0011124E454FB4F11A2278D30A177
:100180002130310551F178F02230310509F451C0A8
:100190002330310509F452C01F910F91FF90EF9069
:1001A000DF90CF9008956623B9F361E070E00E947C
:1001B0008E002FB7F8948091C2039091C303A09151
:1001C000C403B091C5032FBF809314059093150508
:1001D000A0931605B0931705DFCF9FB7F894C09092
:1001E000C203D090C303E090C403F090C5039FBF47
:1001F00000911405109115052091160530911705F1
:10020000C01AD10AE20AF30A0091260510912705C7
:1002100030E020E00C151D052E053F0550F462E08E
:1002200070E01F910F91FF90EF90DF90CF900C94B2
:100230008E006111B1CF63E070E0F3CF70E060E059
:10024000F0CF833081F028F4813099F08230A9F02A
:1002500008958730A9F08830C9F08430B1F48091D6
:1002600080008F7D03C0809180008F778093800015
:10027000089584B58F7784BD089584B58F7DFBCFB5
:100280008091B0008F778093B00008958091B00086
:100290008F7DF9CFCF93DF93282F30E0F901E45819
:1002A000FF4F8491F901E057FF4FD491F901E255D6
:1002B000FF4FC491CC23A1F081110E942101EC2FAA
:1002C000F0E0EE0FFF1FEE58FF4FA591B491EC91B7
:1002D000ED2381E090E009F480E0DF91CF91089573
:1002E00080E090E0FACF862F0C944A011F93CF93C1
:1002F000DF93282F30E0F901E458FF4F8491F90192
:10030000E057FF4FD491F901E255FF4FC491CC2340
:10031000A9F0162F81110E942101EC2FF0E0EE0FC1
:10032000FF1FEC55FF4FA591B4918FB7F894EC9156
:10033000111108C0D095DE23DC938FBFDF91CF91E0
:100340001F910895DE2BF8CF862F642F0C94760131
:10035000CF93DF9390E0FC01E057FF4F249182554B
:100360009F4FFC0184918823C9F090E0880F991F6A
:10037000FC01E859FF4FA591B491FC01EC55FF4FEA
:10038000C591D49161110DC09FB7F8948C912095BF
:1003900082238C938881282328839FBFDF91CF916C
:1003A0000895623051F49FB7F8943C91822F809564
:1003B00083238C93E8812E2BEFCF8FB7F894EC91A9
:1003C0002E2B2C938FBFEACF1F93CF93DF93EC019B
:1003D000162F88818C3008F04EC061E0812F0E947A
:1003E000A8018881282F30E0F901EE0FFF1FE20FEE
:1003F000F31FE952FC4F1F736081607C612B6083A7
:1004000019821A822CE0622F0E94FC16829FB00192
:10041000112430E020E0AB01420F531FFA01EE0F30
:10042000FF1FE40FF51FE952FC4F908196FD16C0A7
:100430002F5F3F4F2C30310571F781110FC01092A3
:10044000800082E0809381001092850010928400E9
:10045000B19A80916F00826080936F00E8818E2F47
:1004600090E0FC01EE0FFF1FE80FF91FE952FC4F6F
:100470008081806480838881DF91CF911F9108956E
:100480004F925F926F927F928F929F92AF92BF92A4
:10049000CF92DF92EF92FF920F931F93CF938C0135
:1004A0006A017B01809122018B3099F08F3F09F422
:1004B0005CC0CF911F910F91FF90EF90DF90CF9094
:1004C000BF90AF909F908F907F906F905F904F9074
:1004D0000895E2ECF0E0C491C7FDEBCF61E08BE062
:1004E0000E94A8012801712C612CCC23F1F0980105
:1004F00050E040E0C23009F0A7C028013A0160E9AD
:1005000070ED83E090E00E94621649015A0181E09B
:10051000881A9108A108B10893E08FEF881691041A
:10052000A104B10409F00CF4DDC068E478EE81E0C8
:1005300090E0A30192010E94621649015A0181E0F4
:10054000881A9108A108B10894E0C111CBC085B503
:10055000887F836085BD2FEF3FEFA901C114D104CF
:10056000E104F10409F4D2C08DC08BE08093220134
:10057000E2ECF0E0C491CF3F09F49BCFC13021F110
:1005800050F0C23009F43EC0C7FD93CF61E08BE06C
:100590000E94A801ACCF14BC15BC84B5826084BD98
:1005A00085B5816085BDE9EBF0E0E491F0E0EE0F08
:1005B000FF1FEC55FF4F85919491EBE9F0E0E4913A
:1005C000E093CA03C0E08ACF1092800010928100AD
:1005D000809181008860809381008091810081609A
:1005E00080938100E9EBF0E0E491F0E0EE0FFF1F73
:1005F000EC55FF4F85919491EBE9F0E0E491E093A5
:10060000C9036CCF1092B0001092B1008091B0007D
:1006100082608093B0008091B10081608093B100CE
:10062000E9EBF0E0E491F0E0EE0FFF1FEC55FF4F37
:10063000859194919093C8038093C703EBE9F0E010
:10064000E491E093C6034ACF60E072E18AE790E06C
:100650000E94621649015A0181E0881A9108A10896
:10066000B108C13009F044C080918100887F816069
:10067000809381002FEF3FEFA901C114D104E10461
:10068000F10471F0D801AA0FBB1FA70196010E94C7
:10069000811628EE33E040E050E00E94CB1630C0D7
:1006A00090928900809288002093CF033093D003EA
:1006B0004093D1035093D20380916F008260809366
:1006C0006F00F7CE8092B3002093CB033093CC031E
:1006D0004093CD035093CE0380917000826080934D
:1006E0007000E7CE8091B100887F892B8093B100A4
:1006F0002FEF3FEFA901C114D104E104F10411F679
:10070000C13071F2C230F1F2C111D3CE87BC209357
:10071000D3033093D4034093D5035093D6038091F1
:100720006E00826080936E00C4CE862F642F0C947E
:10073000A8016F927F928F929F92AF92BF92CF92B9
:10074000DF92EF92FF920F931F93CF93DF9381E09D
:10075000809328058FB7F8944091C2035091C3034A
:100760006091C4037091C5038FBF8091180590916B
:100770001905A0911A05B0911B05481B590B6A0B6E
:100780007B0B8091240590912505B0E0A0E08417B3
:100790009507A607B70708F01DC1C0E080912205A4
:1007A000C81760F4E0911E05F0911F05EC0FF11DD4
:1007B00062E080810E94A801CF5FF0CF712C812C74
:1007C000912C5401839480912305781608F05FC022
:1007D000072D10E0E0912005F0912105E00FF11FB9
:1007E00061E080810E94A801E0912005F09121053F
:1007F000E00FF11F60E080810E947601D501C40105
:10080000072C04C0880F991FAA1FBB1F0A94D2F798
:100810006C017C01E094F094612C809122056816B3
:10082000F8F4C62DD0E0E0911E05F0911F05EC0F05
:10083000FD1F80810E944A012496CC0FDD1FC45405
:10084000DB4F892B41F4888199818C299D299983DB
:1008500088836394E2CF888199818E219F21F7CF8D
:10086000E0912005F0912105E00FF11F61E080810A
:100870000E9476018091200590912105080F191F93
:1008800060E0F80180810E94A80173949CCFCCEBBA
:10089000D4E0FE018FEF9FEF278D30A1232B21F4B1
:1008A000148E968F858F11A2369624E0E83FF207CA
:1008B00099F7F12C96E0D92E80912205F81608F0D0
:1008C00050C0E12C0F2D10E0000F111F0C531B4FD7
:1008D00020912305E21608F042C0F8016081718181
:1008E0000E2C02C0769567950A94E2F7F29E90016D
:1008F00011242E0D311DECEBF4E080E0458D568D7A
:100900002417350709F46AC08F5F36968A30B1F72D
:1009100060FF23C0ECEBF4E090E080E0448D4111F7
:1009200017C0E0911C05F0911D05E20FF31F4081F7
:10093000D89EF001D99EF00D1124E454FB4F448F52
:10094000368F258F10A2178E61E00E94B10005C07E
:10095000019636968A30910509F7E394B9CFF3945E
:10096000ABCF80E099A19111892F2696F4E0C83F82
:10097000DF07C1F79FB7F8944091C2035091C303BA
:100980006091C4037091C5039FBF409318055093B5
:10099000190560931A0570931B058823D9F080917F
:1009A000DD048823B9F08091DB049091DC04019789
:1009B00089F48091D804DF91CF911F910F91FF901E
:1009C000EF90DF90CF90BF90AF909F908F907F90EF
:1009D0006F9008951092280580E0EDCF6170B5CF3B
:1009E0003FB7F8948091BD039091BE03A091BF03DF
:1009F000B091C00326B5A89B05C02F3F19F0019602
:100A0000A11DB11D3FBFBA2FA92F982F8827BC0168
:100A1000CD01620F711D811D911D42E0660F771F90
:100A2000881F991F4A95D1F708958F929F92AF9290
:100A3000BF92CF92DF92EF92FF924B015C010E9436
:100A4000F0046B017C010E94F0046C197D098E0991
:100A50009F09683E734081059105A8F321E0821A41
:100A60009108A108B10888EEC80E83E0D81EE11CE9
:100A7000F11C81149104A104B10429F7FF90EF90B7
:100A8000DF90CF90BF90AF909F908F900895089582
:100A9000089508959091220189130BC0E2ECF0E0D3
:100AA000E4919FEF90932201E13049F028F0E23089
:100AB00061F060E00C94760110926E00FACF909194
:100AC0006F009D7F90936F00F4CF909170009D7F99
:100AD0009093700091E09093B0009091B100987F56
:100AE00094609093B1001092B300E3CFAF92BF92A5
:100AF000CF92DF92EF92FF920F931F93CF93DF93EA
:100B00006C017B018B01040F151FEB015E01AE1818
:100B1000BF08C017D10759F06991D601ED91FC913A
:100B20000190F081E02DC6010995892B79F7C50167
:100B3000DF91CF911F910F91FF90EF90DF90CF90B9
:100B4000BF90AF900895FC01538D448D252F30E068
:100B5000842F90E0821B930B541710F0CF960895CA
:100B600001970895FC01918D828D981761F0A28DF7
:100B7000AE0FBF2FB11D5D968C91928D9F5F9F73BD
:100B8000928F90E008958FEF9FEF0895FC01918D73
:100B9000828D981731F0828DE80FF11D858D90E0E0
:100BA00008958FEF9FEF0895FC01918D228D892F7D
:100BB00090E0805C9F4F821B91098F739927089565
:100BC0008BEF93E00E94D40521E0892B09F420E00B
:100BD000822F089580E090E0892B29F00E94E005A3
:100BE00081110C9400000895FC01A48DA80FB92F69
:100BF000B11DA35ABF4F2C91848D90E001968F7345
:100C00009927848FA689B7892C93A089B1898C9163
:100C1000837080648C93938D848D981306C00288B2
:100C2000F389E02D80818F7D80830895EF92FF927C
:100C30000F931F93CF93DF93EC0181E0888F9B8DFF
:100C40008C8D98131AC0E889F989808185FF15C0B9
:100C50009FB7F894EE89FF896083E889F9898081DC
:100C60008370806480839FBF81E090E0DF91CF91AB
:100C70001F910F91FF90EF900895F62E0B8D10E0CD
:100C80000F5F1F4F0F731127E02E8C8D8E110CC03C
:100C90000FB607FCFACFE889F989808185FFF5CF87
:100CA000CE010E94F405F1CFEB8DEC0FFD2FF11D6D
:100CB000E35AFF4FF0829FB7F8940B8FEA89FB89C4
:100CC00080818062CFCFCF93DF93EC01888D882322
:100CD000B9F0AA89BB89E889F9898C9185FD03C09F
:100CE000808186FD0DC00FB607FCF7CF8C9185FF84
:100CF000F2CF808185FFEDCFCE010E94F405E9CFD0
:100D0000DF91CF91089520916203260F3327331F7F
:100D100021323105ECF420918603FC0190E080E063
:100D2000243069F082E00895A09162032191AC0122
:100D30004E5B5C4FA40FB52FB11D2C930196861707
:100D400098F380916203680F6093620380E00895D6
:100D500081E008951092860381E0809388031092C9
:100D6000870361E082E10E94760161E083E10E94F5
:100D70007601E9EBF0E080818E7F808380818D7F3A
:100D8000808388E48093B80085E48093BC00089554
:100D9000CF93DF9391E0909341038823B9F0C09102
:100DA000B800D091BA008091BC008A7B8093BC00CF
:100DB00060E082E10E94760160E083E10E947601BA
:100DC0000E94AA06D093BA00C093B800DF91CF91D9
:100DD00008950895E091B3038091B203E81730F4C9
:100DE000F0E0E45EFC4F808190E008958FEF9FEF8C
:100DF00008959091B3038091B2032FEF3FEF9817BE
:100E000048F4E92FF0E0E45EFC4F208130E09F5F82
:100E10009093B303C90108958091B2039091B303F5
:100E2000891B990B0895CF92DF92EF92FF920F9357
:100E30001F93CF93DF937C01CB018A0120911B0389
:100E4000222389F0EB016B01C40ED51ECC15DD0504
:100E500069F06991D701ED91FC910190F081E02D4D
:100E6000C7010995F3CF642F0E948306C801DF9163
:100E7000CF911F910F91FF90EF90DF90CF90089549
:100E8000CF93DF931F92CDB7DEB7698320911B0309
:100E90002223F9F02091B003203258F021E030E015
:100EA000FC013383228390E080E00F90DF91CF91AB
:100EB00008958091B103E82FF0E0E550FD4F99814E
:100EC00090838F5F8093B1038093B00381E090E0C3
:100ED000ECCF61E0CE0101960E948306F7CFCF925E
:100EE000DF92EF92FF920F931F93CF93DF93FC015A
:100EF000C48121E020931B03C093FA021092B10336
:100F00001092B0038385682B88E994E00E94400723
:100F1000D091B003D13208F092C00E94F0046B016E
:100F20007C0180918603811165C082E080938603F5
:100F300081E0809388038FEF809385031092AA034A
:100F4000D093A903ABEFB2E0E9E8F3E080E0D81377
:100F500085C01092AB038091AB03CC0FC82BC0931C
:100F6000AB0380918703813009F07CC01092870326
:100F70000E94F0046B017C018091AB038093BB0065
:100F800080913D0390913E03A0913F03B0914003B7
:100F9000892B8A2B8B2B99F00E94F00400913D0342
:100FA00010913E0320913F03309140036C197D095D
:100FB0008E099F090617170728073907E0F1809166
:100FC000BC0083FDD9CF85EC8093BC000E94F00467
:100FD0006B017C0180918603823009F445C08091C9
:100FE00085038F3F61F180918503803241F18091CB
:100FF000850325C080913D0390913E03A0913F035E
:10100000B0914003892B8A2B8B2B09F48ACF0E9445
:10101000F00400913D0310913E0320913F03309175
:1010200040036C197D098E099F09061717072807C9
:10103000390708F076CF80913C030E94C8061092D1
:10104000B1031092B00310921B03DF91CF911F9157
:101050000F91FF90EF90DF90CF9008959D91919325
:101060008F5F75CF85EEB0CF80913D0390913E03A9
:10107000A0913F03B0914003892B8A2B8B2B09F45D
:10108000A9CF0E94F00400913D0310913E032091EE
:101090003F03309140036C197D098E099F090617A3
:1010A00017072807390708F095CFC5CF90E080E0F3
:1010B00008958F929F92AF92BF92FF920F931F93CA
:1010C000CF93DF93FC01F0808BE08F1508F44AC0CA
:1010D000828108E512E0081B110987FD1395000FB6
:1010E000111F000F111F8181C8E8D0E0C81BD10972
:1010F00087FDD395CC0FDD1FCC0FDD1F4E010D2ECC
:10110000000CAA08BB089801012E000C440B550BDB
:10111000281939094A095B09DB010E948C1624EB66
:1011200030E040E050E00E946216820E931EA41E42
:10113000B51E8C169D062CF0E801801691060CF465
:10114000E4012297CC0FDD1F2FB7F8948F2D90E08C
:10115000FC01EE0FFF1FE80FF91FE952FC4FD2838D
:10116000C1832FBFDF91CF911F910F91FF90BF904F
:10117000AF909F908F900895FC019091F9029C3060
:1011800098F481E0890F8093F9029083892F90E091
:10119000FC01EE0FFF1FE80FF91FE952FC4F88EB2F
:1011A0009BE09283818308958FEF808308950F934E
:1011B0001F93CF938C01C62F0E946F076C2F646022
:1011C000C8010E946F076C2F6B7FC8010E946F07D8
:1011D00083EC90E00197F1F7CF911F910F91089563
:1011E0000F931F93CF93DF938C01D62FC42F607F73
:1011F000642B0E94D70880E1D89FB00111246C2B8A
:10120000C801DF91CF911F910F910C94D708CF9314
:10121000DF93CDB7DEB728970FB6F894DEBF0FBEC9
:10122000CDBF98E0ECE3F1E0DE01119601900D9264
:101230009A95E1F790913305961710F46FEF690FC7
:10124000262F30E0220F331F41E050E04C0F5D1F8E
:10125000240F351FF9016081680F606840E08BE260
:1012600095E028960FB6F894DEBF0FBECDBFDF9194
:10127000CF910C94F00840E061E08BE295E00E9491
:10128000F0088BE39FE10197F1F7089541E00E9498
:10129000F00881E090E008950F931F93CF93DF93C0
:1012A0008B0198E0899FB0011124606440E08BE2DB
:1012B00095E00E94F008E801085F1F4F69918BE2FA
:1012C00095E00E944609C017D107C1F7DF91CF9181
:1012D0001F910F910895FB0101900020E9F73197CC
:1012E000AF01461B570BDC01ED91FC910280F381AD
:1012F000E02D09940C946B090E943B0963E08EE099
:101300000E9407096EE771E08BE295E00E947A097E
:1013100060E088E00E94070965E871E08BE295E0F3
:101320000E947A0960E08BE00E94070965E871E09D
:101330008BE295E00E947A0961E089E00E9407094A
:1013400061E08BE295E00E94460961E08AE00E943C
:10135000070962E08BE295E00E94460962E087E0BF
:101360000E94070960E08BE295E00E94460962E076
:101370008CE00E94070960E08BE295E00E9446093C
:1013800063E089E00E94070960E08BE295E00E943B
:10139000460963E08AE00E94070960E08BE295E07D
:1013A0000E94460964EF71E080E090E00C9415051E
:1013B0008F929F92AF92BF92CF92DF92EF92FF9265
:1013C000CF93DF93CDB7DEB7A1970FB6F894DEBF0A
:1013D0000FBECDBF67E871E08BEF93E00E947A0902
:1013E0008DE00E944A016C01990FEE08FF08F7FE9C
:1013F00087C06DE28BEF93E00E9416062227332709
:10140000A9012C193D094E095F0919A2CE01819647
:101410007C019AE0892E912CA12CB12CCA01B90132
:10142000A50194010E94CB16605DF70162937F01D4
:10143000211531054105510589F7E114F10429F021
:10144000B7018BEF93E00E946B096FE871E08BEFBF
:1014500093E00E946B098DE00E944A019093050180
:10146000809304018091040190910501019709F096
:1014700062C08091020190910301892B61F30E9467
:101480003B0960E080E00E94070962E971E08BE2BD
:1014900095E00E947A0962E080E00E9407096CE909
:1014A00071E08BE295E00E947A0981E090E0209162
:1014B000200130912101232B11F090E080E09093E6
:1014C000B9038093B80381E090E02091000130914E
:1014D0000101232B11F090E080E09093F7028093BC
:1014E000F6021092BB031092BA03109203011092FD
:1014F000020161E070E080E090E00E941505ABCF52
:10150000A701960119A2CE0181967C018AE0882E5E
:10151000912CA12CB12CCA01B901A50194010E9402
:10152000CB16605DF70162937F01211531054105FE
:10153000510589F782CF81E090E090930301809379
:101540000201A1960FB6F894DEBF0FBECDBFDF91AA
:10155000CF91FF90EF90DF90CF90BF90AF909F9092
:101560008F900895CF93DF93EC018091B004909118
:10157000B1040097E9F06881798161157105B1F0D6
:101580004091B2045091B3042C813D81421753071E
:1015900068F00E9402198C819D819093B50480931C
:1015A000B4041D821C82DF91CF9108950E94AA1776
:1015B000888199819093B1048093B0048A819B8142
:1015C0009093B3048093B2048C819D819093B50471
:1015D0008093B404198218821B821A82E2CFFC0124
:1015E00080819181009711F00C94AA1708950F93B0
:1015F0001F93CF93DF93EC0188819981009759F075
:101600002A813B812617370730F081E0DF91CF91A7
:101610001F910F9108958B016F5F7F4F0E943318C8
:10162000009759F0998388831B830A832C813D811D
:10163000232B59F7FC011082E8CF80E0E7CFEF922F
:10164000FF920F931F93CF93DF9300D0CDB7DEB7F8
:101650008C0169831A82FC01E480F580FFEFEF1AA8
:10166000FF0AB7010E94F70A882381F0F801208160
:10167000318184819581BE016F5F7F4F820F931FFF
:101680000E940219F801F582E48281E00F900F9028
:10169000DF91CF911F910F91FF90EF900895CF931D
:1016A0000E949903C82F882309F443C0682F8BEF49
:1016B00093E00E9416066FE871E08BEF93E00E94C2
:1016C0006B0980ED8C0F8A3018F56C2F8AEA94E054
:1016D0000E941F0B6AE284EA94E00E941F0B48EC10
:1016E00050E060E070E088E592E00E94400261E036
:1016F00080E00E9407094091A8045091A9046091DC
:10170000A4047091A5048BE295E0CF910C9476052A
:10171000CA3269F748EC50E060E070E088E592E09A
:101720000E94400281E090E09093F5028093F402E1
:10173000DECFCF910895EF92FF920F931F93CF9337
:10174000DF93EC017B018A01BA010E94F70A28812C
:101750003981811114C02115310519F0C9010E9488
:10176000AA17198218821D821C821B821A82CE013E
:10177000DF91CF911F910F91FF90EF9008951D83FE
:101780000C83B701C9010E940219F1CF50E040E07B
:1017900061E971E00C949B0BFC01118210821382B1
:1017A000128215821482FB0101900020E9F7319723
:1017B000AF01461B570B0C949B0B6F927F928F923D
:1017C0009F92AF92BF92CF92DF92EF92FF920F93D0
:1017D0001F93CF93DF9300D000D000D0CDB7DEB7FA
:1017E0005C016DB67EB690E080E00E944C16082F3A
:1017F00010E0C80101962DB73EB7281B390B0FB674
:10180000F8943EBF0FBE2DBF8DB79EB701967C01E9
:101810004C01D12CC12CC016D10654F49FEFC91A2B
:10182000D90AC6010E944C16F40181934F01F3CFEF
:10183000F701E00FF11F1082B701CE0101960E945F
:10184000CC0B90E080E02D813E818217930728F435
:10185000E981FA81309709F04CC01092C103E1ECA4
:10186000F3E040814A3051F48217930738F4E9815C
:10187000FA81E80FF91F9E838D8310820196081765
:1018800019070CF76FEA71E08BEF93E00E947A0979
:101890004D815E8169817A818BEF93E00E947605AC
:1018A0006FE871E08BEF93E00E946B09B701C5010F
:1018B0000E94CC0BCE0101960E94EF0AC5010FB623
:1018C000F8947EBE0FBE6DBE26960FB6F894DEBFAE
:1018D0000FBECDBFDF91CF911F910F91FF90EF9081
:1018E000DF90CF90BF90AF909F908F907F906F9040
:1018F0000895E80FF91FB5CF85ED8093BC00809166
:101900003D0390913E03A0913F03B09140030796A1
:10191000A11DB11D23E0B695A795979587952A95AA
:10192000D1F72091BC0024FD03C0109286030895D6
:1019300040913D0350913E0360913F0370914003FD
:10194000452B462B472B69F30097A105B10541F0C4
:101950002AE22A95F1F700C00197A109B109E1CF68
:1019600080913C030C94C806EF92FF920F931F9353
:10197000CF93DF9300D000D000D0CDB7DEB78091F9
:101980000001909101012091F6023091F702281791
:10199000390729F081309105F1F00297B9F10E94E1
:1019A0009903803309F044C048EC50E060E070E0F7
:1019B00088E592E00E94400280910001909101012F
:1019C0000196833091058CF590930101809300017D
:1019D00010E000E0CEC10E943B0964EB71E08BE2B5
:1019E00095E00E947A0962E080E00E9407096AECB3
:1019F00071E08BE295E00E947A098091000190915C
:101A000001019093F7028093F602C9CF0E943B092F
:101A100065EB71E08BE295E00E947A0962E080E07C
:101A20000E94070969EC71E0E4CF82E090E0CCCF3E
:101A30008233A1F448EC50E060E070E088E592E089
:101A40000E944002809100019091010101971816B7
:101A500019060CF4B9CF81E090E0B6CF8A3209F0D4
:101A6000B7CF48EC50E060E070E088E592E00E947B
:101A7000400200910001109101010130110509F0AF
:101A8000C8C08AEA94E00E94C60B84EA94E00E94EF
:101A9000C60B0E943B0960E080E00E94070969EDE7
:101AA00071E08BE295E00E947A098091F4029091B6
:101AB000F502892B19F40E944F0BF7CF1092F50213
:101AC0001092F402CE0101960E94DD0BCE01019628
:101AD0000E94B20ACE0101960E94EF0A1A82198270
:101AE0001C821B821E821D826091B0047091B10421
:101AF0006115710541F04091B4045091B504CE01D7
:101B000001960E949B0B4D815E8169817A818BEFEA
:101B100093E00E947605CE0101960E94EF0A209183
:101B2000B4043091B5048091AE049091AF042817AD
:101B30003907C1F48091B0049091B1046091AA0476
:101B40007091AB04009709F4F4C06115710539F484
:101B5000232B09F4FCC0FC01808190E0F5C00E94B9
:101B6000F918F2C040E050E0BA0188EE93E0053089
:101B70001105E9F50E94400268EE73E080E090E014
:101B80000E9415058BE00E944A050AE010E00F5FF5
:101B90001F4F0630110534F30E943B0960E080E0DE
:101BA0000E94070968EF71E08BE295E00E947A09D4
:101BB00062E080E00E94070967E072E08BE295E056
:101BC0000E947A0968EE73E080E090E00E941505BB
:101BD00081E090E02091000130910101232B11F070
:101BE00090E080E09093F7028093F602F1CE0E949D
:101BF000400264E670E080E090E00E9415058BE012
:101C00000E944A0564E670E080E090E00E941505BD
:101C1000BECF0230110509F0DBCE8AEA94E00E94C3
:101C2000C60B84EA94E00E94C60B0E943B0960E068
:101C300080E00E94070961E172E08BE295E00E947A
:101C40007A098091F4029091F502892B19F40E948F
:101C50004F0BF7CF1092F5021092F4026091AA0494
:101C60007091AB046115710571F14091AE04509112
:101C7000AF0480EB94E00E949B0BE090B404F090E2
:101C8000B5046E2D90E080E00E94541610E000E054
:101C9000FF240E151F0574F58091B4049091B504CE
:101CA0000817190728F58091B0049091B1040097A6
:101CB000F9F0800F911FFC0160810F5F1F4FC80179
:101CC0000E945416E6CF8091B0049091B104009721
:101CD00011F00E94AA171092B1041092B004109251
:101CE000B5041092B4041092B3041092B204C5CF9C
:101CF00060E0E3CF0E943B0960E080E00E940709BA
:101D00006FE172E08BE295E00E947A0961E080E089
:101D10000E9407096CE272E08BE295E00E947A096A
:101D200068EE73E080E090E00E94150501E010E0AD
:101D300020C06115710559F0232B49F0FB0180810A
:101D400090E0919581959109892B09F00BCF0E9424
:101D50003B0960E080E00E94070969EE71E08BE2D8
:101D600095E00E947A0968EE73E080E090E00E94BE
:101D70001505C80126960FB6F894DEBF0FBECDBF7D
:101D8000DF91CF911F910F91FF90EF9008951F92D7
:101D90000F920FB60F9211242F933F938F939F931F
:101DA000AF93BF938091C2039091C303A091C403EA
:101DB000B091C5033091BC0323E0230F2D3758F5B4
:101DC0000196A11DB11D2093BC038093C203909383
:101DD000C303A093C403B093C5038091BD03909146
:101DE000BE03A091BF03B091C0030196A11DB11D18
:101DF0008093BD039093BE03A093BF03B093C00331
:101E0000BF91AF919F918F913F912F910F900FBEF6
:101E10000F901F90189526E8230F0296A11DB11D63
:101E2000D2CF1F920F920FB60F9211242F933F9390
:101E30004F935F936F937F938F939F93AF93BF93D2
:101E4000EF93FF938091CB039091CC03A091CD03AE
:101E5000B091CE03892B8A2B8B2BD1F19091C603A5
:101E6000E091C703F091C803808189278083809126
:101E7000CB039091CC03A091CD03B091CE03181663
:101E800019061A061B069CF48091CB039091CC0393
:101E9000A091CD03B091CE030197A109B109809320
:101EA000CB039093CC03A093CD03B093CE03FF91CB
:101EB000EF91BF91AF919F918F917F916F915F91C2
:101EC0004F913F912F910F900FBE0F901F9018953B
:101ED000809122010E944A05EACF1F920F920FB60D
:101EE0000F9211242F933F934F935F936F937F93A0
:101EF0008F939F93AF93BF93EF93FF938BEF93E0F9
:101F00000E94F405FF91EF91BF91AF919F918F9146
:101F10007F916F915F914F913F912F910F900FBEE5
:101F20000F901F9018951F920F920FB60F921124C9
:101F30002F938F939F93EF93FF93E0910B04F09176
:101F40000C048081E0911104F091120482FD1BC009
:101F50009081809114048F5F8F73209115048217F4
:101F600041F0E0911404F0E0E550FC4F958F809330
:101F70001404FF91EF919F918F912F910F900FBEBD
:101F80000F901F9018958081F4CF1F920F920FB67B
:101F90000F9211242F933F934F935F936F937F93EF
:101FA0008F939F93AF93BF93EF93FF938091B9006B
:101FB000887F803609F44AC0F0F5883209F4A7C05A
:101FC00018F5803109F49BC0B8F4882309F4F9C0EE
:101FD000883009F494C0FF91EF91BF91AF919F9128
:101FE0008F917F916F915F914F913F912F910F90C2
:101FF0000FBE0F901F901895883109F488C0803269
:1020000051F78093850314C0803409F49DC040F4D7
:102010008033B9F38833F9F68093850385ECB0C03B
:10202000803509F485C0883509F496C0883499F65E
:102030000E947C0CD0CF883909F48CC038F58837E1
:1020400029F050F4883611F0803729F683E0809328
:1020500086031092840357C0883809F47BC0803906
:1020600019F0803809F0B7CF80918403803208F0EE
:1020700071C0E091840381E08E0F8093840380918E
:10208000BB00F0E0EC59FC4F80833DC0803B39F051
:10209000E0F4803A09F479C0883A09F09CCF84E0F2
:1020A000809386031092630310926203E091AE0363
:1020B000F091AF0309958091620381110FC081E017
:1020C000809362031092420309C0803C09F4A6CFBA
:1020D000883C09F4A3CF883B09F07DCFE0916303EE
:1020E00081E08E0F80936303F0E0EE5BFC4F808114
:1020F0008093BB00909163038091620329C080911B
:10210000AB038093BB0085EC8093BC0064CF9091BF
:10211000AA038091A903981758F5E091AA0381E0DA
:102120008E0F8093AA03F0E0E757FC4F8081E9CF40
:10213000E091AA0381E08E0F8093AA038091BB00F7
:10214000F0E0E757FC4F80839091AA038091A903A8
:102150009817C8F285E8D8CFE091AA0381E08E0FE6
:102160008093AA038091BB00F0E0E757FC4F808387
:102170008091880381115CCF81E08093870384EA9A
:102180008093BC001092860326CF85EC8093BC0020
:102190001092860380918403803230F4E0918403AE
:1021A000F0E0EC59FC4F10826091840370E0E09104
:1021B000AC03F091AD0384E693E00995109284039B
:1021C0000ACF1092850334CF1F920F920FB60F9251
:1021D00011242F933F934F935F936F937F938F932C
:1021E0009F93AF93BF93CF93DF93EF93FF93809130
:1021F000F802C091F902D0E087FF24C01092850058
:10220000109284008091F8028F5F8093F802809191
:10221000F802082E000C990B8C179D0724F480916E
:10222000F8028C30C4F1809184009091850004966E
:1022300080349C4908F47AC0809184009091850094
:10224000049676C08091F802082E000C990B8C172A
:102250009D07C4F6E091F8028E2FEE0F990BFC015A
:10226000EE0FFF1FE80FF91FE952FC4F808186FF38
:10227000C9CFE091F8028E2FEE0F990BFC01EE0F03
:10228000FF1FE80FF91FE952FC4F808160E08F7358
:102290000E947601B7CF2091840030918500E091B3
:1022A000F8028E2FEE0F990BFC01EE0FFF1FE80FC7
:1022B000F91FE952FC4F81819281820F931F909305
:1022C000890080938800E091F8028E2FEE0F990B21
:1022D000FC01EE0FFF1FE80FF91FE952FC4F808150
:1022E00086FF11C0E091F8028E2FEE0F990BFC01D2
:1022F000EE0FFF1FE80FF91FE952FC4F808161E0EC
:102300008F730E947601FF91EF91DF91CF91BF9182
:10231000AF919F918F917F916F915F914F913F917D
:102320002F910F900FBE0F901F90189580E49CE99D
:1023300090938900809388008FEF8093F802E3CF19
:102340001092FE031092FD0388EE93E0A0E0B0E04F
:102350008093FF0390930004A0930104B0930204C0
:1023600028E431E03093FC032093FB0325EC30E0BC
:10237000309308042093070424EC30E030930A04DF
:102380002093090420EC30E030930C0420930B04DC
:1023900021EC30E030930E0420930D0422EC30E069
:1023A0003093100420930F0426EC30E03093120495
:1023B0002093110410921404109215041092160424
:1023C0001092170410929B0410929A0480939C041C
:1023D00090939D04A0939E04B0939F048AE591E09E
:1023E000909399048093980480E495E00E94BC083F
:1023F0008DE395E00E94BC088AE395E00E94BC084A
:1024000087E395E00E94BC0810922E0510922D05DE
:1024100086E791E090932C0580932B0587E28093CB
:102420002F0584E18093340584E080933505109274
:1024300036051092BE041092C2041092C10410928C
:10244000C3048CE691E09093BD048093BC04E8ED56
:10245000F4E01082148213821582369685E0E4310E
:10246000F807B9F786E291E090931F0580931E0567
:1024700083E291E0909321058093200584E080938E
:10248000220583E0809323058AE291E090931D0565
:1024900080931C058AE090E09093250580932405A5
:1024A00084EF91E0909327058093260510922A05EA
:1024B00010922905109218051092190510921A050C
:1024C00010921B051092280565E372E086EB94E0FC
:1024D0000E94CC0B80EB94E00E94DD0B61E971E07F
:1024E0008AEA94E00E94CC0B61E971E084EA94E00E
:1024F0000C94CC0BCF93DF9300D000D000D0CDB79D
:10250000DEB7789484B5826084BD84B5816084BD73
:1025100085B5826085BD85B5816085BD80916E0081
:10252000816080936E0010928100809181008260B2
:1025300080938100809181008160809381008091EF
:1025400080008160809380008091B10084608093DE
:10255000B1008091B00081608093B00080917A00DA
:10256000846080937A0080917A00826080937A0000
:1025700080917A00816080937A0080917A008068EF
:1025800080937A001092C10061E08BE00E94A80164
:1025900062E08DE00E94A80166E070E080E495E0D2
:1025A0000E94E40165E070E08DE395E00E94E401A3
:1025B00063E070E08AE395E00E94E4016AE570E080
:1025C00080E495E00E9459086AE570E08DE395E0AB
:1025D0000E9459086AE570E08AE395E00E94590874
:1025E000E0910B04F0910C0482E08083E0910704F9
:1025F000F09108041082E0910904F0910A048FEC34
:10260000808310921304E0910F04F091100486E08F
:102610008083E0910D04F0910E04808180618083BD
:10262000E0910D04F0910E04808188608083E09138
:102630000D04F0910E04808180688083E0910D0488
:10264000F0910E0480818F7D80831092B3031092ED
:10265000B2031092B1031092B0030E94AA0687E45D
:1026600095E09093AF038093AE0388E495E0909358
:10267000AD038093AC031092300580913505823014
:1026800018F098E0909330058093330562E370E092
:1026900080E090E00E941505609136058BE295E0A0
:1026A0000E946F0768EE73E080E090E00E941505DD
:1026B00060E38BE295E00E94D7080BE416E4C801C2
:1026C0000197F1F760E38BE295E00E94D708C8011B
:1026D0000197F1F760E38BE295E00E94D70883E56C
:1026E00092E00197F1F760E28BE295E00E94D70853
:1026F00060913005606240E08BE295E00E94F00856
:1027000084E08093310540E06CE08BE295E00E942C
:10271000F0080E943B0982E08093320540E066E0C9
:102720008BE295E00E94F00840E062E08BE295E0E9
:102730000E94F0088BE39FE10197F1F788E0809316
:10274000360560E08BE295E00E946F070E943B092E
:1027500066E171E080E00E944C096EE071E082E089
:102760000E944C0966E071E081E00E944C09CE01B4
:1027700001960E94DD0BCE0101960E94B20ACE01A5
:1027800001960E94EF0A0E94D8090E94B40C90930F
:10279000BB038093BA038091BA039091BB03892B4A
:1027A00091F380E0C82E80E0D82EEE24E394F12C43
:1027B00024E0A22EB12C32E0832E912C0E94D80965
:1027C0008091BA039091BB03892B39F40E94B40C19
:1027D0009093BB038093BA03F3CF80912001909133
:1027E00021012091B8033091B9032817390729F046
:1027F00081309105E1F00297A9F10E94990380339D
:1028000009F04FC048EC50E060E070E088E592E0ED
:102810000E94400280912001909121010196833015
:1028200091057CF590932101809320012EC00E9498
:102830003B096AE372E08BE295E00E947A0962E06C
:1028400080E00E94070964E472E08BE295E00E9458
:102850007A0980912001909121019093B90380938E
:10286000B803CBCF0E943B096BE372E08BE295E0AB
:102870000E947A0962E080E00E94070963E472E046
:10288000E4CF9092210180922001C114D10409F477
:1028900095CF0E94E005882309F490CF0E940000A4
:1028A0008DCF8233B1F448EC50E060E070E088E511
:1028B00092E00E94400280912001909121010197B5
:1028C000181619060CF4AECFF0922101E092200107
:1028D000DCCF8A32D1F648EC50E060E070E088E569
:1028E00092E00E944002809120019091210181306C
:1028F000910509F047C01092B5031092B40380917E
:10290000B4039091B5030197D1F00E943B0960E0B8
:1029100080E00E9407096DE472E08BE295E00E947E
:102920007A0962E080E00E94070962E672E08BE2C9
:1029300095E00E947A09F092B503E092B4030E94F8
:1029400099038332E1F648EC50E060E070E088E5FE
:1029500092E00E9440020E947C0964EF71E080E0F6
:1029600090E00E94150581E090E0209120013091D7
:102970002101232B11F090E080E09093B903809324
:10298000B80383CF029709F080CF81E090E02091D7
:102990001E0130911F01232B11F090E080E09093F5
:1029A000B7038093B60304C090931F0180931E0168
:1029B00080911E0190911F012091B6033091B703C1
:1029C0002817390741F08230910509F47EC0ECF4F4
:1029D000019709F447C00E949903803309F0A5C00C
:1029E00048EC50E060E070E088E592E00E94400230
:1029F00080911E0190911F01019685309105A4F2EE
:102A0000B0921F01A0921E01D3CF8330910509F42B
:102A10006FC0049701F70E943B0960E080E00E94CC
:102A2000070960E772E08BE295E00E947A0961E0B5
:102A300080E00E9407096BE772E08BE295E00E945C
:102A40007A0962E080E00E94070966E872E08BE2A2
:102A500095E00E947A0963E080E00E94070961E93D
:102A600072E026C00E943B0960E080E00E940709F6
:102A70006FE672E08BE295E00E947A0961E080E007
:102A80000E9407096BE772E08BE295E00E947A09E9
:102A900062E080E00E94070966E872E08BE295E060
:102AA0000E947A0963E080E00E94070962E972E00F
:102AB0008BE295E00E947A0980911E0190911F019E
:102AC0009093B7038093B60386CF0E943B0960E0E2
:102AD00080E00E94070960E772E08BE295E00E94C7
:102AE0007A0961E080E00E9407096AE772E0CCCFD2
:102AF0000E943B0960E080E00E94070960E772E005
:102B00008BE295E00E947A0961E080E00E9407096B
:102B10006BE772E08BE295E00E947A0962E080E068
:102B20000E94070965E872E0B9CF00911E0110917B
:102B30001F018233B9F448EC50E060E070E088E5B2
:102B400092E00E94400201501109023011052CF060
:102B500010931F0100931E012BCFF0921F01E092F2
:102B60001E0126CF8A3209F023CF48EC50E060E006
:102B700070E088E592E00E9440020130110529F5DD
:102B800067E972E08BEF93E00E947A090E943B09AB
:102B900060E080E00E94070967EA72E08BE295E05E
:102BA0000E947A0970E060E080E495E00E94590894
:102BB00068E572E080E090E00E9415056AE570E04B
:102BC00080E495E00E945908E0CE0230110519F525
:102BD00068EB72E08BEF93E00E947A090E943B0958
:102BE00060E080E00E94070963EC72E08BE295E010
:102BF0000E947A0970E060E08DE395E00E94590838
:102C000068E572E080E090E00E9415056AE570E0FA
:102C10008DE395E0D7CF0330110519F563ED72E030
:102C20008BEF93E00E947A090E943B0960E080E00C
:102C30000E9407096FED72E08BE295E00E947A092D
:102C400070E060E08AE395E00E94590868E572E070
:102C500080E090E00E9415056AE570E08AE395E067
:102C6000B1CF0430110509F0A3CE6DEE72E08BEF09
:102C700093E00E947A096FCE84EA94E00E94EF0A02
:102C80008AEA94E00E94EF0A80EB94E00E94EF0A47
:102C900086EB94E00C94EF0AF999FECF92BD81BDCA
:102CA000F89A992780B50895262FF999FECF1FBA73
:102CB00092BD81BD20BD0FB6F894FA9AF99A0FBE65
:102CC00001960895052E97FB1EF400940E94791634
:102CD00057FD07D00E94CB1607FC03D04EF40C948E
:102CE000791650954095309521953F4F4F4F5F4F46
:102CF000089590958095709561957F4F8F4F9F4F68
:102D000008950E94ED16A59F900DB49F900DA49F6D
:102D1000800D911D11240895B7FF0C9481160E9417
:102D20008116821B930B08952F923F924F925F92D0
:102D30006F927F928F929F92AF92BF92CF92DF92CB
:102D4000EF92FF920F931F93CF93DF93CDB7DEB730
:102D5000CA1BDB0B0FB6F894DEBF0FBECDBF0994C4
:102D60002A88398848885F846E847D848C849B841B
:102D7000AA84B984C884DF80EE80FD800C811B8129
:102D8000AA81B981CE0FD11D0FB6F894DEBF0FBE58
:102D9000CDBFED010895A1E21A2EAA1BBB1BFD01B8
:102DA0000DC0AA1FBB1FEE1FFF1FA217B307E4072A
:102DB000F50720F0A21BB30BE40BF50B661F771F82
:102DC000881F991F1A9469F7609570958095909562
:102DD0009B01AC01BD01CF010895A29FB001B39F3B
:102DE000C001A39F700D811D1124911DB29F700D14
:102DF000811D1124911D0895991B79E004C0991F2C
:102E0000961708F0961B881F7A95C9F78095089544
:102E1000EE0FFF1F0590F491E02D09940F931F937F
:102E2000CF93DF938230910510F482E090E0E0913F
:102E30004505F091460530E020E0B0E0A0E0309795
:102E400099F42115310509F44AC0281B390B2430A7
:102E50003105D8F58A819B816115710589F1FB01E6
:102E600093838283FE0111C04081518102811381CD
:102E700048175907E0F04817590799F4109761F07F
:102E800012960C93129713961C933296CF01DF91F2
:102E9000CF911F910F91089500934505109346051A
:102EA000F4CF2115310551F04217530738F0A9012D
:102EB000DB019A01BD01DF01F801C1CFEF01F9CFBC
:102EC0009093460580934505CDCFFE01E20FF31F99
:102ED000819391932250310939832883D7CF209150
:102EE000430530914405232B41F420913801309162
:102EF00039013093440520934305209136013091E8
:102F000037012115310541F42DB73EB740913A0103
:102F100050913B01241B350BE0914305F091440592
:102F2000E217F307A0F42E1B3F0B2817390778F0A0
:102F3000AC014E5F5F4F2417350748F04E0F5F1FFF
:102F40005093440540934305819391939FCFF0E0C4
:102F5000E0E09CCFCF93DF930097E9F0FC0132973C
:102F600013821282A0914505B0914605ED0130E033
:102F700020E01097A1F420813181820F931F2091CE
:102F80004305309144052817390709F061C0F093D3
:102F90004405E0934305DF91CF910895EA01CE17F0
:102FA000DF07E8F54A815B819E0141155105B1F7C4
:102FB000E901FB83EA8349915991C40FD51FEC17AE
:102FC000FD0761F4808191810296840F951FE901CC
:102FD00099838883828193819B838A83F0E0E0E0F8
:102FE00012968D919C9113970097B9F52D913C9174
:102FF0001197CD010296820F931F209143053091C6
:1030000044052817390739F6309751F510924605CF
:1030100010924505B0934405A0934305BCCFD383DC
:10302000C28340815181840F951FC817D90761F46D
:103030004E5F5F4F88819981480F591F51834083AC
:103040008A819B81938382832115310509F0B0CF5A
:10305000F0934605E09345059ECFFD01DC01C0CF0E
:1030600013821282D7CFB0E0A0E0E9E3F8E10C943C
:1030700096168C01009751F4CB010E940E178C011B
:10308000C801CDB7DEB7E0E10C94B216FC01E60F43
:10309000F71F9C0122503109E217F30708F49DC085
:1030A000D901CD91DC911197C617D70798F0C5309B
:1030B000D10530F3CE0104978617970708F3C61B96
:1030C000D70B2297C193D1936D937C93CF010E942C
:1030D000AA17D6CF5B01AC1ABD0A4C018C0E9D1EFF
:1030E000A0914505B0914605512C412CF12CE12CC5
:1030F000109731F580914305909144058815990505
:1031000009F05CC04616570608F058C08091360199
:1031100090913701009741F48DB79EB740913A01E5
:1031200050913B01841B950BE817F90708F055C037
:10313000F0934405E0934305F90171836083A0CFC8
:103140008D919C91119712966C90129713967C908A
:103150001397A815B90559F56C0142E0C40ED11CAE
:10316000CA14DB0420F1AC014A195B09DA0112969A
:10317000159780F06282738251834083D9016D93E9
:103180007C93E114F10471F0D7011396FC93EE9354
:10319000129776CF22968C0F9D1FF9019183808321
:1031A000F301EFCFF0934605E093450569CF48164C
:1031B000590608F42C017D01D3019ACFCB010E945E
:1031C0000E177C01009749F0AE01B8010E94F0187B
:1031D000C8010E94AA17870153CF10E000E050CF2A
:1031E000FB01DC0102C001900D9241505040D8F724
:1031F0000895FB01DC018D91019080190110D9F334
:10320000990B0895FB01DC0101900D920020E1F77C
:10321000089510E0C3E6D0E004C0FE010E94081744
:0C3220002196C436D107C9F7F894FFCFFF
:10322C000100010001000303030303030303181847
:10323C001818181818181F1F1F1F1F1F1F1F0100F9
:10324C000100FF090F1102040708313233343536FF
:10325C003738392A30230000470580000000400031
:10326C00140054000000000016067605A305630642
:10327C00D405B205C6050000000040071307560828
:10328C00E9060C07F906EA06000000009503A40104
:10329C00730100000000460976055608490554687C
:1032AC00616E6B73005E004C696D69743A20000DA1
:1032BC000A00507972612042616E6B00506C65613E
:1032CC00736520696E736572742063617264006447
:1032DC00323A20003E456E74657220796F7572200B
:1032EC0070617373776F7264003E526573657420FE
:1032FC0050617373776F726400456E746572205001
:10330C00617373776F72643A005269676874205006
:10331C00617373776F72640057726F6E67205061C0
:10332C007373776F72640054727920616761696E90
:10333C00004E65772050617373776F72643A004E5C
:10334C0065772050617373776F72640043726561A7
:10335C00746564200030313233003E4465706F7305
:10336C006974003E576974686472617700496E73C2
:10337C00657274204567797074696F6E20636F692C
:10338C006E00546F20657869742020282329003E34
:10339C00436F696E2028323529003E436F696E20D9
:1033AC0028353029003E436F696E20283130302992
:1033BC00003E4261636B00436F696E7320302E32A6
:1033CC0035204C453A200057697468647261772047
:1033DC00302E3235204C4500436F696E73203530EA
:1033EC003A2000576974686472617720302E35205A
:1033FC004C4500436F696E73203130303A200057D2
:10340C00697468647261772031204C4500426163B5
:04341C006B3A2000E7
:00000001FF
