:100000000C9463000C948B000C948B000C94AE0643
:100010000C94AE060C94AE060C948B000C948B00E2
:100020000C948B000C948B000C948B000C948B0024
:100030000C948B000C948B000C948B000C948B0014
:100040000C940C060C948B000C947C060C945606B5
:100050000C948B000C948B000C948B000C948B00F4
:100060000C948B000C948B000000000024002700EF
:100070002A0000000008000201000003040700003D
:1000800000000000000000000000230026002900FE
:1000900000000000250028002B00040404040404D0
:1000A0000404020202020202030303030303010227
:1000B00004081020408001020408102001020408F6
:1000C00010206B07620C11241FBECFEFD8E0DEBFFB
:1000D000CDBF22E0ACEAB1E001C01D92AB3CB2075B
:1000E000E1F711E0A0E0B1E0EAECFEE102C005902A
:1000F0000D92AC3AB107D9F710E0C2E6D0E004C0E7
:100100002197FE010E943A0DC136D107C9F70E941E
:1001100021080C94580F0C940000833081F028F4CF
:10012000813099F08230A9F008958730A9F08830A5
:10013000C9F08430B1F4809180008F7D03C080913C
:1001400080008F7780938000089584B58F7784BD79
:10015000089584B58F7DFBCF8091B0008F77809319
:10016000B00008958091B0008F7DF9CFCF93DF93D9
:10017000282F30E0F901EE58FF4F8491F901E25544
:10018000FF4FD491F901E656FF4FC491CC23A1F063
:1001900081110E948D00EC2FF0E0EE0FFF1FEA5757
:1001A000FF4FA591B491EC91ED2381E090E009F42B
:1001B00080E0DF91CF91089580E090E0FACF1F9327
:1001C000CF93DF93282F30E0F901EE58FF4F849151
:1001D000F901E255FF4FD491F901E656FF4FC49162
:1001E000CC23A9F0162F81110E948D00EC2FF0E096
:1001F000EE0FFF1FE057FF4FA591B4918FB7F89412
:10020000EC91111108C0D095DE23DC938FBFDF91F4
:10021000CF911F910895DE2BF8CFCF93DF9390E01D
:10022000FC01E255FF4F249186569F4FFC018491BB
:100230008823D1F090E0880F991FFC01E859FF4F07
:10024000A591B491FC01E057FF4FC591D491611184
:100250000EC09FB7F8948C91E22FE0958E238C937B
:100260002881E223E8839FBFDF91CF9108958FB764
:10027000F894EC91E22BEC938FBFF6CF1F93CF93C2
:10028000DF93182FEB0161E00E940D01209739F4F4
:1002900060E0812FDF91CF911F910C94DF00CF3F61
:1002A000D10511F461E0F5CFE12FF0E0EE58FF4FFA
:1002B000E491E33031F140F4E130B1F0E230E1F0CB
:1002C000C038D1057CF7E4CFE73029F1E83059F1A7
:1002D000E430B1F780918000806280938000D093F9
:1002E0008B00C0938A0004C084B5806884BDC7BDFC
:1002F000DF91CF911F91089584B5806284BDC8BD00
:10030000F7CF80918000806880938000D09389002F
:10031000C0938800EDCF8091B00080688093B000DA
:10032000C093B300E5CF8091B00080628093B000AD
:10033000C093B400DDCF3FB7F8948091F70190915E
:10034000F801A091F901B091FA0126B5A89B05C06A
:100350002F3F19F00196A11DB11D3FBFBA2FA92F44
:10036000982F8827BC01CD01620F711D811D911D41
:1003700042E0660F771F881F991F4A95D1F70895AD
:100380008F929F92AF92BF92CF92DF92EF92FF92A5
:100390004B015C010E949B016B017C010E949B014F
:1003A0006C197D098E099F09683E7340810591058E
:1003B000A8F321E0821A9108A108B10888EEC80EBE
:1003C00083E0D81EE11CF11C81149104A104B10446
:1003D00029F7FF90EF90DF90CF90BF90AF909F9064
:1003E0008F90089508950895AF92BF92CF92DF92B3
:1003F000EF92FF920F931F93CF93DF936C017B01DA
:100400008B01040F151FEB015E01AE18BF08C0176A
:10041000D10759F06991D601ED91FC910190F081DD
:10042000E02DC6010995892B79F7C501DF91CF91A0
:100430001F910F91FF90EF90DF90CF90BF90AF9002
:100440000895FC01538D448D252F30E0842F90E0DA
:10045000821B930B541710F0CF96089501970895BF
:10046000FC01918D828D981761F0A28DAE0FBF2F88
:10047000B11D5D968C91928D9F5F9F73928F90E0DE
:1004800008958FEF9FEF0895FC01918D828D98174D
:1004900031F0828DE80FF11D858D90E008958FEF8A
:1004A0009FEF0895FC01918D228D892F90E0805C53
:1004B0009F4F821B91098F73992708958FEF91E0C9
:1004C0000E94520221E0892B09F420E0822F089536
:1004D00080E090E0892B29F00E945E0281110C944B
:1004E00000000895FC01A48DA80FB92FB11DA35AD7
:1004F000BF4F2C91848D90E001968F739927848F44
:10050000A689B7892C93A089B1898C918370806466
:100510008C93938D848D981306C00288F389E02D07
:1005200080818F7D80830895EF92FF920F931F93B8
:10053000CF93DF93EC0181E0888F9B8D8C8D981396
:100540001AC0E889F989808185FF15C09FB7F894A2
:10055000EE89FF896083E889F989808183708064EE
:1005600080839FBF81E090E0DF91CF911F910F9139
:10057000FF90EF900895F62E0B8D10E00F5F1F4F48
:100580000F731127E02E8C8D8E110CC00FB607FC57
:10059000FACFE889F989808185FFF5CFCE010E94E5
:1005A0007202F1CFEB8DEC0FFD2FF11DE35AFF4FDF
:1005B000F0829FB7F8940B8FEA89FB898081806273
:1005C000CFCFCF93DF93EC01888D8823B9F0AA8930
:1005D000BB89E889F9898C9185FD03C0808186FDFE
:1005E0000DC00FB607FCF7CF8C9185FFF2CF80814D
:1005F00085FFEDCFCE010E947202E9CFDF91CF914E
:1006000008952091EE013091EF012817390771F418
:100610009091EC018091ED01981741F0E091EC018F
:10062000F0E0E455FE4F808190E008958FEF9FEF5A
:100630000895EF92FF920F931F93CF93DF93DC0106
:100640005C96ED90FC905D97E114F10479F481E003
:1006500090E013969C938E93129790E080E0DF9148
:10066000CF911F910F91FF90EF9008955196ED91CA
:10067000FC91529750968C915097982F90950FB768
:100680005E962C915E97122F127021FD6095F89462
:100690002081112319F1282B2083E7012197F1F7FD
:1006A00028E0462F50E0308160FF1AC0382B30839D
:1006B000E7012197F1F7BA0175956795215089F700
:1006C000112381F08081892380830FBF5C968D91F7
:1006D0009C910197F1F781E090E0C1CF2923DCCF15
:1006E0003923E5CF9081892BEFCF2091EE01309116
:1006F000EF012817390761F48091ED012091EC0199
:1007000090E0805C9F4F821B91098F739927089519
:1007100090E080E008952091EE013091EF012817DC
:100720003907B9F49091EC018091ED01981789F0A7
:10073000E091EC01F0E0E455FE4F80812091EC0166
:1007400030E02F5F3F4F2F7333272093EC0190E071
:1007500008958FEF9FEF08952FB7F8948091FB01D4
:100760009091FC01A091FD01B091FE012FBF8093FB
:10077000B0029093B102A093B202B093B30288EAA0
:1007800092E00E948B0397FF26C02FB7F8948091C8
:10079000FB019091FC01A091FD01B091FE012FBFE2
:1007A0004091B0025091B1026091B2027091B302D7
:1007B000841B950BA60BB70B4091AC025091AD0278
:1007C0006091AE027091AF0284179507A607B70734
:1007D000B0F28FEF9FEF089590E080E00895FC0164
:1007E00001900020E9F73197AF01481B590BBC017C
:1007F0008FEF91E00C94F4018F929F92AF92BF9291
:100800000F931F93CF93DF93CDB7DEB7A1970FB6AA
:10081000F894DEBF0FBECDBF19A2423008F44AE003
:100820008E010F5D1F4F842E912CB12CA12CA501A0
:1008300094010E94F90CE62FB901CA01EA30F4F4E0
:10084000E05DD801EE938D01232B242B252B79F726
:1008500090E080E0109719F0CD010E94EF03A1967F
:100860000FB6F894DEBF0FBECDBFDF91CF911F91C1
:100870000F91BF90AF909F908F900895E95CE1CF6A
:10088000CF92DF92EF92FF92CF93DF936B017C01C7
:100890006DE28FEF91E00E949402EC0166277727CA
:1008A000CB016C197D098E099F094AE00E94FC0367
:1008B0008C0F9D1FDF91CF91FF90EF90DF90CF9035
:1008C0000895CF93DF93BC01990F880B990B97FF85
:1008D0000CC00E944004EC018EE291E00E94EF0304
:1008E0008C0F9D1FDF91CF9108954AE00E94FC0379
:1008F000F2CFCF93DF930E94EF03EC018EE291E001
:100900000E94EF038C0F9D1FDF91CF91089560919E
:100910000001709101018AE00E943E016091020194
:100920007091030189E00E943E0161E08CE00E9429
:10093000DF0060E08DE00E94DF0060E080E10E9467
:10094000DF0061E081E10E94DF0081E391E00E942D
:10095000790461E081E00E94DF0060E080E00C94B7
:10096000DF0060910001709101018AE00E943E0168
:10097000609102017091030189E00E943E0160E0F4
:100980008CE00E94DF0061E08DE00E94DF0061E00A
:1009900080E10E94DF0060E081E10E94DF0087E3E8
:1009A00091E00E94790460E081E00E94DF0061E054
:1009B00080E00C94DF0060910001709101018AE0F9
:1009C0000E943E01609102017091030189E00E9442
:1009D0003E0160E08CE00E94DF0061E08DE00E945B
:1009E000DF0060E080E10E94DF0061E081E10E94C1
:1009F000DF008CE391E00E94790460E081E00E94D6
:100A0000DF0060E080E00C94DF00609100017091F5
:100A100001018AE00E943E01609102017091030190
:100A200089E00E943E0161E08CE00E94DF0060E00E
:100A30008DE00E94DF0061E080E10E94DF0060E065
:100A400081E10E94DF0084E491E00E94790461E08A
:100A500081E00E94DF0061E080E00C94DF0060E054
:100A60008CE00E94DF0060E08DE00E94DF0060E02B
:100A700080E10E94DF0060E081E10E94DF008CE401
:100A800091E00E94790460E081E00E94DF0060E074
:100A900080E00C94DF00CF93DF93E2EAF2E0448140
:100AA0005581608171818FEF91E00E94F401EC012A
:100AB0008EE291E00E94EF038C0F9D1FDF91CF919A
:100AC0000895FC01448155818091A6029091A7026E
:100AD0008417950780F08091A2029091A30200975D
:100AE00051F0608171816115710529F00E943B0F01
:100AF00021E0892B09F020E0822F08954091A60281
:100B00005091A70241155105D1F08091A202909118
:100B1000A302415051095093A7024093A602BC0181
:100B20006F5F7F4F0E94490FE091A202F091A302F4
:100B30008091A6029091A702E80FF91F10820895F4
:100B4000FC0180819181009711F00C94DC0D0895D7
:100B50000F931F93CF93DF93EC01888199810097C6
:100B600059F02A813B812617370730F081E0DF9169
:100B7000CF911F910F9108958B016F5F7F4F0E945E
:100B8000650E009759F0998388831B830A832C8113
:100B90003D81232B59F7FC011082E8CF80E0E7CF9D
:100BA000EF92FF920F931F93CF93DF93EC017B01A2
:100BB000198218821B821A821D821C82FB010190FD
:100BC0000020E9F731978F01061B170BB8010E942F
:100BD000A80528813981811113C02115310519F02B
:100BE000C9010E94DC0D198218821D821C821B82A1
:100BF0001A82DF91CF911F910F91FF90EF9008958E
:100C00001D830C83B701C901DF91CF911F910F9113
:100C1000FF90EF900C94340F1F920F920FB60F922B
:100C200011242F933F938F939F93AF93BF93809102
:100C3000FB019091FC01A091FD01B091FE0130916A
:100C4000F60123E0230F2D3758F50196A11DB11DA4
:100C50002093F6018093FB019093FC01A093FD018A
:100C6000B093FE018091F7019091F801A091F901F4
:100C7000B091FA010196A11DB11D8093F7019093E7
:100C8000F801A093F901B093FA01BF91AF919F9140
:100C90008F913F912F910F900FBE0F901F9018953D
:100CA00026E8230F0296A11DB11DD2CF1F920F92ED
:100CB0000FB60F9211242F933F934F935F936F932F
:100CC0007F938F939F93AF93BF93EF93FF938FEF98
:100CD00091E00E947202FF91EF91BF91AF919F91BD
:100CE0008F917F916F915F914F913F912F910F90D5
:100CF0000FBE0F901F9018951F920F920FB60F9274
:100D000011242F938F939F93EF93FF93E0910F0202
:100D1000F09110028081E0911502F091160282FD9F
:100D20001BC09081809118028F5F8F7320911902F0
:100D3000821741F0E0911802F0E0E150FE4F958FEC
:100D400080931802FF91EF919F918F912F910F90B7
:100D50000FBE0F901F9018958081F4CF1F920F92B5
:100D60000FB60F9211242F933F934F935F936F937E
:100D70007F938F939F93AF93BF93EF93FF93E091F4
:100D8000EE01F091EF01309749F0A685B785858592
:100D9000968D91FF14C09C918923A1F4FF91EF914E
:100DA000BF91AF919F918F917F916F915F914F9183
:100DB0003F912F910F900FBE0F901F9018959C910F
:100DC000892361F7A389B4899C91858980958923BA
:100DD0008C93868997890197F1F7608D718DA6852F
:100DE000B785558538E020E0CB010197F1F7822FD8
:100DF00090E095958795282F4C91452309F0206820
:100E0000315091F7868D81FD20958091ED0190E024
:100E100001968F7399273091EC01381799F0A091C2
:100E2000ED01B0E0A455BE4F2C938093ED01828D6F
:100E3000938D0197F1F7A389B4898C919589892BBA
:100E40008C93ACCF868D8160868FF1CFCF92DF926D
:100E5000EF92FF920F931F93E82FF92F05C00150D7
:100E600011092109310961F1908196239417B9F391
:100E700005C0015011092109310911F19081962312
:100E80009413F7CFC12CD12CE12CF12C0AC08FEF99
:100E9000C81AD80AE80AF80A0C151D052E053F05E0
:100EA00079F080818623841791F36C2D7D2D8E2D12
:100EB0009F2D1F910F91FF90EF90DF90CF9008959D
:100EC00060E070E080E090E01F910F91FF90EF9064
:100ED000DF90CF900895109202021092010288EEE6
:100EE00093E0A0E0B0E08093030290930402A0930B
:100EF0000502B09306022EE031E030930002209309
:100F0000FF0125EC30E030930C0220930B0224EC1F
:100F100030E030930E0220930D0220EC30E030934D
:100F2000100220930F0221EC30E030931202209344
:100F3000110222EC30E0309314022093130226ECCD
:100F400030E030931602209315021092180210928E
:100F5000190210921A0210921B021092AB02109208
:100F6000AA028093AC029093AD02A093AE02B0931C
:100F7000AF0280E291E09093A9028093A8021092C0
:100F8000BF021092BE021092C1021092C0021092D3
:100F9000C3021092C2021092C5021092C402609164
:100FA000C6026E7F6D7F6093C6026695617081E0B8
:100FB000682785E00E94DF0061E085E00E940D0166
:100FC000E3EBF0E0E491E093B802EFE9F0E0E491C4
:100FD000F0E0EE0FFF1FE057FF4F85919491909343
:100FE000BA028093B90260E084E00E940D01809112
:100FF000C60281FD04C061E084E00E94DF0084E05D
:101000008093B402E2EBF0E0E491E093B502EEE904
:10101000F0E0E491F0E0EE0FFF1FEA57FF4F8591FB
:1010200094919093B7028093B60264E871E082EAEB
:1010300092E00E94D00564E871E08CE992E00C94A3
:10104000D005CF93DF93CDB7DEB728970FB6F894CE
:10105000DEBF0FBECDBF789484B5826084BD84B5F9
:10106000816084BD85B5826085BD85B5816085BDA3
:1010700080916E00816080936E001092810080915B
:1010800081008260809381008091810081608093E3
:101090008100809180008160809380008091B10008
:1010A00084608093B1008091B00081608093B00033
:1010B00080917A00846080937A0080917A008260C7
:1010C00080937A0080917A00816080937A00809189
:1010D0007A00806880937A001092C100E0910F023C
:1010E000F091100282E08083E0910B02F0910C02FB
:1010F0001082E0910D02F0910E028FEC808310922D
:101100001702E0911302F091140286E08083E091CF
:101110001102F0911202808180618083E0911102BE
:10112000F0911202808188608083E0911102F09139
:101130001202808180688083E0911102F091120296
:1011400080818F7D808361E08CE00E940D0161E0F1
:101150008DE00E940D0161E080E10E940D0161E0DF
:1011600081E10E940D0161E08AE00E940D0161E0D1
:1011700089E00E940D0161E082E10E940D0160E0C2
:1011800088E00E940D0160E083E00E940D0160E0B4
:101190008EE00E940D0160E08CE00E94DF0060E0C4
:1011A0008DE00E94DF0061E081E00E940D0161E0BE
:1011B00080E00E940D0161E08BE00E940D010E9421
:1011C0002F0560910001709101018AE00E943E01AB
:1011D000609102017091030189E00E943E0110922A
:1011E000C3021092C2021092C1021092C002109269
:1011F000BF021092BE028DE991E09093C5028093E8
:10120000C4029091B402963108F047C02DEB30E053
:101210003093BF022093BE022BE931E03093C1022C
:101220002093C0022CE231E03093C3022093C2022B
:101230002091680084E0983048F031E09E3008F456
:1012400030E081E001C0880F3A95EAF7822B809365
:1012500068002DE630E0983050F02BE630E09E300C
:1012600030F02CE630E0963110F030E020E03093A2
:10127000BC022093BB02292F30E0983008F0A9C0AF
:1012800081E001C0880F9A95EAF78093BD028091B2
:10129000C4029091C5020197F1F78091C20290912A
:1012A000C302892B49F1E091EE01F091EF0182E058
:1012B000E83AF80709F1309739F0A389B4899C918D
:1012C0008589809589238C938091C6028E7F809337
:1012D000C6021092ED011092EC0188EA92E0909320
:1012E000EF018093EE01E091BB02F091BC0280819E
:1012F0009091BD02892B80830E942F0533E0832EBD
:10130000912C4AE3442E512C612C712C5AEFE52E7E
:10131000F12C93E2A92EB12C20E0222E20E0322ED7
:1013200088EA92E00E947503181619060CF099C01D
:101330000091A2021091A3020115110509F45FC0EA
:10134000C090A602D090A702B6018CE992E00E945C
:10135000A80520919C0230919D02811147C0211562
:10136000310519F0C9010E94DC0D10929D02109206
:101370009C021092A1021092A00210929F02109261
:101380009E0264E871E0CE0101960E94D0050E94A1
:10139000AC0397FD3CC083329105C9F18F83188659
:1013A0000D811E810F5F1F4FB801CE0101960E9473
:1013B000A805882361F329813A818D819E81BE0130
:1013C000695F7F4F820F931F0E94340F1E830D832E
:1013D000DECF9E3040F42850310981E001C0880FF3
:1013E0002A95EAF752CF2E503109F7CFD092A102B9
:1013F000C092A002B801C9010E94340FC2CF8091EF
:101400009C0290919D02009709F0ADCFAECF8091E4
:10141000A2029091A302009709F448C069817A81E1
:101420006115710509F440C04091A4025091A502D4
:101430002D813E8142175307B8F10E94340F8D81F0
:101440009E819093A7028093A6021E821D82CE01E8
:1014500001960E94A0056AE070E080E090E00E94A2
:10146000C0010E944B052091A6023091A7028091F5
:10147000A0029091A1022817390709F003C28091B8
:10148000A2029091A30260919C0270919D0200972C
:1014900009F4EBC16115710501F5232B09F406C2AE
:1014A000FC01808190E0ECC10E94DC0D89819A8171
:1014B0009093A3028093A2028B819C819093A502BA
:1014C0008093A4028D819E819093A7028093A602AF
:1014D0001A8219821C821B82B8CF0E942B0FD0C1A6
:1014E00063E571E0CE0101960E94D005CE01019620
:1014F0000E946105182FCE0101960E94A0051123BC
:1015000019F00E94DB04D2C165E571E0CE010196BD
:101510000E94D005CE0101960E946105182FCE01D0
:1015200001960E94A005112319F00E948704BEC1F4
:1015300067E571E0CE0101960E94D005CE010196CB
:101540000E946105182FCE0101960E94A00511236B
:1015500019F00E94B104AAC169E571E0CE010196BB
:101560000E94D005CE0101960E946105182FCE0180
:1015700001960E94A005112309F471C060E082E188
:101580000E94DF00C4010197F1F761E082E10E944F
:10159000DF00C5010197F1F760E082E10E94DF0002
:1015A000E6EBF0E06491E2EAF0E08491E82FF0E00D
:1015B000EE0FFF1FEA57FF4F8591949100E412E46C
:1015C0002FE030E0462F0E94260761157105810546
:1015D000910529F06F5F7F4F8F4F9F4F9F70A30141
:1015E00092010E941B0D3093F5012093F4018BE5CD
:1015F00091E00E94EF038091F4019091F5010E9427
:1016000061046AE070E080E090E00E94C001809197
:10161000F4019091F50144970CF046C10E942F050A
:1016200062E370E080E090E00E94C0010E94DB0471
:1016300064EF71E080E090E00E94C0010E942F05FD
:101640000E9487046CEB72E080E090E00E94C00191
:101650000E942F058EE591E00E94790427C16AE679
:1016600071E0CE0101960E94D005CE0101960E9444
:101670006105182FCE0101960E94A005112309F4DF
:101680006BC083E00E94B6009093F3018093F20157
:101690008EE00E94B6009093F1018093F0018CE6F9
:1016A00091E00E94EF036091F0017091F101072E2B
:1016B000000C880B990B97FF4BC00E9440048CE7ED
:1016C00091E00E94EF0385E891E00E94EF03809192
:1016D000F2019091F3010E9461048091F0019091D8
:1016E000F101892B41F48091F2019091F301892B52
:1016F00011F40E9405058091F0019091F101892B70
:1017000041F48091F2019091F301019711F40E944C
:1017100087048091F0019091F101019741F480914B
:10172000F2019091F301892B11F40E94B104809190
:10173000F0019091F101019709F0B8C08091F20198
:101740009091F301019709F0B1C00E942F05AEC03E
:101750004AE00E94FC03B3CF66E971E0CE01019636
:101760000E94D005CE0101960E946105182FCE017E
:1017700001960E94A005112349F0109203011092D6
:101780000201109201011092000190C068E971E01D
:10179000CE0101960E94D005CE0101960E946105FE
:1017A000182FCE0101960E94A005112349F0F09256
:1017B0000301E0920201F0920101E092000176C083
:1017C00062E471E0CE0101960E94D005CE0101963F
:1017D0000E946105182FCE0101960E94A0051123D9
:1017E000C9F00E947E058AE991E00E94EF030E9401
:1017F0004B058091A2029091A302009739F00E94BC
:10180000860C709303016093020150C060E070E0A9
:10181000CB01F7CF62EA71E0CE0101960E94D005BC
:10182000CE0101960E946105182FCE0101960E94FB
:10183000A005112309F489CF0E947E0584EA91E076
:101840000E94EF030E944B058091A2029091A30297
:10185000009739F00E94860C70930101609300019B
:1018600025C060E070E0CB01F7CF61157105F1F0A4
:10187000232BE1F0FB01808190E091958195910906
:10188000892BA1F061E571E0CE0101960E94D0059F
:10189000CE0101960E946105182FCE0101960E948B
:1018A000A005112309F41CCE0E9405052114310462
:1018B00009F436CD0E945E02882309F42ACD0E94E5
:1018C000000027CD8CE992E00E94A00582EA92E018
:1018D0000E94A00580E291E09093A9028093A80263
:1018E0008091EE019091EF01885A924071F4E0915D
:1018F000BB02F091BC0290818091BD02809589234A
:1019000080831092EF011092EE0108951F93FC0165
:1019100099278827BC01E89411911032E9F3193016
:1019200010F01E30C8F31B3251F01D3249F4689498
:1019300006C00E94AD0C610F711D811D911D11919A
:1019400010531A30B0F33EF49095809570956195E0
:101950007F4F8F4F9F4F1F910895592F482F372F3B
:10196000262F660F771F881F991F660F771F881F06
:10197000991F620F731F841F951F660F771F881FA3
:10198000991F08952F923F924F925F926F927F928C
:101990008F929F92AF92BF92CF92DF92EF92FF927F
:1019A0000F931F93CF93DF93CDB7DEB7CA1BDB0B2B
:1019B0000FB6F894DEBF0FBECDBF09942A883988D0
:1019C00048885F846E847D848C849B84AA84B984D7
:1019D000C884DF80EE80FD800C811B81AA81B981E3
:1019E000CE0FD11D0FB6F894DEBF0FBECDBFED01F7
:1019F0000895A1E21A2EAA1BBB1BFD010DC0AA1F50
:101A0000BB1FEE1FFF1FA217B307E407F50720F067
:101A1000A21BB30BE40BF50B661F771F881F991FE2
:101A20001A9469F760957095809590959B01AC012B
:101A3000BD01CF010895052E97FB1EF400940E946E
:101A4000320D57FD07D00E94F90C07FC03D04EF46D
:101A50000C94320D50954095309521953F4F4F4F46
:101A60005F4F089590958095709561957F4F8F4F4A
:101A70009F4F0895EE0FFF1F0590F491E02D0994FC
:101A80000F931F93CF93DF938230910510F482E080
:101A900090E0E091C902F091CA0230E020E0B0E0AD
:101AA000A0E0309799F42115310509F44AC0281BAC
:101AB000390B24303105D8F58A819B816115710578
:101AC00089F1FB0193838283FE0111C04081518122
:101AD0000281138148175907E0F04817590799F414
:101AE000109761F012960C93129713961C933296EE
:101AF000CF01DF91CF911F910F9108950093C902FB
:101B00001093CA02F4CF2115310551F04217530743
:101B100038F0A901DB019A01BD01DF01F801C1CF55
:101B2000EF01F9CF9093CA028093C902CDCFFE0195
:101B3000E20FF31F81939193225031093983288357
:101B4000D7CF2091C7023091C802232B41F42091B6
:101B50000601309107013093C8022093C7022091FB
:101B60000401309105012115310541F42DB73EB72F
:101B70004091080150910901241B350BE091C702E7
:101B8000F091C802E217F307A0F42E1B3F0B2817B1
:101B9000390778F0AC014E5F5F4F2417350748F0E6
:101BA0004E0F5F1F5093C8024093C70281939193D9
:101BB0009FCFF0E0E0E09CCFCF93DF930097E9F078
:101BC000FC01329713821282A091C902B091CA021D
:101BD000ED0130E020E01097A1F420813181820FE7
:101BE000931F2091C7023091C8022817390709F0C6
:101BF00061C0F093C802E093C702DF91CF910895CE
:101C0000EA01CE17DF07E8F54A815B819E014115A5
:101C10005105B1F7E901FB83EA8349915991C40F5A
:101C2000D51FEC17FD0761F4808191810296840F26
:101C3000951FE90199838883828193819B838A839D
:101C4000F0E0E0E012968D919C9113970097B9F522
:101C50002D913C911197CD010296820F931F2091F7
:101C6000C7023091C8022817390739F6309751F565
:101C70001092CA021092C902B093C802A093C70280
:101C8000BCCFD383C28340815181840F951FC81775
:101C9000D90761F44E5F5F4F88819981480F591FC2
:101CA000518340838A819B819383828321153105EF
:101CB00009F0B0CFF093CA02E093C9029ECFFD01B4
:101CC000DC01C0CF13821282D7CFB0E0A0E0EBE6F8
:101CD000FEE00C94C40C8C01009751F4CB010E94DF
:101CE000400D8C01C801CDB7DEB7E0E10C94E00CEB
:101CF000FC01E60FF71F9C0122503109E217F307A0
:101D000008F49DC0D901CD91DC911197C617D70772
:101D100098F0C530D10530F3CE01049786179707A8
:101D200008F3C61BD70B2297C193D1936D937C9375
:101D3000CF010E94DC0DD6CF5B01AC1ABD0A4C016D
:101D40008C0E9D1EA091C902B091CA02512C412C4B
:101D5000F12CE12C109731F58091C7029091C802C7
:101D60008815990509F05CC04616570608F058C05A
:101D70008091040190910501009741F48DB79EB7C1
:101D80004091080150910901841B950BE817F90750
:101D900008F055C0F093C802E093C702F9017183BF
:101DA0006083A0CF8D919C91119712966C901297A1
:101DB00013967C901397A815B90559F56C0142E06C
:101DC000C40ED11CCA14DB0420F1AC014A195B0912
:101DD000DA011296159780F06282738251834083F4
:101DE000D9016D937C93E114F10471F0D70113963E
:101DF000FC93EE93129776CF22968C0F9D1FF901DC
:101E000091838083F301EFCFF093CA02E093C9027C
:101E100069CF4816590608F42C017D01D3019ACFE9
:101E2000CB010E94400D7C01009749F0AE01B80142
:101E30000E94220FC8010E94DC0D870153CF10E0E1
:101E400000E050CFFB01DC0102C001900D92415037
:101E50005040D8F70895FB01DC018D910190801965
:101E60000110D9F3990B0895FB01DC0101900D924B
:101E70000020E1F70895FB01DC014150504030F0B3
:101E80008D910190801919F40020B9F7881B990BE6
:101E90000895FB01DC014150504048F001900D9243
:101EA0000020C9F701C01D9241505040E0F708954D
:101EB00010E0C2E6D0E004C0FE010E943A0D219677
:0A1EC000C336D107C9F7F894FFCF2D
:101ECA00AF00AF000000CB028000000000009402C7
:101EDA00F4012102E1025202300244020000000031
:101EEA001903F401EC03F20175038B0301030D0AD4
:101EFA00005269676874004C6566740052657665BD
:101F0A0072736500466F72776172640053746F7002
:101F1A00004600420052004C004D00643A005354FF
:101F2A004F5020616E64205455524E0049525F4C06
:101F3A006566745F53656E736F723A0009202020DC
:101F4A00202020090049525F52696768745F53650F
:101F5A006E736F723A006D00780052696768743A5E
:0C1F6A00200071004C6566743A200000F5
:00000001FF
