:100000000C9463000C948B000C948B000C948B006C
:100010000C948B000C948B000C948B000C94B20607
:100020000C948B000C948B000C948B000C94660742
:100030000C948B000C948B000C948B000C948B0014
:100040000C9468060C948B000C9434070C940E07E7
:100050000C948B000C948B000C948B000C948B00F4
:100060000C948B000C948B000000000024002700EF
:100070002A0000000008000201000003040700003D
:1000800000000000000000000000230026002900FE
:10009000010204081020408001020408102001021F
:1000A0000408102000000000250028002B00040494
:1000B0000404040404040202020202020303030310
:1000C00003030200670811241FBECFEFD8E0DEBF94
:1000D000CDBF11E0A0E0B1E0ECE5FCE102C005908D
:1000E0000D92AC35B107D9F722E0ACE5B1E001C023
:1000F0001D92A234B207E1F710E0C3E6D0E004C0DD
:100100002197FE010E94260EC236D107C9F70E9430
:10011000C4080C942C0E0C940000CF92DF92EF9246
:10012000FF92DC01A03282E0B807D4F5A53BB1050F
:1001300014F0A4EBB0E04091400228E830E0241B2A
:10014000310947FD3395220F331F220F331F6901F9
:10015000330FEE08FF084091410228E532E0241BEE
:10016000310947FD3395220F331F220F331F032E12
:10017000000C440B550B2C193D094E095F09B7FFC4
:1001800002C0B0E0A0E00E94A30B24EB30E040E00E
:1001900050E00E94790BC20ED31EE41EF51ED6015C
:1001A000E0913F02EC3080F52091400288E890E039
:1001B000821B910927FD9395880F991F880F991F1E
:1001C000A817B90784F02091410288E592E0821BCC
:1001D000910927FD9395880F991F880F991FA817DC
:1001E000B9070CF4CD010297880F991F4FB7F89407
:1001F0002E2F30E0F901EE0FFF1FE20FF31FE65E36
:10020000FD4F928381834FBFFF90EF90DF90CF909F
:100210000895833081F028F4813099F08230A9F07C
:1002200008958730A9F08830C9F08430B1F4809106
:1002300080008F7D03C0809180008F778093800045
:10024000089584B58F7784BD089584B58F7DFBCFE5
:100250008091B0008F778093B00008958091B000B6
:100260008F7DF9CFCF93DF93282F30E0F901EE583F
:10027000FF4F8491F901E057FF4FD491F901E25506
:10028000FF4FC491CC23A1F081110E940901EC2FF2
:10029000F0E0EE0FFF1FEA57FF4FA591B491EC91EC
:1002A000ED2381E090E009F480E0DF91CF910895A3
:1002B00080E090E0FACF1F93CF93DF93282F30E0B8
:1002C000F901EE58FF4F8491F901E057FF4FD491A7
:1002D000F901E255FF4FC491CC23A9F0162F8111EB
:1002E0000E940901EC2FF0E0EE0FFF1FEC55FF4FCD
:1002F000A591B4918FB7F894EC91111108C0D095E5
:10030000DE23DC938FBFDF91CF911F910895DE2B09
:10031000F8CFCF93DF9390E0FC01E057FF4F24919B
:1003200082559F4FFC0184918823C9F090E0880F8B
:10033000991FFC01E859FF4FA591B491FC01EC55C0
:10034000FF4FC591D49161110DC09FB7F8948C9166
:10035000209582238C938881282328839FBFDF9157
:10036000CF910895623051F49FB7F8943C91822F59
:10037000809583238C93E8812E2BEFCF8FB7F89451
:10038000EC912E2B2C938FBFEACFCF92DF92EF927E
:10039000FF920F931F93CF938C01809100018B30BC
:1003A00051F08F3FC1F1CF911F910F91FF90EF90CE
:1003B000DF90CF900895E2ECF0E0C491C7FDF3CF59
:1003C00061E08BE00E948901C1113BC0980150E0BF
:1003D00040E062E17AE780E090E00E94790BBA01A8
:1003E000A901415051096109710985B5887F84606F
:1003F00085BD47BD8FEF9FEFDC018093790190931E
:100400007A01A0937B01B0937C0180916E008260A1
:1004100080936E00C8CF8BE080930001E2ECF0E0A7
:10042000C491CF3F09F4BFCFC13009F44EC0A0F151
:10043000C23009F468C0C7FDB6CF61E08BE00E940E
:100440008901980150E040E0C23009F07EC064E2CA
:1004500074EF80E090E00E94790BBA01A90141504D
:100460005109610971098091B100887F856080938D
:10047000B1004093B3008FEF9FEFDC0180937101D7
:1004800090937201A0937301B093740180917000F6
:1004900082608093700087CF14BC15BC84B58260E5
:1004A00084BD85B5816085BDE9EBF0E0E491F0E0C5
:1004B000EE0FFF1FEC55FF4F85919491EBE9F0E0B3
:1004C000E491E0937001C0E07BCF10928000109225
:1004D00081008091810088608093810080918100FB
:1004E000816080938100E9EBF0E0E491F0E0EE0FB1
:1004F000FF1FEC55FF4F85919491EBE9F0E0E491FB
:10050000E0936F015DCF1092B0001092B100809126
:10051000B00082608093B0008091B10081608093D0
:10052000B100E9EBF0E0E491F0E0EE0FFF1FEC55D5
:10053000FF4F8591949190936E0180936D01EBE94B
:10054000F0E0E491E0936C013BCF60E072E18AE778
:1005500090E00E94790B69017A0181E0C81AD10804
:10056000E108F108A601C130D9F480918100887FAB
:10057000816080938100D0928900C09288008FEFC3
:100580009FEFDC018093750190937601A093770132
:10059000B093780180916F00826080936F0003CFE9
:1005A000C23009F466CFC111FECE23CF3FB7F89415
:1005B0008091680190916901A0916A01B0916B01ED
:1005C00026B5A89B05C02F3F19F00196A11DB11DAE
:1005D0003FBFBA2FA92F982F8827BC01CD01620FEA
:1005E000711D811D911D42E0660F771F881F991FA5
:1005F0004A95D1F708958F929F92AF92BF92CF9272
:10060000DF92EF92FF924B015C010E94D6026B01D8
:100610007C010E94D6026C197D098E099F09683EF3
:10062000734081059105A8F321E0821A9108A10881
:10063000B10888EEC80E83E0D81EE11CF11C8114BD
:100640009104A104B10429F7FF90EF90DF90CF90BF
:10065000BF90AF909F908F90089590910001891363
:100660000BC0E2ECF0E0E4919FEF90930001E130E9
:1006700049F028F0E23061F060E00C945B011092E8
:100680006E00FACF90916F009D7F90936F00F4CF32
:10069000909170009D7F9093700091E09093B000D6
:1006A0009091B100987F94609093B1001092B30044
:1006B000E3CFAF92BF92CF92DF92EF92FF920F9370
:1006C0001F93CF93DF936C017B018B01040F151FE8
:1006D000EB015E01AE18BF08C017D10759F0699150
:1006E000D601ED91FC910190F081E02DC6010995B4
:1006F000892B79F7C501DF91CF911F910F91FF9061
:10070000EF90DF90CF90BF90AF900895FC01538D94
:10071000448D252F30E0842F90E0821B930B5417DB
:1007200010F0CF96089501970895FC01918D828D68
:10073000981761F0A28DAE0FBF2FB11D5D968C9101
:10074000928D9F5F9F73928F90E008958FEF9FEF40
:100750000895FC01918D828D981731F0828DE80FFC
:10076000F11D858D90E008958FEF9FEF0895FC01B6
:10077000918D228D892F90E0805C9F4F821B910983
:100780008F73992708958DE791E00E94B70321E0C8
:10079000892B09F420E0822F089580E090E0892BD6
:1007A00029F00E94C30381110C9400000895FC01FC
:1007B000A48DA80FB92FB11DA35ABF4F2C91848DC2
:1007C00090E001968F739927848FA689B7892C931F
:1007D000A089B1898C91837080648C93938D848D72
:1007E000981306C00288F389E02D80818F7D808375
:1007F0000895EF92FF920F931F93CF93DF93EC0135
:1008000081E0888F9B8D8C8D98131AC0E889F989B7
:10081000808185FF15C09FB7F894EE89FF896083BA
:10082000E889F98980818370806480839FBF81E03B
:1008300090E0DF91CF911F910F91FF90EF9008957D
:10084000F62E0B8D10E00F5F1F4F0F731127E02E58
:100850008C8D8E110CC00FB607FCFACFE889F98990
:10086000808185FFF5CFCE010E94D703F1CFEB8DBC
:10087000EC0FFD2FF11DE35AFF4FF0829FB7F89464
:100880000B8FEA89FB8980818062CFCFCF93DF9382
:10089000EC01888D8823B9F0AA89BB89E889F98998
:1008A0008C9185FD03C0808186FD0DC00FB607FCCD
:1008B000F7CF8C9185FFF2CF808185FFEDCFCE0100
:1008C0000E94D703E9CFDF91CF910895FC010190F9
:1008D0000020E9F73197AF01481B590BBC018DE7A8
:1008E00091E00C9459038F929F92AF92BF920F9315
:1008F0001F93CF93DF93CDB7DEB7A1970FB6F894D0
:10090000DEBF0FBECDBF19A2423008F44AE08E010F
:100910000F5D1F4F842E912CB12CA12CA5019401A9
:100920000E94AB0BE62FB901CA01EA30F4F4E05D96
:10093000D801EE938D01232B242B252B79F790E002
:1009400080E0109719F0CD010E946604A1960FB6C1
:10095000F894DEBF0FBECDBFDF91CF911F910F91F5
:10096000BF90AF909F908F900895E95CE1CFCF92B8
:10097000DF92EF92FF92CF93DF936B017C016DE2E8
:100980008DE791E00E94F903EC0166277727CB0100
:100990006C197D098E099F094AE00E9473048C0F2F
:1009A0009D1FDF91CF91FF90EF90DF90CF90089542
:1009B000CF93DF930E946604EC0183E191E00E94F3
:1009C00066048C0F9D1FDF91CF910895CF93DF9325
:1009D000BC01990F880B990B97FF0CC00E94B704BC
:1009E000EC0183E191E00E9466048C0F9D1FDF9172
:1009F000CF9108954AE00E947304F2CF0F931F93A2
:100A0000CF93DF93EC018B0186E191E00E946604B5
:100A10008BE191E00E946604BE01DD0F880B990B0B
:100A200097FF0DC00E94B7048BE191E00E9466041D
:100A3000C801DF91CF911F910F910C94E6044AE019
:100A40000E947304F1CFCF93DF93EC018EE191E02C
:100A50000E9466048BE191E00E946604CE01DF9162
:100A6000CF910C94E6040F931F93E8E9F0E06491B2
:100A7000E6EBF0E0E491F0E0EE0FFF1FEA57FF4FE6
:100A80008591949100E412E42FE030E0462F0E941B
:100A90002208611571058105910529F06F5F7F4F6F
:100AA0008F4F9F4F9F701F910F9108952F923F92EC
:100AB0004F925F926F927F928F929F92AF92BF926E
:100AC000CF92DF92EF92FF920F931F93CF93DF931A
:100AD000CDB7DEB72E970FB6F894DEBF0FBECDBFF1
:100AE00082E390E09E878D87C12CD12C760180E037
:100AF00090E0A0E8BFE389839A83AB83BC8346017F
:100B0000570189869A86AB86BC8683E0282E312CD5
:100B100003E210E060E082E10E945B01C101019705
:100B2000F1F761E082E10E945B01C8010197F1F7F2
:100B300060E082E10E945B010E9433050E94F80C94
:100B400026E933E44BE05DE30E94AD0D20E030E0A8
:100B500040E05FE30E94AD0D0E94C00C2B0170933A
:100B6000600160935F0120E030E0A901C701B60198
:100B70000E94A80D052C000C6608770818160CF0CA
:100B80004CC0C301B2010E94F80C6D837E838F8339
:100B90009887A70196010E94DC0B6B017C0120E085
:100BA00030E0A9010E94A80D18166CF520E030E095
:100BB00040E85FE3C701B6010E94490C87FF2DC0E2
:100BC0002D813E814F815885C501B4010E94DD0B06
:100BD0004B015C0120E030E040E85FE369817A810D
:100BE0008B819C810E94DD0B69837A838B839C833C
:100BF0009B01AC01C501B4010E944E0C69877A8744
:100C00008B879C870AC020E030E040E85FEBC7019B
:100C1000B6010E94A80D18169CF2C301B2010E94F1
:100C2000F80C6B017C01AD85BE851197BE87AD8741
:100C3000AB2B09F06FCF69857A858B859C850E94E7
:100C4000C00C7093600160935F01CB012E960FB6CC
:100C5000F894DEBF0FBECDBFDF91CF911F910F91F2
:100C6000FF90EF90DF90CF90BF90AF909F908F90CC
:100C70007F906F905F904F903F902F900C94E60480
:100C800060E082E10E945B0183E090E00197F1F770
:100C900061E082E10E945B0183E290E00197F1F75D
:100CA00060E082E10E945B010E9433050E94F80C23
:100CB00026E933E44BE05DE30E94AD0D20E030E037
:100CC00040E05FE30E94AD0D0E94C00CCB0108958F
:100CD0001F920F920FB60F9211242F933F938F9371
:100CE0009F93AF93BF938091640190916501A09110
:100CF0006601B09167013091630123E0230F2D3726
:100D000058F50196A11DB11D2093630180936401E4
:100D100090936501A0936601B0936701809168018B
:100D200090916901A0916A01B0916B010196A11D9A
:100D3000B11D8093680190936901A0936A01B093FB
:100D40006B01BF91AF919F918F913F912F910F9028
:100D50000FBE0F901F90189526E8230F0296A11D35
:100D6000B11DD2CF1F920F920FB60F9211242F9365
:100D70003F934F935F936F937F938F939F93AF9323
:100D8000BF93EF93FF938091710190917201A091B5
:100D90007301B0917401892B8A2B8B2BD1F1909127
:100DA0006C01E0916D01F0916E0180818927808353
:100DB0008091710190917201A0917301B0917401C1
:100DC000181619061A061B069CF480917101909161
:100DD0007201A0917301B09174010197A109B10949
:100DE0008093710190937201A0937301B093740189
:100DF000FF91EF91BF91AF919F918F917F916F91F3
:100E00005F914F913F912F910F900FBE0F901F90C8
:100E10001895809100010E942D03EACF1F920F9236
:100E20000FB60F9211242F933F934F935F936F93BD
:100E30007F938F939F93AF93BF93EF93FF938DE730
:100E400091E00E94D703FF91EF91BF91AF919F91E5
:100E50008F917F916F915F914F913F912F910F9063
:100E60000FBE0F901F9018951F920F920FB60F9202
:100E700011242F938F939F93EF93FF93E0918D0114
:100E8000F0918E018081E0919301F091940182FDB7
:100E90001BC09081809196018F5F8F732091970185
:100EA000821741F0E0919601F0E0E358FE4F958FF4
:100EB00080939601FF91EF919F918F912F910F90C9
:100EC0000FBE0F901F9018958081F4CF1F920F9244
:100ED0000FB60F9211242F933F934F935F936F930D
:100EE0007F938F939F93AF93BF93CF93DF93EF93B2
:100EF000FF9380915C01C0913E02D0E087FF24C047
:100F0000109285001092840080915C018F5F809325
:100F10005C0180915C01082E000C990B8C179D07D9
:100F200024F480915C018C30C4F180918400909114
:100F30008500049680349C4908F47AC0809184002E
:100F400090918500049676C080915C01082E000C7B
:100F5000990B8C179D07C4F6E0915C018E2FEE0F64
:100F6000990BFC01EE0FFF1FE80FF91FE65EFD4F26
:100F7000808186FFC9CFE0915C018E2FEE0F990B27
:100F8000FC01EE0FFF1FE80FF91FE65EFD4F8081A9
:100F900060E08F730E945B01B7CF20918400309195
:100FA0008500E0915C018E2FEE0F990BFC01EE0F96
:100FB000FF1FE80FF91FE65EFD4F81819281820FCE
:100FC000931F9093890080938800E0915C018E2F9D
:100FD000EE0F990BFC01EE0FFF1FE80FF91FE65E05
:100FE000FD4F808186FF11C0E0915C018E2FEE0FD6
:100FF000990BFC01EE0FFF1FE80FF91FE65EFD4F96
:10100000808161E08F730E945B01FF91EF91DF911E
:10101000CF91BF91AF919F918F917F916F915F9190
:101020004F913F912F910F900FBE0F901F901895E9
:1010300080E49CE990938900809388008FEF8093EF
:101040005C01E3CFCF92DF92EF92FF920F931F9359
:10105000E82FF92F05C0015011092109310961F16B
:10106000908196239417B9F305C001501109210905
:10107000310911F1908196239413F7CFC12CD12C13
:10108000E12CF12C0AC08FEFC81AD80AE80AF80A36
:101090000C151D052E053F0579F0808186238417E8
:1010A00091F36C2D7D2D8E2D9F2D1F910F91FF9013
:1010B000EF90DF90CF90089560E070E080E090E0E6
:1010C0001F910F91FF90EF90DF90CF9008951092B5
:1010D000800110927F0188EE93E0A0E0B0E0809361
:1010E000810190938201A0938301B093840185E0F4
:1010F00091E090937E0180937D0185EC90E0909348
:101100008A018093890184EC90E090938C01809314
:101110008B0180EC90E090938E0180938D0181ECA7
:1011200090E09093900180938F0182EC90E09093F7
:1011300092018093910186EC90E0909394018093CA
:1011400093011092960110929701109298011092BB
:10115000990180913E028C3098F491E0980F909321
:101160003E0280933F0290E0FC01EE0FFF1FE80F6C
:10117000F91FE65EFD4F88EB9BE092838183089523
:101180008FEF80933F020895789484B5826084BD88
:1011900084B5816084BD85B5826085BD85B581607B
:1011A00085BD80916E00816080936E0010928100F9
:1011B00080918100826080938100809181008160B4
:1011C0008093810080918000816080938000809175
:1011D000B10084608093B1008091B0008160809301
:1011E000B00080917A00846080937A0080917A00C8
:1011F000826080937A0080917A00816080937A0087
:1012000080917A00806880937A001092C10061E03A
:101210008BE00E94890162E082E00E94890162E025
:1012200084E00E94890162E085E00E94890162E019
:1012300086E00E94890162E087E00E94890162E005
:1012400089E00E94890161E082E10E94890160E0F9
:1012500088E00E94890180913F028C3008F051C0E3
:1012600061E083E00E94890180913F02282F30E0F5
:10127000F901EE0FFF1FE20FF31FE65EFD4F9081B5
:10128000907C9360908310924002109241022CE077
:10129000622F0E941A0E829FB001112430E020E0DC
:1012A000AB01420F531FFA01EE0FFF1FE40FF51FB2
:1012B000E65EFD4F908196FD16C02F5F3F4F2C30AC
:1012C000310571F781110FC01092800082E0809388
:1012D00081001092850010928400B19A80916F0075
:1012E000826080936F00E0913F028E2F90E0FC01BE
:1012F000EE0FFF1FE80FF91FE65EFD4F808180644F
:1013000080838AE090E00E948D00E0918D01F09151
:101310008E0182E08083E0918901F0918A01108240
:10132000E0918B01F0918C018FEC808310929501FC
:10133000E0919101F091920186E08083E0918F012C
:10134000F0919001808180618083E0918F01F09124
:101350009001808188608083E0918F01F0919001FD
:10136000808180688083E0918F01F091900180817D
:101370008F7D80831092620110926101C3E0D0E002
:1013800002E010E0EE24E394F12C80916101909151
:101390006201892BE9F0C0E0D0E00AE010E08AEABF
:1013A000E82EF12C809161019091620181309105CC
:1013B00009F06CC083E291E00E94D80482E00E94B0
:1013C0003201892B19F585E091E00E94C501F6CF25
:1013D00082E00E943201892B29F4F0926201E092AE
:1013E0006101D3CF84E00E943201892B29F410934C
:1013F000620100936101C9CF85E00E943201892B0F
:1014000021F6D0936201C0936101BFCF84E00E94B6
:101410003201892B29F485E291E00E94C501F6CFC3
:1014200085E00E943201892B29F489E491E00E9431
:10143000C501F6CF86E00E943201892B29F48DE5A3
:1014400091E00E94C501F6CF87E00E943201892B0E
:1014500029F487E891E00E94C501F6CF89E00E9457
:101460003201892B29F488EB91E00E94C501F6CF67
:101470008BE00E942D03209709F494CF0E94C303B0
:10148000882309F48FCF0E9400008CCF8230910511
:1014900009F095C010935E0100935D01C0905D015D
:1014A000D0905E018BEAC816D104E4F5C6010E9413
:1014B0008D0066E470E080E090E00E94FB02C601CF
:1014C0000E9423050E9440069093600180935F0173
:1014D0008B3091051CF5BC0180915D0190915E01FE
:1014E0000E94FE0462E370E080E090E00E94FB0254
:1014F00080915D0190915E010A978B3A910520F4ED
:1015000085E091E00E94C50180915D0190915E01AE
:10151000019690935E0180935D01C0CF8BE00E94A5
:101520002D03F2CFF0925E01E0925D01C0905D016B
:10153000D0905E018AE0C816D104E4F1C6010E9491
:101540008D0066E470E080E090E00E94FB02C6013E
:101550000E9423050E9440069093600180935F01E2
:101560008B3091051CF5BC0180915D0190915E016D
:101570000E94FE0462E370E080E090E00E94FB02C3
:1015800080915D0190915E010A978B3A910520F45C
:1015900085E091E00E94C50180915D0190915E011E
:1015A000019790935E0180935D01C0CF8BE00E9414
:1015B0002D03F2CF8AE391E00E94D8045CCF039719
:1015C00009F059CF0E9456058AE590E00E948D00EF
:1015D00080915F01909160010297029780F40E94D0
:1015E000560585E091E00E94C50180915F019091D0
:1015F00060018E976CF38BE00E942D03E9CF809100
:101600005F01909160010697039778F40E94560558
:1016100085E291E00E94C50180915F019091600197
:101620008E976CF38BE00E942D0380915F01909167
:1016300060010B97039778F40E94560589E491E0C6
:101640000E94C50180915F01909160018E976CF3BB
:101650008BE00E942D0380915F0190916001419782
:10166000039778F40E9456058DE591E00E94C5012C
:1016700080915F01909160018E976CF38BE00E94E6
:101680002D0380915F01909160014697029778F455
:101690000E94560587E891E00E94C50180915F0194
:1016A000909160018E976CF38BE00E942D038091E6
:1016B0005F01909160014A97039778F40E94560564
:1016C00088EB91E00E94C50180915F0190916001DB
:1016D0008E976CF38BE00E942D0380915F019091B7
:1016E00060014E971CF08BE00E942D038BE491E08B
:1016F00063CF052E97FB1EF400940E94900B57FDBC
:1017000007D00E94AB0B07FC03D04EF40C94900B57
:1017100050954095309521953F4F4F4F5F4F08951D
:1017200090958095709561957F4F8F4F9F4F08954D
:101730000E94CD0BA59F900DB49F900DA49F800D8E
:10174000911D11240895B7FF0C94980B0E94980BDB
:10175000821B930B0895A1E21A2EAA1BBB1BFD014D
:101760000DC0AA1FBB1FEE1FFF1FA217B307E40780
:10177000F50720F0A21BB30BE40BF50B661F771FD8
:10178000881F991F1A9469F76095709580959095B8
:101790009B01AC01BD01CF010895A29FB001B39F91
:1017A000C001A39F700D811D1124911DB29F700D6A
:1017B000811D1124911D08955058BB27AA270E940E
:1017C000F40B0C946E0D0E94600D38F00E94670DB2
:1017D00020F039F49F3F19F426F40C945D0D0EF4BB
:1017E000E095E7FB0C94570DE92F0E947F0D58F30D
:1017F000BA17620773078407950720F079F4A6F5F6
:101800000C94A10D0EF4E0950B2EBA2FA02D0B0118
:10181000B90190010C01CA01A0011124FF27591B35
:1018200099F0593F50F4503E68F11A16F040A22F3B
:10183000232F342F4427585FF3CF469537952795AC
:10184000A795F0405395C9F77EF41F16BA0B620BAB
:10185000730B840BBAF09150A1F0FF0FBB1F661FF2
:10186000771F881FC2F70EC0BA0F621F731F841F35
:1018700048F4879577956795B795F7959E3F08F05B
:10188000B0CF9395880F08F09927EE0F979587951D
:1018900008950E94330D08F481E008950E94620CBF
:1018A0000C946E0D0E94670D58F00E94600D40F080
:1018B00029F45F3F29F00C94570D51110C94A20D9F
:1018C0000C945D0D0E947F0D68F39923B1F35523AD
:1018D00091F3951B550BBB27AA2762177307840743
:1018E00038F09F5F5F4F220F331F441FAA1FA9F3D9
:1018F00035D00E2E3AF0E0E832D091505040E695C7
:10190000001CCAF72BD0FE2F29D0660F771F881F27
:10191000BB1F261737074807AB07B0E809F0BB0B1A
:10192000802DBF01FF2793585F4F3AF09E3F51052E
:1019300078F00C94570D0C94A20D5F3FE4F3983EA1
:10194000D4F3869577956795B795F7959F5FC9F717
:10195000880F911D9695879597F90895E1E0660F98
:10196000771F881FBB1F621773078407BA0720F011
:10197000621B730B840BBA0BEE1F88F7E09508957A
:101980000E94C70C6894B1110C94A20D08950E9496
:10199000870D88F09F5798F0B92F9927B751B0F06D
:1019A000E1F0660F771F881F991F1AF0BA95C9F7E3
:1019B00014C0B13091F00E94A10DB1E008950C94D3
:1019C000A10D672F782F8827B85F39F0B93FCCF386
:1019D000869577956795B395D9F73EF49095809560
:1019E000709561957F4F8F4F9F4F0895E89409C080
:1019F00097FB3EF490958095709561957F4F8F4F42
:101A00009F4F9923A9F0F92F96E9BB279395F69557
:101A1000879577956795B795F111F8CFFAF4BB0FD5
:101A200011F460FF1BC06F5F7F4F8F4F9F4F16C039
:101A3000882311F096E911C0772321F09EE8872FC3
:101A4000762F05C0662371F096E8862F70E060E07F
:101A50002AF09A95660F771F881FDAF7880F9695F8
:101A6000879597F90895990F0008550FAA0BE0E89C
:101A7000FEEF16161706E807F907C0F01216130650
:101A8000E407F50798F0621B730B840B950B39F490
:101A90000A2661F0232B242B252B21F408950A26F6
:101AA00009F4A140A6958FEF811D811D089597F936
:101AB0009F6780E870E060E008959FEF80EC0895F4
:101AC00000240A941616170618060906089500241D
:101AD0000A9412161306140605060895092E039497
:101AE000000C11F4882352F0BB0F40F4BF2B11F40B
:101AF00060FF04C06F5F7F4F8F4F9F4F089557FD6A
:101B00009058440F551F59F05F3F71F04795880F6B
:101B100097FB991F61F09F3F79F087950895121602
:101B200013061406551FF2CF4695F1DF08C01616AE
:101B300017061806991FF1CF86957105610508945F
:101B40000895E894BB2766277727CB0197F9089576
:101B50000E94330D08F48FEF08950E94C00D0C947D
:101B60006E0D0E94600D38F00E94670D20F09523E5
:101B700011F00C94570D0C945D0D11240C94A20DD2
:101B80000E947F0D70F3959FC1F3950F50E0551F94
:101B9000629FF001729FBB27F00DB11D639FAA27C2
:101BA000F00DB11DAA1F649F6627B00DA11D661F11
:101BB000829F2227B00DA11D621F739FB00DA11D32
:101BC000621F839FA00D611D221F749F3327A00DEC
:101BD000611D231F849F600D211D822F762F6A2F88
:101BE00011249F5750409AF0F1F088234AF0EE0FED
:101BF000FF1FBB1F661F771F881F91505040A9F71A
:101C00009E3F510580F00C94570D0C94A20D5F3F40
:101C1000E4F3983ED4F3869577956795B795F79555
:101C2000E7959F5FC1F7FE2B880F911D96958795CD
:101C300097F90895991B79E004C0991F961708F049
:101C4000961B881F7A95C9F780950895EE0FFF1FA0
:0C1C50000590F491E02D0994F894FFCF6A
:101C5C00FF00000000F903590386034604B70395FF
:101C6C0003A9030D0A0030373737002C200035301C
:101C7C003030004C6576656C2031204D616E75619D
:101C8C006C2E2E2E2E2E2E2E2E004C6576656C2054
:101C9C0032202E2E2E2E2E2E2E2E004C6576656C7E
:0C1CAC002033202E2E2E2E2E2E2E2E0049
:00000001FF
