:100000000C9462000C948A000C948A000C948A0070
:100010000C948A000C948A000C948A000C948A0038
:100020000C948A000C948A000C948A000C94BA04F4
:100030000C948A000C948A000C948A000C948A0018
:100040000C9418040C948A000C9488040C94620498
:100050000C948A000C948A000C948A000C948A00F8
:100060000C948A000C948A000000000024002700F1
:100070002A0000000000250028002B0000000000DE
:1000800023002600290004040404040404040202DA
:100090000202020203030303030301020408102007
:1000A0004080010204081020010204081020000012
:1000B0000008000201000003040700000000000027
:1000C0000000760511241FBECFEFD8E0DEBFCDBF04
:1000D00011E0A0E0B1E0EAE2F0E102C005900D928B
:1000E000A433B107D9F722E0A4E3B1E001C01D9227
:1000F000A830B207E1F710E0C2E6D0E004C02197D3
:10010000FE010E940D08C136D107C9F70E94ED0516
:100110000C9413080C940000833081F028F4813093
:1001200099F08230A9F008958730A9F08830C9F09D
:100130008430B1F4809180008F7D03C08091800075
:100140008F7780938000089584B58F7784BD08955C
:1001500084B58F7DFBCF8091B0008F778093B00006
:1001600008958091B0008F7DF9CFCF93DF93282F32
:1001700030E0F901E255FF4F8491F901E656FF4F57
:10018000D491F901EA57FF4FC491CC23A1F081111A
:100190000E948C00EC2FF0E0EE0FFF1FE458FF4FA1
:1001A000A591B491EC91ED2381E090E009F480E019
:1001B000DF91CF91089580E090E0FACF1F93CF9325
:1001C000DF93282F30E0F901E255FF4F8491F901C8
:1001D000E656FF4FD491F901EA57FF4FC491CC2363
:1001E000A9F0162F81110E948C00EC2FF0E0EE0F89
:1001F000FF1FEE58FF4FA591B4918FB7F894EC9183
:10020000111108C0D095DE23DC938FBFDF91CF9111
:100210001F910895DE2BF8CFCF93DF9390E0FC0180
:10022000E656FF4F24918A579F4FFC018491882303
:10023000D1F090E0880F991FFC01E859FF4FA5917C
:10024000B491FC01EE58FF4FC591D491623071F426
:100250009FB7F8943C91822F809583238C93E881FB
:100260002E2B28839FBFDF91CF9108958FB7F894ED
:10027000EC912E2B2C938FBFF6CF8E508064809301
:100280007C0080917A00806480937A0080917A006B
:1002900086FDFCCF809178009091790008953FB75A
:1002A000F89480913C0190913D01A0913E01B09164
:1002B0003F0126B5A89B05C02F3F19F00196A11D4F
:1002C000B11D3FBFBA2FA92F982F8827BC01CD01A0
:1002D000620F711D811D911D42E0660F771F881FFF
:1002E000991F4A95D1F708958F929F92AF92BF922E
:1002F000CF92DF92EF92FF924B015C010E944F017F
:100300006B017C010E944F016C197D098E099F09C8
:10031000683E734081059105A8F321E0821A910897
:10032000A108B10888EEC80E83E0D81EE11CF11CBC
:1003300081149104A104B10429F7FF90EF90DF909C
:10034000CF90BF90AF909F908F900895AF92BF9243
:10035000CF92DF92EF92FF920F931F93CF93DF9391
:100360006C017B018B01040F151FEB015E01AE18C0
:10037000BF08C017D10759F06991D601ED91FC91E2
:100380000190F081E02DC6010995892B79F7C5010F
:10039000DF91CF911F910F91FF90EF90DF90CF9061
:1003A000BF90AF900895FC01538D448D252F30E010
:1003B000842F90E0821B930B541710F0CF96089572
:1003C00001970895FC01918D828D981761F0A28D9F
:1003D000AE0FBF2FB11D5D968C91928D9F5F9F7365
:1003E000928F90E008958FEF9FEF0895FC01918D1B
:1003F000828D981731F0828DE80FF11D858D90E088
:1004000008958FEF9FEF0895FC01918D228D892F24
:1004100090E0805C9F4F821B91098F73992708950C
:1004200080E491E00E94040221E0892B09F420E09D
:10043000822F089580E090E0892B29F00E9410021D
:1004400081110C9400000895FC01A48DA80FB92F10
:10045000B11DA35ABF4F2C91848D90E001968F73EC
:100460009927848FA689B7892C93A089B1898C910B
:10047000837080648C93938D848D981306C002885A
:10048000F389E02D80818F7D80830895EF92FF9224
:100490000F931F93CF93DF93EC0181E0888F9B8DA7
:1004A0008C8D98131AC0E889F989808185FF15C061
:1004B0009FB7F894EE89FF896083E889F989808184
:1004C0008370806480839FBF81E090E0DF91CF9153
:1004D0001F910F91FF90EF900895F62E0B8D10E075
:1004E0000F5F1F4F0F731127E02E8C8D8E110CC0E4
:1004F0000FB607FCFACFE889F989808185FFF5CF2F
:10050000CE010E942402F1CFEB8DEC0FFD2FF11DE7
:10051000E35AFF4FF0829FB7F8940B8FEA89FB896B
:1005200080818062CFCF682F80E491E00C944602F6
:10053000CF93DF93EC01888D8823B9F0AA89BB891A
:10054000E889F9898C9185FD03C0808186FD0DC005
:100550000FB607FCF7CF8C9185FFF2CF808185FF26
:10056000EDCFCE010E942402E9CFDF91CF91089513
:10057000CF92DF92EF92FF92CF93DF93EC01603244
:1005800082E07807CCF5653B710514F064EB70E010
:10059000898128E830E0281B310987FD3395220F37
:1005A000331F220F331F6901330FEE08FF088A81C2
:1005B00028E532E0281B310987FD3395220F331FD0
:1005C000220F331F032E000C440B550B2C193D0931
:1005D0004E095F09DB0177FF02C0B0E0A0E00E9496
:1005E000C10724EB30E040E050E00E949707C20EC4
:1005F000D31EE41EF51EB601E881EC3070F52981AA
:1006000088E890E0821B910927FD9395880F991F38
:10061000880F991F681779077CF02A8188E592E096
:10062000821B910927FD9395880F991F880F991FA9
:10063000681779070CF4CB010297880F991F4FB701
:10064000F8942E2F30E0F901EE0FFF1FE20FF31F99
:10065000E352FE4F928381834FBFDF91CF91FF9092
:10066000EF90DF90CF9008951F93CF93DF93EC012D
:10067000162F88818C3008F04EC061E0812F0E94D7
:100680000C018881282F30E0F901EE0FFF1FE20FE7
:10069000F31FE352FE4F1F736081607C612B608308
:1006A00019821A822CE0622F0E94FA07829FB00101
:1006B000112430E020E0AB01420F531FFA01EE0F8E
:1006C000FF1FE40FF51FE352FE4F908196FD16C009
:1006D0002F5F3F4F2C30310571F781110FC0109201
:1006E000800082E080938100109285001092840047
:1006F000B19A80916F00826080936F00E8818E2FA5
:1007000090E0FC01EE0FFF1FE80FF91FE352FE4FD0
:100710008081806480838881DF91CF911F910895CB
:10072000FC0101900020E9F73197AF01481B590BFC
:10073000BC0180E491E00C94A6018F929F92AF924D
:10074000BF92CF92DF92EF92FF920F931F93CF93BE
:10075000DF93CDB7DEB7A1970FB6F894DEBF0FBE1B
:10076000CDBF6C01990FEE08FF08F7FE3FC08DE288
:100770000E9493028C0122273327A9012C193D09DD
:100780004E095F0919A2CE0181967C019AE0892E5B
:10079000912CA12CB12CCA01B901A50194010E9490
:1007A000C907605DF70162937F012115310541059D
:1007B000510589F790E080E0309719F0CF010E9451
:1007C0009003800F911FA1960FB6F894DEBF0FBE65
:1007D000CDBFDF91CF911F910F91FF90EF90DF90F0
:1007E000CF90BF90AF909F908F900895A7019601F2
:1007F00019A28E010F5D1F4F8AE0C82ED12CE12C6B
:10080000F12CCA01B901A70196010E94C907605DD8
:10081000F80162938F01211531054105510589F7D2
:1008200090E080E0309779F2CF010E949003CBCF27
:100830001F920F920FB60F9211242F933F938F9315
:100840009F93AF93BF938091380190913901A0910C
:100850003A01B0913B013091370123E0230F2D374E
:1008600058F50196A11DB11D2093370180933801E1
:1008700090933901A0933A01B0933B0180913C01E0
:1008800090913D01A0913E01B0913F010196A11DC3
:10089000B11D80933C0190933D01A0933E01B09324
:1008A0003F01BF91AF919F918F913F912F910F90F9
:1008B0000FBE0F901F90189526E8230F0296A11DDA
:1008C000B11DD2CF1F920F920FB60F9211242F930A
:1008D0003F934F935F936F937F938F939F93AF93C8
:1008E000BF93EF93FF9380E491E00E942402FF9175
:1008F000EF91BF91AF919F918F917F916F915F9198
:100900004F913F912F910F900FBE0F901F90189510
:100910001F920F920FB60F9211242F938F939F93D4
:10092000EF93FF93E0915001F09151018081E091AC
:100930005601F091570182FD1BC0908180915901B1
:100940008F5F8F7320915A01821741F0E091590116
:10095000F0E0E05CFE4F958F80935901FF91EF919D
:100960009F918F912F910F900FBE0F901F90189510
:100970008081F4CF1F920F920FB60F9211242F9304
:100980003F934F935F936F937F938F939F93AF9317
:10099000BF93CF93DF93EF93FF9380913401C09186
:1009A0000102D0E087FF24C01092850010928400DD
:1009B000809134018F5F8093340180913401082E3F
:1009C000000C990B8C179D0724F4809134018C3016
:1009D000C4F18091840090918500049680349C49F4
:1009E00008F47AC08091840090918500049676C0C6
:1009F00080913401082E000C990B8C179D07C4F6CA
:100A0000E09134018E2FEE0F990BFC01EE0FFF1FCA
:100A1000E80FF91FE352FE4F808186FFC9CFE091B6
:100A200034018E2FEE0F990BFC01EE0FFF1FE80F24
:100A3000F91FE352FE4F808160E08F730E94DE0059
:100A4000B7CF2091840030918500E09134018E2F42
:100A5000EE0F990BFC01EE0FFF1FE80FF91FE35299
:100A6000FE4F81819281820F931F90938900809322
:100A70008800E09134018E2FEE0F990BFC01EE0FF0
:100A8000FF1FE80FF91FE352FE4F808186FF11C060
:100A9000E09134018E2FEE0F990BFC01EE0FFF1F3A
:100AA000E80FF91FE352FE4F808161E08F730E94CF
:100AB000DE00FF91EF91DF91CF91BF91AF919F91B8
:100AC0008F917F916F915F914F913F912F910F90F7
:100AD0000FBE0F901F90189580E49CE990938900B9
:100AE000809388008FEF80933401E3CF109243010D
:100AF0001092420188EE93E0A0E0B0E080934401C0
:100B000090934501A0934601B093470188E091E09E
:100B1000909341018093400185EC90E090934D01CA
:100B200080934C0184EC90E090934F0180934E01B0
:100B300080EC90E0909351018093500181EC90E023
:100B4000909353018093520182EC90E09093550171
:100B50008093540186EC90E0909357018093560166
:100B60001092590110925A0110925B0110925C018F
:100B7000809101028C3048F591E0980F909301022A
:100B80008093050290E0FC01EE0FFF1FE80FF91FB4
:100B9000E352FE4F88EB9BE09283818380910102B8
:100BA0008C30B8F491E0980F909301028093020288
:100BB00090E0FC01EE0FFF1FE80FF91FE352FE4F1C
:100BC00088EB9BE09283818308958FEF80930502E9
:100BD000E5CF8FEF809302020895789484B5826008
:100BE00084BD84B5816084BD85B5826085BD85B5D1
:100BF000816085BD80916E00816080936E0010924F
:100C000081008091810082608093810080918100C9
:100C1000816080938100809180008160809380005A
:100C20008091B10084608093B1008091B0008160B8
:100C30008093B00080917A00846080937A008091E4
:100C40007A00826080937A0080917A00816080933C
:100C50007A0080917A00806880937A001092C100B7
:100C600062E080E10E940C0162E081E10E940C01DF
:100C700062E082E10E940C0162E083E10E940C01CB
:100C800062E084E00E940C0162E082E00E940C01BC
:100C900066E070E085E092E00E9434036AE570E06F
:100CA00085E092E00E94B80265E070E082E092E0A8
:100CB0000E9434036AE570E082E092E00E94B8028C
:100CC00064EF71E080E090E00E947401E0915001D7
:100CD000F091510182E08083E0914C01F0914D014F
:100CE0001082E0914E01F0914F018FEC80831092C1
:100CF0005801E0915401F091550186E08083E09124
:100D00005201F0915301808180618083E091520112
:100D1000F0915301808188608083E0915201F091CD
:100D20005301808180688083E0915201F0915301EA
:100D300080818F7D808344244A9463E0562E612C09
:100D4000712C70E0872E70E0972EE4EBAE2EB12C64
:100D500082E00E94B500892B09F4B8C086E191E0D9
:100D60000E94900385E291E00E94900380E10E943E
:100D70003D018C0181E10E943D01EC0182E10E9474
:100D80003D017C0183E10E943D016C01C8010E948C
:100D90009D038DE20E949302CE010E949D038DE28D
:100DA0000E949302C7010E949D038DE20E9493025C
:100DB000C6010E949D038EE20E94930285E291E0AB
:100DC0000E949003C8018C0F9D1F97FD0196959579
:100DD000879597012C0D3D1D37FF02C02F5F3F4FB8
:100DE00035952795821B930BCC0DDD1DD7FD2196E4
:100DF000D595C7950E0D1F1D17FF02C00F5F1F4F22
:100E000015950795C01BD10B20910201309103016C
:100E1000863F4FEF9407F4F421503109253B31050B
:100E20002CF4309303012093020104C0B09203011B
:100E3000A09202018091000190910101CB30D10577
:100E4000D4F10197853B910584F49093010180933F
:100E500000010FC00B9774F32F5F3F4F37FFE1CFB7
:100E60001092030110920201E5CFB0920101A0920D
:100E70000001609102017091030182E092E00E9402
:100E8000B802609100017091010185E092E00E943A
:100E9000B80265E070E080E090E00E947401811487
:100EA000910409F455CF0E941002882309F450CF11
:100EB0000E9400004DCFC63FDF4FDCF6019697FF42
:100EC000C4CF1092010110920001D3CF88E291E0CB
:100ED0000E94900385E291E00E9490038EE00E94C0
:100EE0003D0124EB30E0DC010E940608A3019201E1
:100EF0000E9497076901309336012093350184E001
:100F00000E94B500B601892B49F085E092E00E946D
:100F1000B802D0920101C0920001C1CF82E092E0FC
:100F20000E94B802D0920301C0920201B8CF052EF0
:100F300097FB1EF400940E94AE0757FD07D00E9455
:100F4000C90707FC03D04EF40C94AE0750954095AA
:100F5000309521953F4F4F4F5F4F08959095809565
:100F6000709561957F4F8F4F9F4F08950E94EB07BB
:100F7000A59F900DB49F900DA49F800D911D1124ED
:100F80000895B7FF0C94B6070E94B607821B930B17
:100F90000895A1E21A2EAA1BBB1BFD010DC0AA1FBA
:100FA000BB1FEE1FFF1FA217B307E407F50720F0D2
:100FB000A21BB30BE40BF50B661F771F881F991F4D
:100FC0001A9469F760957095809590959B01AC0196
:100FD000BD01CF010895A29FB001B39FC001A39F9F
:100FE000700D811D1124911DB29F700D811D112462
:100FF000911D0895991B79E004C0991F961708F078
:10100000961B881F7A95C9F7809508950E94EB0773
:10101000B7FF0895821B930B0895EE0FFF1F0590F5
:0A102000F491E02D0994F894FFCF3D
:10102A005A005A00000000004602A601D3019802A5
:10103A000402E201F6014175746F6D6174696320FF
:10104A004D6F6465000D0A004D616E75616C204D2F
:04105A006F6465005A
:00000001FF
