:100000000C9472000C94AB040C9484040C949A002D
:100010000C949A000C949A000C949A000C94D204BC
:100020000C949A000C949A000C949A000C949A00E8
:100030000C949A000C949A000C949A000C949A00D8
:100040000C943A040C949A000C9454050C942E05CC
:100050000C949A000C949A000C949A000C949A00B8
:100060000C949A000C949A0005A84CCDB2D44EB9C9
:100070003836A9020C50B9918688083CA6AAAA2A4B
:10008000BE000000803F020000000023002600297F
:100090000000000000240027002A000000000025C6
:1000A0000028002B000404040404040404020202D7
:1000B00002020203030303030301020408102040A9
:1000C0008001020408102001020408102000000032
:1000D0000800020100000304070000000000000007
:1000E0000000D90911241FBECFEFD8E0DEBFCDBF7D
:1000F00011E0A0E0B1E0E2E6FAE102C005900D9265
:10010000A03DB107D9F722E0A0EDB1E001C01D92FA
:10011000A838B207E1F710E0C2E7D0E004C02197A9
:10012000FE010E941A0DC137D107C9F70E9486054A
:100130000C942F0D0C940000833081F028F4813052
:1001400099F08230A9F008958730A9F08830C9F07D
:100150008430B1F4809180008F7D03C08091800055
:100160008F7780938000089584B58F7784BD08953C
:1001700084B58F7DFBCF8091B0008F778093B000E6
:1001800008958091B0008F7DF9CF1F93CF93DF93B7
:10019000282F30E0F901E353FF4F8491F901E75430
:1001A000FF4FD491F901EB55FF4FC491CC23A9F037
:1001B000162F81110E949C00EC2FF0E0EE0FFF1F24
:1001C000E556FF4FA591B4918FB7F894EC911111BA
:1001D00008C0D095DE23DC938FBFDF91CF911F91B4
:1001E0000895DE2BF8CFCF93DF9390E0FC01E75426
:1001F000FF4F24918B559F4FFC0184918823C9F0B8
:1002000090E0880F991FFC01EF56FF4FA591B49124
:10021000FC01E556FF4FC591D49161110DC09FB708
:10022000F8948C91209582238C93888128232883AD
:100230009FBFDF91CF910895623051F49FB7F8943A
:100240003C91822F809583238C93E8812E2BEFCFD6
:100250008FB7F894EC912E2B2C938FBFEACFE82F19
:10026000F0E0E353FF4FE491E33029F150F4E13043
:10027000C1F0E230D9F060387105BCF560E00C9453
:10028000C500E73011F1E83041F1E430A1F7809189
:10029000800080628093800070938B0060938A005E
:1002A000089584B5806884BD67BD089584B5806273
:1002B00084BD68BD0895809180008068809380002F
:1002C000709389006093880008958091B0008068E1
:1002D0008093B0006093B30008958091B000806275
:1002E0008093B0006093B400089561E0C8CF3FB739
:1002F000F8948091E7019091E801A091E901B09113
:10030000EA0126B5A89B05C02F3F19F00196A11D53
:10031000B11D3FBFBA2FA92F982F8827BC01CD014F
:10032000620F711D811D911D42E0660F771F881FAE
:10033000991F4A95D1F708958F929F92AF92BF92DD
:10034000CF92DF92EF92FF926B017C010E947701C6
:100350004B015C01C114D104E104F104B9F00E9425
:100360007701681979098A099B09683E73408105FC
:10037000910580F321E0C21AD108E108F10888EE66
:10038000880E83E0981EA11CB11CE4CFFF90EF9073
:10039000DF90CF90BF90AF909F908F90089581E0B5
:1003A0008093E101089508959091040189130BC091
:1003B000E6E8F0E0E4919FEF90930401E13049F02A
:1003C00028F0E23061F060E00C94C50010926E00FD
:1003D000FACF90916F009D7F90936F00F4CF909132
:1003E00070009D7F9093700091E09093B000909189
:1003F000B100987F94609093B1001092B300E3CF66
:10040000AF92BF92CF92DF92EF92FF920F931F9322
:10041000CF93DF936C017B018B01040F151FEB0160
:100420005E01AE18BF08C017D10759F06991D60117
:10043000ED91FC910190F081E02DC6010995892B89
:1004400079F7C501DF91CF911F910F91FF90EF9048
:10045000DF90CF90BF90AF900895FC01538D448DF5
:10046000252F30E0842F90E0821B930B541710F05F
:10047000CF96089501970895FC01918D828D98176C
:1004800061F0A28DAE0FBF2FB11D5D968C91928D44
:100490009F5F9F73928F90E008958FEF9FEF089575
:1004A000FC01918D828D981731F0828DE80FF11D3E
:1004B000858D90E008958FEF9FEF0895FC01918D59
:1004C000228D892F90E0805C9F4F821B91098F7352
:1004D000992708958BEE91E00E945E0221E0892B1E
:1004E00009F420E0822F089580E090E0892B29F024
:1004F0000E946A0281110C9400000895FC01A48DF1
:10050000A80FB92FB11DA35ABF4F2C91848D90E035
:1005100001968F739927848FA689B7892C93A08918
:10052000B1898C91837080648C93938D848D9813A2
:1005300006C00288F389E02D80818F7D8083089535
:10054000EF92FF920F931F93CF93DF93EC0181E023
:10055000888F9B8D8C8D98131AC0E889F9898081CA
:1005600085FF15C09FB7F894EE89FF896083E889FD
:10057000F98980818370806480839FBF81E090E0EF
:10058000DF91CF911F910F91FF90EF900895F62E7C
:100590000B8D10E00F5F1F4F0F731127E02E8C8D16
:1005A0008E110CC00FB607FCFACFE889F98980815B
:1005B00085FFF5CFCE010E947E02F1CFEB8DEC0FCF
:1005C000FD2FF11DE35AFF4FF0829FB7F8940B8F78
:1005D000EA89FB8980818062CFCFCF93DF93EC01E2
:1005E000888D8823B9F0AA89BB89E889F9898C911B
:1005F00085FD03C0808186FD0DC00FB607FCF7CFD7
:100600008C9185FFF2CF808185FFEDCFCE010E94D6
:100610007E02E9CFDF91CF910895FC010190002087
:10062000E9F73197AF01481B590BBC018BEE91E004
:100630000C9400028F929F92AF92BF920F931F93E0
:10064000CF93DF93CDB7DEB7A1970FB6F894DEBF97
:100650000FBECDBF19A2423008F44AE08E010F5DF3
:100660001F4F842E912CB12CA12CA50194010E9426
:10067000D20CE62FB901CA01EA30F4F4E05DD801EA
:10068000EE938D01232B242B252B79F790E080E02E
:10069000109719F0CD010E940D03A1960FB6F894A2
:1006A000DEBF0FBECDBFDF91CF911F910F91BF90E5
:1006B000AF909F908F900895E95CE1CF4F925F9249
:1006C0006F927F928F929F92AF92BF92CF92DF9262
:1006D000EF92FF920F931F93CF936B017C01742EC7
:1006E000AC019B010E94450C882399F08FEA91E0B0
:1006F000CF911F910F91FF90EF90DF90CF90BF901F
:10070000AF909F908F907F906F905F904F900C94E0
:100710000D0346015701E894B7F82FEF3FEF4FE77D
:100720005FE7C501B4010E94450C81110DC02FEF98
:100730003FEF4FE75FE7C501B4010E94730A181647
:100740001CF483EB91E0D4CF2FEF3FEF4FE75FE452
:10075000C701B6010E94CB0B18161CF487EB91E081
:10076000C7CF2FEF3FEF4FE75FECC701B6010E9405
:10077000730A87FDF3CF20E030E0A901C701B6017D
:100780000E94730A10E000E087FF0AC06DE28BEE62
:1007900091E00E94A0028C01F7FAF094F7F8F0942F
:1007A000C0E060E070E080E09FE37C1641F020E074
:1007B00030E040E251E40E94780ACF5FF6CFA70113
:1007C00096010E94070A2B013C010E94EA0A4B0194
:1007D0005C014AE00E941A037C01E00EF11ECC236A
:1007E000C1F1C501B4010E94190B9B01AC01C30109
:1007F000B2010E94060A4B015C016EE28BEE91E0B1
:100800000E94A002E80EF91EC15018F120E030E06D
:1008100040E251E4C501B4010E94D00B2B013C0120
:100820000E94EA0A4B01B12CA12C4AE0C501B40197
:100830000E941A03E80EF91EC501B4010E94190BAB
:100840009B01AC01C301B2010E94060A4B015C018D
:10085000DBCFC701CF911F910F91FF90EF90DF90F9
:10086000CF90BF90AF909F908F907F906F905F9050
:100870004F9008951F920F920FB60F9211242F934D
:100880003F938F939F93AF93BF938091E301909198
:10089000E401A091E501B091E6013091E20123E08D
:1008A000230F2D3758F50196A11DB11D2093E201AC
:1008B0008093E3019093E401A093E501B093E601F6
:1008C0008091E7019091E801A091E901B091EA01DE
:1008D0000196A11DB11D8093E7019093E801A093BB
:1008E000E901B093EA01BF91AF919F918F913F9140
:1008F0002F910F900FBE0F901F90189526E8230F91
:100900000296A11DB11DD2CF1F920F920FB60F926A
:1009100011242F933F934F935F936F937F938F9304
:100920009F93AF93BF93EF93FF93E0910201F091F8
:1009300003010995FF91EF91BF91AF919F918F9125
:100940007F916F915F914F913F912F910F900FBECB
:100950000F901F9018951F920F920FB60F921124AF
:100960002F933F934F935F936F937F938F939F93B7
:10097000AF93BF93EF93FF93E0910001F0910101DA
:100980000995FF91EF91BF91AF919F918F917F91C9
:100990006F915F914F913F912F910F900FBE0F90EC
:1009A0001F9018951F920F920FB60F9211242F933C
:1009B0003F934F935F936F937F938F939F93AF93E7
:1009C000BF93EF93FF938091D5019091D601A091B1
:1009D000D701B091D801892B8A2B8B2BD1F1909123
:1009E000D001E091D101F091D201808189278083EB
:1009F0008091D5019091D601A091D701B091D801F5
:100A0000181619061A061B069CF48091D5019091C0
:100A1000D601A091D701B091D8010197A109B109E0
:100A20008093D5019093D601A093D701B093D801BC
:100A3000FF91EF91BF91AF919F918F917F916F91B6
:100A40005F914F913F912F910F900FBE0F901F908C
:100A50001895809104010E94D401EACF1F920F9251
:100A60000FB60F9211242F933F934F935F936F9381
:100A70007F938F939F93AF93BF93EF93FF938BEEEF
:100A800091E00E947E02FF91EF91BF91AF919F9103
:100A90008F917F916F915F914F913F912F910F9027
:100AA0000FBE0F901F9018951F920F920FB60F92C6
:100AB00011242F938F939F93EF93FF93E091FB016A
:100AC000F091FC018081E0910102F091020282FD2F
:100AD0001BC09081809104028F5F8F73209105026B
:100AE000821741F0E0910402F0E0E551FE4F958F4E
:100AF00080930402FF91EF919F918F912F910F901E
:100B00000FBE0F901F9018958081F4CFCF93DF9385
:100B1000CDB7DEB729970FB6F894DEBF0FBECDBFB5
:100B2000789484B5826084BD84B5816084BD85B5C8
:100B3000826085BD85B5816085BD80916E008160D4
:100B400080936E001092810080918100826080937A
:100B5000810080918100816080938100809180007C
:100B60008160809380008091B10084608093B100A7
:100B70008091B00081608093B00080917A008460A1
:100B800080937A0080917A00826080937A008091CD
:100B90007A00816080937A0080917A0080688093E7
:100BA0007A001092C100E091FB01F091FC0182E01B
:100BB0008083E091F701F091F8011082E091F90152
:100BC000F091FA018FEC808310920302E091FF0113
:100BD000F091000286E08083E091FD01F091FE013A
:100BE000808180618083E091FD01F091FE01808130
:100BF00088608083E091FD01F091FE018081806832
:100C00008083E091FD01F091FE0180818F7D8083E2
:100C100061E08CE00E94F30061E08DE00E94F3004F
:100C200061E08AE00E94F30061E080E10E94F3004D
:100C300061E081E10E94F30061E089E00E94F3003D
:100C400060E08EE00E94F30060E083E00E94F30029
:100C500062E082E00E94F30061E08BE00E94F3001A
:100C600061E085E00E94F30061E086E00E94F3000D
:100C70008FEC91E0909303018093020180916900D1
:100C80008C6080936900E99A8BEB91E00E940D03E0
:100C90008CEC91E00E940D038091E101882309F41E
:100CA0006EC261E089E00E94F3006CE370E089E0CD
:100CB0000E942F0161E080E10E94C50060E081E1B7
:100CC0000E94C50023E631E03A83298387E191E061
:100CD00098878F83EFEAF1E029813A81E217F307E1
:100CE00009F43AC2F90101911191FA83E983EF8184
:100CF000F88521903190F887EF832101032C000CB7
:100D0000660877080115110509F422C280910401D3
:100D10008B3009F0C1C0E6E8F0E0F491F987F7FD07
:100D2000A6C161E08BE00E94F300F985FF2321F06A
:100D30002985223009F0A2C14801B12CA12C60E024
:100D400072E18AE790E0A50198010E94F40C2B83E0
:100D50003C834D835E8369017A0131E0C31AD10877
:100D6000E108F1088FEFC816D104E104F10409F09D
:100D70000CF455C160E472E48FE090E0A5019801A5
:100D80000E94F40C69017A0191E0C91AD108E108C6
:100D9000F108E985E23009F0F6C082E0FFEFCF16F6
:100DA000D104E104F10409F00CF46FC060E970EDC6
:100DB00083E090E0A50198010E94F40C69017A019A
:100DC00081E0C81AD108E108F10883E09FEFC91655
:100DD000D104E104F10409F00CF457C068E478EEA2
:100DE00081E090E0A50198010E94F40C69017A016C
:100DF000E1E0CE1AD108E108F10884E0FFEFCF1658
:100E0000D104E104F10409F00CF43FC064E274EF92
:100E100080E090E0A50194010E94F40C69017A0140
:100E200081E0C81AD108E108F10885E0FFEFCF168C
:100E3000D104E104F10449F140F162E17AE780E094
:100E400090E0A50194010E94F40C69017A0181E00F
:100E5000C81AD108E108F10886E09FEFC916D1044D
:100E6000E104F10491F088F0CB80DC80ED80FE801D
:100E70009AE0F594E794D794C7949A95D1F781E0D6
:100E8000C81AD108E108F10887E09091B100987F75
:100E9000892B8093B100CBC08F3F09F0E8C08BE075
:100EA00080930401E6E8F0E0F491F987FF3F09F44C
:100EB000DEC0F13031F158F0F23009F441C039852B
:100EC00037FDD5C061E08BE00E94F30031CF14BC48
:100ED00015BC84B5826084BD85B5816085BDE0EBBD
:100EE000F0E08491E82FF0E0EE0FFF1FE556FF4F92
:100EF00085919491E4ECF0E084918093D40119867B
:100F000010CF109280001092810080918100886043
:100F10008093810080918100816080938100E0EB6B
:100F2000F0E08491E82FF0E0EE0FFF1FE556FF4F51
:100F300085919491E4ECF0E084918093D301F1CE1B
:100F40001092B0001092B1008091B0008260809346
:100F5000B0008091B10081608093B100E0EBF0E0DF
:100F60008491E82FF0E0EE0FFF1FE556FF4F8591CB
:100F700094919093D2018093D101E4ECF0E08491BC
:100F80008093D001CECEEFEFCE16D104E104F10470
:100F900009F00CF471C068E478EE81E090E0A501FE
:100FA00098010E94F40C69017A01F1E0CF1AD1088E
:100FB000E108F108298584E0211138CF83E0EFEFC3
:100FC000CE16D104E104F10471F16CF162E17AE72B
:100FD00080E090E0A50194010E94F40C69017A017F
:100FE00091E0C91AD108E108F10884E0EFEFCE16CC
:100FF000D104E104F104B9F0B0F0CB80DC80ED80E5
:10100000FE808AE0F594E794D794C7948A95D1F747
:1010100091E0C91AD108E108F10885E004C081E037
:10102000F985F11132CF95B5987F892B85BD2FEFCA
:101030003FEFA901411451046104710409F048C053
:101040008985813009F462C0823009F471C0811150
:101050000EC0C7BC2093DD013093DE014093DF0159
:101060005093E00180916E00826080936E00C30116
:10107000B2010E949C012ECE82E0D2CFB12CA12CD5
:1010800060E072E18AE790E0A50198010E94F40C0B
:1010900069017A0181E0C81AD108E108F108C11498
:1010A000D10491E0E906F10404F591E0F985F1300D
:1010B00009F0BDCF80918100887F892B80938100CA
:1010C0002FEF3FEFA9014114510461047104F1F0C5
:1010D0009801220F331FD1010E94130D28EE33E037
:1010E00040E050E00E94D20CABCF68E478EE81E0A3
:1010F00090E0A50198010E94F40C69017A01E1E0F9
:10110000CE1AD108E108F10893E0D0CFD09289003F
:10111000C09288002093D9013093DA014093DB011B
:101120005093DC0180916F00826080936F009FCFAD
:10113000C092B3002093D5013093D6014093D701DC
:101140005093D801809170008260809370008FCF9F
:101150008BE00E94D4018BCF61E089E00E94F30014
:101160006CE370E089E00E942F0160E080E10E9462
:10117000C50060E081E10E94C5001092E101EFEC42
:10118000F0E08491EBEBF0E094919983E7EAF0E0F2
:101190001491112309F463C081110E949C00E12F76
:1011A000F0E0EE0FFF1FE957FF4FA591B491EC91CE
:1011B000F981FE2309F453C061E085E00E94C50077
:1011C000C12CD12C7601C701B6010E943D0C4B0108
:1011D0005C0142E00E945E038CEC91E00E940D03F2
:1011E00020E030E0A901C501B4010E94CB0B181624
:1011F0000CF0C7C02DEC3CEC4CE45DE3C701B6013C
:101200000E94070A6B017C0161E08AE00E94F30002
:1012100060E570E08AE00E942F0160E08CE00E94AF
:10122000C50061E08DE00E94C5006EE170E080E0E5
:1012300090E00E949C0160E08CE00E94C50060E0AC
:101240008DE00E94C5002BED3FE049EC50E4C70162
:10125000B6010E94730A18160CF0B5CF77C060E093
:1012600085E00E94C500C12CD12C760120E420939A
:101270007C0080917A00806480937A0080917A006B
:1012800086FDFCCF6091780070917900072E000CEC
:10129000880B990B0E941B0B2DEC3CEC4CE45FEB94
:1012A0000E94D00B20E030EC4FE754E40E94780A13
:1012B00020E030E040E85FE30E94070A2B013C0198
:1012C000C701B6010E943D0C4B015C0142E00E9447
:1012D0005E038CEC91E00E940D0320E030E0A90158
:1012E000C501B4010E94CB0B61E01816E4F58AE059
:1012F0000E94F3006DEC70E08AE00E942F0161E033
:101300008CE00E94C50060E08DE00E94C5006EE1A7
:1013100070E080E090E00E949C0160E08CE00E9420
:10132000C50060E08DE00E94C500A3019201C701E5
:10133000B6010E94070A6B017C012BED3FE049ECEE
:1013400050E40E94730A18160CF090CF80E090E0F1
:10135000892B09F4A1CC0E946A02882309F49CCC51
:101360000E94000099CC8AE00E94F3006AEA70E0D3
:101370008AE00E942F0160E08CE00E94C50061E0DD
:10138000C3CF2DEC3CEC4CE45EE3C701B6010E94F8
:10139000070A6B017C0161E08AE00E94F30061E0D2
:1013A0008AE00E94C50061E08CE00E94C50060E018
:1013B00039CFEBEEF1E01382128288EE93E0A0E0E9
:1013C000B0E084839583A683B78389E091E091831D
:1013D000808385EC90E09587848784EC90E0978704
:1013E000868780EC90E0918B808B81EC90E0938BF2
:1013F000828B82EC90E0958B848B86EC90E0978BCF
:10140000868B118E128E138E148E08955058BB2722
:10141000AA270E941E0A0C94910B0E94830B38F09D
:101420000E948A0B20F039F49F3F19F426F40C94A3
:10143000800B0EF4E095E7FB0C947A0BE92F0E94E9
:10144000A20B58F3BA17620773078407950720F0B9
:1014500079F4A6F50C94C40B0EF4E0950B2EBA2F7C
:10146000A02D0B01B90190010C01CA01A0011124AA
:10147000FF27591B99F0593F50F4503E68F11A1656
:10148000F040A22F232F342F4427585FF3CF4695E7
:1014900037952795A795F0405395C9F77EF41F1609
:1014A000BA0B620B730B840BBAF09150A1F0FF0FD3
:1014B000BB1F661F771F881FC2F70EC0BA0F621FBF
:1014C000731F841F48F4879577956795B795F795AF
:1014D0009E3F08F0B0CF9395880F08F09927EE0F44
:1014E0009795879508950E94560B08F481E008951A
:1014F0000E948C0A0C94910B0E948A0B58F00E9457
:10150000830B40F029F45F3F29F00C947A0B5111C2
:101510000C94C50B0C94800B0E94A20B68F39923CA
:10152000B1F3552391F3951B550BBB27AA276217DF
:101530007307840738F09F5F5F4F220F331F441FEC
:10154000AA1FA9F335D00E2E3AF0E0E832D0915020
:101550005040E695001CCAF72BD0FE2F29D0660F0D
:10156000771F881FBB1F261737074807AB07B0E850
:1015700009F0BB0B802DBF01FF2793585F4F3AF056
:101580009E3F510578F00C947A0B0C94C50B5F3F8D
:10159000E4F3983ED4F3869577956795B795F795DC
:1015A0009F5FC9F7880F911D9695879597F90895C4
:1015B000E1E0660F771F881FBB1F62177307840760
:1015C000BA0720F0621B730B840BBA0BEE1F88F76F
:1015D000E09508950E94AA0B88F09F5798F0B92FC4
:1015E0009927B751B0F0E1F0660F771F881F991F58
:1015F0001AF0BA95C9F714C0B13091F00E94C40B2B
:10160000B1E008950C94C40B672F782F8827B85F3A
:1016100039F0B93FCCF3869577956795B395D9F7AF
:101620003EF490958095709561957F4F8F4F9F4FB9
:101630000895E89409C097FB3EF4909580957095C5
:1016400061957F4F8F4F9F4F9923A9F0F92F96E90E
:10165000BB279395F695879577956795B795F11183
:10166000F8CFFAF4BB0F11F460FF1BC06F5F7F4F20
:101670008F4F9F4F16C0882311F096E911C0772332
:1016800021F09EE8872F762F05C0662371F096E83B
:10169000862F70E060E02AF09A95660F771F881F0A
:1016A000DAF7880F9695879597F90895990F0008AE
:1016B000550FAA0BE0E8FEEF16161706E807F90724
:1016C000C0F012161306E407F50798F0621B730BBF
:1016D000840B950B39F40A2661F0232B242B252B40
:1016E00021F408950A2609F4A140A6958FEF811DE3
:1016F000811D089597F99F6780E870E060E0089584
:101700009FEF80EC089500240A9416161706180619
:101710000906089500240A941216130614060506F5
:101720000895092E0394000C11F4882352F0BB0F86
:1017300040F4BF2B11F460FF04C06F5F7F4F8F4FE9
:101740009F4F089557FD9058440F551F59F05F3F24
:1017500071F04795880F97FB991F61F09F3F79F0D3
:1017600087950895121613061406551FF2CF469555
:10177000F1DF08C0161617061806991FF1CF8695D7
:101780007105610508940895E894BB2766277727BB
:10179000CB0197F908950E94560B08F48FEF089536
:1017A0000E94E30B0C94910B0E94830B38F00E9473
:1017B0008A0B20F0952311F00C947A0B0C94800B7B
:1017C00011240C94C50B0E94A20B70F3959FC1F3DA
:1017D000950F50E0551F629FF001729FBB27F00DDF
:1017E000B11D639FAA27F00DB11DAA1F649F662734
:1017F000B00DA11D661F829F2227B00DA11D621F83
:10180000739FB00DA11D621F839FA00D611D221F3C
:10181000749F3327A00D611D231F849F600D211D20
:10182000822F762F6A2F11249F5750409AF0F1F0A3
:1018300088234AF0EE0FFF1FBB1F661F771F881F0C
:1018400091505040A9F79E3F510580F00C947A0BBF
:101850000C94C50B5F3FE4F3983ED4F386957795DF
:101860006795B795F795E7959F5FC1F7FE2B880FB2
:10187000911D9695879597F908959F930E944C0C1A
:101880000F9007FCEE5F0C94750C0E94560B880BB2
:10189000990B08950C94800B0E94AA0BD8F3E8943E
:1018A000E0E0BB279F57F0F02AED3FE049EC06C08F
:1018B000EE0FBB0F661F771F881F28F0B23A620732
:1018C0007307840728F0B25A620B730B840BE395FD
:1018D0009A9572F7803830F49A95BB0F661F771F80
:1018E000881FD2F790480C948B0CEF93E0FF07C051
:1018F000A2EA2AED3FE049EC5FEB0E941E0A0E943B
:10190000910B0F90039401FC9058E8E6F0E00C94E2
:10191000970C9F3F31F0915020F48795779567950C
:10192000B795880F911D9695879597F908959F9380
:101930008F937F936F93FF93EF939B01AC010E9472
:10194000D00BEF91FF910E94AB0C2F913F914F91E3
:101950005F910C94D00BDF93CF931F930F93FF9263
:10196000EF92DF927B018C01689406C0DA2EEF01C2
:101970000E94E30BFE01E894A591259135914591D4
:101980005591A6F3EF010E941E0AFE019701A801DE
:10199000DA9469F7DF90EF90FF900F911F91CF914C
:1019A000DF910895A1E21A2EAA1BBB1BFD010DC0F9
:1019B000AA1FBB1FEE1FFF1FA217B307E407F507FF
:1019C00020F0A21BB30BE40BF50B661F771F881FDB
:1019D000991F1A9469F760957095809590959B0171
:1019E000AC01BD01CF010895052E97FB1EF40094B4
:1019F0000E940B0D57FD07D00E94D20C07FC03D0AC
:101A00004EF40C940B0D50954095309521953F4F19
:101A10004F4F5F4F089590958095709561957F4FDA
:101A20008F4F9F4F08950E94200DB7FF0895821B8E
:101A3000930B0895EE0FFF1F0590F491E02D09948C
:101A4000A29FB001B39FC001A39F700D811D1124FF
:101A5000911DB29F700D811D1124911D0895F89460
:021A6000FFCFB6
:101A6200D301D301FF00000000A00200022D02ED0D
:101A7200025E023C0250027D007D00FA007D007D84
:101A8200007D007D00FA007D007D007D007D00FA72
:101A9200007D007D007D007D0077017D007D007D61
:101AA20000FA007D007D007D007D00FA007D007D52
:101AB200007D007D00FA007D007D007D007D0077C5
:101AC200017D004A018801B801B8010000B801EEA9
:101AD200010B020B0200000B024B02EE01EE0100B1
:101AE20000B8018801B80100004A018801B801B8B4
:101AF200010000B801EE010B020B0200000B024BC9
:101B020002EE01EE010000B8018801B80100006E8A
:101B1200616E00696E66006F766600496E6974696F
:101B2200616C697A696E67202E2E2E000D0A000004
:00000001FF
