:100000000C945D000C9485000C9485000C94850084
:100010000C9485000C9485000C9485000C9485004C
:100020000C9485000C9485000C9485000C947E0340
:100030000C9485000C9485000C9485000C9485002C
:100040000C94DC020C9485000C944C030C94260355
:100050000C9485000C9485000C9485000C9485000C
:100060000C9485000C9485000000000024002700FB
:100070002A0000000000250028002B0004040404CE
:100080000404040402020202020203030303030342
:10009000010204081020408001020408102001021F
:1000A00004081020000000080002010000030407FB
:1000B0000000000000000000550411241FBECFEF17
:1000C000D8E0DEBFCDBF11E0A0E0B1E0ECECFDE098
:1000D00002C005900D92AE31B107D9F721E0AEE133
:1000E000B1E001C01D92A93FB207E1F710E0CDE5F4
:1000F000D0E004C02197FE010E94DE06CC35D10776
:10010000C9F70E9495040C94E4060C94000090E05A
:10011000FC01EC55FF4F2491FC01E057FF4F349157
:10012000FC01E458FF4FE491EE23C9F0222339F09B
:10013000233001F1A8F4213019F1223029F1F0E047
:10014000EE0FFF1FEE58FF4FA591B4918FB7F894B3
:10015000EC91611126C030953E233C938FBF0895EA
:100160002730A9F02830C9F0243049F78091800069
:100170008F7D03C0809180008F7780938000DFCFD8
:1001800084B58F7784BDDBCF84B58F7DFBCF809125
:10019000B0008F778093B000D2CF8091B0008F7D78
:1001A000F9CF3E2BDACFAF92BF92CF92DF92EF9290
:1001B000FF920F931F93CF93DF936C017B018B0111
:1001C000040F151FEB015E01AE18BF08C017D10761
:1001D00059F06991D601ED91FC910190F081E02DEB
:1001E000C6010995892B79F7C501DF91CF911F9140
:1001F0000F91FF90EF90DF90CF90BF90AF90089558
:10020000FC01538D448D252F30E0842F90E0821B1C
:10021000930B541710F0CF96089501970895FC01A1
:10022000918D828D981761F0A28DAE0FBF2FB11DF9
:100230005D968C91928D9F5F9F73928F90E0089551
:100240008FEF9FEF0895FC01918D828D981731F00B
:10025000828DE80FF11D858D90E008958FEF9FEF5F
:100260000895FC01918D228D892F90E0805C9F4F35
:10027000821B91098F73992708958DE491E00E9464
:10028000310121E0892B09F420E0822F0895FC013F
:10029000A48DA80FB92FB11DA35ABF4F2C91848DE7
:1002A00090E001968F739927848FA689B7892C9344
:1002B000A089B1898C91837080648C93938D848D97
:1002C000981306C00288F389E02D80818F7D80839A
:1002D0000895EF92FF920F931F93CF93DF93EC015A
:1002E00081E0888F9B8D8C8D98131AC0E889F989DD
:1002F000808185FF15C09FB7F894EE89FF896083E0
:10030000E889F98980818370806480839FBF81E060
:1003100090E0DF91CF911F910F91FF90EF900895A2
:10032000F62E0B8D10E00F5F1F4F0F731127E02E7D
:100330008C8D8E110CC00FB607FCFACFE889F989B5
:10034000808185FFF5CFCE010E944701F1CFEB8D73
:10035000EC0FFD2FF11DE35AFF4FF0829FB7F89489
:100360000B8FEA89FB8980818062CFCFCF93DF93A7
:10037000EC01888D8823B9F0AA89BB89E889F989BD
:100380008C9185FD03C0808186FD0DC00FB607FCF2
:10039000F7CF8C9185FFF2CF808185FFEDCFCE0125
:1003A0000E944701E9CFDF91CF910895CF92DF926C
:1003B000EF92FF92CF93DF93EC01603282E07807F7
:1003C000CCF5653B710514F064EB70E0898128E899
:1003D00030E0281B310987FD3395220F331F220F90
:1003E000331F6901330FEE08FF088A8128E532E0E8
:1003F000281B310987FD3395220F331F220F331F2E
:10040000032E000C440B550B2C193D094E095F09B6
:10041000DB0177FF02C0B0E0A0E00E94990624EB68
:1004200030E040E050E00E946F06C20ED31EE41E92
:10043000F51EB601E881EC3070F5298188E890E07E
:10044000821B910927FD9395880F991F880F991F8B
:10045000681779077CF02A8188E592E0821B910970
:1004600027FD9395880F991F880F991F68177907A3
:100470000CF4CB010297880F991F4FB7F8942E2FD9
:1004800030E0F901EE0FFF1FE20FF31FE05EFE4FB9
:10049000928381834FBFDF91CF91FF90EF90DF90E8
:1004A000CF900895CF93DF93DC018C918C3008F0CE
:1004B0006DC0CB01FB01E057FF4F249184589F4F43
:1004C000FC018491882399F090E0880F991FFC012A
:1004D000E859FF4FC591D491FC01EE58FF4F85912B
:1004E00094918FB7F894E881E22BE8838FBF8C91C9
:1004F000282F30E0F901EE0FFF1FE20FF31FE05E3F
:10050000FE4F962F9F736081607C692B60831196EC
:100510001C92119712961C9212972CE0622F0E9447
:10052000D206829FB001112430E020E0AB01420FDF
:10053000531FFA01EE0FFF1FE40FF51FE05EFE4FA1
:10054000908196FD16C02F5F3F4F2C30310571F71B
:1005500081110FC01092800082E080938100109280
:10056000850010928400B19A80916F008260809320
:100570006F00EC918E2F90E0FC01EE0FFF1FE80F53
:10058000F91FE05EFE4F8081806480838C91DF9153
:10059000CF9108958DE491E00E940F0180930A01AC
:1005A00060910A018DE491E00C9469010E943D0183
:1005B00081110C94CA0208951F920F920FB60F92E8
:1005C00011242F933F938F939F93AF93BF93809169
:1005D000490190914A01A0914B01B0914C01309199
:1005E000480123E0230F2D3758F50196A11DB11DB9
:1005F000209348018093490190934A01A0934B01B5
:10060000B0934C018091440190914501A091460125
:10061000B09147010196A11DB11D809344019093B3
:100620004501A0934601B0934701BF91AF919F91BF
:100630008F913F912F910F900FBE0F901F901895A3
:1006400026E8230F0296A11DB11DD2CF1F920F9253
:100650000FB60F9211242F933F934F935F936F9395
:100660007F938F939F93AF93BF93EF93FF938DE40B
:1006700091E00E944701FF91EF91BF91AF919F914F
:100680008F917F916F915F914F913F912F910F903B
:100690000FBE0F901F9018951F920F920FB60F92DA
:1006A00011242F938F939F93EF93FF93E0915D011C
:1006B000F0915E018081E0916301F091640182FD1F
:1006C0001BC09081809166018F5F8F7320916701BD
:1006D000821741F0E0916601F0E0E35BFE4F958FF9
:1006E00080936601FF91EF919F918F912F910F90D1
:1006F0000FBE0F901F9018958081F4CF1F920F921C
:100700000FB60F9211242F933F934F935F936F93E4
:100710007F938F939F93AF93BF93CF93DF93EF9389
:10072000FF9380911E01C0911F01D0E087FF24C07C
:10073000109285001092840080911E018F5F80933B
:100740001E0180911E01082E000C990B8C179D072D
:1007500024F480911E018C30C4F18091840090912A
:100760008500049680349C4908F47AC08091840006
:1007700090918500049676C080911E01082E000C91
:10078000990B8C179D07C4F6E0911E018E2FEE0F7A
:10079000990BFC01EE0FFF1FE80FF91FE05EFE4F03
:1007A000808186FFC9CFE0911E018E2FEE0F990B3D
:1007B000FC01EE0FFF1FE80FF91FE05EFE4F808186
:1007C00060E08F730E948700B7CF20918400309142
:1007D0008500E0911E018E2FEE0F990BFC01EE0FAC
:1007E000FF1FE80FF91FE05EFE4F81819281820FAB
:1007F000931F9093890080938800E0911E018E2FB3
:10080000EE0F990BFC01EE0FFF1FE80FF91FE05EE2
:10081000FE4F808186FF11C0E0911E018E2FEE0FEA
:10082000990BFC01EE0FFF1FE80FF91FE05EFE4F72
:10083000808161E08F730E948700FF91EF91DF91CB
:10084000CF91BF91AF919F918F917F916F915F9168
:100850004F913F912F910F900FBE0F901F901895C1
:1008600080E49CE990938900809388008FEF8093C7
:100870001E01E3CFFC0190911F019C3098F481E0B0
:10088000890F80931F019083892F90E0FC01EE0F68
:10089000FF1FE80FF91FE05EFE4F88EB9BE092839D
:1008A000818308958FEF80830895EDE4F1E0138252
:1008B000128288EE93E0A0E0B0E084839583A68363
:1008C000B7838FE091E09183808385EC90E09587FA
:1008D000848784EC90E09787868780EC90E0918B0A
:1008E000808B81EC90E0938B828B82EC90E0958BF7
:1008F000848B86EC90E0978B868B118E128E138EF4
:10090000148E86EF91E00E943A0483EF91E00E94FA
:100910003A0480EF91E00E943A048DEE91E00E944B
:100920003A048AEE91E00C943A04789484B582609B
:1009300084BD84B5816084BD85B5826085BD85B583
:10094000816085BD80916E00816080936E00109201
:10095000810080918100826080938100809181007C
:10096000816080938100809180008160809380000D
:100970008091B10084608093B1008091B00081606B
:100980008093B00080917A00846080937A00809197
:100990007A00826080937A0080917A0081608093EF
:1009A0007A0080917A00806880937A001092C1006A
:1009B00064E070E086EF91E00E94520260910801CD
:1009C0007091090186EF91E00E94D60165E070E028
:1009D00083EF91E00E94520260910601709107013D
:1009E00083EF91E00E94D60166E070E080EF91E035
:1009F0000E945202609104017091050180EF91E024
:100A00000E94D60167E070E08DEE91E00E945202F4
:100A100060910201709103018DEE91E00E94D60178
:100A200068E070E08AEE91E00E945202609100015D
:100A3000709101018AEE91E00E94D601E0915D0182
:100A4000F0915E0182E08083E0915901F0915A01BA
:100A50001082E0915B01F0915C0180E18083109253
:100A60006501E0916101F091620186E08083E0918F
:100A70005F01F0916001808180618083E0915F017E
:100A8000F0916001808188608083E0915F01F09146
:100A90006001808180688083E0915F01F091600156
:100AA00080818F7D8083CAE504EB10E0E0910A012C
:100AB000E154E43308F04EC00E2E000CFF0BED594C
:100AC000FA4F0C94DE0629063706450653066106E2
:100AD000AA05AA05AA05BC05AA05AA050D06D605FC
:100AE000AA05AA05AA05AA05F105AA059705AA055A
:100AF000AA05AA05AA05AA05AA05AA05AA05AA057E
:100B0000AA05AA05AA0530063E064C065A0668063E
:100B1000AA05AA05AA05CC05AA05AA051E06E6058A
:100B2000AA05AA05AA05AA050206AA05B2056091AA
:100B3000080170910901643B710554F46F5F7F4FA8
:100B4000709309016093080186EF91E00E94D6013D
:100B5000C0930A010E943D01882309F4A7CF0E9497
:100B6000CA02A4CF609108017091090116161706F8
:100B70007CF761507109E4CF609106017091070123
:100B8000643B71052CF76F5F7F4F70930701609393
:100B9000060183EF91E0DACF6091060170910701C1
:100BA00016161706ACF661507109EFCF609104017B
:100BB00070910501643B71055CF66F5F7F4F709328
:100BC00005016093040180EF91E0C0CF60910401C2
:100BD00070910501161617060CF0BACF6150710915
:100BE000EECF6091020170910301643B71050CF03E
:100BF000AFCF6F5F7F4F70930301609302018DEE63
:100C000091E0A4CF609102017091030116161706BE
:100C10000CF09ECF61507109EECF60910001709190
:100C20000101643B71050CF093CF6F5F7F4F7093B0
:100C30000101609300018AEE91E088CF609100018C
:100C400070910101161617060CF082CF61507109E0
:100C5000EECF109309010093080164EB70E074CFAC
:100C6000109209011092080170E060E06DCF1093BE
:100C700007010093060164EB70E08BCF109207012F
:100C80001092060170E060E084CF1093050100939C
:100C9000040164EB70E097CF1092050110920401FB
:100CA00070E060E090CF109303010093020164EBC9
:100CB00070E0A5CF109203011092020170E060E095
:100CC0009ECF109301010093000164EB70E0B3CF5D
:100CD000109201011092000170E060E0ACCF052E8F
:100CE00097FB1EF400940E94860657FD07D00E94D1
:100CF000A10607FC03D04EF40C948606509540954F
:100D0000309521953F4F4F4F5F4F089590958095B7
:100D1000709561957F4F8F4F9F4F08950E94C30636
:100D2000A59F900DB49F900DA49F800D911D11243F
:100D30000895B7FF0C948E060E948E06821B930BBB
:100D40000895A1E21A2EAA1BBB1BFD010DC0AA1F0C
:100D5000BB1FEE1FFF1FA217B307E407F50720F024
:100D6000A21BB30BE40BF50B661F771F881F991F9F
:100D70001A9469F760957095809590959B01AC01E8
:100D8000BD01CF010895A29FB001B39FC001A39FF1
:100D9000700D811D1124911DB29F700D811D1124B4
:100DA000911D0895991B79E004C0991F961708F0CA
:100DB000961B881F7A95C9F780950895EE0FFF1F3F
:0C0DC0000590F491E02D0994F894FFCF09
:100DCC005A005A005A005A005A005A000000006992
:0E0DDC0001D3000001B60131010F0123010017
:00000001FF
