:100000000C9463000C948B000C948B000C948B006C
:100010000C948B000C948B000C948B000C945B0B59
:100020000C948B000C948B000C948B000C94350C6E
:100030000C948B000C948B000C948B000C948B0014
:100040000C94110B0C948B000C94030C0C94DD0B92
:100050000C948B000C948B000C948B000C948B00F4
:100060000C948B000C948B000000000023002600F1
:1000700029000200000000240027002A00000000E0
:1000800000250028002B00040404040404040402D6
:100090000202020202030303030303010204081025
:1000A00020408001020408102001020408102000F2
:1000B0000000080002010000030407000000000027
:1000C00000000000510D11241FBECFEFD8E0DEBFAD
:1000D000CDBF11E0A0E0B1E0EEE7F3E202C0059091
:1000E0000D92AE32B107D9F722E0AEE2B1E001C025
:1000F0001D92A532B207E1F710E0C3E6D0E004C0DC
:100100002197FE010E94B711C236D107C9F70E949C
:10011000A40D0C94BD110C94000090E0FC01E1557D
:10012000FF4F2491FC01E556FF4F3491FC01E95744
:10013000FF4FE491EE23C9F0222339F0233001F17F
:10014000A8F4213019F1223029F1F0E0EE0FFF1F61
:10015000E358FF4FA591B4918FB7F894EC916111DA
:1001600026C030953E233C938FBF08952730A9F0D9
:100170002830C9F0243049F7809180008F7D03C07A
:10018000809180008F7780938000DFCF84B58F7758
:1001900084BDDBCF84B58F7DFBCF8091B0008F779E
:1001A0008093B000D2CF8091B0008F7DF9CF3E2BED
:1001B000DACFCF93DF9390E0FC01E556FF4F249117
:1001C00089579F4FFC0184918823D1F090E0880FDC
:1001D000991FFC01ED58FF4FA591B491FC01E35824
:1001E000FF4FC591D49161110EC09FB7F8948C91C7
:1001F000E22FE0958E238C932881E223E8839FBF32
:10020000DF91CF9108958FB7F894EC91E22BEC93A6
:100210008FBFF6CF3FB7F89480916B0190916C013E
:10022000A0916D01B0916E0126B5A89B05C02F3F2E
:1002300019F00196A11DB11D3FBFBA2FA92F982F0C
:100240008827BC01CD01620F711D811D911D42E007
:10025000660F771F881F991F4A95D1F708958F92CF
:100260009F92AF92BF92CF92DF92EF92FF926B017B
:100270007C010E940A014B015C01C114D104E1041C
:10028000F104B9F00E940A01681979098A099B09E9
:10029000683E73408105910580F321E0C21AD108C0
:1002A000E108F10888EE880E83E0981EA11CB11CBD
:1002B000E4CFFF90EF90DF90CF90BF90AF909F90F2
:1002C0008F9008952FB7F89460916701709168013D
:1002D0008091690190916A012FBF0895AF92BF92FA
:1002E000CF92DF92EF92FF920F931F93CF93DF9302
:1002F0006C017B018B01040F151FEB015E01AE1831
:10030000BF08C017D10759F06991D601ED91FC9152
:100310000190F081E02DC6010995892B79F7C5017F
:10032000DF91CF911F910F91FF90EF90DF90CF90D1
:10033000BF90AF900895FC01538D448D252F30E080
:10034000842F90E0821B930B541710F0CF960895E2
:1003500001970895FC01918D828D981761F0A28D0F
:10036000AE0FBF2FB11D5D968C91928D9F5F9F73D5
:10037000928F90E008958FEF9FEF0895FC01918D8B
:10038000828D981731F0828DE80FF11D858D90E0F8
:1003900008958FEF9FEF0895FC01918D228D892F95
:1003A00090E0805C9F4F821B91098F73992708957D
:1003B0008FE691E00E94CC0121E0892B09F420E036
:1003C000822F0895FC01A48DA80FB92FB11DA35A47
:1003D000BF4F2C91848D90E001968F739927848F65
:1003E000A689B7892C93A089B1898C918370806488
:1003F0008C93938D848D981306C00288F389E02D29
:1004000080818F7D80830895EF92FF920F931F93D9
:10041000CF93DF93EC0181E0888F9B8D8C8D9813B7
:100420001AC0E889F989808185FF15C09FB7F894C3
:10043000EE89FF896083E889F9898081837080640F
:1004400080839FBF81E090E0DF91CF911F910F915A
:10045000FF90EF900895F62E0B8D10E00F5F1F4F69
:100460000F731127E02E8C8D8E110CC00FB607FC78
:10047000FACFE889F989808185FFF5CFCE010E9406
:10048000E201F1CFEB8DEC0FFD2FF11DE35AFF4F91
:10049000F0829FB7F8940B8FEA89FB898081806294
:1004A000CFCFCF93DF93EC01888D8823B9F0AA8951
:1004B000BB89E889F9898C9185FD03C0808186FD1F
:1004C0000DC00FB607FCF7CF8C9185FFF2CF80816E
:1004D00085FFEDCFCE010E94E201E9CFDF91CF9100
:1004E0000895CF92DF92EF92FF92CF93DF93EC01CA
:1004F000603282E07807CCF5653B710514F064EB5F
:1005000070E0898128E830E0281B310987FD3395A8
:10051000220F331F220F331F6901330FEE08FF082C
:100520008A8128E532E0281B310987FD3395220FA7
:10053000331F220F331F032E000C440B550B2C19B5
:100540003D094E095F09DB0177FF02C0B0E0A0E082
:100550000E94A10F24EB30E040E050E00E94770FB2
:10056000C20ED31EE41EF51EB601E881EC3070F514
:10057000298188E890E0821B910927FD9395880FD7
:10058000991F880F991F681779077CF02A8188E5E1
:1005900092E0821B910927FD9395880F991F880F80
:1005A000991F681779070CF4CB010297880F991FE0
:1005B0004FB7F8942E2F30E0F901EE0FFF1FE20F36
:1005C000F31FE65CFE4F928381834FBFDF91CF9193
:1005D000FF90EF90DF90CF9008951F93CF93DF931C
:1005E000EC01162F88818C3008F04EC061E0812F1D
:1005F0000E94D9008881282F30E0F901EE0FFF1FFB
:10060000E20FF31FE65CFE4F1F736081607C612B7D
:10061000608319821A822CE0622F0E94AB11829FA4
:10062000B001112430E020E0AB01420F531FFA016A
:10063000EE0FFF1FE40FF51FE65CFE4F908196FD65
:1006400016C02F5F3F4F2C30310571F781110FC05D
:100650001092800082E080938100109285001092B9
:100660008400B19A80916F00826080936F00E8816E
:100670008E2F90E0FC01EE0FFF1FE80FF91FE65CE4
:10068000FE4F8081806480838881DF91CF911F91AC
:1006900008954F925F926F927F928F929F92AF9246
:1006A000BF92CF92DF92EF92FF920F931F93CF935F
:1006B000DF93CDB7DEB729970FB6F894DEBF0FBE34
:1006C000CDBF2D833E834F8358870115110511F44B
:1006D00001E010E00E94581069837A838B839C8329
:1006E000809100018E3029F18F3F09F49EC06D8109
:1006F0007E818F8198850E942F01B801110F880B90
:10070000990B29960FB6F894DEBF0FBECDBFDF91CF
:10071000CF911F910F91FF90EF90DF90CF90BF90FE
:10072000AF909F908F907F906F905F904F900C94C0
:100730002F01E2E7F0E08491898787FDD8CF61E05F
:100740008EE00E94D9008985882321F09985923016
:1007500009F07BC189819A814C01B12CA12C60E008
:1007600072E18AE790E0A50194010E94770F2901C8
:100770003A017A01690191E0C91AD108E108F1084A
:100780008FEFC816D104E104F10409F00CF42BC179
:1007900060E472E48FE090E0A50194010E94770F7D
:1007A00069017A0191E0C91AD108E108F108898547
:1007B000823009F0ABC082E09FEFC916D104E1049A
:1007C000F10409F00CF408C160E970ED83E090E0F9
:1007D000A50194010E94770F69017A0181E0C81A8E
:1007E000D108E108F10883E09FEFC916D104E104C4
:1007F000F10409F00CF4F0C068E478EE81E090E0D8
:10080000A50194010E94770F69017A0191E0C91A4C
:10081000D108E108F1088FEFC816D104E104F10412
:1008200011F00CF0C1C084E0D7C08EE080930001CD
:10083000E2E7F0E0949199879F3F09F458CF913017
:1008400029F158F0923009F43FC0998597FD4FCFB8
:1008500061E08EE00E94D90079CF14BC15BC84B54C
:10086000826084BD85B5816085BDE5E9F0E0E491F5
:10087000F0E0EE0FFF1FE358FF4F85919491E9EAF6
:10088000F0E0E491E0932F01198659CF1092800097
:100890001092810080918100886080938100809116
:1008A0008100816080938100E5E9F0E0E491F0E06F
:1008B000EE0FFF1FE358FF4F85919491E9EAF0E0B6
:1008C000E491E0932E013BCF1092B0001092B10062
:1008D0008091B00082608093B0008091B10081600F
:1008E0008093B100E5E9F0E0E491F0E0EE0FFF1F46
:1008F000E358FF4F8591949190935F0180935E013F
:10090000E9EAF0E0E491E093600119CF8FEFC816B7
:10091000D104E104F10409F00CF495C068E478EE28
:1009200081E090E0A50194010E94770F69017A01AE
:1009300091E0C91AD108E108F1088985882309F4F2
:10094000F5C09FEFC916D104E104F10409F00CF4DD
:100950006ACF62E17AE780E090E0A50194010E940D
:10096000770F69017A0191E0C91AD108E108F1080D
:100970008985882309F4C1C086E09FEFC916D10498
:10098000E104F10449F140F1730162012AE0F594B8
:10099000E794D794C7942A95D1F781E0C81AD10873
:1009A000E108F10887E018C064E274EF80E090E0AD
:1009B000A50194010E94770F69017A0191E0C91A9B
:1009C000D108E108F1088FEFC816D104E104F10461
:1009D00011F008F0B5C085E09091B100987F892BA7
:1009E0008093B10008C081E099859111F5CF95B54C
:1009F000987F892B85BDA981BA81AA0FBB1F2D8144
:100A00003E814F8158850E94960F28EE33E040E0EA
:100A100050E00E94A90F8985813009F44CC08230D2
:100A200009F45BC0811163CEC7BC209334013093BD
:100A30003501409336015093370180916E008260FA
:100A400080936E0054CE82E0CFCF89819A814C0191
:100A5000B12CA12C60E072E18AE790E0A50194013D
:100A60000E94770F69017A0191E0C91AD108E10863
:100A7000F10891E0C114D10481E0E806F10484F0AA
:100A800068E478EE81E090E0A50194010E94770F80
:100A900069017A0191E0C91AD108E108F10893E0EF
:100AA0008985813009F0A7CF80918100887F892BCB
:100AB00080938100A0CFD0928900C09288002093BB
:100AC00030013093310140933201509333018091D2
:100AD0006F00826080936F000ACEC092B3002093B3
:100AE00061013093620140936301509364018091EE
:100AF0007000826080937000FACD84E09FEFC91689
:100B0000D104E104F10409F008F471CF730162012A
:100B10009AE0F594E794D794C7949A95D1F781E039
:100B2000C81AD108E108F10885E061CF8FEFC81637
:100B3000D104E104F10411F00CF00BCF83E057CFA6
:100B400062E17AE780E090E0A50194010E94770FCE
:100B500069017A0191E0C91AD108E108F1080CCFC6
:100B60004F925F926F927F928F929F92AF92BF92BD
:100B7000CF92DF92EF92FF920F931F93CF93DF9369
:100B8000CDB7DEB728970FB6F894DEBF0FBECDBF46
:100B900069837A838B839C8329013A01ED82FE82EB
:100BA0000F8318870E9451108B01A3019201698164
:100BB0007A818B819C810E94DA0F87FF27C0B80160
:100BC000110F880B990B0E94891069837A838B839C
:100BD0009C83A30192010E94DA0F87FF3EC084012B
:100BE000A601950169817A818B819C810E944903CC
:100BF0002D813E814F81588569817A818B819C81CD
:100C00000E943E110E9451108B01D9CFB801110FE3
:100C1000880B990B0E94891069837A838B839C834C
:100C2000A30192010E9439111816BCF48401A60197
:100C3000950169817A818B819C810E9449032D8174
:100C40003E814F81588569817A818B819C810E9488
:100C5000DF0F0E9451108B01D9CF28960FB6F89460
:100C6000DEBF0FBECDBFDF91CF911F910F91FF90DF
:100C7000EF90DF90CF90BF90AF909F908F907F903C
:100C80006F905F904F9008956EE570E08EE192E076
:100C90000E9471026EE570E088E192E00C947102AE
:100CA000CF92DF92EF92FF920F931F93CF93DF9338
:100CB000EB018A0169018730910549F164F40597D8
:100CC00009F448C0DF91CF911F910F91FF90EF90F1
:100CD000DF90CF9008958830910509F46EC0099790
:100CE00089F70D2C000CEE08FF08641775070CF44B
:100CF00055C0BE018FE092E00E947102C701B601AB
:100D00000E942F012197C017D1079CF7DBCF0D2C34
:100D1000000CEE08FF086417750774F0BE018BE144
:100D200092E00E947102C701B6010E942F01219733
:100D3000C017D1079CF7C6CF0C171D071CF2BE01C8
:100D40008BE192E00E947102C701B6010E942F015F
:100D50002196F2CF0D2C000CEE08FF0864177507E2
:100D600074F0BE0185E192E00E947102C701B601F4
:100D70000E942F012197C017D1079CF7A3CF0C1712
:100D80001D070CF49FCFBE0185E192E00E94710225
:100D9000C701B6010E942F012196F1CF0C171D0744
:100DA0000CF490CFBE018FE092E00E947102C70167
:100DB000B6010E942F012196F1CF0D2C000CEE08F8
:100DC000FF086417750774F0BE018CE092E00E9482
:100DD0007102C701B6010E942F012197C017D107E8
:100DE0009CF770CF0C171D070CF46CCFBE018CE084
:100DF00092E00E947102C701B6010E942F01219664
:100E0000F1CF8FE691E00E94AA0180936501809165
:100E100065018133A4F080916501893384F4809168
:100E2000010190910201019659F480916501082E0B
:100E3000000C990BC09790930201809301010895D3
:100E40004091010150910201809165019AE0949FC7
:100E50009001959F300D1124082E000C990BC0971E
:100E6000820F931FE8CF0E94D80181110C940107D3
:100E700008958F929F92AF92BF92CF92DF92EF929E
:100E8000FF920F931F93CF93DF93EB018A016901C8
:100E90008530910581F00A9709F44CC0DF91CF911C
:100EA0001F910F91FF90EF90DF90CF90BF90AF9088
:100EB0009F908F90089584EB90E064177507ECF491
:100EC0007C01E61AF70A4901330FAA08BB080C1780
:100ED0001D0724F3BE0185E192E00E947102B70173
:100EE0008BE192E00E947102C501B4010E942F01C2
:100EF000219681E0E81AF108EACF5C01A61AB70A48
:100F00000D2C000CEE08FF08BE0185E192E00E9466
:100F10007102B5018BE192E00E947102C701B60136
:100F20000E942F0121978FEFA81AB80AC017D10786
:100F30005CF7B4CF84EB90E05C01A61AB70A0D2CE5
:100F4000000CEE08FF0864177507BCF40C171D07AA
:100F50000CF4A4CFBE0182E192E00E947102B501BF
:100F60008FE092E00E947102C701B6010E942F013A
:100F7000219681E0A81AB108E9CFBE0182E192E092
:100F80000E947102B5018FE092E00E947102C701D8
:100F9000B6010E942F0121978FEFA81AB80AC01737
:100FA000D1075CF77BCF0F931F9360E084E00E9432
:100FB0008D0083E090E00197F1F761E084E00E940A
:100FC0008D0083E290E00197F1F760E084E00E94F9
:100FD0008D00EEE9F0E06491EAE8F0E0E491F0E001
:100FE000EE0FFF1FE859FF4F8591949100E412E442
:100FF0002FE030E0462F0E94F10C6115710581054C
:10100000910529F06F5F7F4F8F4F9F4F9F70072E85
:10101000000C880B990B0E94891026E933E44BE001
:101020005DE30E943E1120E030E040E05FE30E947B
:101030003E110E945110CB011F910F9108958F9284
:101040009F92AF92BF92CF92DF92EF92FF920F9357
:101050001F93CF93DF93142FEB017B01E80EF91E52
:10106000CE15DF050CF08BC00E94D30725E030E0E1
:10107000C0FD44C044EB50E06AE570E085E090E0DC
:101080000E9450066CED70E080E090E00E942F011D
:1010900025E030E04CE750E06AE570E087E090E062
:1010A0000E9450066DE270E0111102C067E870E026
:1010B0008EE192E00E9471026CED70E080E090E0C1
:1010C0000E942F016EE570E08EE192E00E947102B5
:1010D0002AE030E04AE550E064EB70E085E090E023
:1010E0000E9450062AE030E04AE550E06CE770E0EC
:1010F00087E090E00E9450062196B2CF50E040E099
:101100006AE570E087E090E00E9450066CED70E0C8
:1011100080E090E00E942F0125E030E04CE350E0B9
:101120006AE570E085E090E00E9450066DE270E0B4
:10113000112311F067E870E088E192E00E947102EB
:101140006CED70E080E090E00E942F016EE570E0B1
:1011500088E192E00E9471022AE030E04AE550E026
:1011600070E060E087E090E00E9450062AE030E006
:101170004AE550E06CE370E085E090E0BBCF88E0AA
:10118000882E912C94E1A92EB12CC12CD12C16E6DD
:10119000E12EFE2C06E81FE320E030E44CE155E4AC
:1011A00060E070E88BEB94E40E94B00539E1A32E77
:1011B000B12CC12CD12C20E030E84BEB54E460E0A2
:1011C00070E38CE195E40E94B005DF91CF911F910F
:1011D0000F91FF90EF90DF90CF90BF90AF909F90D6
:1011E0008F9008958F929F92AF92BF92CF92DF928D
:1011F000EF92FF920F931F93CF93DF93823091056D
:1012000009F481C18330910509F4E2C1D0E0C0E066
:10121000019709F4E2C00E94D30725E030E020974F
:1012200009F09EC044EB50E06AE570E085E090E094
:101230000E9450066CED70E080E090E00E942F016B
:1012400025E030E04CE750E06AE570E087E090E0B0
:101250000E9450066DE270E08EE192E00E94710201
:1012600060EA7FE080E090E00E942F016EE570E090
:101270008EE192E00E94710225E030E04AE550E004
:1012800064EB70E085E090E00E94500625E030E0DD
:101290004AE550E06CE770E087E090E00E9450067D
:1012A000219709F05AC022E030E050E040E06AE0C7
:1012B00070E088E090E00E94500622E030E044EBCD
:1012C00050E070E060E088E090E00E94500622E08C
:1012D00030E04AE050E064EB70E088E090E00E948B
:1012E000500683E0882E912C98E0A92EB12CC12CB9
:1012F000D12C16E6E12EFE2C06E81FE320E030E8B4
:101300004BEB55E460E070E08AEF94E40E94B00596
:1013100062E370E080E090E00E942F0132E0832ED3
:10132000912C4DE0A42EB12CC12CD12C20E030E02A
:101330004AEF54E460E078E78BEB95E40E94B00557
:10134000DF91CF911F910F91FF90EF90DF90CF90A1
:10135000BF90AF909F908F900895C1E0D0E05BCF99
:1013600050E040E06AE570E087E090E00E945006BF
:101370006CED70E080E090E00E942F0125E030E00D
:101380004CE350E06AE570E085E090E00E94500692
:1013900067E870E088E192E00E94710260EA7FE015
:1013A00080E090E00E942F016EE570E088E192E01D
:1013B0000E9471022AE030E04AE550E070E060E00F
:1013C00087E090E00E9450062AE030E04AE550E0D5
:1013D0006CE370E085E090E061CF0E94D30725E0E8
:1013E00030E0209709F04BC044EB50E06AE570E034
:1013F00085E090E00E9450066CED70E080E090E0A7
:101400000E942F0125E030E04CE750E06AE570E0F3
:1014100087E090E00E94500604E010E021E030E018
:1014200050E040E064EB70E085E090E00E94500600
:1014300021E030E044EB50E070E060E085E090E0D7
:101440000E9450060150110949F72AE030E04AE5B0
:1014500050E064EB70E085E090E00E9450062AE0E6
:1014600030E04AE550E06CE770E087E090E00E94F1
:101470005006219709F417CFC1E0D0E0AECF50E07D
:1014800040E06AE570E087E090E00E9450066CED75
:1014900070E080E090E00E942F0125E030E04CE316
:1014A00050E06AE570E085E090E00E94500604E0BC
:1014B00010E021E030E044EB50E070E060E087E0D5
:1014C00090E00E94500621E030E050E040E064EB04
:1014D00070E087E090E00E9450060150110949F742
:1014E0002AE030E04AE550E070E060E087E090E01C
:1014F0000E9450062AE030E04AE550E06CE370E0DC
:1015000085E090E0B4CFD0E0C0E00E94D30725E0B2
:1015100030E0C330D1058CF544EB50E06AE570E073
:1015200085E090E00E94500664E670E080E090E084
:101530000E942F0125E030E04CE750E06AE570E0C2
:1015400087E090E00E94500625E030E04AE550E058
:1015500064EB70E085E090E00E94500625E030E00A
:101560004AE550E06CE770E087E090E00E945006AA
:101570002196C630D10549F696CE50E040E06AE5A6
:1015800070E087E090E00E94500664E670E080E042
:1015900090E00E942F0125E030E04CE350E06AE546
:1015A00070E085E090E00E94500625E030E04AE5DA
:1015B00050E070E060E087E090E00E94500625E097
:1015C00030E04AE550E06CE370E085E090E0CECF9B
:1015D0000E94D3076DE270E088E192E00E94710200
:1015E0006DE270E08EE192E00E947102C6E0D0E010
:1015F00025E030E050E040E06AE570E08AE090E00D
:101600000E9439072197A1F70E94440621E030E0AB
:101610004AE550E070E060E08AE090E00E9439071F
:1016200042CE1F920F920FB60F9211242F933F9329
:101630008F939F93AF93BF938091670190916801BF
:10164000A0916901B0916A013091660123E0230FF6
:101650002D3758F50196A11DB11D20936601809389
:10166000670190936801A0936901B0936A0180912A
:101670006B0190916C01A0916D01B0916E0101968A
:10168000A11DB11D80936B0190936C01A0936D011E
:10169000B0936E01BF91AF919F918F913F912F9128
:1016A0000F900FBE0F901F90189526E8230F0296FB
:1016B000A11DB11DD2CF1F920F920FB60F92112410
:1016C0002F933F934F935F936F937F938F939F934A
:1016D000AF93BF93EF93FF9380916101909162016B
:1016E000A0916301B0916401892B8A2B8B2BD1F1DE
:1016F00090916001E0915E01F0915F018081892706
:1017000080838091610190916201A0916301B09109
:101710006401181619061A061B069CF480916101D3
:1017200090916201A0916301B09164010197A109B8
:10173000B1098093610190936201A0936301B0931A
:101740006401FF91EF91BF91AF919F918F917F9134
:101750006F915F914F913F912F910F900FBE0F901E
:101760001F90189580910001E2E7F0E0E4919FEF6F
:1017700090930001E13051F030F0E23069F060E028
:101780000E948D00DECF10926E00F9CF90916F0015
:101790009D7F90936F00F3CF909170009D7F909309
:1017A000700091E09093B0009091B100987F9460A8
:1017B0009093B1001092B300E2CF1F920F920FB638
:1017C0000F9211242F933F934F935F936F937F93C7
:1017D0008F939F93AF93BF93EF93FF938FE691E027
:1017E0000E94E201FF91EF91BF91AF919F918F9184
:1017F0007F916F915F914F913F912F910F900FBE0D
:101800000F901F9018951F920F920FB60F921124F0
:101810002F938F939F93EF93FF93E0917F01F0912C
:1018200080018081E0918501F091860182FD1BC0DD
:101830009081809188018F5F8F7320918901821739
:1018400041F0E0918801F0E0E159FE4F958F8093DF
:101850008801FF91EF919F918F912F910F900FBE73
:101860000F901F9018958081F4CF1F920F920FB6A2
:101870000F9211242F933F934F935F936F937F9316
:101880008F939F93AF93BF93CF93DF93EF93FF9388
:1018900080913801C0913901D0E087FF24C01092B7
:1018A000850010928400809138018F5F8093380109
:1018B00080913801082E000C990B8C179D0724F499
:1018C000809138018C30C4F1809184009091850022
:1018D000049680349C4908F47AC0809184009091E9
:1018E0008500049676C080913801082E000C990B73
:1018F0008C179D07C4F6E09138018E2FEE0F990BDF
:10190000FC01EE0FFF1FE80FF91FE65CFE4F808120
:1019100086FFC9CFE09138018E2FEE0F990BFC01A5
:10192000EE0FFF1FE80FF91FE65CFE4F808160E0BD
:101930008F730E948D00B7CF209184003091850075
:10194000E09138018E2FEE0F990BFC01EE0FFF1F77
:10195000E80FF91FE65CFE4F81819281820F931F91
:101960009093890080938800E09138018E2FEE0FCC
:10197000990BFC01EE0FFF1FE80FF91FE65CFE4F0D
:10198000808186FF11C0E09138018E2FEE0F990BF8
:10199000FC01EE0FFF1FE80FF91FE65CFE4F808190
:1019A00061E08F730E948D00FF91EF91DF91CF91E5
:1019B000BF91AF919F918F917F916F915F914F9167
:1019C0003F912F910F900FBE0F901F90189580E4BC
:1019D0009CE990938900809388008FEF8093380171
:1019E000E3CFCF92DF92EF92FF920F931F93E82FF6
:1019F000F92F05C0015011092109310961F19081C8
:101A000096239417B9F305C0015011092109310932
:101A100011F1908196239413F7CFC12CD12CE12C96
:101A2000F12C0AC08FEFC81AD80AE80AF80A0C1578
:101A30001D052E053F0579F080818623841791F3DB
:101A40006C2D7D2D8E2D9F2D1F910F91FF90EF906E
:101A5000DF90CF90089560E070E080E090E01F910B
:101A60000F91FF90EF90DF90CF900895FC0190913F
:101A700039019C3098F481E0890F8093390190837B
:101A8000892F90E0FC01EE0FFF1FE80FF91FE65CC5
:101A9000FE4F88EB9BE09283818308958FEF8083D4
:101AA0000895EFE6F1E01382128288EE93E0A0E061
:101AB000B0E084839583A683B78388E091E0918327
:101AC000808385EC90E09587848784EC90E097870D
:101AD000868780EC90E0918B808B81EC90E0938BFB
:101AE000828B82EC90E0958B848B86EC90E0978BD8
:101AF000868B118E128E138E148E8EE192E00E94D0
:101B0000360D8BE192E00E94360D88E192E00E9452
:101B1000360D85E192E00E94360D82E192E00E944E
:101B2000360D8FE092E00E94360D8CE092E00E942C
:101B3000360D0E946201609321027093220280930D
:101B40002302909324020895789484B5826084BD22
:101B500084B5816084BD85B5826085BD85B58160B1
:101B600085BD80916E00816080936E00109281002F
:101B700080918100826080938100809181008160EA
:101B800080938100809180008160809380008091AB
:101B9000B10084608093B1008091B0008160809337
:101BA000B00080917A00846080937A0080917A00FE
:101BB000826080937A0080917A00816080937A00BD
:101BC00080917A00806880937A001092C100E09141
:101BD0007F01F091800182E08083E0917B01F091B0
:101BE0007C011082E0917D01F0917E018FEC808379
:101BF00010928701E0918301F091840186E0808357
:101C0000E0918101F0918201808180618083E09187
:101C10008101F0918201808188608083E09181015F
:101C2000F0918201808180688083E0918101F09150
:101C3000820180818F7D808361E08EE00E94D900E7
:101C400060E083E00E94D90061E084E00E94D90056
:101C500067E070E08BE192E00E94ED0266E070E0E8
:101C60008EE192E00E94ED0269E070E08FE092E088
:101C70000E94ED0265E070E085E192E00E94ED02D5
:101C800064E070E088E192E00E94ED026AE070E0BA
:101C900082E192E00E94ED0268E070E08CE092E068
:101CA0000E94ED026AE070E08CE092E00E94710216
:101CB00044E150E066E171E08FE691E00E946E0140
:101CC00042E050E06BE271E08FE691E00E946E012D
:101CD000CAE50FEF1FEF0E946201C0902102D09071
:101CE0002202E0902302F09024026C197D098E09F3
:101CF0009F0961367A4E8105910570F081E090E090
:101D00000E94F2080E9462016093210270932202F5
:101D10008093230290932402E0916501E454E4331C
:101D200008F058C00E2E000CFF0BE756F14F0C9434
:101D3000B711CD0EEA0E080FEA0EEA0E590FEA0EA1
:101D4000EA0EEA0E0B0FEA0E0E0FEA0EEA0EF20E84
:101D5000030F2B0FEA0EEA0ECD0EEA0EEA0E740FF9
:101D6000EA0EEA0EEA0EEA0EEA0EEA0EEA0E1C0F80
:101D7000EA0EEA0EEA0E110FEA0EEA0EEA0EEA0E7B
:101D8000EA0E3D0F530FEA0EEA0EEA0EEA0E350F89
:101D9000EA0E2E0FEA0EEA0E410F80910301811127
:101DA0000AC021E030E04AE550E070E060E085E004
:101DB00090E00E94390781E080930301C0936501A0
:101DC0000E94620160932102709322028093230299
:101DD000909324020E94D801882309F47CCF0E94AA
:101DE000010779CF80910301882351F022E030E090
:101DF00050E040E06AE570E085E090E00E9439073D
:101E000010920301DBCF90E080E00E94F208D6CF71
:101E100081E090E0FACF82E090E0F7CF83E090E0BD
:101E2000F4CF0E94D30767E870E08EE192E00E9451
:101E300071026DE270E00AC00E94D3076DE270E0AB
:101E40008EE192E00E94710267E870E088E192E022
:101E50000E947102B5CF0E94D307EBCF0E94D30737
:101E600067E870E08EE192E0F3CF40E061E070E07F
:101E700081E090E00E941F08A1CF40E070E060E0A8
:101E8000F7CF809101019091020140E061E070E0A4
:101E90000E941F088091010190910201109302019C
:101EA000009301018BCF809101019091020141E0EB
:101EB000EDCF21E030E046E950E06AE570E089E0EE
:101EC00090E00E94500664EF71E080E090E00E9494
:101ED0002F0121E030E04AE550E066E970E089E05A
:101EE00090E00E9450066ACF0E94440673CF052EF0
:101EF00097FB1EF400940E948E0F57FD07D00E949E
:101F0000A90F07FC03D04EF40C948E0F509540950A
:101F1000309521953F4F4F4F5F4F08959095809595
:101F2000709561957F4F8F4F9F4F08950E94CB0F03
:101F3000A59F900DB49F900DA49F800D911D11241D
:101F40000895B7FF0C94960F0E94960F821B930B77
:101F50000895A1E21A2EAA1BBB1BFD010DC0AA1FEA
:101F6000BB1FEE1FFF1FA217B307E407F50720F002
:101F7000A21BB30BE40BF50B661F771F881F991F7D
:101F80001A9469F760957095809590959B01AC01C6
:101F9000BD01CF010895A29FB001B39FC001A39FCF
:101FA000700D811D1124911DB29F700D811D112492
:101FB000911D08950E94C41008F481E008950E94C4
:101FC000F30F0C94FF100E94F81058F00E94F110CB
:101FD00040F029F45F3F29F00C94E81051110C9463
:101FE00033110C94EE100E94101168F39923B1F391
:101FF000552391F3951B550BBB27AA27621773072F
:10200000840738F09F5F5F4F220F331F441FAA1FC2
:10201000A9F335D00E2E3AF0E0E832D0915050407E
:10202000E695001CCAF72BD0FE2F29D0660F771F2C
:10203000881FBB1F261737074807AB07B0E809F012
:10204000BB0B802DBF01FF2793585F4F3AF09E3F97
:10205000510578F00C94E8100C9433115F3FE4F3D1
:10206000983ED4F3869577956795B795F7959F5FDA
:10207000C9F7880F911D9695879597F90895E1E026
:10208000660F771F881FBB1F621773078407BA0785
:1020900020F0621B730B840BBA0BEE1F88F7E095E0
:1020A00008950E9458106894B1110C94331108954A
:1020B0000E94181188F09F5798F0B92F9927B751AF
:1020C000B0F0E1F0660F771F881F991F1AF0BA95DC
:1020D000C9F714C0B13091F00E943211B1E00895F7
:1020E0000C943211672F782F8827B85F39F0B93FE9
:1020F000CCF3869577956795B395D9F73EF490958F
:102100008095709561957F4F8F4F9F4F0895E8940C
:1021100009C097FB3EF490958095709561957F4F2F
:102120008F4F9F4F9923A9F0F92F96E9BB279395DD
:10213000F695879577956795B795F111F8CFFAF4ED
:10214000BB0F11F460FF1BC06F5F7F4F8F4F9F4F1E
:1021500016C0882311F096E911C0772321F09EE87C
:10216000872F762F05C0662371F096E8862F70E0E2
:1021700060E02AF09A95660F771F881FDAF7880FBC
:102180009695879597F90895990F0008550FAA0B12
:10219000E0E8FEEF16161706E807F907C0F012167A
:1021A0001306E407F50798F0621B730B840B950B7D
:1021B00039F40A2661F0232B242B252B21F40895D2
:1021C0000A2609F4A140A6958FEF811D811D08956F
:1021D00097F99F6780E870E060E008959FEF80ECDA
:1021E000089500240A94161617061806090608957D
:1021F00000240A9412161306140605060895092EE3
:102200000394000C11F4882352F0BB0F40F4BF2B51
:1022100011F460FF04C06F5F7F4F8F4F9F4F089591
:1022200057FD9058440F551F59F05F3F71F0479587
:10223000880F97FB991F61F09F3F79F0879508956C
:10224000121613061406551FF2CF4695F1DF08C08B
:10225000161617061806991FF1CF869571056105A8
:1022600008940895E894BB2766277727CB0197F950
:1022700008950E94C41008F48FEF08950E94511130
:102280000C94FF100E94F11038F00E94F81020F01A
:10229000952311F00C94E8100C94EE1011240C947A
:1022A00033110E94101170F3959FC1F3950F50E008
:1022B000551F629FF001729FBB27F00DB11D639FF8
:1022C000AA27F00DB11DAA1F649F6627B00DA11D9E
:1022D000661F829F2227B00DA11D621F739FB00D44
:1022E000A11D621F839FA00D611D221F749F3327B4
:1022F000A00D611D231F849F600D211D822F762F4D
:102300006A2F11249F5750409AF0F1F088234AF029
:10231000EE0FFF1FBB1F661F771F881F9150504095
:10232000A9F79E3F510580F00C94E8100C943311EE
:102330005F3FE4F3983ED4F3869577956795B7951C
:10234000F795E7959F5FC1F7FE2B880F911D969536
:10235000879597F90895991B79E004C0991F9617FE
:1023600008F0961B881F7A95C9F780950895EE0F9F
:0E237000FF1F0590F491E02D0994F894FFCF23
:10237E00FFFFFF010000000004026E019B015102ED
:10238E00CC01AA01BE01496E7469616C697A696EED
:0E239E006720436F6465202E2E2E000D0A006E
:00000001FF
