:100000000C945D010C9485010C9485010C94F50B06
:100010000C949B0C0C94770C0C9485010C9485012A
:100020000C9485010C9485010C9485010C94850138
:100030000C9485010C9485010C9485010C94850128
:100040000C94530B0C9485010C94C30B0C949D0BD6
:100050000C9485010C9485010C9485010C94850108
:100060000C9485010C9485010C9400000C94000004
:100070000C9400000C940000556E6B6E6F776E2030
:100080006572726F720041204D49464152452050C1
:1000900049434320726573706F6E646564207769AD
:1000A0007468204E414B2E00546865204352435FD4
:1000B0004120646F6573206E6F74206D6174636896
:1000C0002E00496E76616C696420617267756D659A
:1000D0006E742E00496E7465726E616C206572726A
:1000E0006F7220696E2074686520636F64652E20CE
:1000F00053686F756C64206E6F74206861707065F2
:100100006E2E004120627566666572206973206EEE
:100110006F742062696720656E6F7567682E005482
:10012000696D656F757420696E20636F6D6D756E96
:1001300069636174696F6E2E00436F6C6C697369DB
:100140006F6E2064657465637465642E0045727219
:100150006F7220696E20636F6D6D756E6963617477
:10016000696F6E2E00537563636573732E0000C252
:100170000100020015001500100000E100000C0055
:100180002B002B002600009600001D0042004200BC
:100190003E00127A00002400510051004F00807090
:1001A00000002700590059005600004B00003E0097
:1001B000870087008400403800005500B400B40078
:1001C000B100802500008400110111010E01C01250
:1001D00000000D0124022402210260090000200217
:1001E0004A044A044804B0040000450497089708EC
:1001F00095085802000094082E112E112D112C0183
:1002000000002811662266226A2252656164696EC6
:1002100067206661696C65643A20004175746865A1
:100220006E7469636174696F6E206661696C656480
:100230003A20002A2A43415244204445544543541D
:1002400045442A2A0000000000240027002A002D2F
:100250000000000032F011100000202131000000E9
:10026000000000000000000000000023002600291C
:10027000002C0000000000250028002B002E0004A8
:10028000040404040404040202020202020303033D
:1002900003030305050505050505010204081020F3
:1002A0004080010204081020010204081020020806
:1002B000010410204000BF0CEC1211241FBECFEF30
:1002C000D8E0DEBFCDBF23E0A4E0B2E001C01D92C4
:1002D000A338B207E1F712E0A0E0B1E0E4E1FBE20D
:1002E00002C005900D92A430B107D9F711E0CCE51A
:1002F000D1E004C02197FE010E946813CB35D107DD
:10030000C9F70E949D0D0C947D150C9400008CBDC6
:100310009DBD08958051863308F05CC0E82FF0E061
:10032000EC56FE4F0C946813D401D801D401D801C7
:10033000EA01EA01EA01EA01EA01EA01EA01EA0165
:10034000EA01EA01EA01EA01CA01D001EA01CA01AF
:10035000D001EA01EA01EA01EA01EA01EA01EA015F
:10036000EA01EA01EA01EA01EA01DB01E101DB015C
:10037000E101EA01EA01EA01EA01EA01EA01EA012E
:10038000EA01EA01EA01EA01E501EB01EF01E50119
:10039000EB01E501809180008F77809380000895C4
:1003A000809180008F7DF9CF84B58F7784BD0895CB
:1003B00084B58F7DFBCF8091B0008F778093B000A4
:1003C00008958091B0008F7DF9CF809190008F7754
:1003D000809390000895809190008F7DF9CF809157
:1003E0009000877FF5CF1F93CF93DF9390E0FC01C0
:1003F000E656FD4FD491FC01E158FD4FC491CC234A
:10040000C9F0162F8F5A9D4FFC01849181110E94D3
:100410008A01EC2FF0E0EE0FFF1FED58FD4FA59184
:10042000B4918FB7F894EC91111108C0D095DE23E8
:10043000DC938FBFDF91CF911F910895DE2BF8CF12
:10044000CF93DF93282F30E0F901E656FD4F44911A
:1004500021583D4FF9012491843011F583E08093B8
:10046000A0002223D1F0822F90E0880F991FFC0179
:10047000EB5BFD4FA591B491FC01ED58FD4FC5918B
:10048000D491611122C09FB7F8948C914095842338
:100490008C938881482348839FBFDF91CF91089533
:1004A0009AEE980F923020F48FEF84BF84BFD9CF9B
:1004B0008A31B9F68091F00082608EBB80E880932B
:1004C000F0008EB38093F000CCCF8FB7F894EC910E
:1004D0004E2B4C938FBFE1CF1F93CF93DF93182FF9
:1004E000EB0161E00E942002209739F460E0812F47
:1004F000DF91CF911F910C94F301CF3FD10511F4FF
:1005000061E0F5CFE12FF0E0EF5AFD4FE491E133E8
:1005100009F442C0A8F4E13189F130F4E03131F15D
:10052000C038D10568F7E2CFE03261F1E132C1F7BE
:10053000D0938B00C0938A0080918000806229C094
:10054000E134C1F160F4E23379F1E03449F7C0936A
:100550009800809190008068809390000BC0E234F6
:1005600079F1E03FE9F6C093A10004C0C7BD84B5AE
:10057000806884BDDF91CF911F910895C8BD84B577
:100580008062F7CFD0938900C0938800809180006B
:10059000806880938000EECFC093B3008091B0005C
:1005A00080688093B000E6CFC093B4008091B00023
:1005B0008062F7CFC0939A00809190008062CCCF88
:1005C000C0939E00809190008860C6CF3FB7F8949A
:1005D0008091510290915202A0915302B091540225
:1005E00026B5A89B05C02F3F19F00196A11DB11D8E
:1005F0003FBFBA2FA92F982F8827BC01CD01620FCA
:10060000711D811D911D42E0660F771F881F991F84
:100610004A95D1F708958F929F92AF92BF92CF9251
:10062000DF92EF92FF920E94E6024B015C0182E3AF
:10063000C82ED12CE12CF12C0E94E6026819790910
:100640008A099B09683E734081059105A8F321E062
:10065000C21AD108E108F10888EE880E83E0981EDE
:10066000A11CB11CC114D104E104F10429F7FF90CD
:10067000EF90DF90CF90BF90AF909F908F900895B4
:10068000AF92BF92CF92DF92EF92FF920F931F93A0
:10069000CF93DF936C017B018B01040F151FEB01DE
:1006A0005E01AE18BF08C017D10759F06991D60195
:1006B000ED91FC910190F081E02DC6010995892B07
:1006C00079F7C501DF91CF911F910F91FF90EF90C6
:1006D000DF90CF90BF90AF900895FC01918D828DF7
:1006E000981761F0A28DAE0FBF2FB11D5D968C9152
:1006F000928D9F5F9F73928F90E008958FEF9FEF91
:100700000895FC01918D828D981731F0828DE80F4C
:10071000F11D858D90E008958FEF9FEF0895FC0106
:10072000918D228D892F90E0805C9F4F821B9109D3
:100730008F739927089585E592E00E948F0321E049
:10074000892B09F420E0822F089580E090E0892B26
:1007500029F00E949B0381110C9400000895FC0174
:10076000A48DA80FB92FB11DA35ABF4F2C91848D12
:1007700090E001968F739927848FA689B7892C936F
:10078000A089B1898C9180648C93938D848D98130A
:1007900006C00288F389E02D80818F7D80830895D3
:1007A000EF92FF920F931F93CF93DF93EC0181E0C1
:1007B000888F9B8D8C8D981316C0E889F98980816C
:1007C00085FF11C0EE89FF896083E889F9898081FE
:1007D0008064808381E090E0DF91CF911F910F9141
:1007E000FF90EF900895F62E0B8D10E00F5F1F4FD6
:1007F0000F731127E02E8C8D8E110CC00FB607FCE5
:10080000FACFE889F989808185FFF5CFCE010E9472
:10081000AF03F1CFEB8DEC0FFD2FF11DE35AFF4F2E
:10082000F0820B8FEA89FB8980818062D2CF0F939F
:100830001F93CF93DF938C01D0E0C0E0F801EC0F61
:10084000FD1F6491662341F085E592E00E94D0038C
:10085000892B11F02196F2CFCE01DF91CF911F911C
:100860000F910895CF93DF93EC01888D8823B9F021
:10087000AA89BB89E889F9898C9185FD03C08081AB
:1008800086FD0DC00FB607FCF7CF8C9185FFF2CF28
:10089000808185FFEDCFCE010E94AF03E9CFDF91CC
:1008A000CF910895DC015196ED91FC915297908182
:1008B00050968C91809589238083089520914602DB
:1008C000309147022817390781F4909144028091B2
:1008D0004502981751F0E0914402F0E0EC5FFD4FC3
:1008E0008081082E000C990B08958FEF9FEF0895DB
:1008F00020914602309147022817390739F48FB703
:10090000F89410924502109244028FBF08952091EE
:100910004602309147022817390771F48091450249
:100920002091440290E0805C9F4F821B910960E41B
:1009300070E00E945413089590E080E008952091A3
:1009400046023091470228173907B9F490914402C2
:1009500080914502981789F0E0914402F0E0EC5F45
:10096000FD4F80812091440230E02F5F3F4F2F7375
:1009700033272093440290E008958FEF9FEF08956E
:1009800020E001972FEF8F3F9207D9F70895BC0120
:100990006E5F7F4FDC01ED91FC910190F081E02DC5
:1009A00040E0099591E0811190E0892F089584300D
:1009B000F1F050F4813091F030F1823091F08330D9
:1009C00099F088E790E008958630B9F098F0873084
:1009D000B9F08F3FB1F786E890E008958DE491E09B
:1009E000089589E391E008958FE191E0089583E00F
:1009F00091E0089584ED90E0089582EC90E00895F0
:100A000088EA90E0089585E691E0089508958EBD06
:100A10000000CE99FECF8EB594E499BB0895DF9285
:100A2000EF92FF920F931F93CF93DF937C01062FDA
:100A3000D42E152F80E590E00E94870160E0F70139
:100A400086850E94F30182E10E940705CD2DD12FFA
:100A50000C0F1D2F111DC017D10721F089910E9485
:100A60000705F9CF61E0F7018685DF91CF911F91EE
:100A70000F91FF90EF90DF900C94F3011F93CF93B1
:100A8000DF93EC01162F80E590E00E94870160E083
:100A90008E850E94F301812F80680E94070580E007
:100AA0000E940705182F61E08E850E94F301812FB7
:100AB000DF91CF911F9108950F931F93CF93DF93F1
:100AC000EC01062F142F80E590E00E94870160E082
:100AD0008E850E94F301802F0E940705812F0E94BE
:100AE000070561E08E85DF91CF911F910F910C94E6
:100AF000F301CF92DF92EF92FF920F931F93CF9368
:100B0000DF93EC016B01F42E890140E062E00E946A
:100B10005C0544E06AE0CE010E945C0540E864E1C7
:100B2000CE010E945C05A6016F2DCE010E940F052B
:100B300043E062E0CE010E945C058FB7F894C0905C
:100B40004D02D0904E02E0904F02F09050028FBFC5
:100B500089E5C80ED11CE11CF11C6AE0CE010E949F
:100B60003E0582FF1BC040E062E0CE010E945C05B2
:100B700064E4CE010E943E05F801808362E4CE0168
:100B80000E943E05F801818380E0DF91CF911F91A3
:100B90000F91FF90EF90DF90CF9008952FB7F894CA
:100BA00080914D0290914E02A0914F02B09150025F
:100BB0002FBF8C159D05AE05BF0578F283E0E5CF0C
:100BC0002F923F924F925F926F927F928F929F925D
:100BD000AF92BF92CF92DF92EF92FF920F931F934B
:100BE000CF93DF9300D0CDB7DEB73C01162F942E04
:100BF000290180E0A114B10411F0F5018081382CA5
:100C0000329490EF3922380E40E062E0C3010E9436
:100C10005C054FE768E0C3010E945C0540E864E1C1
:100C2000C3010E945C05A201602FC3010E940F0551
:100C3000432D6AE1C3010E945C05412F62E0C301BC
:100C40000E945C051C3051F46AE1C3010E943E051C
:100C5000482F40686AE1C3010E945C058FB7F89491
:100C600020904D0230904E0240904F025090500222
:100C70008FBFF4E22F0E311C411C511C68E0C301F0
:100C80000E943E05982F992109F0BFC080FF16C031
:100C900083E00F900F90DF91CF911F910F91FF9004
:100CA000EF90DF90CF90BF90AF909F908F907F900C
:100CB0006F905F904F903F902F9008952FB7F894CA
:100CC00080914D0290914E02A0914F02B09150023E
:100CD0002FBF82159305A405B50580F2D9CFE11485
:100CE000F10409F467C0C114D10409F463C064E1DC
:100CF000C3010E943E05982EF6018081891508F4F3
:100D00007EC090829920C9F180E590E00E94870121
:100D100060E0F30186850E94F3019A9482E90E94C3
:100D20000705882099F00FEF10E001C0000F8A94AA
:100D3000EAF782E90E940705902F9095F70120813C
:100D400092238023982B9083882483948701080D15
:100D5000111D891440F482E90E940705F80181936E
:100D60008F018394F6CF80E00E940705F80180830D
:100D700061E0F30186850E94F30168E1C3010E94EE
:100D80003E058770A114B10411F0F501808353FC76
:100D900038C0E114F104B9F1C114D104A1F19F8963
:100DA000992389F1F6014081413031F4843029F5ED
:100DB0008FEF6FCF80E0EBCF4230F8F081111DC094
:100DC00042509E012F5F3F4FB701C3010E9479053A
:100DD00081115FCFF6019081E90EF11CF701329786
:100DE00020819981291309C0F1E0EF1AF108F70178
:100DF00020819A81291709F44CCF87E04ACF84E0FB
:100E000048CF82E046CF80E044CF6CE0C3010E942F
:100E10003E05582E837109F462CF81E03ACF0F93DB
:100E20001F93CF93DF938C01D62FC42F0E943E05D2
:100E3000C0954C2F48236D2FC801DF91CF911F9192
:100E40000F910C945C056F927F928F92AF92BF923C
:100E5000CF92DF92EF92FF920F93CF93DF9300D068
:100E600000D01F92CDB7DEB73C0182E08D8340E019
:100E700064E2C3010E945C0540E066E2C3010E9497
:100E80005C0546E268E4C3010E945C0586E28B8350
:100E90008D818230C8F140E86CE1C3010E940F07E8
:100EA00087E08C831F92812CCE0104965C01019611
:100EB0006C0104977C0101E09E012D5F3F4F40E3F0
:100EC0006CE0C3010E94E005982F0F90811119C0BA
:100ED0008D818230C9F48C81811116C081E00F9020
:100EE0000F900F900F900F90DF91CF910F91FF9087
:100EF000EF90DF90CF90BF90AF908F907F906F90EA
:100F0000089581E0923059F380E0E9CF2F923F922B
:100F10004F925F926F927F928F929F92AF92BF9209
:100F2000CF92DF92EF92FF920F931F93CF93DF93B5
:100F3000CDB7DEB72E970FB6F894DEBF0FBECDBF8C
:100F400006E0413508F046C14E873B012C0140E8E0
:100F50006CE10E940F0783E989832E85222329F003
:100F600081E0F3019081953008F480E09924939416
:100F70001C869C85990F990F990F1E85191B17FDCB
:100F800010E032E0882319F098E89B8333E021E0F9
:100F9000912F977009F420E0912F9595959595954F
:100FA000290FD1F094E0811193E0291708F4922FD2
:100FB0002C85E22FF0E03196E60DF71D232F4191AD
:100FC000A1E0B0E0AC0FBD1FA20FB11D4C932F5F8D
:100FD000422F431B491798F38111185F10320CF40C
:100FE00084C080E78A838B819C8189279D818927A2
:100FF0009E8189278F839E01285F3F4F47E0BE0176
:101000006F5F7F4FC2010E947905082F8111E2C0F6
:101010001A8693E09B871D87FE0137961F0109E022
:101020008A84482D4295407F480D6AE1C2010E94A2
:101030005C051F92CE010A965C01FE013B966F0192
:1010400071019E012F5F3F4F40E36CE0C2010E949F
:10105000E005082F0F90823009F065C06CE1C201F5
:101060000E943E0585FDB6C08F7109F480E2282FED
:1010700030E0412F110F550B421753070CF09EC063
:10108000182FE22FE595E595E595EF5F922F977084
:1010900081E009F480E0E80F81E090E08C0F9D1F73
:1010A0008E0F911DFC01215031092770332781E0FB
:1010B00090E002C0880F991F2A95E2F79C01808179
:1010C000822B80838BCF85E98983FE85FF2331F0D6
:1010D00081E0F3019081983008F04BCF80E049CF58
:1010E00087E98983F6E0FC87F9CF912F97709A877B
:1010F000812F8595859585958E5F282F2295207F58
:10110000290F2A8301E0911101C000E0080F222479
:101110002394312C2C0E3D1E280E311CF9E0F81BB7
:10112000FB871D877DCF811155C010E29D859032D0
:101130000CF457CF8B81883809F042C083E093E0EC
:101140002C85E22FF0E03196E60DF71D980FA1E017
:10115000B0E0AC0FBD1FA80FB11D2C9121938F5F84
:101160008913F5CF8B858C87833009F04DC08A8534
:1011700081114AC09E012D5F3F4F41E0B101C20184
:101180000E947905082F811125C09B81F101818181
:1011900098133CC09C818281981338C0808182FF63
:1011A00012C09394F2E09F1609F48DCF23E09216BB
:1011B00009F496CF81E0981609F4CDCE05E00AC077
:1011C00082E094E0BDCFF3018387892D880F980ECC
:1011D00093949082802F2E960FB6F894DEBF0FBEA8
:1011E000CDBFDF91CF911F910F91FF90EF90DF90D6
:1011F000CF90BF90AF909F908F907F906F905F90B7
:101200004F903F902F90089501E0E4CF07E0E2CFA8
:10121000EF92FF920F931F93CF93DF93E82EF62E5A
:10122000C7E0D0E0042F10E0B8010C2E02C0759585
:1012300067950A94E2F761708E2D0E94F30161E0D8
:101240008F2D0E94F30160E08F2D0E94F301219702
:1012500058F7DF91CF911F910F91FF90EF90089574
:101260000F931F93CF93DF93082F162F60E0809189
:1012700000030E94F301D0E0C0E0809102038C17CC
:101280001D0689F084F0402F609101038091FF02D8
:101290000E940809412F609101038091FF020E9482
:1012A00008092196EACF60E0809100030E94F301D3
:1012B00061E080910003DF91CF911F910F910C9419
:1012C000F3012F923F924F925F926F927F928F9293
:1012D0009F92AF92BF92CF92DF92EF92FF920F93C5
:1012E0001F93CF93DF9300D000D01F92CDB7DEB70E
:1012F0007C01FC012080312C8180912CF8E08F163C
:10130000910409F46CC00FEF12E09D838C83F12CE3
:10131000E12C412C512C32014394E214F3040CF0E3
:10132000D0C08E2D869586958695E82FF0E0FA83BD
:10133000E983D12CC12C8E2D87708F5F8B83C814CD
:10134000D9040CF0B3C0F0E5EF16F1040CF0AAC01C
:1013500028E0C216D1040CF0A5C0D301C2010C2CA8
:1013600004C0880F991FAA1FBB1F0A94D2F7F80167
:101370004481EC81FD81228130E00C2C02C0359546
:1013800027950A94E2F720FF7BC0842BF801848321
:1013900060E0809100030E94F301B12CA12C8091A8
:1013A00002038A151B0409F00CF472C0609101035A
:1013B0008091FF0229813A812A153B0509F063C01B
:1013C0004B810E940809F8014481609101038091DA
:1013D000FF020E940809FFEFAF1ABF0AE0CF10E03A
:1013E00000E0021513050CF06CC0003511050CF07F
:1013F00044C0F701E00FF11F22812983A02EA6949B
:10140000A694A694B12C60E0809100030E94F301A1
:10141000D12CC12C302F37703F5F3B83809102036A
:101420008C151D04D9F0D4F0609101038091FF0266
:10143000AC14BD0471F44B810E940809498160918C
:1014400001038091FF020E9408098FEFC81AD80A91
:10145000E5CF40E00E94080940E0F1CF60E08091D4
:1014600000030E94F30161E0809100030E94F301F8
:10147000F801E150FD4F998194830F5F1F4FB1CF69
:101480008095842383CF40E00E94080940E09DCFEF
:1014900060E0809100030E94F30161E0809100030D
:1014A0000E94F3012FEFC21AD20A49CF3FEFE31A8D
:1014B000F30A0F5F1F4F8C819D8101969D838C8362
:1014C0002CCF0F900F900F900F900F90DF91CF9136
:1014D0001F910F91FF90EF90DF90CF90BF90AF9052
:1014E0009F908F907F906F905F904F903F902F9044
:1014F0000895DF92EF92FF920F931F93CF93DF93A4
:10150000EC01898D9A8D892B71F481E090E09B83A9
:101510008A8390E080E0DF91CF911F910F91FF903F
:10152000EF90DF900895162FDFB6F8948B8D81FD34
:1015300029C0CE010E945204898D9A8D05960E9481
:10154000C0048B8D98E0E92EF12C01E081FF28C0CA
:10155000812F8023F1F0CE010E945204898D9A8D53
:101560000E94C004000F81E0E81AF10889F7CE015B
:101570000E945204DFBE898D9A8D0E94C00481E0D2
:1015800090E0C9CFE989FA8980819889892B808385
:10159000D3CFE989FA8980819889892B8083DECF2E
:1015A000812F8023B1F0E989FA8980819889892B7C
:1015B0008083898D9A8D0E94C004000F81E0E81A13
:1015C000F10871F7E989FA8980819889892B8083EC
:1015D000D1CFCE010E945204ECCFFC01019000203B
:1015E000E9F73197AF01481B590BBC0185E592E043
:1015F0000C944003CF93DF930E941704EC0182E622
:1016000091E00E94ED0A8C0F9D1FDF91CF9108950C
:10161000CF93DF930E94ED0AEC0182E691E00E94F5
:10162000ED0A8C0F9D1FDF91CF910895FC0124815D
:101630003581232B39F421E0FB018081882349F097
:1016400020E007C0808191810E946D1521E0892BE7
:10165000B9F7822F08950F931F93CF93DF93EC0177
:1016600088819981009759F02A813B812617370795
:1016700030F081E0DF91CF911F910F9108958B01A0
:101680006F5F7F4F0E94A714009759F0998388835A
:101690001B830A832C813D81232B59F7FC01108287
:1016A000E8CF80E0E7CF1F920F920FB60F92112480
:1016B0002F933F938F939F93AF93BF9380914D024E
:1016C00090914E02A0914F02B091500230914C0285
:1016D00023E0230F2D3758F50196A11DB11D20934E
:1016E0004C0280934D0290934E02A0934F02B09310
:1016F00050028091510290915202A0915302B091F8
:1017000054020196A11DB11D809351029093520283
:10171000A0935302B0935402BF91AF919F918F91C8
:101720003F912F910F900FBE0F901F90189526E8B4
:10173000230F0296A11DB11DD2CF1F920F920FB69B
:101740000F9211242F933F934F935F936F937F9347
:101750008F939F93AF93BF93EF93FF9385E592E0B1
:101760000E94AF03FF91EF91BF91AF919F918F9135
:101770007F916F915F914F913F912F910F900FBE8D
:101780000F901F9018951F920F920FB60F92112471
:101790002F938F939F93EF93FF93E0916502F091C6
:1017A00066028081E0916B02F0916C0282FD1BC0A9
:1017B000908180916E028F5F8F7320916F028217EC
:1017C00041F0E0916E02F0E0EB5AFD4F958F80936F
:1017D0006E02FF91EF919F918F912F910F900FBE0D
:1017E0000F901F9018958081F4CF1F920F920FB623
:1017F0000F921124EF92FF920F931F932F933F9319
:101800004F935F936F937F938F939F93AF93BF9308
:10181000CF93DF93EF93FF93C0914602D09147029D
:10182000209749F0EE85FF859D858B8D81FF1AC03D
:1018300080818923D1F4FF91EF91DF91CF91BF9106
:10184000AF919F918F917F916F915F914F913F9158
:101850002F911F910F91FF90EF900F900FBE0F905F
:101860001F9018958081892331F78B899C890E946C
:10187000C00488E0E82EF12C10E001E08D899E89FB
:101880000E94C004EE85FF8580819D85892339F102
:10189000102B000F81E0E81AF10881F78F89988DED
:1018A0000E94C0048B8D81FD10958091450220918E
:1018B000440290E001968F7399272817190699F032
:1018C000E0914502F0E0EC5FFD4F1083809145020E
:1018D00090E001968F73992780934502ACCF802FBB
:1018E00080951823D6CF8B8D81608B8FA4CF1F92CC
:1018F0000F920FB60F9211242F933F934F935F9344
:101900006F937F938F939F93AF93BF93EF93FF93C7
:101910000E94F50BFF91EF91BF91AF919F918F9135
:101920007F916F915F914F913F912F910F900FBEDB
:101930000F901F9018951F920F920FB60F921124BF
:101940002F933F934F935F936F937F938F939F93C7
:10195000AF93BF93EF93FF930E94F50BFF91EF912D
:10196000BF91AF919F918F917F916F915F914F91B7
:101970003F912F910F900FBE0F901F9018951092CE
:1019800058021092570288EE93E0A0E0B0E08093F6
:10199000590290935A02A0935B02B0935C022CE32D
:1019A00031E0309356022093550225EC30E030931D
:1019B00062022093610224EC30E0309364022093B1
:1019C000630220EC30E0309366022093650221EC44
:1019D00030E0309368022093670222EC30E03093CD
:1019E0006A022093690226EC30E030936C02209367
:1019F0006B0210926E0210926F021092700210929F
:101A000071022FEF2093F2021092F4021092F3026F
:101A10001092FE021092FD024FEF5FEFBA01409369
:101A2000F9025093FA026093FB027093FC022CE5DA
:101A300031E03093700320936F0320E120937D0306
:101A40002FE020937E03109256031092550380934B
:101A5000570390935803A0935903B0935A038CE40F
:101A600091E0909354038093530310926703109274
:101A70006603109269031092680310926B03109230
:101A80006A0310926D0310926C0380916E038E7F37
:101A90008D7F80936E0361E085E00E94200261E00B
:101AA00085E00E94F301EFE9F2E0E491E093630343
:101AB000E4E8F2E0E491F0E0EE0FFF1FED58FD4F97
:101AC00085919491909365038093640360E084E032
:101AD0000E94200280916E0381FD04C061E084E0D9
:101AE0000E94F30184E080935F03EEE9F2E0E49169
:101AF000E0936003E3E8F2E0E491F0E0EE0FFF1F13
:101B0000E959FD4F8591949190936203809361030D
:101B100083E08093FF0282E08093000388E080935B
:101B2000010381E080930203E3E0F3E083E593E0C7
:101B300011928E179F07E1F70895CF93DF93CDB7EA
:101B4000DEB7A5970FB6F894DEBF0FBECDBF80916C
:101B5000F20080618EBB80E88093F2009EB3909388
:101B6000F20090914B02911166C08093610021E0D8
:101B700020936100000000009091F00094609EBBF3
:101B80008093F0009EB39093F0009091F200937FC9
:101B900094609EBB8093F2009EB39093F20000008D
:101BA0000000000000000000000000000000000035
:101BB0000000000000000000000000000000000025
:101BC0000000000000008093F20097EB9093F20079
:101BD0000000000000000000000000000000000005
:101BE00000000000000000000000000000000000F5
:101BF00000000000000000008093F20096EB90933C
:101C0000F2000000000000000000000000000000E2
:101C100000000000000000000000000000000000C4
:101C20000000000000000000000020934B028093A1
:101C3000610010926100789484B5826084BD84B59F
:101C4000816084BD85B58B7F85BD85B5826085BD8E
:101C500085B5816085BD80916E00816080936E0046
:101C60001092810080918100826080938100809138
:101C700081008160809381008091800081608093E9
:101C800080008091B10084608093B1008091B000A9
:101C900082608093B0008091B00081608093B0003A
:101CA00080917A00846080937A0080917A008260CB
:101CB00080937A0080917A00816080937A0080918D
:101CC0007A00806880937A001092C10061E08CE015
:101CD0000E94200261E08AE00E94200261E080E12F
:101CE0000E94200261E081E10E94200261E089E01F
:101CF0000E9420020E940B03E0916502F0916602AF
:101D000082E08083E0916102F09162021082E091B2
:101D10006302F09164028FEC808310926D02E09177
:101D20006902F0916A0286E08083E0916702F09197
:101D30006802808180618083E0916702F09168028F
:101D4000808188608083E0916702F09168028081E1
:101D500080688083E0916702F091680280818F7DC6
:101D6000808310926D0310926C0310926B0310929B
:101D70006A0310926903109268031092670310922D
:101D8000660390E080E0FC01E259FE4F45915591D9
:101D900065917491403855426105710509F0CEC0D6
:101DA000FC01EE58FE4F2591349130936703209348
:101DB0006603FC01EC58FE4F259134913093690382
:101DC00020936803FC01EA58FE4F2591349130932B
:101DD0006B0320936A03FC01E858FE4F85919491B0
:101DE00090936D0380936C0380916A0390916B03D1
:101DF000892BB1F190915F03963160F520916800D5
:101E000084E0983048F031E09E3008F430E081E022
:101E100001C0880F3A95EAF7822B80936800EDE6BF
:101E2000F0E0983050F0EBE6F0E09E3030F0ECE679
:101E3000F0E0963110F0F0E0E0E04081292F30E052
:101E4000983008F081C081E001C0880F9A95EAF7C8
:101E5000842B808380916C0390916D030E94C00459
:101E600080914602909147028355934091F0809172
:101E70006E038E7F80936E038FB7F89410924502A5
:101E80001092440223E533E0309347022093460248
:101E90008FBF85E691E00E94080B61E08091FF0210
:101EA0000E94200261E0809101030E94200261E013
:101EB000809100030E94200261E0809101030E9452
:101EC000F30167E08BE00E94300960E089E00E9446
:101ED000300961E08CE00E94300960E08FE00E94F0
:101EE000300901E010E060E0809100030E94F301FE
:101EF0004801F1E08F1A91087FEF472E72E0572ECC
:101F0000312C212C809102038215130451F14CF1E4
:101F1000402F609101038091FF020E94080940E078
:101F2000609101038091FF020E940809F20114826E
:101F3000FFEF2F1A3F0A480C591CE4CF0C968C393E
:101F4000910509F020CF50CF9E3040F42850310940
:101F500081E001C0880F2A95EAF77ACF2E50310927
:101F6000F7CF60E0809100030E94F30161E080916F
:101F700000030E94F3010F5F1F4F0930110509F0A4
:101F8000B2CFE3E0F3E0119223E0E335F207D9F7B3
:101F90006FE08AE00E94300968E08AE00E94300920
:101FA0001FB7F89480914802811127C0E9E8F2E058
:101FB0008491E4EAF2E09491E82FF0E0EE0FFF1F45
:101FC000EB5BFD4FA591B491EC91E92321F461E025
:101FD0008AE00E94F30161E08AE00E9420028CB551
:101FE00080618CBD8CB580648CBD61E08DE00E9409
:101FF000200261E08BE00E942002809148028F5F06
:10200000809348021FBF61E080917D030E942002FF
:1020100061E080917D030E94F30180917E038F3FF8
:1020200009F42DC160E00E94200280917E0390E0BF
:10203000FC01E656FD4F1491FC01E158FD4F9490D0
:10204000911004C161E080917E030E94200260E053
:1020500080917E030E94F30185E090E00197F1F703
:1020600061E080917E030E94F3010E940B0340E037
:1020700064E28FE693E00E945C0540E066E28FE652
:1020800093E00E945C0546E268E48FE693E00E94DC
:102090005C0540E864E58FE693E00E945C0549EA50
:1020A00066E58FE693E00E945C0543E068E58FE615
:1020B00093E00E945C0548EE6AE58FE693E00E949B
:1020C0005C0540E46AE28FE693E00E945C054DE324
:1020D00062E28FE693E00E945C0568E28FE693E09F
:1020E0000E943E05982F9370933039F0482F43603B
:1020F00068E28FE693E00E945C0586E791E00E942B
:10210000080B2E018FE1480E511CFE013D96FDA3E8
:10211000ECA31E01F1E12F0E311C8FEF898F8A8F06
:102120008B8F8C8F8D8F8E8F8FE693E00E9423078D
:10213000882309F44BC08FE693E00E94C7048823EC
:1021400009F444C083E392E00E94FA0A82E18BA37F
:1021500080E6898384E08A83DE015996FE01339606
:102160009E2E1F2F8D9181934A165B06D9F7E09121
:102170007103E150FF0BE159FC4FDE01199681918B
:102180008D938CA19DA18A179B07C9F71F92812C63
:10219000B12CA12CD12CC12CF12CE12C0CE09E01F6
:1021A0002F5F3F4F40E16EE08FE693E00E94E00535
:1021B000082F0F90882309F475C08BE192E00E94EC
:1021C0001704802F0E94D7040E94FA0A80914902C6
:1021D00090914A028615970561F1F1E06F1671043E
:1021E00009F06AC163E483E593E00E94790A8AEC0E
:1021F00091E00E94080B88E291E00E9461096FEF74
:1022000070E089E00E946C0261E081E10E94F301CC
:1022100060E080E10E94F3016FEF70E08AE00E94CD
:102220006C0261E08CE00E94F30170924A026092BD
:10223000490280E090E0892B09F46FCF0E949B0354
:10224000882309F46ACF0E94000067CFFC01EF5A8F
:10225000FD4FE491EE2339F0F0E0EF5AFD4F849109
:1022600081110E948A01E92DF0E0EE0FFF1FE9596C
:10227000FD4FA591B491EC911E2309F4E3CE4FE0FC
:1022800062E08FE693E00E945C0513E00E940B037E
:1022900062E08FE693E00E943E0584FFE8CE115095
:1022A000A9F7E5CE8BA1823170F180E3898384E0C8
:1022B0008A83292D312F42E0BE016F5F7F4F8FE669
:1022C00093E00E947905182F811117C081E08F9348
:1022D000812CB12CA12CFE01B3966F01CE01019689
:1022E0007C0104E09C0140E36CE08FE693E00E94F7
:1022F000E005182F0F90882341F08AE092E00E94B9
:102300001704812F5FCF14E0F8CF1C8A1B8A1E8A26
:102310001D8A188E1F8A70E060E0CE0143960E94ED
:102320002B0B2B893C89811178C02115310519F0BF
:10233000C9010E941E141C8A1B8A188E1F8A1E8ABD
:102340001D8AFE0131963F01F30181913F018032E8
:10235000C1F08F8F18A20F89188D0F5F1F4FB80122
:10236000CE0143960E942B0B882359F02B893C8980
:102370008F89988DB201820F931F0E947615188F56
:102380000F8B6214730401F780E891E00E94ED0A5C
:102390004F89588D6B897C8985E592E00E944003C6
:1023A00082E691E00E94ED0A80E58F8F18A29E01DF
:1023B0002F5D3F4F42E0B2018FE693E00E94790526
:1023C000811111C01F92812CB12CA12CD12CC12CB8
:1023D000F12CE12C04E0920140E36CE08FE693E005
:1023E0000E94E0050F9048E060E18FE693E00E94D4
:1023F0000F0767E871E0CE0143960E94160B882311
:10240000A1F089E891E00E94080B66246394712C86
:102410008B899C890E941E14D9CE188E1F8A64E66F
:1024200071E0C9010E9476158CCF6FE871E0CE0192
:1024300043960E94160B882341F081E991E00E94A7
:10244000080B32E0632E712CE3CF69E971E0CE0115
:1024500043960E94160B882341F08BE991E00E947D
:10246000080B23E0622E712CD3CF64EA71E0CE0119
:1024700043960E94160B882341F087EA91E00E9460
:10248000080B94E0692E712CC3CF61EB71E0CE0193
:1024900043960E94160B882341F083EB91E00E9443
:1024A000080B85E0682E712CB3CF8EEB91E00E9473
:1024B000080B712C612CACCF22E06216710409F577
:1024C00067E483E593E00E94790A80ED91E00E9441
:1024D000080B8EE191E00E9461096FEF70E089E0E6
:1024E0000E946C0261E081E10E94F30160E080E102
:1024F0000E94F30170E060E08AE00E946C0260E0FC
:1025000091CE83E068167104C1F464E483E593E03E
:102510000E94790A88ED91E00E94080B84E191E025
:102520000E9461096FEF70E089E00E946C0260E038
:1025300081E10E94F30161E0DACF94E06916710451
:10254000E9F462E583E593E00E94790A80EE91E088
:102550000E94080B8AE091E00E94610968E270E045
:1025600089E00E946C0261E081E10E94F30160E079
:1025700080E10E94F30160EA70E050CEE5E06E1663
:102580007104E9F460E583E593E00E94790A8AEE3C
:1025900091E00E94080B80E091E00E9461096FEFDA
:1025A00070E089E00E946C0260E081E10E94F3012A
:1025B00060E080E10E94F3016FEF70E09DCF611455
:1025C000710409F036CE84EF91E00E94080B10925E
:1025D0004A02109249022DCE8CE491E0909354036C
:1025E0008093530320915F032631C0F4EDE6F0E0C1
:1025F000283030F0EBE6F0E02E3010F0ECE6F0E0C2
:102600003081422F50E0283050F481E090E001C04A
:10261000880F2A95EAF780958323808308952E30CA
:1026200048F44850510981E090E001C0880F4A9574
:10263000EAF7F1CF4E505109F6CF2F923F924F92C9
:102640005F926F927F928F929F92AF92BF92CF9242
:10265000DF92EF92FF920F931F93CF93DF93CDB74B
:10266000DEB7CA1BDB0B0FB6F894DEBF0FBECDBFC3
:1026700009942A88398848885F846E847D848C8494
:102680009B84AA84B984C884DF80EE80FD800C819D
:102690001B81AA81B981CE0FD11D0FB6F894DEBF80
:1026A0000FBECDBFED01089597FB072E16F40094E1
:1026B00007D077FD09D00E946E1307FC05D03EF4C9
:1026C000909581959F4F0895709561957F4F0895DE
:1026D000EE0FFF1F0590F491E02D0994AA1BBB1B80
:1026E00051E107C0AA1FBB1FA617B70710F0A61B12
:1026F000B70B881F991F5A95A9F780959095BC0133
:10270000CD0108950F931F93CF93DF9382309105EE
:1027100010F482E090E0E0918103F091820330E0D8
:1027200020E0B0E0A0E0309799F42115310509F4DC
:102730004AC0281B390B24303105D8F58A819B818A
:102740006115710589F1FB0193838283FE0111C03C
:10275000408151810281138148175907E0F04817E1
:10276000590799F4109761F012960C9312971396EB
:102770001C933296CF01DF91CF911F910F91089555
:102780000093810310938203F4CF2115310551F09A
:102790004217530738F0A901DB019A01BD01DF019F
:1027A000F801C1CFEF01F9CF9093820380938103A9
:1027B000CDCFFE01E20FF31F819391932250310997
:1027C00039832883D7CF20917F0330918003232B37
:1027D00041F42091340130913501309380032093EE
:1027E0007F0320913201309133012115310541F4ED
:1027F0002DB73EB74091360150913701241B350B60
:10280000E0917F03F0918003E217F307A0F42E1B01
:102810003F0B2817390778F0AC014E5F5F4F241744
:10282000350748F04E0F5F1F5093800340937F039E
:10283000819391939FCFF0E0E0E09CCFCF93DF9323
:102840000097E9F0FC01329713821282A091810374
:10285000B0918203ED0130E020E01097A1F42081D7
:102860003181820F931F20917F03309180032817BD
:10287000390709F061C0F0938003E0937F03DF9193
:10288000CF910895EA01CE17DF07E8F54A815B8111
:102890009E0141155105B1F7E901FB83EA83499196
:1028A0005991C40FD51FEC17FD0761F48081918108
:1028B0000296840F951FE901998388838281938111
:1028C0009B838A83F0E0E0E012968D919C911397B0
:1028D0000097B9F52D913C911197CD010296820F89
:1028E000931F20917F03309180032817390739F611
:1028F000309751F51092820310928103B0938003B8
:10290000A0937F03BCCFD383C28340815181840FC6
:10291000951FC817D90761F44E5F5F4F8881998171
:10292000480F591F518340838A819B8193838283FF
:102930002115310509F0B0CFF0938203E0938103B4
:102940009ECFFD01DC01C0CF13821282D7CFB0E051
:10295000A0E0EDEAF4E10C941F138C01009751F410
:10296000CB010E9482138C01C801CDB7DEB7E0E134
:102970000C943B13FC01E60FF71F9C012250310918
:10298000E217F30708F49DC0D901CD91DC911197AE
:10299000C617D70798F0C530D10530F3CE0104979C
:1029A0008617970708F3C61BD70B2297C193D193BD
:1029B0006D937C93CF010E941E14D6CF5B01AC1A9D
:1029C000BD0A4C018C0E9D1EA0918103B091820323
:1029D000512C412CF12CE12C109731F580917F0383
:1029E000909180038815990509F05CC0461657063A
:1029F00008F058C08091320190913301009741F462
:102A00008DB79EB74091360150913701841B950BCD
:102A1000E817F90708F055C0F0938003E0937F03AF
:102A2000F90171836083A0CF8D919C9111971296CB
:102A30006C90129713967C901397A815B90559F5C9
:102A40006C0142E0C40ED11CCA14DB0420F1AC01BD
:102A50004A195B09DA011296159780F06282738237
:102A600051834083D9016D937C93E114F10471F09B
:102A7000D7011396FC93EE93129776CF22968C0F84
:102A80009D1FF90191838083F301EFCFF0938203BF
:102A9000E093810369CF4816590608F42C017D01A3
:102AA000D3019ACFCB010E9482137C01009749F099
:102AB000AE01B8010E946415C8010E941E1487016E
:102AC00053CF10E000E050CFFB01DC0102C00190C9
:102AD0000D9241505040D8F70895FB01DC018D91D3
:102AE000019080190110D9F3990B0895FB01DC01C5
:102AF00001900D920020E1F7089511E0CCE5D1E0BE
:102B000004C0FE010E9468132196CD35D107C9F794
:042B1000F894FFCF67
:102B1400080808083E493006493E0808224149365B
:102B2400427F400008086251494627454539080854
:102B340062514946364949360808274545393E41D8
:102B4400413E00008303800000000000D0034003E6
:102B54008F036D038103320400000000790A4003EF
:102B640087049F045E04780400000000860723079E
:102B7400C7040D0A005354415254494E4720434F51
:102B840044452E2E2E00494E495420444F4E4500B4
:102B94004E414D453A2000430043414D454C0047CA
:102BA4000047495241464645004400444F4C504872
:102BB400494E450043520043524F434F44494C450C
:102BC400005000504F4C41525F42454152006E6FDD
:102BD40074206D6174636865640043616D656C00A5
:102BE4004769726166666500446F6C7068696E005F
:102BF40043726F636F64696C6500506F6C617242FD
:102C0400656172004E6F74207265636F676E697AD6
:042C140065640000F3
:00000001FF
