:100000000C94D8000C9400010C9400010C94730E15
:100010000C94730E0C94730E0C9400010C9400015C
:100020000C9400010C9400010C9400010C94B70D89
:100030000C9400010C9400010C9400010C9400013C
:100040000C94FF0B0C9400010C946F0C0C94490C55
:100050000C9400010C9400010C9400010C9400011C
:100060000C94A10C0C9400010C9400000C94000062
:100070000C9400000C940000FF0000008B000000B6
:100080008B0000008B0000008B0000008B00000044
:100090008B0000008B000000FF0000008B000000C0
:1000A000EBCE8700EBCE8700E6D8AD00FFFFFF0068
:1000B000E6D8AD00EBCE87000000FF00002AD50097
:1000C0000055AB00007FAB0000ABAB0000D5560085
:1000D00000FF00002AD5000055AB0000AA56000022
:1000E000FF000000D5002A00AB00550081007F0012
:1000F0005500AB002B00D5000000FF000000000001
:100100000055AB000000000000ABAB000000000099
:1001100000FF00000000000055AB000000000000E0
:10012000FF00000000000000AB00550000000000D0
:100130005500AB0000000000000000002400270074
:100140002A002D0000000032F011100000202131A3
:10015000000000000000000000000000000023007C
:10016000260029002C0000000000250028002B009C
:100170002E00040404040404040402020202020225
:100180000303030303030505050505050502020135
:10019000020408102040800102040810200102041B
:1001A000081020020801041020404080F10EF418CD
:1001B00011241FBECFEFD8E0DEBFCDBF12E0A0E01C
:1001C000B1E0ECEAF3E302C005900D92A231B10771
:1001D000D9F724E0A2E1B2E001C01D92A63BB2072C
:1001E000E1F710E0C7EDD0E004C02197FE010E94C6
:1001F000A319C63DD107C9F70E940F100C94C91965
:100200000C940000A9E7B3E0FC014591559165917C
:1002100074916C9311965C93119712964C9312976C
:100220000496139623E0A93AB20771F789E793E0A1
:10023000089590E0FC01E157FE4F3491FC01EE5827
:10024000FE4F2491222309F45CC0FC01EC5BFE4FBD
:10025000E491EE2309F444C0E051E63308F040C0D5
:10026000F0E0EB5CFE4F0C94A31986018A01860135
:100270008A017001700170017001700170017001DC
:10028000700170017001700170016B0182017001D9
:100290006B018201700170017001700170017001C9
:1002A0007001700170017001700170018D01930186
:1002B0008D01930170017001700170017001700176
:1002C0007001700170017001700197019D01A10121
:1002D00097019D019701809180008F778093800026
:1002E000E22FF0E0EE0FFF1FEA59FE4FA591B49107
:1002F0008FB7F894EC91611128C030953E233C9360
:100300008FBF0895809180008F7DE8CF84B58F776F
:1003100084BDE6CF84B58F7DFBCF8091B0008F7711
:100320008093B000DDCF8091B0008F7DF9CF8091B8
:1003300090008F7780939000D3CF809190008F7D35
:10034000F9CF80919000877FF5CF3E2BD8CFCF9308
:10035000DF93282F30E0F901E157FE4F44912E58EA
:100360003E4FF9012491843011F583E08093A00081
:100370002223D1F0822F90E0880F991FFC01E85CC6
:10038000FE4FA591B491FC01EA59FE4FC591D4915D
:10039000611122C09FB7F8948C91409584238C936F
:1003A0008881482348839FBFDF91CF9108959AEEBB
:1003B000980F923020F48FEF84BF84BFD9CF8A3159
:1003C000B9F68091F00082608EBB80E88093F000E7
:1003D0008EB38093F000CCCF8FB7F894EC914E2B76
:1003E0004C938FBFE1CF3FB7F89480917503909104
:1003F0007603A0917703B091780326B5A89B05C03A
:100400002F3F19F00196A11DB11D3FBFBA2FA92F93
:10041000982F8827BC01CD01620F711D811D911D90
:1004200042E0660F771F881F991F4A95D1F70895FC
:100430008F929F92AF92BF92CF92DF92EF92FF92F4
:100440004B015C010E94F3016B017C010E94F301EE
:100450006C197D098E099F09683E734081059105DD
:10046000A8F321E0821A9108A108B10888EEC80E0D
:1004700083E0D81EE11CF11C81149104A104B10495
:1004800029F7FF90EF90DF90CF90BF90AF909F90B3
:100490008F9008952FB7F894609171037091720353
:1004A00080917303909174032FBF089580E991E0C8
:1004B0000895DC01ED91FC910190F081E02D09940B
:1004C000AF92BF92CF92DF92EF92FF920F931F9362
:1004D000CF93DF936C017B018B01040F151FEB01A0
:1004E0005E01AE18BF08C017D10759F06991D60157
:1004F000ED91FC910190F081E02DC6010995892BC9
:1005000079F7C501DF91CF911F910F91FF90EF9087
:10051000DF90CF90BF90AF900895FC01918D828DB8
:10052000981761F0A28DAE0FBF2FB11D5D968C9113
:10053000928D9F5F9F73928F90E008958FEF9FEF52
:100540000895FC01918D828D981731F0828DE80F0E
:10055000F11D858D90E008958FEF9FEF0895FC01C8
:10056000918D228D892F90E0805C9F4F821B910995
:100570008F739927089589EA93E00E94AF0221E0E2
:10058000892B09F420E0822F089580E090E0892BE8
:1005900029F00E94BB0281110C9400000895CF93B2
:1005A000DF93FC01A48DC689D789A80FB92FB11D8F
:1005B000A35ABF4F8C918883848D90E001968F73EE
:1005C0009927848FA089B1898C91837080648C93E2
:1005D000938D848D981306C00288F389E02D808165
:1005E0008F7D8083DF91CF910895EF92FF920F93DB
:1005F0001F93CF93DF93EC0181E0888F9B8D8C8DCF
:1006000098131AC0E889F989808185FF15C09FB7C2
:10061000F894EE89FF896083E889F9898081837085
:10062000806480839FBF81E090E0DF91CF911F9134
:100630000F91FF90EF900895F62E0B8D10E00F5F55
:100640001F4F0F731127E02E8C8D8E110CC00FB62B
:1006500007FCFACFE889F989808185FFF5CFCE01C3
:100660000E94CF02F1CFEB8DEC0FFD2FF11DE35A6D
:10067000FF4FF0829FB7F8940B8FEA89FB89808146
:100680008062CFCFCF93DF93EC01888D8823B9F0C0
:10069000AA89BB89E889F9898C9185FD03C080818D
:1006A00086FD0DC00FB607FCF7CF8C9185FFF2CF0A
:1006B000808185FFEDCFCE010E94CF02E9CFDF918F
:1006C000CF91089585ED8093BC008091BC0084FD9E
:1006D000FCCF1092E4020895613298F42091E40274
:1006E000243089F460939702282FA7E7B2E0FC0139
:1006F0008E2F821B861710F080E0089581918D93D4
:10070000F7CF81E0089582E00895089581E090E0B8
:100710003091E8022091E702321710F490E080E077
:1007200091958195910908958091E8029091E70251
:10073000891730F48F5F8093E80290E080E008959D
:100740008FEF9FEF08958091E7029091E802891B57
:10075000990B0895CF92DF92EF92FF920F931F9320
:10076000CF93DF937C01CB018A0120917602222373
:1007700089F0EB016B01C40ED51ECC15DD0569F0C7
:100780006991D701ED91FC910190F081E02DC701B5
:100790000995F3CF642F0E946C03C801DF91CF91BC
:1007A0001F910F91FF90EF90DF90CF900895CF931E
:1007B000DF931F92CDB7DEB76983209176022223A3
:1007C000F9F02091E502203258F021E030E0FC0100
:1007D0003383228390E080E00F90DF91CF910895E2
:1007E0008091E602E82FF0E0EA5AFD4F998190836C
:1007F0008F5F8093E6028093E50281E090E0ECCF8A
:1008000061E0CE0101960E946C03F7CFCF93FC010B
:10081000C48121E020937602C09355021092E60233
:100820001092E5028385682B86E494E00E94D7034A
:100830009091E5029132D8F58091E4028111FCCFCC
:1008400082E08093E40281E08093E3028FEF809363
:10085000BA021092DC029093DB02A6E5B2E0EBEB69
:10086000F2E080E098132BC01092DD028091DD024F
:10087000CC0FC82BC093DD028091E202813031F4AD
:100880001092E2028091DD028093BB0085EE80939E
:10089000BC008091E4028230E1F38091BA028F3F84
:1008A00031F08091BA02803211F08091BA02109238
:1008B000E6021092E50210927602CF9108952D91F2
:1008C00021938F5FCFCF8F929F92AF92BF92FF9273
:1008D0000F931F93CF93DF93FC01F0808BE08F1574
:1008E00008F44AC0828108E512E0081B110987FD5F
:1008F0001395000F111F000F111F8181C8E8D0E070
:10090000C81BD10987FDD395CC0FDD1FCC0FDD1F90
:100910004E010D2E000CAA08BB089801012E000CF8
:10092000440B550B281939094A095B09DB010E9460
:100930003A1924EB30E040E050E00E941019820E9A
:10094000931EA41EB51E8C169D062CF0E801801681
:1009500091060CF4E4012297CC0FDD1F2FB7F89419
:100960008F2D90E0FC01EE0FFF1FE80FF91FE258FA
:10097000FB4FD283C1832FBFDF91CF911F910F9186
:10098000FF90BF90AF909F908F9008951F93CF934B
:10099000DF93EC01162F88818C3008F04EC061E0A7
:1009A000812F0E94A7018881282F30E0F901EE0FE6
:1009B000FF1FE20FF31FE258FB4F1F736081607C43
:1009C000612B608319821A822CE0622F0E948319A6
:1009D000829FB001112430E020E0AB01420F531F91
:1009E000FA01EE0FFF1FE40FF51FE258FB4F908155
:1009F00096FD16C02F5F3F4F2C30310571F78111E6
:100A00000FC01092800082E08093810010928500D8
:100A100010928400B19A80916F00826080936F0081
:100A2000E8818E2F90E0FC01EE0FFF1FE80FF91F09
:100A3000E258FB4F8081806480838881DF91CF9171
:100A40001F9108952091E0023091E10228173907A3
:100A500071F49091DE028091DF02981741F0E091ED
:100A6000DE02F0E0EC5EFD4F808190E008958FEFB4
:100A70009FEF08951F93CF93DF93DC015C968D91D8
:100A80009C915D97892B61F481E090E013969C9393
:100A90008E93129790E080E0DF91CF911F9108959F
:100AA0005196ED91FC91529750968C915097982FBA
:100AB00090951FB75E962C915E9721FD6095F894F6
:100AC0005E962C915E9721FF33C02081282B2083D6
:100AD0005C96CD91DC915D9721970000E9F70000CD
:100AE00028E0462F50E0308160FF25C0382B30834E
:100AF0005C96CD91DC915D9721970000E9F70000AD
:100B0000BA0175956795215061F75E962C915E97B5
:100B100021FF13C08081982390831FBF5C968D9125
:100B20009C9101970000E9F7000081E090E0B4CFCC
:100B300020812923CCCF3923DACF9081892B808360
:100B4000ECCF2091E0023091E1022817390771F4CF
:100B50008091DF022091DE0290E0805C9F4F821B3B
:100B6000910960E470E00E948F19089590E080E0A0
:100B700008952091E0023091E10228173907B9F475
:100B80009091DE028091DF02981789F0E091DE02F9
:100B9000F0E0EC5EFD4F80812091DE0230E02F5FBF
:100BA0003F4F2F7333272093DE0290E008958FEF9D
:100BB0009FEF08952130310529F59C01922F832F55
:100BC0002F5F3F4F6C3371051CF06C537109F6CFEA
:100BD0009093040380930503962F872F6F5F7F4FB9
:100BE0004C3351051CF04C535109F6CF9093100330
:100BF0008093110350930F0340930E0381E0809381
:100C0000120308952230310521F59C01922F832F84
:100C10002F5F3F4F6C3371051CF06C537109F6CF99
:100C20009093230380932403962F872F6F5F7F4F2A
:100C30004C3351051CF04C535109F6CF90931F03D0
:100C40008093200350931C0340931B0381E0809307
:100C5000250308950F931F93CF93DF9320911302E1
:100C60002F5F322F37703093130220FF2BC020E804
:100C700031FD2064347009F02062205FFC01EC013A
:100C8000239600E011E06485662329F070E0C80136
:100C90000E948F196F5F6187322F369F030E30E0FD
:100CA000311D1124311110C01682662311F06150DC
:100CB00061873196EC17FD0731F7DF91CF911F91D6
:100CC0000F91089520E0D4CF31503683EECF4F926C
:100CD0005F927F928F929F92AF92BF92CF92DF925C
:100CE000EF92FF920F931F93CF93DF932C01EB01B1
:100CF0000E94F301F20127853089621B730B6A3071
:100D00007105B0F3F8948A819B81181619060CF0CE
:100D10002EC2E881F9816BB1862E689483F83BB1CD
:100D2000377F3BB9DA848F812D2D281B822F2F83AB
:100D30004F85042E000C550BAA81BB817D85FC8458
:100D4000EE847F5FF394E3949E819884B984AB84AE
:100D50001181C12C6C2D0C2D2C2D218111278894F3
:100D60002111280F08F42FEF8195889470FD120F40
:100D70001795889471FD120F1795889472FD120FC4
:100D80001795889473FD120F1795889474FD120FB0
:100D90001795889475FD120F1795889476FD120F9C
:100DA0001795889477FD120F17958894622F71110B
:100DB000612F8D0D162F002C8BB8002C002C002CD1
:100DC000002C17FF3BB9208166278894002C002C4B
:100DD000002C3BB92111290F002C002C002C8BB8C2
:100DE000002C002C002C002C16FF3BB908F42FEF30
:100DF00091958894002C002C002C3BB9F0FC620FDC
:100E0000002C002C002C8BB8002C002C002C002C6B
:100E100015FF3BB967958894F1FC620F002C002CFC
:100E2000002C3BB967958894002C002C002C8BB8C3
:100E3000002C002C002C002C14FF3BB9F2FC620F9C
:100E400067958894002C002C002C3BB9F3FC620FB2
:100E5000002C002C002C8BB8002C002C002C002C1B
:100E600013FF3BB967958894F4FC620F002C002CAB
:100E7000002C3BB967958894002C002C002C8BB873
:100E8000002C002C002C002C12FF3BB9F5FC620F4B
:100E900067958894002C002C002C3BB9F6FC620F5F
:100EA000002C002C002C8BB8002C002C002C002CCB
:100EB00011FF3BB967958894F7FC620F002C002C5A
:100EC000002C3BB967958894002C002C002C8BB823
:100ED000002C002C002C002C10FF3BB9122FF1101D
:100EE000162F9B0D002C002C002C3BB9002C002C45
:100EF000002C002C002C8BB8002C002C002C002C7B
:100F000017FF3BB9228166278894002C002C002C07
:100F10003BB92111290D002C002C002C8BB8002C82
:100F2000002C002C002C16FF3BB908F42FEFE40F27
:100F3000F51F002C002C002C3BB9E0FC620F002CAC
:100F4000002C002C8BB8002C002C002C002C15FF42
:100F50003BB967958894E1FC620F002C002C002CB3
:100F60003BB967958894002C002C002C8BB8002C82
:100F7000002C002C002C14FF3BB9E2FC620F67959B
:100F80008894002C002C002C3BB9E3FC620F002C51
:100F9000002C002C8BB8002C002C002C002C13FFF4
:100FA0003BB967958894E4FC620F002C002C002C60
:100FB0003BB967958894002C002C002C8BB8002C32
:100FC000002C002C002C12FF3BB9E5FC620F67954A
:100FD0008894002C002C002C3BB9E6FC620F002CFE
:100FE000002C002C8BB8002C002C002C002C11FFA6
:100FF0003BB967958894E7FC620F002C002C002C0D
:101000003BB967958894002C002C002C8BB8002CE1
:10101000002C002C002C10FF3BB9122FE110162FD2
:101020009194002C002C002C3BB99A0C002C002C25
:10103000002C002C8BB8002C002C002C002C17FF4F
:101040003BB9218166278894002C002C002C3BB9E9
:101050002111280F002C002C002C8BB8002C002C08
:10106000002C002C16FF3BB908F42FEF81958894D3
:10107000002C002C002C3BB970FD620F002C002CC2
:10108000002C8BB8002C002C002C002C15FF3BB939
:101090006795889471FD620F002C002C002C3BB9E1
:1010A00067958894002C002C002C8BB8002C002C09
:1010B000002C002C14FF3BB972FD620F67958894D9
:1010C000002C002C002C3BB973FD620F002C002C6F
:1010D000002C8BB8002C002C002C002C13FF3BB9EB
:1010E0006795889474FD620F002C002C002C3BB98E
:1010F00067958894002C002C002C8BB8002C002CB9
:10110000002C002C12FF3BB975FD620F6795889487
:10111000002C002C002C3BB976FD620F002C002C1B
:10112000002C8BB8002C002C002C002C11FF3BB99C
:101130006795889477FD620F002C002C002C3BB93A
:1011400067958894002C002C002C8BB8002C002C68
:10115000002C002C10FF3BB9122F7111162F8D0D92
:10116000002C002C002C3BB9119709F025CE4A81A8
:101170005B8120EE31E0DA010E94A919DC01CB018C
:10118000F4E0B695A79597958795FA95D1F730E055
:1011900020E0B901EAE94E9F040E611D5E9F600DDB
:1011A000711D1124650F711D860F971FA11DB11DA3
:1011B000893E43E09407A105B10508F434C0885E78
:1011C0009340A109B10942E0B695A79597958795F7
:1011D0004A95D1F747E0849F080E211D949F200D6A
:1011E000311D1124290F311D6091120270E0860F0C
:1011F000971F820F931F409171035091720360916A
:10120000730370917403292F3327420F531F611DFD
:10121000711D409371035093720360937303709335
:1012200074038093120278940E94F301F201708B90
:101230006787DF91CF911F910F91FF90EF90DF9023
:10124000CF90BF90AF909F908F907F905F904F9086
:101250000895539A08956F927F928F92CF92DF9262
:10126000EF92FF920F931F93CF93DF93CDB7DEB72B
:1012700062970FB6F894DEBF0FBECDBF6C017A0146
:101280003801822EDC011C962C91CA0157FF04C044
:1012900088279927841B950B7A8369839C838B838A
:1012A0009E838D836D867E868F86213049F5CE01A3
:1012B00001960E942A0683E0888B1A8A198AF7FE13
:1012C00002C08DEF888BD601ED91FC910484F585E9
:1012D000E02DBE016F5F7F4FC601099562960FB684
:1012E000F894DEBF0FBECDBFDF91CF911F910F915C
:1012F000FF90EF90DF90CF908F907F906F90089548
:101300001C861B861A86198618861F82D4CFEF92F8
:10131000FF920F931F93CF93DF93CDB7DEB7629702
:101320000FB6F894DEBF0FBECDBF7C01DC011C966A
:101330008C917A8369835C834B835E834D830D87B5
:101340001E872F878130F9F4CE0101960E942A066C
:10135000188A1A8A198AD701ED91FC910484F585BF
:10136000E02DBE016F5F7F4FC701099562960FB6F2
:10137000F894DEBF0FBECDBFDF91CF911F910F91CB
:10138000FF90EF9008951C861B861A861986188692
:101390001F82DECF90E080E00895FC018585968570
:1013A00008950F931F93CF93DF9300D01F92CDB773
:1013B000DEB7AB0119821A821B82DC01ED91FC9130
:1013C0000190F081E02D00E010E020E0BE016F5FB1
:1013D0007F4F09950F900F900F90DF91CF911F9144
:1013E0000F9108950F931F93CF938C01C62F0E94E6
:1013F00006046C2F6460C8010E9406046C2F6B7F8A
:10140000C8010E94060483E091E00197F1F7CF91B3
:101410001F910F9108950F931F93CF93DF938C012A
:10142000D62FC42F607F642B0E94F20980E1D89FE1
:10143000B00111246C2BC801DF91CF911F910F9146
:101440000C94F209CF93DF93CDB7DEB728970FB690
:10145000F894DEBF0FBECDBF98E0E1E1F1E0DE0120
:10146000119601900D929A95E1F79091B20496171A
:1014700010F46FEF690F262F30E0220F331F41E089
:1014800050E04C0F5D1F240F351FF9016081680F7C
:10149000606840E08AEA94E028960FB6F894DEBFD0
:1014A0000FBECDBFDF91CF910C940B0A41E00E949B
:1014B0000B0A81E090E008950E94C419FB0101909D
:1014C0000020E9F73197AF01461B570BDC01ED9186
:1014D000FC910280F381E02D0994BC018AEA94E03A
:1014E0000C945E0A66E070E087EA94E00E94C6040D
:1014F00065E070E084EA94E00E94C60462E080E067
:101500000E94220A83E791E00E946D0A6AE570E07A
:1015100087EA94E00E9463046AE570E084EA94E05C
:101520000E94630464EF71E080E090E00E94180282
:1015300064EB70E087EA94E00E94630464EB70E07F
:1015400084EA94E00E9463046EE170E080E090E041
:101550000E941802E091A7048E2F90E0FC01EE0F8C
:10156000FF1FE80FF91FE258FB4F80818F7B8083BC
:10157000E091A4048E2F90E0FC01EE0FFF1FE80F16
:10158000F91FE258FB4F80818F7B80836EE170E012
:1015900080E090E00E94180262E080E00E94220A4F
:1015A0008AE791E00C946D0A0F931F93CF93DF931A
:1015B00061E080E00E94220A81E891E00E946D0AC9
:1015C00061E08CE00E94190160E08DE00E94190149
:1015D000CFEFD0E00FE411E061E08BE00E94A701C3
:1015E000CF3FD10529F461E08BE00E94190138C09A
:1015F000F8018491813309F454C0B8F4813109F4BD
:1016000042C038F4803141F1C038D10560F760E064
:10161000EBCF8032E1F18132B9F7D0938B00C093E8
:101620008A0080918000806239C0813409F447C00B
:1016300060F48233F1F1803439F7C09398008091DF
:1016400090008068809390000BC08234F1F1803F5D
:10165000D9F6C093A10004C0C7BD84B5806884BD1D
:101660006AE070E080E090E00E9418022197C834A0
:10167000D10509F0B1CF81E08093A304DF91CF9130
:101680001F910F910895C8BD84B58062E8CFD093B3
:101690008900C093880080918000806880938000DA
:1016A000DFCFC093B3008091B00080688093B0001A
:1016B000D7CFC093B4008091B0008062F7CFC093C1
:1016C0009A00809190008062BDCFC0939E0080916F
:1016D00090008860B7CF61E080E00E94220A88E82D
:1016E00091E00E946D0A61E08CE00E94190161E0C6
:1016F0008DE00E9419011092A30408958F929F9289
:10170000AF92BF92CF92DF92EF92FF920F931F930F
:10171000CF93DF93CDB7DEB7A1970FB6F894DEBFB6
:101720000FBECDBF6C01990FEE08FF08F7FE43C056
:101730006DE28AEA94E00E9459028C012227332745
:10174000A9012C193D094E095F0919A2CE01819604
:101750007C019AE0892E912CA12CB12CCA01B901EF
:10176000A50194010E944219605DF70162937F0117
:10177000211531054105510589F790E080E030974A
:1017800029F0BF018AEA94E00E945E0A800F911F4F
:10179000A1960FB6F894DEBF0FBECDBFDF91CF91FB
:1017A0001F910F91FF90EF90DF90CF90BF90AF907F
:1017B0009F908F900895A701960119A28E010F5D49
:1017C0001F4F8AE0C82ED12CE12CF12CCA01B9019F
:1017D000A70196010E944219605DF80162938F0192
:1017E000211531054105510589F790E080E03097DA
:1017F00079F2BF018AEA94E00E945E0AC9CF1F9283
:101800000F920FB60F9211242F933F938F939F93B4
:10181000AF93BF938091710390917203A091730372
:10182000B09174033091700323E0230F2D3758F5E6
:101830000196A11DB11D20937003809371039093B5
:101840007203A0937303B093740380917503909116
:101850007603A0917703B09178030196A11DB11D85
:101860008093750390937603A0937703B0937803E6
:10187000BF91AF919F918F913F912F910F900FBE8C
:101880000F901F90189526E8230F0296A11DB11DF9
:10189000D2CF1F920F920FB60F9211242F933F9326
:1018A0004F935F936F937F938F939F93AF93BF9368
:1018B000EF93FF9389EA93E00E94CF02FF91EF91AB
:1018C000BF91AF919F918F917F916F915F914F9158
:1018D0003F912F910F900FBE0F901F9018951F9260
:1018E0000F920FB60F9211242F938F939F93EF9324
:1018F000FF93E091B903F091BA038081E091BF03B7
:10190000F091C00382FD1BC090818091C2038F5F64
:101910008F732091C303821741F0E091C203F0E07E
:10192000E755FC4F958F8093C203FF91EF919F91F4
:101930008F912F910F900FBE0F901F90189580815F
:10194000F4CF1F920F920FB60F9211242F933F9353
:101950004F935F936F937F938F939F93AF93BF93B7
:10196000EF93FF938091B900887F803609F44AC0D5
:10197000F0F5883209F4A5C018F5803109F499C052
:10198000B8F4882309F4F0C0883009F492C0FF91BC
:10199000EF91BF91AF919F918F917F916F915F91E7
:1019A0004F913F912F910F900FBE0F901F90189560
:1019B000883109F486C0803251F78093BA0214C08E
:1019C000803409F49BC040F48033B9F38833F9F6CE
:1019D0008093BA0285ECAEC0803509F483C08835A7
:1019E00009F494C0883499F60E946203D0CF8839F4
:1019F00009F48AC038F5883729F050F4883611F098
:101A0000803729F683E08093E4021092B90255C032
:101A1000883809F479C0803919F0803809F0B7CFD7
:101A20008091B902803208F06FC0E091B90281E084
:101A30008E0F8093B9028091BB00F0E0E756FD4F16
:101A400080833BC0803B39F0D0F4803A09F477C002
:101A5000883A09F09CCF84E08093E40210929802C7
:101A600010929702F0E0E0E00995809197028111D1
:101A70000FC081E0809397021092770209C0803CEA
:101A800009F4A8CF883C09F4A5CF883B09F07FCFA3
:101A9000E091980281E08E0F80939802F0E0E9587F
:101AA000FD4F80818093BB009091980280919702B6
:101AB00029C08091DD028093BB0085EC8093BC003F
:101AC00066CF9091DC028091DB02981758F5E09187
:101AD000DC0281E08E0F8093DC02F0E0E554FD4FE4
:101AE0008081E9CFE091DC0281E08E0F8093DC02FF
:101AF0008091BB00F0E0E554FD4F80839091DC02C3
:101B00008091DB029817C8F285E8D8CFE091DC021B
:101B100081E08E0F8093DC028091BB00F0E0E55401
:101B2000FD4F80838091E30281115ECF81E080933D
:101B3000E20284EA8093BC001092E40228CF8091F4
:101B4000B902803230F4E091B902F0E0E756FD4F7F
:101B500010826091B90270E089E992E0F0E0E0E083
:101B600009951092B90236CF1092BA023DCF1F925A
:101B70000F920FB60F9211242F933F934F935F93C1
:101B80006F937F938F939F93AF93BF93CF93DF9385
:101B9000EF93FF9380915402C091A204D0E087FF9D
:101BA00024C01092850010928400809154028F5FAF
:101BB0008093540280915402082E000C990B8C17CC
:101BC0009D0724F4809154028C30C4F180918400EC
:101BD00090918500049680349C4908F47AC08091E5
:101BE000840090918500049676C080915402082E5E
:101BF000000C990B8C179D07C4F6E09154028E2FB0
:101C0000EE0F990BFC01EE0FFF1FE80FF91FE258D2
:101C1000FB4F808186FFC9CFE09154028E2FEE0FDB
:101C2000990BFC01EE0FFF1FE80FF91FE258FB4F65
:101C3000808160E08F730E941901B7CF20918400EA
:101C400030918500E09154028E2FEE0F990BFC012C
:101C5000EE0FFF1FE80FF91FE258FB4F81819281C1
:101C6000820F931F9093890080938800E091540223
:101C70008E2FEE0F990BFC01EE0FFF1FE80FF91FDF
:101C8000E258FB4F808186FF11C0E09154028E2FF5
:101C9000EE0F990BFC01EE0FFF1FE80FF91FE25842
:101CA000FB4F808161E08F730E941901FF91EF91DA
:101CB000DF91CF91BF91AF919F918F917F916F9164
:101CC0005F914F913F912F910F900FBE0F901F90FA
:101CD000189580E49CE990938900809388008FEFA9
:101CE00080935402E3CF1F920F920FB60F921124EC
:101CF0002F933F934F935F936F937F938F939F9314
:101D0000AF93BF93EF93FF93E091E002F091E10274
:101D1000309749F0A685B7858585968D91FF14C0CB
:101D20009C918923A1F4FF91EF91BF91AF919F9175
:101D30008F917F916F915F914F913F912F910F9074
:101D40000FBE0F901F9018959C91892361F7A3896E
:101D5000B4899C918589809589238C9386899789FC
:101D600001970000E9F70000608D718DA685B785A9
:101D7000558538E020E0CB0101970000E9F700002D
:101D8000822F90E095958795282F4C91452309F057
:101D90002068315081F7868D81FD20958091DF028A
:101DA00090E001968F7399273091DE023817A9F0E1
:101DB000A091DF02B0E0AC5EBD4F2C938093DF02B8
:101DC000828D938D01970000E9F70000A389B48903
:101DD0008C919589892B8C93A6CF868D8160868F77
:101DE000EFCF1092AC031092AB0388EE93E0A0E02B
:101DF000B0E08093AD039093AE03A093AF03B09394
:101E0000B0032FE331E03093AA032093A90325EC1C
:101E100030E03093B6032093B50324EC30E03093E8
:101E2000B8032093B70320EC30E03093BA0320933B
:101E3000B90321EC30E03093BC032093BB0322ECC8
:101E400030E03093BE032093BD0326EC30E03093A6
:101E5000C0032093BF031092C2031092C3031092D9
:101E6000C4031092C5031092490410924804809351
:101E70004A0490934B04A0934C04B0934D042FE478
:101E800031E030934704209346042FEF209352040F
:101E9000109254041092530410925E0410925D0448
:101EA0004FEF5FEFBA014093590450935A04609387
:101EB0005B0470935C04109262041092610480933E
:101EC000630490936404A0936504B09366048FE563
:101ED00091E09093600480935F04109276041092D6
:101EE0007504109278041092770410927A0410927C
:101EF000790410927C0410927B0460917D046E7FC3
:101F00006D7F60937D046695617081E0682785E050
:101F10000E94190161E085E00E94A701E4E9F1E077
:101F2000E491E0936F04E7E7F1E0E491F0E0EE0F75
:101F3000FF1FEA59FE4F859194919093710480930D
:101F4000700460E084E00E94A70180917D0481FD1F
:101F500004C061E084E00E94190184E080936B0476
:101F6000E3E9F1E0E491E0936C04E6E7F1E0E49169
:101F7000F0E0EE0FFF1FE65AFE4F259134913093AB
:101F80006E0420936D041092AD041092AC042FE601
:101F900031E03093AB042093AA0497E29093AE040F
:101FA00094E19093B3048093B4041092B5048091AB
:101FB000A2048C3060F591E0980F9093A204809376
:101FC000A70490E0FC01EE0FFF1FE80FF91FE25895
:101FD000FB4F88EB9BE0928381838091A2048C303D
:101FE000D0F491E0980F9093A2048093A40490E021
:101FF000FC01EE0FFF1FE80FF91FE258FB4F88EBC3
:102000009BE09283818381E08093A30408958FEF06
:102010008093A704E2CF8FEF8093A404F4CFCF93F3
:10202000DF9300D000D01F92CDB7DEB78091F200D1
:1020300080618EBB80E88093F2009EB39093F200A3
:1020400090916F0391114DC08093610021E0209326
:102050006100000000009091F00094609EBB8093AE
:10206000F0009EB39093F0009091F200937F946003
:102070009EBB8093F2009EB39093F200000000009C
:102080000000000000000000000000000000000050
:102090000000000000000000000000000000000040
:1020A000000000008093F20097EB9093F200000094
:1020B0000000000000000000000000000000000020
:1020C0000000000000000000000000000000000010
:1020D00000000000000020936F03809361001092C5
:1020E0006100789484B5826084BD84B5816084BDCC
:1020F00085B58B7F85BD85B5826085BD85B58160E1
:1021000085BD80916E00816080936E001092810089
:102110008091810082608093810080918100816044
:102120008093810080918000816080938000809105
:10213000B10084608093B1008091B0008260809390
:10214000B0008091B00081608093B00080917A00EF
:10215000846080937A0080917A00826080937A0014
:1021600080917A00816080937A0080917A00806803
:1021700080937A001092C100E091B903F091BA0304
:1021800082E08083E091B503F091B6031082E09184
:10219000B703F091B8038FEC80831092C103E091F4
:1021A000BD03F091BE0386E08083E091BB03F09114
:1021B000BC03808180618083E091BB03F091BC030C
:1021C000808188608083E091BB03F091BC038081B3
:1021D00080688083E091BB03F091BC0380818F7D98
:1021E000808310927A0410927904109278041092ED
:1021F000770410927604109275042DE931E0309343
:102200007C0420937B0490916B04963108F047C0C6
:1022100043EC50E050937604409375043093780477
:102220002093770420E331E030937A0420937904FB
:102230002091680084E0983048F031E09E3008F446
:1022400030E081E001C0880F3A95EAF7822B809355
:1022500068002DE630E0983050F02BE630E09E30FC
:1022600030F02CE630E0963110F030E020E0309392
:10227000730420937204292F30E0983008F06AC369
:1022800081E001C0880F9A95EAF7809374048091E9
:102290007B0490917C0401970000E9F70000809195
:1022A000790490917A04892B49F1E091E002F09150
:1022B000E10224E0EF35F20709F1309739F0A38904
:1022C000B4899C918589809589238C9380917D0424
:1022D0008E7F80937D041092DF021092DE028FE5E4
:1022E00094E09093E1028093E002E0917204F09117
:1022F0007304808190917404892B808366E070E080
:1023000087EA94E00E94C60465E070E084EA94E005
:102310000E94C60464EB70E087EA94E00E946304C4
:1023200064EB70E084EA94E00E9463041092E80297
:102330001092E7021092E6021092E50280917E0070
:102340008F7C80937E001092E40281E08093E30210
:102350001092E20261E082E10E94190161E083E1F2
:102360000E9419018091B9008E7F8093B9008091FD
:10237000B9008D7F8093B90088E48093B80085E42C
:102380008093BC001092AF048091B404823018F0A6
:1023900098E09093AF048093B20462E370E080E031
:1023A00090E00E9418026091B5048AEA94E00E94CD
:1023B000060468EE73E080E090E00E94180260E39B
:1023C0008AEA94E00E94F2090CE41DE5C801019735
:1023D000F1F760E38AEA94E00E94F209C8010197EC
:1023E000F1F760E38AEA94E00E94F20986E193E063
:1023F0000197F1F760E28AEA94E00E94F2096091A5
:10240000AF04606240E08AEA94E00E940B0A84E034
:102410008093B00440E06CE08AEA94E00E940B0AEA
:1024200040E061E08AEA94E00E940B0A04E719E2C6
:10243000C8010197F1F782E08093B10440E066E0C3
:102440008AEA94E00E940B0A40E062E08AEA94E0A3
:102450000E940B0AC8010197F1F788E08093B50448
:1024600060E08AEA94E00E94060461E08BE00E944A
:10247000A70161E08CE00E94A70161E08DE00E946D
:10248000A70160E080E00E94220A8FE891E00E94AC
:102490006D0A40E060E48AEA94E00E940B0A08E0DA
:1024A00011E020E1E22E21E0F22ED8016D918D01A4
:1024B0008AEA94E00E94560AE016F106B1F740E07D
:1024C00068E48AEA94E00E940B0A00E011E0F80157
:1024D00061918F018AEA94E00E94560AF1E0083087
:1024E0001F07A9F713E0612F82E00E94220A60E033
:1024F0008AEA94E00E94560A612F81E10E94220A32
:1025000060E08AEA94E00E94560A64EF71E080E09D
:1025100090E00E941802612F82E00E94220A60E28D
:102520008AEA94E00E94560A612F81E10E94220A01
:1025300060E28AEA94E00E94560A1150A0F660E038
:1025400080E00E94220A8FE891E00E946D0A61E01B
:1025500080E00E94220A84EA91E00E946D0A62E013
:1025600080E00E94220A89EB91E00E946D0A63E0FC
:1025700080E00E94220A8EEC91E00E946D0A63EED8
:1025800071E089EA93E00E945E0A68EF71E089EAEF
:1025900093E00E945E0A68EB7BE080E090E00E949E
:1025A00018028091FC02811144C01092EE02109238
:1025B000ED021093F1021093F2021093F3021093C4
:1025C000F4021093F5021093F60281E08093F70273
:1025D0001092F9021092F8021092F0021092EF029B
:1025E0008091500390915103892B31F48BEE92E04E
:1025F0009093510380935003E091E902F091EA0235
:10260000309721F08BEE92E0958384838BEE92E0FD
:102610009093EA028093E9021092FB021092FA0270
:102620008DE291E09093EC028093EB0281E0809345
:10263000FC02539A86E293E09093EE028093ED02BF
:102640008CE090E09093F9028093F8028091550419
:1026500090915604A0915704B0915804843C29E00D
:102660009207A105B10520F484EC99E0A0E0B0E068
:102670008093550490935604A0935704B093580444
:102680008FEF8093F10280EB8093F20280EF8093D2
:10269000F30280E48093520488EB90E00E940201F0
:1026A00081E090E090935F0380935E036BEF71E0B5
:1026B00089EA93E00E945E0A68EF71E089EA93E09C
:1026C0000E945E0A8BE3C82ED12CAA24A394B12CBD
:1026D00080912503882309F45AC0009123031091A7
:1026E0002403109322030093210380911F039091F0
:1026F000200390931E0380931D0380911B039091F0
:102700001C0390931A03809319031092250362E02F
:102710008CE00E94220A075F1F4F0331110528F445
:1027200060E38AEA94E00E9459028091210390912B
:1027300022030E947E0B80E192E00E946D0A80914C
:102740001D0390911E030996439728F460E38AEADB
:1027500094E00E94590280911D0390911E030E94F3
:102760007E0B80E192E00E946D0A809119039091A6
:102770001A030996439728F460E38AEA94E00E94DA
:1027800059028091190390911A030E947E0B809147
:10279000A304882309F4EBC080915703882309F42C
:1027A0005AC000915C0310915D03109318030093CD
:1027B000170380915A0390915B03909316038093C3
:1027C00015038091580390915903909314038093BB
:1027D00013031092570361E08CE00E94220A075F06
:1027E0001F4F0331110528F460E38AEA94E00E9448
:1027F000590280911703909118030E947E0B80E18B
:1028000092E00E946D0A809115039091160309963B
:10281000439728F460E38AEA94E00E945902809189
:102820001503909116030E947E0B80E192E00E94B6
:102830006D0A80911303909114030996439728F42D
:1028400060E38AEA94E00E94590280911303909118
:1028500014030E947E0B0E944A0200910A03109109
:102860000B0320910C0330910D03601B710B820B45
:10287000930B6B3071058105910568F081E08093C1
:102880006E030E944A0260930A0370930B038093C5
:102890000C0390930D030E944A02009106031091CD
:1028A00007032091080330910903601B710B820B11
:1028B000930B10E0683E73408105910508F45CC1FC
:1028C00080915C0390915D03892B61F480915A03A0
:1028D00090915B03892B31F48091580390915903B7
:1028E000892BB1F18091040390910503892B61F448
:1028F0008091100390911103892B31F480910E0384
:1029000090910F03892B21F1209117033091180327
:10291000121613068CF08091150390911603181669
:10292000190654F0892B09F059C080911303909136
:102930001403892B09F452C080911303909114035E
:102940001816190684F501979093140380931303C6
:1029500010E04DC09E3040F42850310981E001C0A4
:10296000880F2A95EAF791CC2E503109F7CF809144
:102970001203882309F46FCF009110031091110303
:102980001093180300931703109316030093150375
:1029900080910E0390910F0390931403809313037F
:1029A0001092120318CF809115039091160300978F
:1029B00079F4D0921603C092150321503109309357
:1029C000180320931703D0921403C0921303C0CFAF
:1029D00001979093160380931503F5CF8091A3047C
:1029E000882309F4DAC181E08093120312E0809118
:1029F000230390912403892B61F480911F0390910C
:102A00002003892B31F480911B0390911C03892BA7
:102A100029F12091210330912203121613068CF024
:102A200080911D0390911E031816190654F0892BEE
:102A300009F0D3C18091190390911A03892B09F4ED
:102A4000CCC18091190390911A03181619060CF045
:102A5000A9C1019790931A038093190361E08CE058
:102A60000E94220A809117039091180309964397B8
:102A700028F460E38AEA94E00E94590280911703E7
:102A8000909118030E947E0B80E192E00E946D0AF3
:102A900080911503909116030996439728F460E3FB
:102AA0008AEA94E00E9459028091150390911603DE
:102AB0000E947E0B80E192E00E946D0A80911303D8
:102AC000909114030996439728F460E38AEA94E00E
:102AD0000E94590280911303909114030E947E0B6F
:102AE00062E08CE00E94220A8091210390912203EF
:102AF0000996439728F460E38AEA94E00E94590219
:102B000080912103909122030E947E0B80E192E04C
:102B10000E946D0A80911D0390911E0309964397B0
:102B200028F460E38AEA94E00E94590280911D0330
:102B300090911E030E947E0B80E192E00E946D0A3C
:102B40008091190390911A030996439728F460E342
:102B50008AEA94E00E9459028091190390911A0325
:102B60000E947E0B0E944A02609306037093070343
:102B7000809308039093090310936D0380916E0373
:102B8000882309F474C16091560351E0560F5093A5
:102B9000560380915E0390915F03E6E2F3E06B5D84
:102BA000752F72957F70152F1F70272F220F270FFB
:102BB000A22FB0E0A758BC4F112319F001E00097F5
:102BC00009F400E04C9111963C91119712962C91CA
:102BD0001297002309F42EC013967F3011F4A9E751
:102BE000B3E01295107F012F0095742F709F070E90
:102BF00070E0711D4C91419F040E40E0411D470F54
:102C0000732F709F070E70E0711D11963C91119704
:102C1000319F030E30E0311D370F722F709F070E6A
:102C200070E0711D12962C91219F020E20E0211D53
:102C3000270F11244083318322835D5F3396651310
:102C4000AFCF909052048091550490915604A0917A
:102C50005704B0915804892B8A2B8B2BD9F00E94F2
:102C6000F3010091520310915303209154033091CA
:102C70005503601B710B820B930B0091550410914F
:102C80005604209157043091580460177107820749
:102C90009307C8F20E94F3016093520370935303A9
:102CA0008093540390935503E0915D04F0915E048A
:102CB000309759F04091590450915A0460915B0447
:102CC00070915C04892D0995982EE0905003F09046
:102CD0005103492C512C712C612CE114F10409F49D
:102CE00081C0F70184848091530490915404843608
:102CF000910508F41486D701ED91FC9182819381AE
:102D00009D838C8319821A821B82992091F18701FD
:102D10000A5F1F4FF0E0E0E0D8012D918D012223E2
:102D200021F112963C90332001F130E050E040E078
:102D30002F5F3F4F4F4F5F4FC301B2010E94731986
:102D40009B01AC01832D90E0B0E0A0E0BC01CD017F
:102D50006F5F7F4F8F4F9F4F0E947319A1E0B0E0CC
:102D6000AC0FBD1FAE0FBF1F8C933196E330F10542
:102D700099F609811A812B81F70145855685628173
:102D80007381C701EC81FD810995D7011C968C9256
:102D90001C971496ED90FC90A0CF81E08093570390
:102DA00011E025CE80911D0390911E03009779F4C8
:102DB000D0921E03C0921D0321503109309322038B
:102DC00020932103D0921A03C092190347CE019792
:102DD00090931E0380931D03F5CF81E0809325031C
:102DE00013E03CCE80914E0390914F038C010F5F16
:102DF0001F4F10934F0300934E034997B4F10E9465
:102E00004A0240904A0350904B0360904C037090EC
:102E10004D039B01AC01241935094609570921F4DA
:102E200021E030E040E050E0E8EEF3E00E9FB0013A
:102E30000F9F700D1E9F700D1124072E000C880B24
:102E4000990B0E944219309354042093530410921A
:102E50004F0310924E030E944A0260934A037093FC
:102E60004B0380934C0390934D0310926E038FE5B8
:102E700094E00E94A105892BF1F08FE594E00E9477
:102E8000B90580936C03682F89EA93E00E94590288
:102E900020916C0380ED820F8A3008F0C5C08091CC
:102EA0001001833509F4AAC0A4F5883409F44EC092
:102EB0008D3409F48DC080916C03833409F44EC1C4
:102EC0000CF0E7C0813409F4FFC0823409F471C109
:102ED00080916D03823009F479C1833009F481C196
:102EE000813051F488E790E00E940201B0925F03C4
:102EF000A0925E030E94D40A80E090E0892B09F43E
:102F0000E7CB0E94BB02882309F4E2CB0E940000B9
:102F1000DFCB8D3689F1833709F444C0883659F602
:102F200080916A0390916B033AE0389FA001399F2A
:102F3000500D1124022E000C330B20533109240FA5
:102F4000351F30936B0320936A03B5CF80916803DC
:102F5000909169033AE0389FA001399F500D1124E8
:102F6000022E000C330B20533109240F351F3093F0
:102F70006903209368039FCF809166039091670354
:102F80003AE0389FA001399F500D1124022E000C09
:102F9000330B20533109240F351F309367032093DF
:102FA000660389CF80916403909165033AE0389F6E
:102FB000A001399F500D1124022E000C330B205319
:102FC0003109240F351F309365032093640373CFB9
:102FD00080916203909163033AE0389FA001399F8A
:102FE000500D1124022E000C330B20533109240FF5
:102FF000351F30936303209362035DCF40916003DC
:10300000509161033AE0349FC001359F900D112427
:10301000022E000C330B20533109820F931F909323
:1030200061038093600347CF822F8F7D81548A3163
:1030300008F041CF20931001233531F154F42834A6
:10304000A1F02D3409F037CF109263031092620380
:1030500032CF2D3679F0233791F0283609F02BCF77
:1030600010926B0310926A0326CF1092690310929C
:10307000680321CF10926703109266031CCF109251
:1030800065031092640317CF1092610310926003DE
:1030900012CF843409F473C0853409F019CF21E0CC
:1030A00030E050E040E070E060E090E080E00E94BE
:1030B000DA0588EB90E00E940201B0925F03A092D3
:1030C0005E030E946B0B47C04091640350916503FF
:1030D000809166039091670320916A0330916B039E
:1030E000722F632F2F5F3F4F8C33910514F0CC97D5
:1030F000F7CF70935C0360935D03382F292F0196FF
:103100004C3351051CF04C535109F7CF30935A03FF
:1031100020935B03509359034093580381E08093BD
:103120005703409160035091610360916203709175
:10313000630321E030E080916803909169030E946D
:10314000DA050E94D40A88E790E00E940201B0925A
:103150005F03A0925E0310926C03BACE40916403A9
:1031600050916503609166037091670322E030E03F
:1031700080916A0390916B030E94DA05ECCF109264
:103180005D0310925C0310925B0310925A0310923D
:1031900059031092580381E08093570388EB90E025
:1031A0000E940201B0925F03A0925E030E94D40AC3
:1031B000D2CF22E030E050E040E070E060E090E00C
:1031C00080E00E94DA050E94720AC5CF88EF90E085
:1031D0000E94020110925F0310925E030E946B0B2B
:1031E0008BCE0E94720A88CE8FE591E090936004A6
:1031F00080935F048091E0029091E1028F559440AA
:1032000071F4E0917204F0917304908180917404E0
:103210008095892380831092E1021092E002089544
:10322000052E97FB1EF400940E94271957FD07D026
:103230000E94421907FC03D04EF40C9427195095B4
:103240004095309521953F4F4F4F5F4F0895909592
:103250008095709561957F4F8F4F9F4F08950E9485
:103260006419A59F900DB49F900DA49F800D911D92
:1032700011240895B7FF0C942F190E942F19821B57
:10328000930B0895A1E21A2EAA1BBB1BFD010DC0D2
:10329000AA1FBB1FEE1FFF1FA217B307E407F50706
:1032A00020F0A21BB30BE40BF50B661F771F881FE2
:1032B000991F1A9469F760957095809590959B0178
:1032C000AC01BD01CF010895A29FB001B39FC00121
:1032D000A39F700D811D1124911DB29F700D811D42
:1032E0001124911D0895DB018F939F930E942F1944
:1032F000BF91AF91A29F800D911DA39F900DB29F92
:10330000900D11240895991B79E004C0991F961718
:1033100008F0961B881F7A95C9F78095089597FB4A
:10332000072E16F4009407D077FD09D00E94B0193B
:1033300007FC05D03EF4909581959F4F08957095B8
:1033400061957F4F0895EE0FFF1F0590F491E02DDA
:1033500009940E946419B7FF0895821B930B089586
:10336000AA1BBB1B51E107C0AA1FBB1FA617B707AB
:1033700010F0A61BB70B881F991F5A95A9F78095C7
:103380009095BC01CD01089581E090E0F8940C94F3
:10339000C91910E0C7EDD0E004C0FE010E94A319D6
:0C33A0002196C83DD107C9F7F894FFCF73
:1033AC00000A1511110A041B040A1111110A041B3D
:1033BC00410000400014005400000000005C0A5C56
:1033CC000A5C0AD109CD09CA090000000087092B43
:1033DC00092909D109CD095602670600000000F53C
:1033EC00026002AF028D02A102420300000000D76E
:1033FC0003AA03A303940386038503000000003A89
:10340C00056002A105B905220585030000000056E0
:10341C000A6002464545443D4F00464545443D58EB
:10342C000050554D503D4F0050554D503D58002AC1
:10343C002A2A2A20415155412D504F4E4943202ACA
:10344C002A2A2A0050554D503D587C54494D453D33
:10345C0030303A30303A303000464545443D587CA7
:10346C0054494D453D30303A30303A3030002A2AFC
:10347C002A2A20505952414D414B45525A202A2A52
:10348C002A2A00496E697469616C697A696E6720D1
:10349C004C4344202E2E2E000D0A00496E6974698F
:1034AC00616C697A696E6720524742202E2E2E007D
:0234BC003A00D4
:00000001FF
