:100000000C94A7000C94C4000C94C4000C94C4007D
:100010000C94C4000C94C4000C94C4000C94C40050
:100020000C94C4000C94C4000C94C4000C94C40040
:100030000C94C4000C94C4000C94C4000C94C40030
:100040000C94C6000C94C4000C94C4000C94C4001E
:100050000C94C4000C94C4000C94C4000C94C40010
:100060000C94C4000C94C4000C9400000C94000088
:100070000C9400000C94000042024502420245022A
:100080006002600260026002600260026002600260
:10009000600260026002600238023C0260023802C4
:1000A0003C02600260026002600260026002600264
:1000B0006002600260026002600249024D02490271
:1000C0004D02600260026002600260026002600233
:1000D0006002600260026002530257025B02530238
:1000E0005702530200000000240027002A002D00C0
:1000F00000000000250028002B002E000000003228
:10010000F01110000020213100000000000000006C
:1001100000000404040404040404020202020202B3
:100120000303030303030505050505050502020195
:10013000020408102040800102040810200102047B
:1001400008102002080104102040408010011124F2
:100150001FBECFEFD8E0DEBFCDBF21E0A0E0B1E011
:1001600001C01D92AA30B207E1F710E0C7EAD0E063
:1001700004C02197FE010E948902C63AD107C9F73F
:100180000E9417010C948F020C9400001F920F9292
:100190000FB60F9211242F933F938F939F93AF939A
:1001A000BF938091060190910701A0910801B09141
:1001B00009013091050123E0230F2D3720F401962A
:1001C000A11DB11D05C026E8230F0296A11DB11D7A
:1001D000209305018093060190930701A0930801E5
:1001E000B09309018091010190910201A091030156
:1001F000B09104010196A11DB11D8093010190935E
:100200000201A0930301B0930401BF91AF919F91AC
:100210008F913F912F910F900FBE0F901F901895C7
:1002200090E896BF8CE486BF96BF86BF0895809104
:10023000F20080618EBB80E88093F2009EB39093C1
:10024000F2009091000191114DC08093610021E076
:1002500020936100000000009091F00094609EBB2C
:100260008093F0009EB39093F0009091F200937F02
:1002700094609EBB8093F2009EB39093F2000000C6
:10028000000000000000000000000000000000006E
:10029000000000000000000000000000000000005E
:1002A0000000000000008093F20097EB9093F200B2
:1002B000000000000000000000000000000000003E
:1002C000000000000000000000000000000000002E
:1002D00000000000000000002093000180936100F6
:1002E00010926100789484B5826084BD84B5816089
:1002F00084BD85B58B7F85BD85B5826085BD85B59F
:10030000816085BD80916E00816080936E00109247
:1003100081008091810082608093810080918100C2
:100320008160809381008091800081608093800053
:100330008091B10084608093B1008091B0008260B0
:100340008093B0008091B00081608093B000809174
:100350007A00846080937A0080917A008260809332
:100360007A0080917A00816080937A0080917A008F
:10037000806880937A001092C100CCE3D1E0FE0146
:1003800044912FE131E0F9018491882399F090E0C4
:10039000880F991FFC01EC51FF4FA591B49180513A
:1003A0009F4FFC01659174918FB7F8949C91492BF4
:1003B0004C938FBFE0E0F0E09EEFE92E93E0F92E42
:1003C00044E0D42E52E0C52ECF0106B606FE0AC088
:1003D00046B74370B70102C0660F771F4A95E2F730
:1003E000AB0102C040E050E0E417F50750F5EE3FE6
:1003F00043E0F40750F0CF01B7010E947502162FB9
:10040000110F110F00E0800F911F06B606FE0AC003
:1004100046B74370B70102C0660F771F4A95E2F7EF
:10042000AB0102C040E050E08417950740F44FB79D
:1004300081BD92BD10BCF894DFBACFBA4FBF3196E0
:10044000C3CFFE01C491F9012491222309F446C0CF
:10045000E9E0F1E0E491EE2399F18E2F90E0FC01C8
:100460007097E633F10560F5E45CFF4F0C94890268
:10047000809180008F7703C0809180008F7D809372
:1004800080001EC084B58F7702C084B58F7D84BD87
:1004900017C08091B0008F7703C08091B0008F7D2E
:1004A0008093B0000DC0809190008F7707C080913D
:1004B00090008F7D03C080919000877F8093900093
:1004C000E22FF0E0EE0FFF1FE051FF4FA591B49136
:1004D0008FB7F8949C91C92BCC938FBFC0E0D0E02C
:1004E0002097F1F30E940000FBCFAA1BBB1B51E138
:1004F00007C0AA1FBB1FA617B70710F0A61BB70B94
:10050000881F991F5A95A9F780959095BC01CD0138
:100510000895EE0FFF1F0590F491E02D0994F894D3
:02052000FFCF0B
:00000001FF
