:100000000C9479000C94A1000C94A1000C94A10014
:100010000C94A1000C94A1000C94A1000C94170F57
:100020000C94A1000C94A1000C94A1000C94E1107C
:100030000C94A1000C94A1000C94A1000C94A100BC
:100040000C94CD0E0C94A1000C94990F0C94730F8A
:100050000C94A1000C94A1000C94A1000C94A1009C
:100060000C94CB0F0C94A1000C9400000C94000095
:100070000C9400000C9400000000000024002700F5
:100080002A002D00000000002300260029002C007B
:1000900000000032F01110000020213100000000AB
:1000A000000000000000010204081020408001024E
:1000B0000408102001020408102002080104102086
:1000C00040408000000000250028002B002E000486
:1000D00004040404040404020202020202030303EF
:1000E00003030305050505050505020202009D1130
:1000F000B81611241FBECFEFD8E0DEBFCDBF12E08F
:10010000A0E0B1E0E0E2F3E302C005900D92AC3E66
:10011000B107D9F725E0ACEEB2E001C01D92AB31DA
:10012000B207E1F710E0C8E7D0E004C02197FE0174
:100130000E948217C737D107C9F70E947D120C941D
:1001400083190C94000096E0899FD0011124A057D8
:10015000BB4F90967C936E935F9791E091969C93A2
:100160009197E091FD04F091FE049091FC04992395
:1001700039F0309751F0811108C08091AC04099496
:10018000309719F05C968C91FACF0895CF92DF9258
:10019000EF92FF920F931F9396E0899FF001112435
:1001A000E057FB4F11A2278D30A12130310551F1CD
:1001B00078F02230310509F451C02330310509F4BB
:1001C00052C01F910F91FF90EF90DF90CF90089554
:1001D0006623B9F361E070E00E94A3002FB7F894A2
:1001E0008091910390919203A0919303B091940315
:1001F0002FBF8093E8049093E904A093EA04B0939E
:10020000EB04DFCF9FB7F894C0909103D090920396
:10021000E0909303F09094039FBF0091E804109145
:10022000E9042091EA043091EB04C01AD10AE20AF1
:10023000F30A0091FA041091FB0430E020E00C1561
:100240001D052E053F0550F462E070E01F910F91EF
:10025000FF90EF90DF90CF900C94A3006111B1CF8D
:1002600063E070E0F3CF70E060E0F0CF089580517C
:10027000863308F05CC0E82FF0E0EF5BFE4F0C9493
:1002800082178101850181018501970197019701FD
:10029000970197019701970197019701970197019E
:1002A000970177017D01970177017D019701970102
:1002B000970197019701970197019701970197017E
:1002C0009701970188018E0188018E01970197019E
:1002D000970197019701970197019701970197015E
:1002E0009701920198019C019201980192018091DD
:1002F00080008F77809380000895809180008F7DAB
:10030000F9CF84B58F7784BD089584B58F7DFBCFF9
:100310008091B0008F778093B00008958091B000F5
:100320008F7DF9CF809190008F7780939000089512
:10033000809190008F7DF9CF80919000877FF5CFDD
:10034000CF93DF9390E0FC01EA55FF4FC491FC018D
:10035000E153FF4FD491DD23F1F0FC01E057FF4F53
:10036000E491EE2339F0F0E0E057FF4F84918111E2
:100370000E943701ED2FF0E0EE0FFF1FEC57FF4F0B
:10038000A591B491EC91CE2381E090E009F480E056
:10039000DF91CF91089580E090E0FACF862F0C9402
:1003A000A0011F93CF93DF9390E0FC01EA55FF4F2C
:1003B000D491FC01E153FF4FC491CC23C9F0162F17
:1003C00080579F4FFC01849181110E943701EC2FCF
:1003D000F0E0EE0FFF1FED53FF4FA591B4918FB7E3
:1003E000F894EC91111108C0D095DE23DC938FBFF7
:1003F000DF91CF911F910895DE2BF8CF862F642FC8
:100400000C94D101CF93DF93282F30E0F901EA5506
:10041000FF4F949121533F4FF9012491633029F507
:10042000843039F53091A0003C603093A000222345
:10043000C9F030E0220F331FF901E858FF4FA591B2
:10044000B491F901ED53FF4FC591D491611126C0CC
:100450002FB7F8948C91909589238C938881982359
:1004600098832FBFDF91CF910895843011F433E04A
:10047000DCCF3AEE380F323020F43FEF34BF34BFD8
:10048000D6CF8A31A1F63091F00032603EBB30E821
:100490003093F0003EB33093F000C9CF623051F496
:1004A0002FB7F8943C91892F809583238C93E88112
:1004B0009E2BD6CF843011F46130A1F68FB7F8941B
:1004C000EC919E2B9C938FBFCDCF1F93CF93DF9347
:1004D000EC01162F88818C3008F04EC061E0812F2E
:1004E0000E9402028881282F30E0F901EE0FFF1FE1
:1004F000E20FF31FE555FC4F1F736081607C612B99
:10050000608319821A822CE0622F0E946217829FF8
:10051000B001112430E020E0AB01420F531FFA017B
:10052000EE0FFF1FE40FF51FE555FC4F908196FD80
:1005300016C02F5F3F4F2C30310571F781110FC06E
:100540001092800082E080938100109285001092CA
:100550008400B19A80916F00826080936F00E8817F
:100560008E2F90E0FC01EE0FFF1FE80FF91FE555FD
:10057000FC4F8081806480838881DF91CF911F91BF
:1005800008954F925F926F927F928F929F92AF9257
:10059000BF92CF92DF92EF92FF920F931F93CF9370
:1005A0008C014A015B01809122018B3099F08F3FD1
:1005B00009F45CC0CF911F910F91FF90EF90DF90F5
:1005C000CF90BF90AF909F908F907F906F905F90F3
:1005D0004F900895ECEEF0E0C491C7FDEBCF61E0E1
:1005E0008BE00E9402022801712C612CCC23F1F0D7
:1005F000980150E040E0C23009F0C8C028013A013B
:1006000060E970ED83E090E00E94C81669017A010C
:1006100081E0C81AD108E108F10893E08FEFC8160D
:10062000D104E104F10409F00CF423C168E478EE8C
:1006300081E090E0A30192010E94C81669017A014D
:1006400081E0C81AD108E108F10894E0C11111C194
:1006500085B5887F836085BD2FEF3FEFA9018114A9
:100660009104A104B10409F418C1ADC08BE08093DA
:100670002201ECEEF0E0C491CF3F09F49BCFC130F2
:1006800039F168F0C23009F441C0C33009F460C0E8
:10069000C7FD90CF61E08BE00E940202A9CF14BC9D
:1006A00015BC84B5826084BD85B5816085BDEAEDE9
:1006B000F0E0E491F0E0EE0FFF1FED53FF4F859166
:1006C0009491E1EBF0E0E491E0939A03C0E087CFEE
:1006D0001092800010928100809181008860809348
:1006E000810080918100816080938100EAEDF0E0DB
:1006F000E491F0E0EE0FFF1FED53FF4F85919491D1
:10070000E1EBF0E0E491E093990369CF1092B0003F
:100710001092B1008091B00082608093B00080910F
:10072000B10081608093B100EAEDF0E0E491F0E087
:10073000EE0FFF1FED53FF4F859194919093980317
:1007400080939703E1EBF0E0E491E093960347CFC9
:100750001092900010929100809191008860809397
:10076000910080919100816080939100EAEDF0E02A
:10077000E491F0E0EE0FFF1FED53FF4F8591949150
:10078000E1EBF0E0E491E093950329CF60E072E1C2
:100790008AE790E00E94C81669017A0181E0C81AD0
:1007A000D108E108F108C130E1F480918100887F2F
:1007B0008160809381002FEF3FEFA90181149104A4
:1007C000A104B104A1F1D801AA0FBB1FA501940196
:1007D0000E94E71628EE33E040E050E00E94311717
:1007E00057C0C33009F04BC080919100887F816071
:1007F000809391002FEF3FEFA90181149104A10490
:10080000B10409F7C092980020939B0330939C0396
:1008100040939D0350939E0380917100826080936A
:100820007100C8CEC230A9F0C33061F3C3CED092FC
:100830008900C09288002093A3033093A4034093BF
:10084000A5035093A60380916F00826080936F0090
:10085000B1CEC092B30020939F033093A003409386
:10086000A1035093A2038091700082608093700076
:10087000A1CE8091B100887F892B8093B1002FEFAA
:100880003FEFA90181149104A104B10409F09BCFA9
:10089000C13069F23CF6C1118DCEC7BC2093A703CD
:1008A0003093A8034093A9035093AA0380916E004C
:1008B000826080936E007ECE862F642F0C9402029D
:1008C0006F927F928F929F92AF92BF92CF92DF9260
:1008D000EF92FF920F931F93CF93DF9381E080936A
:1008E000FC048FB7F894409191035091920360916A
:1008F0009303709194038FBF8091EC049091ED0469
:10090000A091EE04B091EF04481B590B6A0B7B0BCE
:100910008091F8049091F904B0E0A0E08417950765
:10092000A607B70708F01DC1C0E08091F604C817FC
:1009300060F4E091F204F091F304EC0FF11D62E039
:1009400080810E940202CF5FF0CF712C812C912C0C
:10095000540183948091F704781608F05FC0072D46
:1009600010E0E091F404F091F504E00FF11F61E074
:1009700080810E940202E091F404F091F504E00FFE
:10098000F11F60E080810E94D101D501C401072CD4
:1009900004C0880F991FAA1FBB1F0A94D2F76C01CD
:1009A0007C01E094F094612C8091F6046816F8F4D0
:1009B000C62DD0E0E091F204F091F304EC0FFD1F9E
:1009C00080810E94A0012496CC0FDD1FC057DB4F11
:1009D000892B41F4888199818C299D299983888369
:1009E0006394E2CF888199818E219F21F7CFE09196
:1009F000F404F091F504E00FF11F61E080810E94A2
:100A0000D1018091F4049091F504080F191F60E062
:100A1000F80180810E94020273949CCFC0E9D4E067
:100A2000FE018FEF9FEF278D30A1232B21F4148E31
:100A3000968F858F11A2369624E0EC3CF20799F749
:100A4000F12C96E0D92E8091F604F81608F050C0EB
:100A5000E12C0F2D10E0000F111F08561B4F2091A5
:100A6000F704E21608F042C0F801608171810E2C93
:100A700002C0769567950A94E2F7F29E90011124E0
:100A80002E0D311DE0E9F4E080E0458D568D2417F0
:100A9000350709F46AC08F5F36968A30B1F760FF78
:100AA00023C0E0E9F4E090E080E0448D411117C0FC
:100AB000E091F004F091F104E20FF31F4081D89E21
:100AC000F001D99EF00D1124E057FB4F448F368F73
:100AD000258F10A2178E61E00E94C60005C0019606
:100AE00036968A30910509F7E394B9CFF394ABCFEA
:100AF00080E099A19111892F2696F4E0CC3CDF0784
:100B0000C1F79FB7F894409191035091920360917F
:100B10009303709194039FBF4093EC045093ED04B2
:100B20006093EE047093EF048823D9F08091B104B0
:100B30008823B9F08091AF049091B004019789F4B3
:100B40008091AC04DF91CF911F910F91FF90EF90B6
:100B5000DF90CF90BF90AF909F908F907F906F90DD
:100B600008951092FC0480E0EDCF6170B5CF3FB7DF
:100B7000F89480918C0390918D03A0918E03B09195
:100B80008F0326B5A89B05C02F3F19F00196A11D24
:100B9000B11D3FBFBA2FA92F982F8827BC01CD01C7
:100BA000620F711D811D911D42E0660F771F881F26
:100BB000991F4A95D1F708958F929F92AF92BF9255
:100BC000CF92DF92EF92FF924B015C010E94B7053A
:100BD0006B017C010E94B7056C197D098E099F0984
:100BE000683E734081059105A8F321E0821A9108BF
:100BF000A108B10888EEC80E83E0D81EE11CF11CE4
:100C000081149104A104B10429F7FF90EF90DF90C3
:100C1000CF90BF90AF909F908F90089590912201B8
:100C200089130DC0ECEEF0E0E4919FEF9093220168
:100C3000E13059F038F0E23071F0E330E9F060E093
:100C40000C94D10110926E00FACF90916F009D7FAD
:100C500090936F00F4CF909170009D7F90937000FF
:100C600091E09093B0009091B100987F9460909340
:100C7000B1001092B300E3CF909171009D7F9093EB
:100C80007100DDCFAF92BF92CF92DF92EF92FF92D1
:100C90000F931F93CF93DF936C017B018B01040FA4
:100CA000151FEB015E01AE18BF08C017D10759F040
:100CB0006991D601ED91FC910190F081E02DC60182
:100CC0000995892B79F7C501DF91CF911F910F917C
:100CD000FF90EF90DF90CF90BF90AF900895FC0110
:100CE000918D828D981761F0A28DAE0FBF2FB11D2F
:100CF0005D968C91928D9F5F9F73928F90E0089587
:100D00008FEF9FEF0895FC01918D828D981731F040
:100D1000828DE80FF11D858D90E008958FEF9FEF94
:100D20000895FC01918D228D892F90E0805C9F4F6A
:100D3000821B91098F73992708958FEC93E00E948D
:100D4000910621E0892B09F420E0822F089580E0AC
:100D500090E0892B29F00E949D0681110C940000DF
:100D60000895CF93DF93FC01A48DC689D789A80F7E
:100D7000B92FB11DA35ABF4F8C918883848D90E009
:100D800001968F739927848FA089B1898C91837084
:100D900080648C93938D848D981306C00288F389A8
:100DA000E02D80818F7D8083DF91CF910895EF9238
:100DB000FF920F931F93CF93DF93EC0181E0888F15
:100DC0009B8D8C8D98131AC0E889F989808185FFE5
:100DD00015C09FB7F894EE89FF896083E889F98987
:100DE00080818370806480839FBF81E090E0DF9189
:100DF000CF911F910F91FF90EF900895F62E0B8DDC
:100E000010E00F5F1F4F0F731127E02E8C8D8E1196
:100E10000CC00FB607FCFACFE889F989808185FFFD
:100E2000F5CFCE010E94B106F1CFEB8DEC0FFD2F77
:100E3000F11DE35AFF4FF0829FB7F8940B8FEA89B8
:100E4000FB8980818062CFCFCF93DF93EC01888DC7
:100E50008823B9F0AA89BB89E889F9898C9185FD35
:100E600003C0808186FD0DC00FB607FCF7CF8C91C3
:100E700085FFF2CF808185FFEDCFCE010E94B106C4
:100E8000E9CFDF91CF91089585ED8093BC008091EB
:100E9000BC0084FDFCCF10927D030895613298F46C
:100EA00020917D03243089F460933403282FA4E13A
:100EB000B3E0FC018E2F821B861710F080E00895AE
:100EC00081918D93F7CF81E0089582E00895089590
:100ED00081E090E03091810320918003321710F47B
:100EE00090E080E09195819591090895809181032A
:100EF00090918003891730F48F5F8093810390E095
:100F000080E008958FEF9FEF089580918003909186
:100F10008103891B990B0895CF92DF92EF92FF9284
:100F20000F931F93CF93DF937C01CB018A01209114
:100F30001303222389F0EB016B01C40ED51ECC15DF
:100F4000DD0569F06991D701ED91FC910190F08187
:100F5000E02DC7010995F3CF642F0E944E07C80109
:100F6000DF91CF911F910F91FF90EF90DF90CF9085
:100F70000895CF93DF931F92CDB7DEB76983209199
:100F800013032223F9F020917E03203258F021E050
:100F900030E0FC013383228390E080E00F90DF910A
:100FA000CF91089580917F03E82FF0E0ED50FD4F41
:100FB000998190838F5F80937F0380937E0381E08C
:100FC00090E0ECCF61E0CE0101960E944E07F7CF92
:100FD000CF93FC01C48121E020931303C093F2025C
:100FE00010927F0310927E038385682B8CE694E039
:100FF0000E94B90790917E039132D8F580917D03CC
:101000008111FCCF82E080937D0381E080937C039B
:101010008FEF809357031092790390937803A3EF97
:10102000B2E0E8E5F3E080E098132BC010927A0379
:1010300080917A03CC0FC82BC0937A0380917B03F5
:10104000813031F410927B0380917A038093BB004E
:1010500085EE8093BC0080917D038230E1F3809126
:1010600057038F3F31F080915703803211F0809108
:10107000570310927F0310927E0310921303CF91B7
:1010800008952D9121938F5FCFCF8F929F92AF9232
:10109000BF92FF920F931F93CF93DF93FC01F080D9
:1010A0008BE08F1508F44AC0828108E512E0081B26
:1010B000110987FD1395000F111F000F111F81816A
:1010C000C8E8D0E0C81BD10987FDD395CC0FDD1F40
:1010D000CC0FDD1F4E010D2E000CAA08BB08980195
:1010E000012E000C440B550B281939094A095B09DC
:1010F000DB010E94F21624EB30E040E050E00E9459
:10110000C816820E931EA41EB51E8C169D062CF0CA
:10111000E801801691060CF4E4012297CC0FDD1F44
:101120002FB7F8948F2D90E0FC01EE0FFF1FE80F12
:10113000F91FE555FC4FD283C1832FBFDF91CF91BB
:101140001F910F91FF90BF90AF909F908F90089547
:10115000FC019091F1029C3098F481E0890F80931A
:10116000F1029083892F90E0FC01EE0FFF1FE80F42
:10117000F91FE555FC4F88EB9BE09283818308952E
:101180008FEF808308958E3F43E0940750F06EEF19
:1011900073E00E946E17362F330F330F20E0820F5B
:1011A000931F06B606FE13C046B743702EEF33E01A
:1011B00002C0220F331F4A95E2F78217930750F4BB
:1011C00081BD92BDF89A0000000080B5089530E01E
:1011D00020E0F3CF80E00895E62F8E3F43E09407B0
:1011E00050F06EEF73E00E946E17362F330F330FFF
:1011F00020E0820F931F06B606FE17C046B7437065
:101200002EEF33E002C0220F331F4A95E2F7821718
:10121000930750F42FB781BD92BDE0BDF89484E0F0
:101220008FBB82E08FBB2FBF089530E020E0EFCF6F
:101230000F931F93CF938C01C62F0E94E8076C2F4A
:101240006460C8010E94E8076C2F6B7FC8010E9490
:10125000E80783E091E00197F1F7CF911F910F919B
:1012600008950F931F93CF93DF938C01D62FC42F34
:10127000607F642B0E94180980E1D89FB00111247F
:101280006C2BC801DF91CF911F910F910C9418091D
:10129000CF93DF93CDB7DEB728970FB6F894DEBFB4
:1012A0000FBECDBF98E0ECE3F1E0DE0111960190B6
:1012B0000D929A95E1F790910705961710F46FEF4C
:1012C000690F262F30E0220F331F41E050E04C0F12
:1012D0005D1F240F351FF9016081680F606840E0D1
:1012E0008FEF94E028960FB6F894DEBF0FBECDBF07
:1012F000DF91CF910C94310940E061E08FEF94E0F1
:101300000E94310984E799E20197F1F7089541E0DD
:101310000E94310981E090E008950F931F93CF93CD
:10132000DF938B0198E0899FB0011124606440E055
:101330008FEF94E00E943109E801085F1F4F699127
:101340008FEF94E00E948709C017D107C1F7DF91A2
:10135000CF911F910F910895FB0101900020E9F7B3
:101360003197AF01461B570BDC01ED91FC910280D8
:10137000F381E02D09940C94AC090E947C0963E090
:101380008EE00E94480966E771E08FEF94E00E94CA
:10139000BB0960E088E00E9448096DE771E08FEFCB
:1013A00094E00E94BB0960E08BE00E9448096DE771
:1013B00071E08FEF94E00E94BB0961E089E00E9438
:1013C000480961E08FEF94E00E94870961E08AE0BC
:1013D0000E94480962E08FEF94E00E94870962E072
:1013E00087E00E94480960E08FEF94E00E9487093F
:1013F00062E08CE00E94480960E08FEF94E00E9478
:10140000870963E089E00E94480960E08FEF94E07B
:101410000E94870963E08AE00E94480960E08FEF3C
:1014200094E00E94870964EF71E080E090E00C9402
:10143000DC058F929F92AF92BF92CF92DF92EF9294
:10144000FF92CF93DF93CDB7DEB7A1970FB6F89495
:10145000DEBF0FBECDBF6FE771E08FEC93E00E945F
:10146000BB098DE00E94A0016C01990FEE08FF08F6
:10147000F7FE87C06DE28FEC93E00E94D70622272B
:101480003327A9012C193D094E095F0919A2CE0184
:1014900081967C019AE0892E912CA12CB12CCA0155
:1014A000B901A50194010E943117605DF7016293B3
:1014B0007F01211531054105510589F7E114F1043A
:1014C00029F0B7018FEC93E00E94AC0967E871E066
:1014D0008FEC93E00E94AC098DE00E94A0019093F4
:1014E0000501809304018091040190910501019709
:1014F00009F062C08091020190910301892B61F390
:101500000E947C0960E080E00E9448096AE871E07E
:101510008FEF94E00E94BB0962E080E00E944809DE
:1015200064E971E08FEF94E00E94BB0981E090E0F4
:101530002091200130912101232B11F090E080E0D7
:10154000909387038093860381E090E020910001CF
:1015500030910101232B11F090E080E09093EF0295
:101560008093EE0210928903109288031092030177
:101570001092020161E070E080E090E00E94DC05E2
:10158000ABCFA701960119A2CE0181967C018AE01A
:10159000882E912CA12CB12CCA01B901A50194016E
:1015A0000E943117605DF70162937F0121153105BB
:1015B0004105510589F782CF81E090E090930301C6
:1015C00080930201A1960FB6F894DEBF0FBECDBF87
:1015D000DF91CF91FF90EF90DF90CF90BF90AF90D1
:1015E0009F908F900895CF93DF93EC0180918404B6
:1015F000909185040097E9F0688179816115710502
:10160000B1F040918604509187042C813D814217AE
:10161000530768F00E947C198C819D819093890406
:10162000809388041D821C82DF91CF9108950E94CF
:1016300024188881998190938504809384048A81F9
:101640009B8190938704809386048C819D819093E5
:10165000890480938804198218821B821A82E2CF3F
:10166000FC01808191810C9424180F931F93CF93D8
:10167000DF93EC0188819981009759F02A813B81A1
:101680002617370730F081E0DF91CF911F910F913E
:1016900008958B016F5F7F4F0E94AD18009759F03E
:1016A000998388831B830A832C813D81232B59F7DF
:1016B000FC011082E8CF80E0E7CFEF92FF920F931A
:1016C0001F93CF93DF9300D0CDB7DEB78C01698332
:1016D0001A82FC01E480F580FFEFEF1AFF0AB701E0
:1016E0000E94350B882381F0F801208131818481AB
:1016F0009581BE016F5F7F4F820F931F0E947C19FF
:10170000F801F582E48281E00F900F90DF91CF9194
:101710001F910F91FF90EF900895CF930E94600466
:10172000C82F882309F443C0682F8FEC93E00E94F0
:10173000D70667E871E08FEC93E00E94AC0980ED7A
:101740008C0F8A3018F56C2F8EE794E00E945D0BA9
:101750006AE288E794E00E945D0B48EC50E060E0AC
:1017600070E088E592E00E94C10261E080E00E94A2
:10177000480940917C0450917D04609178047091F7
:1017800079048FEF94E0CF910C944206CA3269F746
:1017900048EC50E060E070E088E592E00E94C10211
:1017A00081E090E09093ED028093EC02DECFCF9148
:1017B0000895EF92FF920F931F93CF93DF93EC0165
:1017C0007B018A01BA010E94350B28813981811180
:1017D00014C02115310519F0C9010E94241819827D
:1017E00018821D821C821B821A82CE01DF91CF914A
:1017F0001F910F91FF90EF9008951D830C83B70107
:10180000C9010E947C19F1CF50E040E069E871E025
:101810000C94D90BFC011182108213821282158262
:101820001482FB0101900020E9F73197AF01461BBC
:10183000570B0C94D90B6F927F928F929F92AF921D
:10184000BF92CF92DF92EF92FF920F931F93CF93AD
:10185000DF9300D000D000D0CDB7DEB75C016DB60D
:101860007EB690E080E00E94C308082F10E0C80117
:1018700001962DB73EB7281B390B0FB6F8943EBF23
:101880000FBE2DBF8DB79EB701967C014C01D12CA8
:10189000C12CC016D10654F49FEFC91AD90AC6014B
:1018A0000E94C308F40181934F01F3CFF701E00FC9
:1018B000F11F1082B701CE0101960E940A0C90E040
:1018C00080E02D813E818217930728F4E981FA8117
:1018D000309709F04CC010929003E0E9F3E04081AA
:1018E0004A3051F48217930738F4E981FA81E80FFE
:1018F000F91F9E838D8310820196081719070CF734
:1019000067EA71E08FEC93E00E94BB094D815E8134
:1019100069817A818FEC93E00E94420667E871E06A
:101920008FEC93E00E94AC09B701C5010E940A0C3C
:10193000CE0101960E94300BC5010FB6F8947EBE11
:101940000FBE6DBE26960FB6F894DEBF0FBECDBF9C
:10195000DF91CF911F910F91FF90EF90DF90CF908B
:10196000BF90AF909F908F907F906F900895E80FF9
:10197000F91FB5CFEF92FF920F931F93CF93DF9391
:1019800000D000D000D0CDB7DEB78091000190919B
:1019900001012091EE023091EF022817390729F05A
:1019A00081309105F1F00297B9F10E946004803313
:1019B00009F044C048EC50E060E070E088E592E057
:1019C0000E94C10280910001909101010196833033
:1019D00091058CF5909301018093000110E000E0E7
:1019E000CEC10E947C096CEA71E08FEF94E00E9406
:1019F000BB0962E080E00E94480962EC71E08FEF71
:101A000094E00E94BB0980910001909101019093A4
:101A1000EF028093EE02C9CF0E947C096DEA71E06B
:101A20008FEF94E00E94BB0962E080E00E944809C9
:101A300061EC71E0E4CF82E090E0CCCF8233A1F49E
:101A400048EC50E060E070E088E592E00E94C1025E
:101A500080910001909101010197181619060CF46C
:101A6000B9CF81E090E0B6CF8A3209F0B7CF48EC29
:101A700050E060E070E088E592E00E94C1020091D1
:101A80000001109101010130110509F0C8C08EE775
:101A900094E00E94040C88E794E00E94040C0E94E9
:101AA0007C0960E080E00E94480961ED71E08FEF01
:101AB00094E00E94BB098091EC029091ED02892B89
:101AC00019F40E948D0BF7CF1092ED021092EC02E8
:101AD000CE0101960E941B0CCE0101960E94F30AD2
:101AE000CE0101960E94300B1A8219821C821B8241
:101AF0001E821D82609184047091850461157105B8
:101B000041F04091880450918904CE0101960E94D1
:101B1000D90B4D815E8169817A818FEC93E00E94BF
:101B20004206CE0101960E94300B2091880430912C
:101B30008904809182049091830428173907C1F4A5
:101B4000809184049091850460917E0470917F045B
:101B5000009709F4F4C06115710539F4232B09F4D9
:101B6000FCC0FC01808190E0F5C00E947319F2C0B6
:101B700040E050E0BA0188EE93E005301105E9F548
:101B80000E94C10268EE73E080E090E00E94DC05F4
:101B90008BE00E940E060AE010E00F5F1F4F063038
:101BA000110534F30E947C0960E080E00E9448093E
:101BB00060EF71E08FEF94E00E94BB0962E080E08B
:101BC0000E9448096FEF71E08FEF94E00E94BB091B
:101BD00068EE73E080E090E00E94DC0581E090E038
:101BE0002091000130910101232B11F090E080E061
:101BF0009093EF028093EE02F1CE0E94C10264E660
:101C000070E080E090E00E94DC058BE00E940E0610
:101C100064E670E080E090E00E94DC05BECF023018
:101C2000110509F0DBCE8EE794E00E94040C88E7F2
:101C300094E00E94040C0E947C0960E080E00E9415
:101C4000480969E072E08FEF94E00E94BB0980913F
:101C5000EC029091ED02892B19F40E948D0BF7CFC5
:101C60001092ED021092EC0260917E0470917F045C
:101C70006115710571F1409182045091830484E8EB
:101C800094E00E94D90BE0908804F09089046E2DB6
:101C900090E080E00E94EC0810E000E0FF240E15C8
:101CA0001F0574F58091880490918904081719071D
:101CB00028F580918404909185040097F9F0800FB5
:101CC000911FFC0160810F5F1F4FC8010E94EC084B
:101CD000E6CF8091840490918504009711F00E94D2
:101CE0002418109285041092840410928904109292
:101CF00088041092870410928604C5CF60E0E3CF79
:101D00000E947C0960E080E00E94480967E172E07F
:101D10008FEF94E00E94BB0961E080E00E944809D7
:101D200064E272E08FEF94E00E94BB0968EE73E01A
:101D300080E090E00E94DC0501E010E020C0611529
:101D4000710559F0232B49F0FB01808190E09195BA
:101D500081959109892B09F00BCF0E947C0960E0E5
:101D600080E00E94480961EE71E08FEF94E00E94EC
:101D7000BB0968EE73E080E090E00E94DC05C801DA
:101D800026960FB6F894DEBF0FBECDBFDF91CF9180
:101D90001F910F91FF90EF9008951F920F920FB631
:101DA0000F9211242F933F938F939F93AF93BF93E1
:101DB0008091910390919203A0919303B091940329
:101DC00030918B0323E0230F2D3758F50196A11D89
:101DD000B11D20938B038093910390939203A09362
:101DE0009303B093940380918C0390918D03A09101
:101DF0008E03B0918F030196A11DB11D80938C03BA
:101E000090938D03A0938E03B0938F03BF91AF91F6
:101E10009F918F913F912F910F900FBE0F901F9028
:101E2000189526E8230F0296A11DB11DD2CF1F924F
:101E30000F920FB60F9211242F933F934F935F93FE
:101E40006F937F938F939F93AF93BF93EF93FF9382
:101E500080919F039091A003A091A103B091A20350
:101E6000892B8A2B8B2BD1F190919603E0919703CC
:101E7000F091980380818927808380919F039091BE
:101E8000A003A091A103B091A203181619061A0687
:101E90001B069CF480919F039091A003A091A10345
:101EA000B091A2030197A109B10980939F03909378
:101EB000A003A093A103B093A203FF91EF91BF9160
:101EC000AF919F918F917F916F915F914F913F91D2
:101ED0002F910F900FBE0F901F90189580912201A7
:101EE0000E940E06EACF1F920F920FB60F92112496
:101EF0002F933F934F935F936F937F938F939F9312
:101F0000AF93BF93EF93FF938FEC93E00E94B106E2
:101F1000FF91EF91BF91AF919F918F917F916F91C1
:101F20005F914F913F912F910F900FBE0F901F9097
:101F300018951F920F920FB60F9211242F938F9323
:101F40009F93EF93FF93E091DF03F091E003808193
:101F5000E091E503F091E60382FD1BC09081809142
:101F6000E8038F5F8F732091E903821741F0E091BE
:101F7000E803F0E0E153FC4F958F8093E803FF9175
:101F8000EF919F918F912F910F900FBE0F901F9007
:101F900018958081F4CF1F920F920FB60F921124E3
:101FA0002F933F934F935F936F937F938F939F9361
:101FB000AF93BF93EF93FF938091B900887F8036F2
:101FC00009F44AC0F0F5883209F4A5C018F580314B
:101FD00009F499C0B8F4882309F4F0C0883009F4F2
:101FE00092C0FF91EF91BF91AF919F918F917F919F
:101FF0006F915F914F913F912F910F900FBE0F9076
:102000001F901895883109F486C0803251F780936B
:10201000570314C0803409F49BC040F48033B9F3F3
:102020008833F9F68093570385ECAEC0803509F408
:1020300083C0883509F494C0883499F60E94440717
:10204000D0CF883909F48AC038F5883729F050F4A0
:10205000883611F0803729F683E080937D03109253
:10206000560355C0883809F479C0803919F0803892
:1020700009F0B7CF80915603803208F06FC0E0912D
:10208000560381E08E0F809356038091BB00F0E0F1
:10209000EA5CFC4F80833BC0803B39F0D0F4803A4F
:1020A00009F477C0883A09F09CCF84E080937D03DF
:1020B0001092350310923403F0E0E0E0099580912E
:1020C000340381110FC081E0809334031092140314
:1020D00009C0803C09F4A8CF883C09F4A5CF883B0F
:1020E00009F07FCFE091350381E08E0F80933503B7
:1020F000F0E0EC5EFC4F80818093BB009091350353
:102100008091340329C080917A038093BB0085ECD1
:102110008093BC0066CF90917903809178039817E3
:1021200058F5E091790381E08E0F80937903F0E018
:10213000E85AFC4F8081E9CFE091790381E08E0F6E
:10214000809379038091BB00F0E0E85AFC4F8083D4
:1021500090917903809178039817C8F285E8D8CFD9
:10216000E091790381E08E0F809379038091BB0029
:10217000F0E0E85AFC4F808380917C0381115ECFB0
:1021800081E080937B0384EA8093BC0010927D03FE
:1021900028CF80915603803230F4E0915603F0E06E
:1021A000EA5CFC4F10826091560370E086E393E096
:1021B000F0E0E0E009951092560336CF10925703F5
:1021C0003DCF1F920F920FB60F9211242F933F9382
:1021D0004F935F936F937F938F939F93AF93BF932F
:1021E000CF93DF93EF93FF938091F002C091F102C0
:1021F000D0E087FF24C01092850010928400809167
:10220000F0028F5F8093F0028091F002082E000CA4
:10221000990B8C179D0724F48091F0028C30C4F147
:102220008091840090918500049680349C4908F444
:102230007AC08091840090918500049676C0809148
:10224000F002082E000C990B8C179D07C4F6E09144
:10225000F0028E2FEE0F990BFC01EE0FFF1FE80F1F
:10226000F91FE555FC4F808186FFC9CFE091F00250
:102270008E2FEE0F990BFC01EE0FFF1FE80FF91FD9
:10228000E555FC4F808160E08F730E94D101B7CF8C
:102290002091840030918500E091F0028E2FEE0FA6
:1022A000990BFC01EE0FFF1FE80FF91FE555FC4FDE
:1022B00081819281820F931F90938900809388007F
:1022C000E091F0028E2FEE0F990BFC01EE0FFF1F35
:1022D000E80FF91FE555FC4F808186FF11C0E091A2
:1022E000F0028E2FEE0F990BFC01EE0FFF1FE80F8F
:1022F000F91FE555FC4F808161E08F730E94D10189
:10230000FF91EF91DF91CF91BF91AF919F918F910D
:102310007F916F915F914F913F912F910F900FBEE1
:102320000F901F90189580E49CE99093890080930A
:1023300088008FEF8093F002E3CF1092D2031092C7
:10234000D10348EE53E060E070E04093D303509334
:10235000D4036093D5037093D60388E491E09093FF
:10236000D0038093CF0385EC90E09093DC038093BF
:10237000DB0384EC90E09093DE038093DD0380EC3C
:1023800090E09093E0038093DF0381EC90E09093E2
:10239000E2038093E10382EC90E09093E403809366
:1023A000E30386EC90E09093E6038093E5031092BC
:1023B000E8031092E9031092EA031092EB0390E80D
:1023C00096BF8CE486BF10926F0410926E04409307
:1023D000700450937104609372047093730428E541
:1023E00031E030936D0420936C0496BF86BF84E186
:1023F00095E00E94A80881E195E00E94A8088EE07F
:1024000095E00E94A8088BE095E00E94A808109231
:1024100002051092010582E791E0909300058093F8
:10242000FF0487E28093030584E18093080584E03C
:102430008093090510920A05109292041092960456
:10244000109295041092970488E691E0909391047D
:1024500080939004ECEAF4E01082148213821582D7
:10246000369684E0E83EF807B9F786E291E090936B
:10247000F3048093F20483E291E09093F504809357
:10248000F40484E08093F60483E08093F7048AE206
:1024900091E09093F1048093F0048AE090E09093AF
:1024A000F9048093F80484EF91E09093FB04809307
:1024B000FA041092FE041092FD041092EC041092A3
:1024C000ED041092EE041092EF041092FC046DE201
:1024D00072E08AE894E00E940A0C84E894E00E948A
:1024E0001B0C69E871E08EE794E00E940A0C69E831
:1024F00071E088E794E00C940A0CCF93DF9300D04E
:1025000000D000D0CDB7DEB78091F20080618EBBE5
:1025100080E88093F2009EB39093F20090918A033A
:1025200091114DC08093610021E020936100000073
:1025300000009091F00094609EBB8093F0009EB3E9
:102540009093F0009091F200937F94609EBB8093F3
:10255000F2009EB39093F200000000000000000023
:10256000000000000000000000000000000000006B
:10257000000000000000000000000000000000005B
:102580008093F20097EB9093F200000000000000AF
:10259000000000000000000000000000000000003B
:1025A000000000000000000000000000000000002B
:1025B000000020938A038093610010926100789458
:1025C00084B5826084BD84B5816084BD85B58B7F10
:1025D00085BD85B5826085BD85B5816085BD8091ED
:1025E0006E00816080936E00109281008091810066
:1025F000826080938100809181008160809381005E
:10260000809180008160809380008091B10084601F
:102610008093B1008091B00082608093B00080917F
:10262000B00081608093B00080917A0084608093D4
:102630007A0080917A00826080937A0080917A009B
:10264000816080937A0080917A00806880937A001C
:102650001092C10061E08BE00E94020262E08DE016
:102660000E94020266E070E084E195E00E9465024B
:1026700065E070E081E195E00E94650263E070E052
:102680008EE095E00E9465026AE570E084E195E0E5
:102690000E9445086AE570E081E195E00E944508E6
:1026A0006AE570E08EE095E00E944508E091DF0366
:1026B000F091E00382E08083E091DB03F091DC03A2
:1026C0001082E091DD03F091DE038FEC80831092A5
:1026D000E703E091E303F091E40386E08083E09177
:1026E000E103F091E203808180618083E091E10366
:1026F000F091E203808188608083E091E103F091B2
:10270000E203808180688083E091E103F091E2033D
:1027100080818F7D808310928103109280031092BC
:102720007F0310927E0380917E008F7C80937E00D9
:1027300010927D0381E080937C0310927B0361E023
:1027400082E10E94D10161E083E10E94D101809188
:10275000B9008E7F8093B9008091B9008D7F8093FE
:10276000B90088E48093B80085E48093BC0010929F
:10277000040580910905823018F098E090930405D3
:102780008093070562E370E080E090E00E94DC0542
:1027900060910A058FEF94E00E94E80768EE73E00D
:1027A00080E090E00E94DC0560E38FEF94E00E94FF
:1027B00018090CE41DE5C8010197F1F760E38FEFFC
:1027C00094E00E941809C8010197F1F760E38FEFC8
:1027D00094E00E94180986E193E00197F1F760E226
:1027E0008FEF94E00E94180960910405606240E058
:1027F0008FEF94E00E94310984E08093050540E06A
:102800006CE08FEF94E00E9431090E947C0982E025
:102810008093060540E066E08FEF94E00E94310966
:1028200040E062E08FEF94E00E94310984E799E292
:102830000197F1F788E080930A0560E08FEF94E05C
:102840000E94E8070E947C0966E171E080E00E9436
:102850008D096EE071E082E00E948D0966E071E012
:1028600081E00E948D09CE0101960E941B0CCE01D1
:1028700001960E94F30ACE0101960E94300B0E943D
:10288000190A0E94BA0C909389038093880380915F
:10289000880390918903892B91F380E0C82E80E012
:1028A000D82EEE24E394F12C24E0A22EB12C32E0B9
:1028B000832E912C0E94190A80918803909189039C
:1028C000892B39F40E94BA0C909389038093880372
:1028D000F3CF8091200190912101209186033091C6
:1028E00087032817390729F081309105E1F0029715
:1028F000A9F10E946004803309F04FC048EC50E019
:1029000060E070E088E592E00E94C10280912001C1
:10291000909121010196833091057CF590932101DE
:10292000809320012EC00E947C0962E372E08FEF49
:1029300094E00E94BB0962E080E00E9448096CE3D9
:1029400072E08FEF94E00E94BB098091200190918A
:1029500021019093870380938603CBCF0E947C094B
:1029600063E372E08FEF94E00E94BB0962E080E0D5
:102970000E9448096BE372E0E4CF909221018092BB
:102980002001C114D10409F495CF0E949D0688232B
:1029900009F490CF0E9400008DCF8233B1F448EC4F
:1029A00050E060E070E088E592E00E94C102809112
:1029B0002001909121010197181619060CF4AECF51
:1029C000F0922101E0922001DCCF8A32D1F648EC6E
:1029D00050E060E070E088E592E00E94C1028091E2
:1029E0002001909121018130910509F047C010929A
:1029F0008303109282038091820390918303019755
:102A0000D1F00E947C0960E080E00E94480965E402
:102A100072E08FEF94E00E94BB0962E080E00E94C8
:102A200048096AE572E08FEF94E00E94BB09F092DA
:102A30008303E09282030E9460048332E1F648EC53
:102A400050E060E070E088E592E00E94C1020E94E0
:102A5000BD0964EF71E080E090E00E94DC0581E058
:102A600090E02091200130912101232B11F090E082
:102A700080E0909387038093860383CF029709F0C9
:102A800080CF81E090E020911E0130911F01232B27
:102A900011F090E080E0909385038093840304C05C
:102AA00090931F0180931E0180911E0190911F0140
:102AB00020918403309185032817390741F0823033
:102AC000910509F47EC0ECF4019709F447C00E9417
:102AD0006004803309F0A5C048EC50E060E070E08D
:102AE00088E592E00E94C10280911E0190911F0131
:102AF000019685309105A4F2B0921F01A0921E01AB
:102B0000D3CF8330910509F46FC0049701F70E9479
:102B10007C0960E080E00E94480968E672E08FEF7F
:102B200094E00E94BB0961E080E00E94480963E7ED
:102B300072E08FEF94E00E94BB0962E080E00E94A7
:102B400048096EE772E08FEF94E00E94BB0963E0F2
:102B500080E00E94480969E872E026C00E947C0972
:102B600060E080E00E94480967E672E08FEF94E041
:102B70000E94BB0961E080E00E94480963E772E0BF
:102B80008FEF94E00E94BB0962E080E00E94480958
:102B90006EE772E08FEF94E00E94BB0963E080E093
:102BA0000E9448096AE872E08FEF94E00E94BB0936
:102BB00080911E0190911F0190938503809384035F
:102BC00086CF0E947C0960E080E00E94480968E6A8
:102BD00072E08FEF94E00E94BB0961E080E00E9408
:102BE000480962E772E0CCCF0E947C0960E080E097
:102BF0000E94480968E672E08FEF94E00E94BB09EA
:102C000061E080E00E94480963E772E08FEF94E0A2
:102C10000E94BB0962E080E00E9448096DE772E013
:102C2000B9CF00911E0110911F018233B9F448EC15
:102C300050E060E070E088E592E00E94C10201503F
:102C40001109023011052CF010931F0100931E0191
:102C50002BCFF0921F01E0921E0126CF8A3209F09D
:102C600023CF48EC50E060E070E088E592E00E94FD
:102C7000C1020130110529F56FE872E08FEC93E095
:102C80000E94BB090E947C0960E080E00E94480924
:102C90006FE972E08FEF94E00E94BB0970E060E0A2
:102CA00084E195E00E94450868E572E080E090E0EC
:102CB0000E94DC056AE570E084E195E00E94450829
:102CC000E0CE0230110519F560EB72E08FEC93E075
:102CD0000E94BB090E947C0960E080E00E944809D4
:102CE0006BEB72E08FEF94E00E94BB0970E060E054
:102CF00081E195E00E94450868E572E080E090E09F
:102D00000E94DC056AE570E081E195E0D7CF0330F1
:102D1000110519F56BEC72E08FEC93E00E94BB0992
:102D20000E947C0960E080E00E94480967ED72E043
:102D30008FEF94E00E94BB0970E060E08EE095E0C8
:102D40000E94450868E572E080E090E00E94DC05A2
:102D50006AE570E08EE095E0B1CF0430110509F02E
:102D6000A3CE65EE72E08FEC93E00E94BB096FCEBC
:102D700088E794E00E94300B8EE794E00E94300BCD
:102D800084E894E00E94300B8AE894E00C94300BC5
:102D9000052E97FB1EF400940E94DF1657FD07D006
:102DA0000E94311707FC03D04EF40C94DF165095A7
:102DB0004095309521953F4F4F4F5F4F0895909527
:102DC0008095709561957F4F8F4F9F4F08950E941A
:102DD0005317A59F900DB49F900DA49F800D911D3A
:102DE00011240895B7FF0C94E7160E94E716821B82
:102DF000930B08952F923F924F925F926F927F9222
:102E00008F929F92AF92BF92CF92DF92EF92FF92FA
:102E10000F931F93CF93DF93CDB7DEB7CA1BDB0BA6
:102E20000FB6F894DEBF0FBECDBF09942A8839884B
:102E300048885F846E847D848C849B84AA84B98452
:102E4000C884DF80EE80FD800C811B81AA81B9815E
:102E5000CE0FD11D0FB6F894DEBF0FBECDBFED0172
:102E60000895A1E21A2EAA1BBB1BFD010DC0AA1FCB
:102E7000BB1FEE1FFF1FA217B307E407F50720F0E3
:102E8000A21BB30BE40BF50B661F771F881F991F5E
:102E90001A9469F760957095809590959B01AC01A7
:102EA000BD01CF010895A29FB001B39FC001A39FB0
:102EB000700D811D1124911DB29F700D811D112473
:102EC000911D0895991B79E004C0991F961708F089
:102ED000961B881F7A95C9F780950895AA1BBB1B7E
:102EE00051E107C0AA1FBB1FA617B70710F0A61B0A
:102EF000B70B881F991F5A95A9F780959095BC012B
:102F0000CD010895EE0FFF1F0590F491E02D099477
:102F10000F931F93CF93DF938230910510F482E0DB
:102F200090E0E0911905F0911A0530E020E0B0E062
:102F3000A0E0309799F42115310509F44AC0281B07
:102F4000390B24303105D8F58A819B8161157105D3
:102F500089F1FB0193838283FE0111C0408151817D
:102F60000281138148175907E0F04817590799F46F
:102F7000109761F012960C93129713961C93329649
:102F8000CF01DF91CF911F910F9108950093190503
:102F900010931A05F4CF2115310551F0421753074C
:102FA00038F0A901DB019A01BD01DF01F801C1CFB1
:102FB000EF01F9CF90931A0580931905CDCFFE014B
:102FC000E20FF31F819391932250310939832883B3
:102FD000D7CF2091170530911805232B41F420916C
:102FE000380130913901309318052093170520914D
:102FF0003601309137012115310541F42DB73EB727
:1030000040913A0150913B01241B350BE09117058B
:10301000F0911805E217F307A0F42E1B3F0B2817B9
:10302000390778F0AC014E5F5F4F2417350748F041
:103030004E0F5F1F5093180540931705819391938E
:103040009FCFF0E0E0E09CCFCF93DF930097E9F0D3
:10305000FC01329713821282A0911905B0911A05D2
:10306000ED0130E020E01097A1F420813181820F42
:10307000931F20911705309118052817390709F07B
:1030800061C0F0931805E0931705DF91CF91089583
:10309000EA01CE17DF07E8F54A815B819E01411501
:1030A0005105B1F7E901FB83EA8349915991C40FB6
:1030B000D51FEC17FD0761F4808191810296840F82
:1030C000951FE90199838883828193819B838A83F9
:1030D000F0E0E0E012968D919C9113970097B9F57E
:1030E0002D913C911197CD010296820F931F209153
:1030F0001705309118052817390739F6309751F51B
:1031000010921A0510921905B0931805A09317058F
:10311000BCCFD383C28340815181840F951FC817D0
:10312000D90761F44E5F5F4F88819981480F591F1D
:10313000518340838A819B8193838283211531054A
:1031400009F0B0CFF0931A05E09319059ECFFD0169
:10315000DC01C0CF13821282D7CFB0E0A0E0E3EB56
:10316000F8E10C94FC168C01009751F4CB010E94FD
:1031700088178C01C801CDB7DEB7E0E10C941817B1
:10318000FC01E60FF71F9C0122503109E217F307FB
:1031900008F49DC0D901CD91DC911197C617D707CE
:1031A00098F0C530D10530F3CE0104978617970704
:1031B00008F3C61BD70B2297C193D1936D937C93D1
:1031C000CF010E942418D6CF5B01AC1ABD0A4C0176
:1031D0008C0E9D1EA0911905B0911A05512C412C01
:1031E000F12CE12C109731F580911705909118057D
:1031F0008815990509F05CC04616570608F058C0B6
:103200008091360190913701009741F48DB79EB7B8
:1032100040913A0150913B01841B950BE817F90747
:1032200008F055C0F0931805E0931705F901718374
:103230006083A0CF8D919C91119712966C901297FC
:1032400013967C901397A815B90559F56C0142E0C7
:10325000C40ED11CCA14DB0420F1AC014A195B096D
:10326000DA011296159780F062827382518340834F
:10327000D9016D937C93E114F10471F0D701139699
:10328000FC93EE93129776CF22968C0F9D1FF90137
:1032900091838083F301EFCFF0931A05E093190532
:1032A00069CF4816590608F42C017D01D3019ACF45
:1032B000CB010E9488177C01009749F0AE01B8014C
:1032C0000E946A19C8010E942418870153CF10E098
:1032D00000E050CFFB01DC0102C001900D92415093
:1032E0005040D8F70895FB01DC018D9101908019C1
:1032F0000110D9F3990B0895FB01DC0101900D92A7
:103300000020E1F7089510E0C8E7D0E004C0FE0116
:103310000E9482172196C937D107C9F7F894FFCFC9
:103320000100010001000303030303030303181852
:103330001818181818181F1F1F1F1F1F1F1F010004
:103340000100FF090F11020407083132333435360A
:103350003738392A302300001B0580000000400068
:103360001400540000000000D706420691066F06C4
:103370008306240700000000B9078C07850776073D
:1033800068076707000000005C04FE01CE01000032
:103390000000870942065468616E6B73005E004C42
:1033A000696D69743A20000D0A00507972612042FB
:1033B000616E6B00506C6561736520696E73657238
:1033C0007420636172640064323A20003E456E747A
:1033D000657220796F75722070617373776F726494
:1033E000003E52657365742050617373776F726429
:1033F00000456E7465722050617373776F72643A22
:103400000052696768742050617373776F7264004B
:1034100057726F6E672050617373776F72640054D8
:10342000727920616761696E004E65772050617323
:1034300073776F72643A004E6577205061737377CB
:103440006F726400437265617465642000303132CC
:1034500033003E4465706F736974003E5769746849
:103460006472617700496E73657274204567797084
:1034700074696F6E20636F696E00546F20657869A0
:10348000742020282329003E436F696E202832359E
:1034900029003E436F696E2028353029003E436F76
:1034A000696E202831303029003E4261636B004351
:1034B0006F696E7320302E3235204C453A2000570C
:1034C0006974686472617720302E3235204C450073
:1034D000436F696E732035303A2000576974686411
:1034E00072617720302E35204C4500436F696E7332
:1034F000203130303A200057697468647261772057
:0C35000031204C45004261636B3A200012
:00000001FF
