:100000000C9478000C94A0000C94A0000C94A00018
:100010000C94A0000C94A0000C94A0000C945C071D
:100020000C94A0000C94A0000C94A0000C94100858
:100030000C94A0000C94A0000C94A0000C94A000C0
:100040000C9412070C94A0000C94DE070C94B807D3
:100050000C94A0000C94A0000C94A0000C94A000A0
:100060000C94A0000C94A0000C9400000C940000D0
:100070000C9400000C9400000000000024002700F5
:100080002A002D0000000032F01110000020213164
:10009000000000000000000000000000000023003D
:1000A000260029002C0001020408102040800102D3
:1000B0000408102001020408102002080104102086
:1000C00040408000000000250028002B002E000486
:1000D00004040404040404020202020202030303EF
:1000E00003030305050505050505020202001109C4
:1000F00011241FBECFEFD8E0DEBFCDBF11E0A0E0DE
:10010000B1E0E6E7FEE102C005900D92AA35B10725
:10011000D9F722E0AAE5B1E001C01D92A634B207EA
:10012000E1F710E0C8E7D0E004C02197FE010E948B
:10013000330FC737D107C9F70E946E090C94390FE6
:100140000C940000CF92DF92EF92FF92DC01A0327C
:1001500082E0B807D4F5A53BB10514F0A4EBB0E0FC
:100160004091440228E830E0241B310947FD3395D3
:10017000220F331F220F331F6901330FEE08FF08D0
:100180004091450228E532E0241B310947FD3395B3
:10019000220F331F220F331F032E000C440B550B6D
:1001A0002C193D094E095F09B7FF02C0B0E0A0E07D
:1001B0000E94B00C24EB30E040E050E00E94860C3E
:1001C000C20ED31EE41EF51ED601E0914302EC30B0
:1001D00080F52091440288E890E0821B910927FD78
:1001E0009395880F991F880F991FA817B90784F056
:1001F0002091450288E592E0821B910927FD9395A5
:10020000880F991F880F991FA817B9070CF4CD0103
:100210000297880F991F4FB7F8942E2F30E0F901FD
:10022000EE0FFF1FE20FF31FE25EFD4F928381830B
:100230004FBFFF90EF90DF90CF90089580518633AD
:1002400008F05CC0E82FF0E0E85DFE4F0C94330F3F
:1002500068016C0168016C017E017E017E017E01F6
:100260007E017E017E017E017E017E017E017E0196
:100270005E0164017E015E0164017E017E017E01FA
:100280007E017E017E017E017E017E017E017E0176
:100290007E016F0175016F0175017E017E017E0196
:1002A0007E017E017E017E017E017E017E017E0156
:1002B00079017F01830179017F01790180918000BB
:1002C0008F77809380000895809180008F7DF9CF93
:1002D00084B58F7784BD089584B58F7DFBCF8091E1
:1002E000B0008F778093B00008958091B0008F7D2B
:1002F000F9CF809190008F7780939000089580913E
:1003000090008F7DF9CF80919000877FF5CFCF93BC
:10031000DF9390E0FC01EA55FF4FC491FC01E153EB
:10032000FF4FD491DD23F1F0FC01EC57FF4FE49136
:10033000EE2339F0F0E0EC57FF4F849181110E94D9
:100340001E01ED2FF0E0EE0FFF1FE656FF4FA591C7
:10035000B491EC91CE2381E090E009F480E0DF914C
:10036000CF91089580E090E0FACF1F93CF93DF9371
:1003700090E0FC01EA55FF4FD491FC01E153FF4F9F
:10038000C491CC23C9F0162F8C579F4FFC01849148
:1003900081110E941E01EC2FF0E0EE0FFF1FED53C4
:1003A000FF4FA591B4918FB7F894EC91111108C04B
:1003B000D095DE23DC938FBFDF91CF911F910895FD
:1003C000DE2BF8CFCF93DF93282F30E0F901EA55E9
:1003D000FF4F449121533F4FF9012491843011F58F
:1003E00083E08093A0002223D1F0822F90E0880F39
:1003F000991FFC01E858FF4FA591B491FC01ED5302
:10040000FF4FC591D491611122C09FB7F8948C9190
:10041000409584238C938881482348839FBFDF9134
:10042000CF9108959AEE980F923020F48FEF84BF09
:1004300084BFD9CF8A31B9F68091F00082608EBB3B
:1004400080E88093F0008EB38093F000CCCF6230D0
:1004500051F49FB7F8942C91842F809582238C932C
:10046000E8814E2BDACF8FB7F894EC914E2B4C935A
:100470008FBFD5CF0F931F93CF938C018091000135
:100480008B3031F08F3FA1F1CF911F910F910895E3
:10049000ECEEF0E0C491C7FDF7CF61E08BE00E9485
:1004A000E201C1113EC0980150E040E062E17AE70C
:1004B00080E090E00E94860CBA01A90141505109E8
:1004C0006109710985B5887F846085BD47BD8FEF5F
:1004D0009FEFDC0180937D0190937E01A0937F01CB
:1004E000B093800180916E00826080936E00CCCFCB
:1004F0008BE080930001ECEEF0E0C491CF3F09F473
:10050000C3CFC13009F451C0B8F1C23009F46BC097
:10051000C33009F48AC0C7FDB7CF61E08BE00E9409
:10052000E201980150E040E0C23009F09CC064E272
:1005300074EF80E090E00E94860CBA01A90141505E
:100540005109610971098091B100887F85608093AC
:10055000B1004093B3008FEF9FEFDC0180937501F2
:1005600090937601A0937701B09378018091700009
:1005700082608093700088CF14BC15BC84B5826003
:1005800084BD85B5816085BDEAEDF0E0E491F0E0E1
:10059000EE0FFF1FED53FF4F85919491E1EBF0E0DB
:1005A000E491E0937001C0E078CF10928000109247
:1005B000810080918100886080938100809181001A
:1005C000816080938100EAEDF0E0E491F0E0EE0FCD
:1005D000FF1FED53FF4F85919491E1EBF0E0E49123
:1005E000E0936F015ACF1092B0001092B100809149
:1005F000B00082608093B0008091B10081608093F0
:10060000B100EAEDF0E0E491F0E0EE0FFF1FED53F2
:10061000FF4F8591949190936E0180936D01E1EB72
:10062000F0E0E491E0936C0138CF109290001092CA
:100630009100809191008860809391008091910059
:10064000816080939100EAEDF0E0E491F0E0EE0F3C
:10065000FF1FED53FF4F85919491E1EBF0E0E491A2
:10066000E0936B011ACF60E072E18AE790E00E94AC
:10067000860CDA01C9010197A109B109AC01C130A9
:10068000D9F420918100287F2160209381009093EC
:100690008900809388008FEF9FEFDC0180937901C0
:1006A00090937A01A0937B01B0937C0180916F00BD
:1006B000826080936F00E8CEC330C9F4209191002E
:1006C000287F216020939100809398008FEF9FEF07
:1006D000DC018093710190937201A0937301B09338
:1006E000740180917100826080937100CDCEC13021
:1006F00071F21CF4C111C8CEE9CEC23009F429CF81
:10070000C33011F3C1CE3FB7F89480916701909147
:100710006801A0916901B0916A0126B5A89B05C046
:100720002F3F19F00196A11DB11D3FBFBA2FA92F70
:10073000982F8827BC01CD01620F711D811D911D6D
:1007400042E0660F771F881F991F4A95D1F70895D9
:100750008F929F92AF92BF92CF92DF92EF92FF92D1
:100760004B015C010E9483036B017C010E948303A7
:100770006C197D098E099F09683E734081059105BA
:10078000A8F321E0821A9108A108B10888EEC80EEA
:1007900083E0D81EE11CF11C81149104A104B10472
:1007A00029F7FF90EF90DF90CF90BF90AF909F9090
:1007B0008F9008959091000189130DC0ECEEF0E048
:1007C000E4919FEF90930001E13059F038F0E2306E
:1007D00071F0E330E9F060E00C94B50110926E0026
:1007E000FACF90916F009D7F90936F00F4CF90911E
:1007F00070009D7F9093700091E09093B000909175
:10080000B100987F94609093B1001092B300E3CF51
:10081000909171009D7F90937100DDCFAF92BF9258
:10082000CF92DF92EF92FF920F931F93CF93DF93BC
:100830006C017B018B01040F151FEB015E01AE18EB
:10084000BF08C017D10759F06991D601ED91FC910D
:100850000190F081E02DC6010995892B79F7C5013A
:10086000DF91CF911F910F91FF90EF90DF90CF908C
:10087000BF90AF900895FC01918D828D981761F023
:10088000A28DAE0FBF2FB11D5D968C91928D9F5F93
:100890009F73928F90E008958FEF9FEF0895FC0172
:1008A000918D828D981731F0828DE80FF11D858D25
:1008B00090E008958FEF9FEF0895FC01918D228DB8
:1008C000892F90E0805C9F4F821B91098F7399273D
:1008D000089581E891E00E945D0421E0892B09F4EC
:1008E00020E0822F089580E090E0892B29F00E947B
:1008F000690481110C9400000895CF93DF93FC01EB
:10090000A48DC689D789A80FB92FB11DA35ABF4F8F
:100910008C918883848D90E001968F739927848FC2
:10092000A089B1898C91837080648C93938D848D20
:10093000981306C00288F389E02D80818F7D808323
:10094000DF91CF910895EF92FF920F931F93CF9372
:10095000DF93EC0181E0888F9B8D8C8D98131AC0FA
:10096000E889F989808185FF15C09FB7F894EE89E1
:10097000FF896083E889F98980818370806480833E
:100980009FBF81E090E0DF91CF911F910F91FF9089
:10099000EF900895F62E0B8D10E00F5F1F4F0F7331
:1009A0001127E02E8C8D8E110CC00FB607FCFACFEC
:1009B000E889F989808185FFF5CFCE010E947D0409
:1009C000F1CFEB8DEC0FFD2FF11DE35AFF4FF082BD
:1009D0009FB7F8940B8FEA89FB8980818062CFCF23
:1009E000CF93DF93EC01888D8823B9F0AA89BB8966
:1009F000E889F9898C9185FD03C0808186FD0DC051
:100A00000FB607FCF7CF8C9185FFF2CF808185FF71
:100A1000EDCFCE010E947D04E9CFDF91CF91089503
:100A2000FC0101900020E9F73197AF01481B590BF9
:100A3000BC0181E891E00C940E048F929F92AF92DA
:100A4000BF920F931F93CF93DF93CDB7DEB7A197DC
:100A50000FB6F894DEBF0FBECDBF19A2423008F426
:100A60004AE08E010F5D1F4F842E912CB12CA12CDA
:100A7000A50194010E94B80CE62FB901CA01EA3021
:100A8000F4F4E05DD801EE938D01232B242B252B6C
:100A900079F790E080E0109719F0CD010E941005E1
:100AA000A1960FB6F894DEBF0FBECDBFDF91CF91F8
:100AB0001F910F91BF90AF909F908F900895E95C28
:100AC000E1CFCF92DF92EF92FF92CF93DF936B0152
:100AD0007C016DE281E891E00E94A304EC016627AD
:100AE0007727CB016C197D098E099F094AE00E9486
:100AF0001D058C0F9D1FDF91CF91FF90EF90DF9030
:100B0000CF900895CF93DF930E941005EC0181E10F
:100B100091E00E9410058C0F9D1FDF91CF910895E9
:100B2000CF93DF93BC01990F880B990B97FF0CC0F3
:100B30000E946105EC0181E191E00E9410058C0F9B
:100B40009D1FDF91CF9108954AE00E941D05F2CFCD
:100B50000F931F93CF93DF93EC018B0184E191E01E
:100B60000E94100589E191E00E941005BE01DD0F91
:100B7000880B990B97FF0DC00E94610589E191E0F8
:100B80000E941005C801DF91CF911F910F910C9425
:100B900090054AE00E941D05F1CFCF93DF93EC0151
:100BA0008CE191E00E94100589E191E00E9410051E
:100BB000CE01DF91CF910C9490050F931F93EEEA35
:100BC000F0E06491E7EDF0E0E491F0E0EE0FFF1F5C
:100BD000E656FF4F8591949100E412E42FE030E057
:100BE000462F0E94CC08611571058105910529F0F9
:100BF0006F5F7F4F8F4F9F4F9F701F910F91089591
:100C00002F923F924F925F926F927F928F929F921C
:100C1000AF92BF92CF92DF92EF92FF920F931F930A
:100C2000CF93DF93CDB7DEB72E970FB6F894DEBF24
:100C30000FBECDBF82E390E09E878D87C12CD12C63
:100C4000760180E090E0A0E8BFE389839A83AB83DC
:100C5000BC834601570189869A86AB86BC8685E0AF
:100C6000282E312C0FE210E060E082E10E94B501F5
:100C7000C1010197F1F761E082E10E94B501C8016D
:100C80000197F1F760E082E10E94B5010E94DD0565
:100C90000E94050E26E933E44BE05DE30E94BA0EA4
:100CA00020E030E040E05FE30E94BA0E0E94CD0DEC
:100CB0002B0170935E0160935D0120E030E0A9019B
:100CC000C701B6010E94B50E052C000C6608770816
:100CD00018160CF04CC0C301B2010E94050E6D83C2
:100CE0007E838F839887A70196010E94E90C6B0190
:100CF0007C0120E030E0A9010E94B50E18166CF5C9
:100D000020E030E040E85FE3C701B6010E94560DE5
:100D100087FF2DC02D813E814F815885C501B401CB
:100D20000E94EA0C4B015C0120E030E040E85FE308
:100D300069817A818B819C810E94EA0C69837A8324
:100D40008B839C839B01AC01C501B4010E945B0DA8
:100D500069877A878B879C870AC020E030E040E86B
:100D60005FEBC701B6010E94B50E18169CF2C301D5
:100D7000B2010E94050E6B017C01AD85BE85119705
:100D8000BE87AD87AB2B09F06FCF69857A858B85E0
:100D90009C850E94CD0D70935E0160935D01CB0137
:100DA0002E960FB6F894DEBF0FBECDBFDF91CF9168
:100DB0001F910F91FF90EF90DF90CF90BF90AF9079
:100DC0009F908F907F906F905F904F903F902F906B
:100DD0000C94900560E082E10E94B50185E090E00E
:100DE0000197F1F761E082E10E94B5018FE290E0A6
:100DF0000197F1F760E082E10E94B5010E94DD05F4
:100E00000E94050E26E933E44BE05DE30E94BA0E32
:100E100020E030E040E05FE30E94BA0E0E94CD0D7A
:100E2000CB0108951F920F920FB60F9211242F93AA
:100E30003F938F939F93AF93BF9380916301909162
:100E40006401A0916501B09166013091620123E0D7
:100E5000230F2D3758F50196A11DB11D2093620176
:100E60008093630190936401A0936501B093660140
:100E70008091670190916801A0916901B0916A0128
:100E80000196A11DB11D8093670190936801A09305
:100E90006901B0936A01BF91AF919F918F913F918A
:100EA0002F910F900FBE0F901F90189526E8230FDB
:100EB0000296A11DB11DD2CF1F920F920FB60F92B5
:100EC00011242F933F934F935F936F937F938F934F
:100ED0009F93AF93BF93EF93FF9380917501909190
:100EE0007601A0917701B0917801892B8A2B8B2B09
:100EF000D1F190916C01E0916D01F0916E018081D2
:100F0000892780838091750190917601A091770166
:100F1000B0917801181619061A061B069CF48091E8
:100F2000750190917601A0917701B09178010197B8
:100F3000A109B1098093750190937601A09377017F
:100F4000B0937801FF91EF91BF91AF919F918F91F5
:100F50007F916F915F914F913F912F910F900FBEB5
:100F60000F901F901895809100010E94DA03EACF3C
:100F70001F920F920FB60F9211242F933F934F930E
:100F80005F936F937F938F939F93AF93BF93EF93F1
:100F9000FF9381E891E00E947D04FF91EF91BF9162
:100FA000AF919F918F917F916F915F914F913F9101
:100FB0002F910F900FBE0F901F9018951F920F92B8
:100FC0000FB60F9211242F938F939F93EF93FF935C
:100FD000E0919101F09192018081E0919701F0916F
:100FE000980182FD1BC0908180919A018F5F8F7361
:100FF00020919B01821741F0E0919A01F0E0EF57B8
:10100000FE4F958F80939A01FF91EF919F918F9161
:101010002F910F900FBE0F901F9018958081F4CFE5
:101020001F920F920FB60F9211242F933F934F935D
:101030005F936F937F938F939F93AF93BF93CF9360
:10104000DF93EF93FF9380915A01C0914202D0E069
:1010500087FF24C0109285001092840080915A016D
:101060008F5F80935A0180915A01082E000C990BD2
:101070008C179D0724F480915A018C30C4F1809123
:10108000840090918500049680349C4908F47AC0CD
:101090008091840090918500049676C080915A01D9
:1010A000082E000C990B8C179D07C4F6E0915A018D
:1010B0008E2FEE0F990BFC01EE0FFF1FE80FF91FAB
:1010C000E25EFD4F808186FFC9CFE0915A018E2FED
:1010D000EE0F990BFC01EE0FFF1FE80FF91FE25E08
:1010E000FD4F808160E08F730E94B501B7CF2091E2
:1010F000840030918500E0915A018E2FEE0F990BFC
:10110000FC01EE0FFF1FE80FF91FE25EFD4F81812A
:101110009281820F931F9093890080938800E091C1
:101120005A018E2FEE0F990BFC01EE0FFF1FE80FF7
:10113000F91FE25EFD4F808186FF11C0E0915A01E8
:101140008E2FEE0F990BFC01EE0FFF1FE80FF91F1A
:10115000E25EFD4F808161E08F730E94B501FF91D7
:10116000EF91DF91CF91BF91AF919F918F917F913F
:101170006F915F914F913F912F910F900FBE0F9004
:101180001F90189580E49CE99093890080938800D3
:101190008FEF80935A01E3CFCF92DF92EF92FF92CD
:1011A0000F931F93E82FF92F05C001501109210952
:1011B000310961F1908196239417B9F305C001506C
:1011C00011092109310911F1908196239413F7CF68
:1011D000C12CD12CE12CF12C0AC08FEFC81AD80AEF
:1011E000E80AF80A0C151D052E053F0579F08081E7
:1011F0008623841791F36C2D7D2D8E2D9F2D1F91AD
:101200000F91FF90EF90DF90CF90089560E070E035
:1012100080E090E01F910F91FF90EF90DF90CF90D2
:101220000895109284011092830188EE93E0A0E06B
:10123000B0E08093850190938601A0938701B093DD
:10124000880185E091E0909382018093810185EC93
:1012500090E090938E0180938D0184EC90E09093C8
:10126000900180938F0180EC90E0909392018093A5
:10127000910181EC90E0909394018093930182EC32
:1012800090E0909396018093950186EC90E0909386
:1012900098018093970110929A0110929B011092ED
:1012A0009C0110929D01809142028C3098F491E053
:1012B000980F909342028093430290E0FC01EE0F5E
:1012C000FF1FE80FF91FE25EFD4F88EB9BE0928362
:1012D000818308958FEF8093430208958091F200F7
:1012E00080618EBB80E88093F2009EB39093F20001
:1012F0009091610191114DC08093610021E0209394
:101300006100000000009091F00094609EBB80930B
:10131000F0009EB39093F0009091F200937F946060
:101320009EBB8093F2009EB39093F20000000000F9
:1013300000000000000000000000000000000000AD
:10134000000000000000000000000000000000009D
:10135000000000008093F20097EB9093F2000000F1
:10136000000000000000000000000000000000007D
:10137000000000000000000000000000000000006D
:101380000000000000002093610180936100109232
:101390006100789484B5826084BD84B5816084BD29
:1013A00085B58B7F85BD85B5826085BD85B581603E
:1013B00085BD80916E00816080936E0010928100E7
:1013C00080918100826080938100809181008160A2
:1013D0008093810080918000816080938000809163
:1013E000B10084608093B1008091B00082608093EE
:1013F000B0008091B00081608093B00080917A004D
:10140000846080937A0080917A00826080937A0071
:1014100080917A00816080937A0080917A00806860
:1014200080937A001092C10061E08BE00E94E2019B
:1014300062E082E00E94E20162E084E00E94E20158
:1014400062E085E00E94E20162E086E00E94E20143
:1014500062E087E00E94E20162E089E00E94E2012E
:1014600061E082E10E94E20160E088E00E94E20126
:10147000809143028C3008F051C061E083E00E940B
:10148000E20180914302282F30E0F901EE0FFF1FA7
:10149000E20FF31FE25EFD4F9081907C936090839A
:1014A00010924402109245022CE0622F0E94270FF6
:1014B000829FB001112430E020E0AB01420F531FA6
:1014C000FA01EE0FFF1FE40FF51FE25EFD4F908162
:1014D00096FD16C02F5F3F4F2C30310571F78111FB
:1014E0000FC01092800082E08093810010928500EE
:1014F00010928400B19A80916F00826080936F0097
:10150000E09143028E2F90E0FC01EE0FFF1FE80FE9
:10151000F91FE25EFD4F8081806480838AE090E065
:101520000E94A200E0919101F091920182E08083FB
:10153000E0918D01F0918E011082E0918F01F09188
:1015400090018FEC808310929901E0919501F091C8
:10155000960186E08083E0919301F091940180816F
:1015600080618083E0919301F09194018081886093
:101570008083E0919301F091940180818068808361
:10158000E0919301F091940180818F7D808310928E
:10159000600110925F01C3E0D0E002E010E0EE24B1
:1015A000E394F12C80915F0190916001892BE9F027
:1015B000C0E0D0E00AE010E08AEAE82EF12C809149
:1015C0005F01909160018130910509F06CC081E26A
:1015D00091E00E94820582E00E948701892B19F523
:1015E00085E091E00E943A02F6CF82E00E948701F6
:1015F000892B29F4F0926001E0925F01D3CF84E05F
:101600000E948701892B29F41093600100935F01E8
:10161000C9CF85E00E948701892B21F6D093600114
:10162000C0935F01BFCF84E00E948701892B29F41A
:1016300085E291E00E943A02F6CF85E00E948701A0
:10164000892B29F489E491E00E943A02F6CF86E0E2
:101650000E948701892B29F48DE591E00E943A02CE
:10166000F6CF87E00E948701892B29F487E891E073
:101670000E943A02F6CF89E00E948701892B29F463
:1016800088EB91E00E943A02F6CF8BE00E94DA03E9
:10169000209709F494CF0E946904882309F48FCF1E
:1016A0000E9400008CCF8230910509F095C0109304
:1016B0005C0100935B01C0905B01D0905C018BEA00
:1016C000C816D104E4F5C6010E94A20066E470E0E9
:1016D00080E090E00E94A803C6010E94CD050E9410
:1016E000EA0690935E0180935D018B3091051CF5B5
:1016F000BC0180915B0190915C010E94A80562E3AE
:1017000070E080E090E00E94A80380915B019091DE
:101710005C010A978B3A910520F485E091E00E94E4
:101720003A0280915B0190915C01019690935C017B
:1017300080935B01C0CF8BE00E94DA03F2CFF0927E
:101740005C01E0925B01C0905B01D0905C018AE09B
:10175000C816D104E4F1C6010E94A20066E470E05C
:1017600080E090E00E94A803C6010E94CD050E947F
:10177000EA0690935E0180935D018B3091051CF524
:10178000BC0180915B0190915C010E94A80562E31D
:1017900070E080E090E00E94A80380915B0190914E
:1017A0005C010A978B3A910520F485E091E00E9454
:1017B0003A0280915B0190915C01019790935C01EA
:1017C00080935B01C0CF8BE00E94DA03F2CF88E305
:1017D00091E00E9482055CCF039709F059CF0E94E7
:1017E00000068AE590E00E94A20080915D01909140
:1017F0005E010297029780F40E94000685E091E066
:101800000E943A0280915D0190915E018E976CF387
:101810008BE00E94DA03E9CF80915D0190915E0137
:101820000697039778F40E94000685E291E00E94F3
:101830003A0280915D0190915E018E976CF38BE08E
:101840000E94DA0380915D0190915E010B970397EE
:1018500078F40E94000689E491E00E943A028091A7
:101860005D0190915E018E976CF38BE00E94DA032C
:1018700080915D0190915E014197039778F40E94F9
:1018800000068DE591E00E943A0280915D01909101
:101890005E018E976CF38BE00E94DA0380915D010C
:1018A00090915E014697029778F40E94000687E8BF
:1018B00091E00E943A0280915D0190915E018E97C5
:1018C0006CF38BE00E94DA0380915D0190915E01E0
:1018D0004A97039778F40E94000688EB91E00E94F3
:1018E0003A0280915D0190915E018E976CF38BE0DE
:1018F0000E94DA0380915D0190915E014E971CF089
:101900008BE00E94DA0389E491E063CF052E97FB18
:101910001EF400940E949D0C57FD07D00E94B80C45
:1019200007FC03D04EF40C949D0C509540953095D7
:1019300021953F4F4F4F5F4F08959095809570953B
:1019400061957F4F8F4F9F4F08950E94DA0CA59F9E
:10195000900DB49F900DA49F800D911D11240895AA
:10196000B7FF0C94A50C0E94A50C821B930B089545
:10197000A1E21A2EAA1BBB1BFD010DC0AA1FBB1F93
:10198000EE1FFF1FA217B307E407F50720F0A21B05
:10199000B30BE40BF50B661F771F881F991F1A9472
:1019A00069F760957095809590959B01AC01BD019C
:1019B000CF010895A29FB001B39FC001A39F700DF6
:1019C000811D1124911DB29F700D811D1124911D47
:1019D00008955058BB27AA270E94010D0C947B0E36
:1019E0000E946D0E38F00E94740E20F039F49F3F73
:1019F00019F426F40C946A0E0EF4E095E7FB0C94AF
:101A0000640EE92F0E948C0E58F3BA176207730711
:101A10008407950720F079F4A6F50C94AE0E0EF429
:101A2000E0950B2EBA2FA02D0B01B90190010C01EE
:101A3000CA01A0011124FF27591B99F0593F50F406
:101A4000503E68F11A16F040A22F232F342F44275E
:101A5000585FF3CF469537952795A795F040539556
:101A6000C9F77EF41F16BA0B620B730B840BBAF026
:101A70009150A1F0FF0FBB1F661F771F881FC2F791
:101A80000EC0BA0F621F731F841F48F487957795A5
:101A90006795B795F7959E3F08F0B0CF9395880F5F
:101AA00008F09927EE0F9795879508950E94400EAC
:101AB00008F481E008950E946F0D0C947B0E0E9443
:101AC000740E58F00E946D0E40F029F45F3F29F02B
:101AD0000C94640E51110C94AF0E0C946A0E0E947B
:101AE0008C0E68F39923B1F3552391F3951B550B95
:101AF000BB27AA2762177307840738F09F5F5F4FE1
:101B0000220F331F441FAA1FA9F335D00E2E3AF01F
:101B1000E0E832D091505040E695001CCAF72BD037
:101B2000FE2F29D0660F771F881FBB1F2617370788
:101B30004807AB07B0E809F0BB0B802DBF01FF27BA
:101B400093585F4F3AF09E3F510578F00C94640E25
:101B50000C94AF0E5F3FE4F3983ED4F386957795EF
:101B60006795B795F7959F5FC9F7880F911D969573
:101B7000879597F90895E1E0660F771F881FBB1FCF
:101B8000621773078407BA0720F0621B730B840B7C
:101B9000BA0BEE1F88F7E09508950E94D40D689463
:101BA000B1110C94AF0E08950E94940E88F09F57C7
:101BB00098F0B92F9927B751B0F0E1F0660F771F71
:101BC000881F991F1AF0BA95C9F714C0B13091F067
:101BD0000E94AE0EB1E008950C94AE0E672F782FE0
:101BE0008827B85F39F0B93FCCF38695779567952C
:101BF000B395D9F73EF490958095709561957F4F98
:101C00008F4F9F4F0895E89409C097FB3EF490953D
:101C10008095709561957F4F8F4F9F4F9923A9F0C5
:101C2000F92F96E9BB279395F69587957795679554
:101C3000B795F111F8CFFAF4BB0F11F460FF1BC098
:101C40006F5F7F4F8F4F9F4F16C0882311F096E92B
:101C500011C0772321F09EE8872F762F05C06623D9
:101C600071F096E8862F70E060E02AF09A95660F92
:101C7000771F881FDAF7880F9695879597F908954B
:101C8000990F0008550FAA0BE0E8FEEF161617068D
:101C9000E807F907C0F012161306E407F50798F0F5
:101CA000621B730B840B950B39F40A2661F0232B0E
:101CB000242B252B21F408950A2609F4A140A6958A
:101CC0008FEF811D811D089597F99F6780E870E06F
:101CD00060E008959FEF80EC089500240A941616A2
:101CE000170618060906089500240A94121613060A
:101CF000140605060895092E0394000C11F4882398
:101D000052F0BB0F40F4BF2B11F460FF04C06F5FB3
:101D10007F4F8F4F9F4F089557FD9058440F551F89
:101D200059F05F3F71F04795880F97FB991F61F05D
:101D30009F3F79F087950895121613061406551FD4
:101D4000F2CF4695F1DF08C0161617061806991F40
:101D5000F1CF86957105610508940895E894BB2735
:101D600066277727CB0197F908950E94400E08F463
:101D70008FEF08950E94CD0E0C947B0E0E946D0E85
:101D800038F00E94740E20F0952311F00C94640E2C
:101D90000C946A0E11240C94AF0E0E948C0E70F3FA
:101DA000959FC1F3950F50E0551F629FF001729F00
:101DB000BB27F00DB11D639FAA27F00DB11DAA1F0F
:101DC000649F6627B00DA11D661F829F2227B00D5C
:101DD000A11D621F739FB00DA11D621F839FA00DE7
:101DE000611D221F749F3327A00D611D231F849F37
:101DF000600D211D822F762F6A2F11249F5750408E
:101E00009AF0F1F088234AF0EE0FFF1FBB1F661F08
:101E1000771F881F91505040A9F79E3F510580F0D1
:101E20000C94640E0C94AF0E5F3FE4F3983ED4F331
:101E3000869577956795B795F795E7959F5FC1F775
:101E4000FE2B880F911D9695879597F90895991BFC
:101E500079E004C0991F961708F0961B881F7A95A1
:101E6000C9F780950895EE0FFF1F0590F491E02DBE
:061E70000994F894FFCF75
:101E7600FF00000000A3040E045D043B044F04F0C1
:101E8600040D0A0030373737002C2000353030304B
:101E9600004C6576656C2031204D616E75616C2E47
:101EA6002E2E2E2E2E2E2E004C6576656C20322080
:101EB6002E2E2E2E2E2E2E2E004C6576656C203361
:0A1EC600202E2E2E2E2E2E2E2E0082
:00000001FF
