:100000000C9477000C949F000C949F000C949F001C
:100010000C949F000C949F000C949F000C949F00E4
:100020000C949F000C949F000C949F000C9451051D
:100030000C949F000C949F000C949F000C949F00C4
:100040000C94AF040C949F000C941F050C94F904BD
:100050000C949F000C949F000C949F000C949F00A4
:100060000C949F000C949F000C9400000C940000D2
:100070000C9400000C9400000000000024002700F5
:100080002A002D0000000000250028002B002E0073
:10009000000000002300260029002C000000003290
:1000A000F0111000002021310000000000000000CD
:1000B0000000040404040404040402020202020214
:1000C00003030303030305050505050505020201F6
:1000D00002040810204080010204081020010204DC
:1000E0000810200208010410204040800D06112451
:1000F0001FBECFEFD8E0DEBFCDBF11E0A0E0B1E082
:10010000EEE1F2E102C005900D92A233B107D9F7FA
:1001100022E0A2E3B1E001C01D92A730B207E1F7EF
:1001200010E0C7E7D0E004C02197FE010E9400095B
:10013000C637D107C9F70E9484060C940D090C94A8
:1001400000008051863308F05CC0E82FF0E0E555F0
:10015000FF4F0C940009EB00EF00EB00EF000101F2
:10016000010101010101010101010101010101017F
:10017000010101010101E100E7000101E100E700E7
:10018000010101010101010101010101010101015F
:100190000101010101010101F200F800F200F80083
:1001A000010101010101010101010101010101013F
:1001B000010101010101FC0002010601FC00020134
:1001C000FC00809180008F7780938000089580915B
:1001D00080008F7DF9CF84B58F7784BD089584B575
:1001E0008F7DFBCF8091B0008F778093B000089512
:1001F0008091B0008F7DF9CF809190008F778093B0
:1002000090000895809190008F7DF9CF80919000AB
:10021000877FF5CFCF93DF9390E0FC01E153FF4F51
:10022000C491FC01EE54FF4FD491DD23F1F0FC01A9
:10023000E456FF4FE491EE2339F0F0E0E456FF4F2F
:10024000849181110E94A100ED2FF0E0EE0FFF1FBD
:10025000E057FF4FA591B491EC91CE2381E090E05F
:1002600009F480E0DF91CF91089580E090E0FACF2B
:100270001F93CF93DF9390E0FC01E153FF4FD491A4
:10028000FC01EE54FF4FC491CC23C9F0162F8456C5
:100290009F4FFC01849181110E94A100EC2FF0E09E
:1002A000EE0FFF1FEC57FF4FA591B4918FB7F89455
:1002B000EC91111108C0D095DE23DC938FBFDF9144
:1002C000CF911F910895DE2BF8CFCF93DF93282F86
:1002D00030E0F901E153FF4F44912E543F4FF901B3
:1002E0002491843019F583E08093A0002223D9F073
:1002F000822F90E0880F991FFC01E858FF4FA591CD
:10030000B491FC01EC57FF4FC591D491623019F5BF
:100310009FB7F8942C91842F809582238C93E88149
:100320004E2B48839FBFDF91CF9108959AEE980F8F
:10033000923020F48FEF84BF84BFD8CF8A31B1F6DA
:100340008091F00082608EBB80E88093F0008EB3D5
:100350008093F000CBCF8FB7F894EC914E2B4C9359
:100360008FBFE1CFCF93DF931F92CDB7DEB7198256
:1003700080917A00806480937A0080917A0086FD73
:10038000FCCF8091780089839091790089810F90CA
:10039000DF91CF9108950F931F93CF93DF93EDEAF1
:1003A000F0E09081907F90838E50806480937C00F9
:1003B000CDE7D0E08881806288830E94B2018C0101
:1003C00088818F7D88830E94B201800F911F23E076
:1003D000969587952A95E1F7DF91CF911F910F911F
:1003E00008953FB7F89480913B0190913C01A09112
:1003F0003D01B0913E0126B5A89B05C02F3F19F0E5
:100400000196A11DB11D3FBFBA2FA92F982F882794
:10041000BC01CD01620F711D811D911D42E0660F6F
:10042000771F881F991F4A95D1F708958F929F9241
:10043000AF92BF92CF92DF92EF92FF924B015C019D
:100440000E94F1016B017C010E94F1016C197D0990
:100450008E099F09683E734081059105A8F321E04C
:10046000821A9108A108B10888EEC80E83E0D81E50
:10047000E11CF11C81149104A104B10429F7FF903F
:10048000EF90DF90CF90BF90AF909F908F900895A6
:10049000AF92BF92CF92DF92EF92FF920F931F9392
:1004A000CF93DF936C017B018B01040F151FEB01D0
:1004B0005E01AE18BF08C017D10759F06991D60187
:1004C000ED91FC910190F081E02DC6010995892BF9
:1004D00079F7C501DF91CF911F910F91FF90EF90B8
:1004E000DF90CF90BF90AF900895FC01918D828DE9
:1004F000981761F0A28DAE0FBF2FB11D5D968C9144
:10050000928D9F5F9F73928F90E008958FEF9FEF82
:100510000895FC01918D828D981731F0828DE80F3E
:10052000F11D858D90E008958FEF9FEF0895FC01F8
:10053000918D228D892F90E0805C9F4F821B9109C5
:100540008F73992708958FE391E00E94970221E02D
:10055000892B09F420E0822F089580E090E0892B18
:1005600029F00E94A30281110C9400000895CF93FA
:10057000DF93FC01A48DC689D789A80FB92FB11DBF
:10058000A35ABF4F8C918883848D90E001968F731E
:100590009927848FA089B1898C91837080648C9312
:1005A000938D848D981306C00288F389E02D808195
:1005B0008F7D8083DF91CF910895EF92FF920F930B
:1005C0001F93CF93DF93EC0181E0888F9B8D8C8DFF
:1005D00098131AC0E889F989808185FF15C09FB7F3
:1005E000F894EE89FF896083E889F98980818370B6
:1005F000806480839FBF81E090E0DF91CF911F9165
:100600000F91FF90EF900895F62E0B8D10E00F5F85
:100610001F4F0F731127E02E8C8D8E110CC00FB65B
:1006200007FCFACFE889F989808185FFF5CFCE01F3
:100630000E94B702F1CFEB8DEC0FFD2FF11DE35AB5
:10064000FF4FF0829FB7F8940B8FEA89FB89808176
:100650008062CFCF682F8FE391E00C94DD02CF93BF
:10066000DF93EC01888D8823B9F0AA89BB89E889DA
:10067000F9898C9185FD03C0808186FD0DC00FB680
:1006800007FCF7CF8C9185FFF2CF808185FFEDCFFE
:10069000CE010E94B702E9CFDF91CF910895CF92AA
:1006A000DF92EF92FF92CF93DF93EC01603282E012
:1006B0007807CCF5653B710514F064EB70E0898137
:1006C00028E830E0281B310987FD3395220F331FBE
:1006D000220F331F6901330FEE08FF088A8128E5D6
:1006E00032E0281B310987FD3395220F331F220F7B
:1006F000331F032E000C440B550B2C193D094E09DA
:100700005F09DB0177FF02C0B0E0A0E00E94BB08F8
:1007100024EB30E040E050E00E949108C20ED31E6E
:10072000E41EF51EB601E881EC3070F5298188E8F9
:1007300090E0821B910927FD9395880F991F880FE0
:10074000991F681779077CF02A8188E592E0821B5F
:10075000910927FD9395880F991F880F991F681796
:1007600079070CF4CB010297880F991F4FB7F894C3
:100770002E2F30E0F901EE0FFF1FE20FF31FE452BE
:10078000FE4F928381834FBFDF91CF91FF90EF9017
:10079000DF90CF9008951F93CF93DF93EC01162F36
:1007A00088818C3008F04EC061E0812F0E94650185
:1007B0008881282F30E0F901EE0FFF1FE20FF31FB1
:1007C000E452FE4F1F736081607C612B608319824D
:1007D0001A822CE0622F0E94F408829FB00111243B
:1007E00030E020E0AB01420F531FFA01EE0FFF1F74
:1007F000E40FF51FE452FE4F908196FD16C02F5F67
:100800003F4F2C30310571F781110FC010928000DD
:1008100082E0809381001092850010928400B19A4A
:1008200080916F00826080936F00E8818E2F90E04E
:10083000FC01EE0FFF1FE80FF91FE452FE4F80810D
:10084000806480838881DF91CF911F910895FC019E
:1008500001900020E9F73197AF01481B590BBC010B
:100860008FE391E00C9448028F929F92AF92BF92D7
:10087000CF92DF92EF92FF920F931F93CF93DF936C
:10088000CDB7DEB7A1970FB6F894DEBF0FBECDBFD0
:100890006C01990FEE08FF08F7FE3FC08DE20E9441
:1008A0002A038C0122273327A9012C193D094E095F
:1008B0005F0919A2CE0181967C019AE0892E912CC4
:1008C000A12CB12CCA01B901A50194010E94C30851
:1008D000605DF70162937F012115310541055105E6
:1008E00089F790E080E0309719F0CF010E9427044B
:1008F000800F911FA1960FB6F894DEBF0FBECDBF3B
:10090000DF91CF911F910F91FF90EF90DF90CF90EB
:10091000BF90AF909F908F900895A701960119A264
:100920008E010F5D1F4F8AE0C82ED12CE12CF12CD7
:10093000CA01B901A70196010E94C308605DF801D0
:1009400062938F01211531054105510589F790E02A
:1009500080E0309779F2CF010E942704CBCF1F921D
:100960000F920FB60F9211242F933F938F939F9363
:10097000AF93BF938091370190913801A0913901D5
:10098000B0913A013091360123E0230F2D3758F50D
:100990000196A11DB11D20933601809337019093DC
:1009A0003801A0933901B0933A0180913B019091B5
:1009B0003C01A0913D01B0913E010196A11DB11DE8
:1009C00080933B0190933C01A0933D01B0933E0185
:1009D000BF91AF919F918F913F912F910F900FBE3B
:1009E0000F901F90189526E8230F0296A11DB11DA8
:1009F000D2CF1F920F920FB60F9211242F933F93D5
:100A00004F935F936F937F938F939F93AF93BF9316
:100A1000EF93FF938FE391E00E94B702FF91EF9174
:100A2000BF91AF919F918F917F916F915F914F9106
:100A30003F912F910F900FBE0F901F9018951F920E
:100A40000F920FB60F9211242F938F939F93EF93D2
:100A5000FF93E0914F01F09150018081E0915501A9
:100A6000F091560182FD1BC09081809158018F5FEB
:100A70008F7320915901821741F0E0915801F0E005
:100A8000E15CFE4F958F80935801FF91EF919F910C
:100A90008F912F910F900FBE0F901F90189580810E
:100AA000F4CF1F920F920FB60F9211242F933F9302
:100AB0004F935F936F937F938F939F93AF93BF9366
:100AC000CF93DF93EF93FF9380913201C0910002A7
:100AD000D0E087FF24C0109285001092840080919E
:100AE00032018F5F8093320180913201082E000C19
:100AF000990B8C179D0724F4809132018C30C4F13E
:100B00008091840090918500049680349C4908F47B
:100B10007AC08091840090918500049676C080917F
:100B20003201082E000C990B8C179D07C4F6E0913A
:100B300032018E2FEE0F990BFC01EE0FFF1FE80F15
:100B4000F91FE452FE4F808186FFC9CFE091320148
:100B50008E2FEE0F990BFC01EE0FFF1FE80FF91F10
:100B6000E452FE4F808160E08F730E943801B7CF5E
:100B70002091840030918500E09132018E2FEE0F9C
:100B8000990BFC01EE0FFF1FE80FF91FE452FE4F17
:100B900081819281820F931F9093890080938800B6
:100BA000E09132018E2FEE0F990BFC01EE0FFF1F2B
:100BB000E80FF91FE452FE4F808186FF11C0E091DB
:100BC00032018E2FEE0F990BFC01EE0FFF1FE80F85
:100BD000F91FE452FE4F808161E08F730E9438015B
:100BE000FF91EF91DF91CF91BF91AF919F918F9145
:100BF0007F916F915F914F913F912F910F900FBE19
:100C00000F901F90189580E49CE990938900809341
:100C100088008FEF80933201E3CF1092420110924F
:100C2000410188EE93E0A0E0B0E08093430190930F
:100C30004401A0934501B093460188E091E0909370
:100C4000400180933F0185EC90E090934C018093AC
:100C50004B0184EC90E090934E0180934D0180EC29
:100C600090E09093500180934F0181EC90E090933D
:100C700052018093510182EC90E090935401809353
:100C8000530186EC90E090935601809355011092A9
:100C900058011092590110925A0110925B018091F3
:100CA00000028C3048F591E0980F909300028093F9
:100CB000040290E0FC01EE0FFF1FE80FF91FE45261
:100CC000FE4F88EB9BE092838183809100028C3001
:100CD000B8F491E0980F909300028093010290E0A5
:100CE000FC01EE0FFF1FE80FF91FE452FE4F88EBE7
:100CF0009BE09283818308958FEF80930402E5CF78
:100D00008FEF8093010208958091F20080618EBB85
:100D100080E88093F2009EB39093F20090913501A9
:100D200091114DC08093610021E02093610000008B
:100D300000009091F00094609EBB8093F0009EB301
:100D40009093F0009091F200937F94609EBB80930B
:100D5000F2009EB39093F20000000000000000003B
:100D60000000000000000000000000000000000083
:100D70000000000000000000000000000000000073
:100D80008093F20097EB9093F200000000000000C7
:100D90000000000000000000000000000000000053
:100DA0000000000000000000000000000000000043
:100DB00000002093350180936100109261007894C7
:100DC00084B5826084BD84B5816084BD85B58B7F28
:100DD00085BD85B5826085BD85B5816085BD809105
:100DE0006E00816080936E0010928100809181007E
:100DF0008260809381008091810081608093810076
:100E0000809180008160809380008091B100846037
:100E10008093B1008091B00082608093B000809197
:100E2000B00081608093B00080917A0084608093EC
:100E30007A0080917A00826080937A0080917A00B3
:100E4000816080937A0080917A00806880937A0034
:100E50001092C10062E080E10E94650162E081E1E0
:100E60000E94650162E082E10E94650162E083E127
:100E70000E94650162E084E00E94650162E082E018
:100E80000E94650166E070E084E092E00E94CB037E
:100E90006AE570E084E092E00E944F0365E070E054
:100EA00081E092E00E94CB036AE570E081E092E08D
:100EB0000E944F0364EF71E080E090E00E94160210
:100EC000E0914F01F091500182E08083E0914B016D
:100ED000F0914C011082E0914D01F0914E018FECA8
:100EE000808310925701E0915301F091540186E004
:100EF0008083E0915101F091520180818061808373
:100F0000E0915101F0915201808188608083E091ED
:100F10005101F0915201808180688083E0915101FC
:100F2000F091520180818F7D808344244A9463E054
:100F3000562E612C712C70E0872E70E0972EE4EB1A
:100F4000AE2EB12C82E00E940A01892B09F4B8C0B0
:100F500084E191E00E94270483E291E00E9427044B
:100F600080E10E94CB018C0181E10E94CB01EC0168
:100F700082E10E94CB017C0183E10E94CB016C01E4
:100F8000C8010E9434048DE20E942A03CE010E940F
:100F900034048DE20E942A03C7010E9434048DE2CA
:100FA0000E942A03C6010E9434048EE20E942A0392
:100FB00083E291E00E942704C8018C0F9D1F97FDDA
:100FC00001969595879597012C0D3D1D37FF02C021
:100FD0002F5F3F4F35952795821B930BCC0DDD1D61
:100FE000D7FD2196D595C7950E0D1F1D17FF02C081
:100FF0000F5F1F4F15950795C01BD10B2091020164
:1010000030910301863F4FEF9407F4F421503109EA
:10101000253B31052CF4309303012093020104C0D9
:10102000B0920301A0920201809100019091010110
:10103000CB30D105D4F10197853B910584F4909391
:101040000101809300010FC00B9774F32F5F3F4F96
:1010500037FFE1CF1092030110920201E5CFB09269
:101060000101A0920001609102017091030181E0F1
:1010700092E00E944F03609100017091010184E0B1
:1010800092E00E944F0365E070E080E090E00E94F3
:1010900016028114910409F455CF0E94A3028823FB
:1010A00009F450CF0E9400004DCFC63FDF4FDCF661
:1010B000019697FFC4CF1092010110920001D3CF87
:1010C00086E291E00E94270483E291E00E942704D7
:1010D0008EE00E94CB0124EB30E0DC010E94060987
:1010E000A30192010E949108690130933401209379
:1010F000330184E00E940A01B601892B49F084E0A3
:1011000092E00E944F03D0920101C0920001C1CF32
:1011100081E092E00E944F03D0920301C09202014D
:10112000B8CF052E97FB1EF400940E94A80857FD27
:1011300007D00E94C30807FC03D04EF40C94A80803
:1011400050954095309521953F4F4F4F5F4F0895F3
:1011500090958095709561957F4F8F4F9F4F089523
:101160000E94E508A59F900DB49F900DA49F800D4F
:10117000911D11240895B7FF0C94B0080E94B00887
:10118000821B930B0895A1E21A2EAA1BBB1BFD0123
:101190000DC0AA1FBB1FEE1FFF1FA217B307E40756
:1011A000F50720F0A21BB30BE40BF50B661F771FAE
:1011B000881F991F1A9469F760957095809590958E
:1011C0009B01AC01BD01CF010895A29FB001B39F67
:1011D000C001A39F700D811D1124911DB29F700D40
:1011E000811D1124911D0895991B79E004C0991F58
:1011F000961708F0961B881F7A95C9F78095089571
:10120000EE0FFF1F0590F491E02D09940E94E50870
:0E121000B7FF0895821B930B0895F894FFCF4B
:10121E005A005A0000000000DD02480297027502D3
:10122E0089022F034175746F6D61746963204D6F70
:10123E006465000D0A004D616E75616C204D6F6422
:02124E00650039
:00000001FF
