:100000000C9470000C9482000C9482000C9482007A
:100010000C9482000C9482000C9482000C94820058
:100020000C9482000C9482000C9482000C94820048
:100030000C9482000C9482000C9482000C94820038
:100040000C9493010C9482000C9482000C94820016
:100050000C9482000C9482000C9482000C94820018
:100060000C9482000C9482000C9400000C9400000C
:100070000C9400000C94000000000032F0111000FD
:1000800000202131000000000000000000000000FE
:100090000000250028002B002E0000000000240096
:1000A00027002A002D0004040404040404040202AE
:1000B0000202020203030303030305050505050508
:1000C0000502020102040810204080010204081009
:1000D0002001020408102002080104102040408082
:1000E00011241FBECFEFD8E0DEBFCDBF21E0A0E0DE
:1000F000B1E001C01D92AA30B207E1F70E94DD0114
:100100000C9432030C940000282F30E0F901ED53D9
:10011000FF4F44912A553F4FF9012491843019F43F
:1001200083E08093A0002223A1F0822F90E0880F2B
:10013000991FFC01E656FF4FA591B491FC01E257CF
:10014000FF4F859194918FB7F894EC91E42BEC9349
:100150008FBF089590E0FC01ED53FF4F3491FC01F7
:10016000EA55FF4F2491222309F45CC0FC01E858B2
:10017000FF4FE491EE2309F444C0E051E63308F068
:1001800040C0F0E0EA53FF4F0C942C0317011B0111
:1001900017011B010101010101010101010101011F
:1001A000010101010101010101010101FC00130133
:1001B0000101FC0013010101010101010101010123
:1001C00001010101010101010101010101011E0102
:1001D00024011E01240101010101010101010101AC
:1001E00001010101010101010101010128012E01AB
:1001F000320128012E012801809180008F778093A1
:100200008000E22FF0E0EE0FFF1FE257FF4FA591B5
:10021000B4918FB7F894EC91611128C030953E23CA
:100220003C938FBF0895809180008F7DE8CF84B587
:100230008F7784BDE6CF84B58F7DFBCF8091B000F2
:100240008F778093B000DDCF8091B0008F7DF9CFA4
:10025000809190008F7780939000D3CF8091900011
:100260008F7DF9CF80919000877FF5CF3E2BD8CF3F
:100270003FB7F8948091060190910701A091080181
:10028000B091090126B5A89B05C02F3F19F0019632
:10029000A11DB11D3FBFBA2FA92F982F8827BC01E0
:1002A000CD01620F711D811D911D42E0660F771F08
:1002B000881F991F4A95D1F708958F929F92AF9208
:1002C000BF92CF92DF92EF92FF920E9438014B01D2
:1002D0005C0188E8C82E83E1D82EE12CF12C0E9425
:1002E0003801681979098A099B09683E73408105BC
:1002F0009105A8F321E0C21AD108E108F10888EEBF
:10030000880E83E0981EA11CB11CC114D104E10425
:10031000F10429F7FF90EF90DF90CF90BF90AF905E
:100320009F908F9008951F920F920FB60F921124F5
:100330002F933F938F939F93AF93BF93809102012D
:1003400090910301A0910401B09105013091010148
:1003500023E0230F2D3758F50196A11DB11D2093E1
:1003600001018093020190930301A0930401B093D3
:1003700005018091060190910701A0910801B091BB
:1003800009010196A11DB11D8093060190930701FB
:10039000A0930801B0930901BF91AF919F918F91F4
:1003A0003F912F910F900FBE0F901F90189526E848
:1003B000230F0296A11DB11DD2CF8091F200806162
:1003C0008EBB80E88093F2009EB39093F2009091F0
:1003D000000191114DC08093610021E020936100E4
:1003E000000000009091F00094609EBB8093F000AC
:1003F0009EB39093F0009091F200937F94609EBB27
:100400008093F2009EB39093F20000000000000081
:1004100000000000000000000000000000000000DC
:1004200000000000000000000000000000000000CC
:1004300000008093F20097EB9093F2000000000020
:1004400000000000000000000000000000000000AC
:10045000000000000000000000000000000000009C
:100460000000000020930001809361001092610061
:10047000789484B5826084BD84B5816084BD85B57F
:100480008B7F85BD85B5826085BD85B5816085BD65
:1004900080916E00816080936E0010928100809147
:1004A00081008260809381008091810081608093CF
:1004B0008100809180008160809380008091B100F4
:1004C00084608093B1008091B00082608093B0001E
:1004D0008091B00081608093B00080917A00846048
:1004E00080937A0080917A00826080937A00809174
:1004F0007A00816080937A0080917A00806880938E
:100500007A001092C1008AE00E94840089E00E9473
:10051000840087E00E94840081E00E94840060E003
:100520008AE00E94AA0060E089E00E94AA0060E0E0
:1005300087E00E94AA0060E081E00E94AA008AE0B1
:100540000E94840061E08AE00E94AA000E945D018E
:1005500089E00E948400E1E8F0E0E491E13309F4ED
:100560005DC0D0F4E13109F448C038F4E03179F1EC
:1005700061E089E00E94AA002FC0E03209F442C085
:10058000E132B1F789E990E090938B0080938A0083
:100590008091800080623FC0E13409F44FC070F464
:1005A000E23309F444C0E03419F789E980939800F4
:1005B000809190008068809390000EC0E23409F42E
:1005C00044C0E03FA9F689E98093A10005C089E90C
:1005D00087BD84B5806884BD0E945D0161E087E0CD
:1005E0000E94AA0061E081E00E94AA00C0E0D0E081
:1005F0002097F1F30E940000FBCF89E988BD84B504
:100600008062E9CF89E990E0909389008093880027
:1006100080918000806880938000DECF89E980939C
:10062000B3008091B00080688093B000D5CF89E995
:100630008093B4008091B0008062F6CF89E9809306
:100640009A00809190008062B6CF89E980939E00E5
:10065000809190008860AFCFEE0FFF1F0590F4915E
:08066000E02D0994F894FFCF8E
:00000001FF
