:100000000C9485000C942D050C9406050C94AD0001
:100010000C94AD000C94AD000C94AD000C94540500
:100020000C94AD000C94AD000C94AD000C94AD009C
:100030000C94AD000C94AD000C94AD000C94AD008C
:100040000C94BC040C94AD000C94D6050C94B00533
:100050000C94AD000C94AD000C94AD000C94AD006C
:100060000C94AD000C94AD000C9400000C940000B6
:100070000C9400000C94000005A84CCDB2D44EB9ED
:100080003836A9020C50B9918688083CA6AAAA2A3B
:10009000BE000000803F020000000023002600296F
:1000A000002C0000000000240027002A002D000082
:1000B000000000250028002B002E0000000032F078
:1000C000111000002021310000000000000000009D
:1000D00000040404040404040402020202020203F1
:1000E00003030303030505050505050501020408CF
:1000F0001020408001020408102001020408102092
:100100000208010410204000360B11241FBECFEF5F
:10011000D8E0DEBFCDBF11E0A0E0B1E0ECE1FDE151
:1001200002C005900D92AE3CB107D9F722E0AEECCB
:10013000B1E001C01D92AC38B207E1F710E0C5E8AC
:10014000D0E004C02197FE010E94700EC438D10790
:10015000C9F70E9408060C948C0E0C940000805184
:10016000863308F05CC0E82FF0E0E754FF4F0C94B2
:10017000700EF900FD00F900FD000F010F010F01E5
:100180000F010F010F010F010F010F010F010F01EF
:100190000F01EF00F5000F01EF00F5000F010F0157
:1001A0000F010F010F010F010F010F010F010F01CF
:1001B0000F010F0100010601000106010F010F01EF
:1001C0000F010F010F010F010F010F010F010F01AF
:1001D0000F010A01100114010A0110010A018091A6
:1001E00080008F77809380000895809180008F7DBC
:1001F000F9CF84B58F7784BD089584B58F7DFBCF0B
:100200008091B0008F778093B00008958091B00006
:100210008F7DF9CF809190008F7780939000089523
:10022000809190008F7DF9CF80919000877FF5CFEE
:100230001F93CF93DF9390E0FC01E451FF4FD491E3
:10024000FC01EF52FF4FC491CC23C9F0162F855407
:100250009F4FFC01849181110E94AF00EC2FF0E0D0
:10026000EE0FFF1FE155FF4FA591B4918FB7F894A2
:10027000EC91111108C0D095DE23DC938FBFDF9184
:10028000CF911F910895DE2BF8CFCF93DF93282FC6
:1002900030E0F901E451FF4F44912F523F4FF901F3
:1002A0002491843019F483E08093A0002223D1F0BC
:1002B000822F90E0880F991FFC01ED55FF4FA5910B
:1002C000B491FC01E155FF4FC591D49161110DC06E
:1002D0009FB7F8948C91409584238C938881482310
:1002E00048839FBFDF91CF910895623051F49FB74B
:1002F000F8942C91842F809582238C93E8814E2B47
:10030000EFCF8FB7F894EC914E2B4C938FBFEACF81
:10031000E82FF0E0E554FF4FE491E13309F442C0E7
:10032000C0F4E13189F148F4E03149F160387105F8
:1003300008F052C060E00C941801E03249F1E1325B
:10034000A9F770938B0060938A008091800080628F
:1003500026C0E134A9F160F4E23361F1E03431F711
:100360006093980080919000806880939000089539
:10037000E23461F1E03FD1F66093A100089567BDDA
:1003800084B5806884BD089568BD84B58062FACF65
:1003900070938900609388008091800080688093CA
:1003A000800008956093B3008091B00080688093CE
:1003B000B00008956093B4008091B0008062F7CFE0
:1003C00060939A00809190008062CFCF60939E00EE
:1003D000809190008860C9CF61E0ADCFCF93DF936B
:1003E0001F92CDB7DEB7198280917A008064809326
:1003F0007A0080917A0086FDFCCF80917800898315
:100400009091790089810F90DF91CF9108953FB746
:10041000F8948091EB019091EC01A091ED01B091E5
:10042000EE0126B5A89B05C02F3F19F00196A11D2E
:10043000B11D3FBFBA2FA92F982F8827BC01CD012E
:10044000620F711D811D911D42E0660F771F881F8D
:10045000991F4A95D1F708958F929F92AF92BF92BC
:10046000CF92DF92EF92FF926B017C010E94070214
:100470004B015C01C114D104E104F104B9F00E9404
:100480000702681979098A099B09683E734081054A
:10049000910580F321E0C21AD108E108F10888EE45
:1004A000880E83E0981EA11CB11CE4CFFF90EF9052
:1004B000DF90CF90BF90AF909F908F90089581E094
:1004C0008093E401089508959091040189130DC06B
:1004D000E6E9F0E0E4919FEF90930401E13059F0F8
:1004E00038F0E23071F0E330E9F060E00C9418018C
:1004F00010926E00FACF90916F009D7F90936F00E5
:10050000F4CF909170009D7F9093700091E0909354
:10051000B0009091B100987F94609093B1001092D8
:10052000B300E3CF909171009D7F90937100DDCF78
:10053000AF92BF92CF92DF92EF92FF920F931F93F1
:10054000CF93DF936C017B018B01040F151FEB012F
:100550005E01AE18BF08C017D10759F06991D601E6
:10056000ED91FC910190F081E02DC6010995892B58
:1005700079F7C501DF91CF911F910F91FF90EF9017
:10058000DF90CF90BF90AF900895FC01918D828D48
:10059000981761F0A28DAE0FBF2FB11D5D968C91A3
:1005A000928D9F5F9F73928F90E008958FEF9FEFE2
:1005B0000895FC01918D828D981731F0828DE80F9E
:1005C000F11D858D90E008958FEF9FEF0895FC0158
:1005D000918D228D892F90E0805C9F4F821B910925
:1005E0008F73992708958FEE91E00E94E70221E032
:1005F000892B09F420E0822F089580E090E0892B78
:1006000029F00E94F30281110C9400000895FC016E
:10061000A48DA80FB92FB11DA35ABF4F2C91848D63
:1006200090E001968F739927848FA689B7892C93C0
:10063000A089B1898C9180648C93938D848D98135B
:1006400006C00288F389E02D80818F7D8083089524
:10065000EF92FF920F931F93CF93DF93EC0181E012
:10066000888F9B8D8C8D981316C0E889F9898081BD
:1006700085FF11C0EE89FF896083E889F98980814F
:100680008064808381E090E0DF91CF911F910F9192
:10069000FF90EF900895F62E0B8D10E00F5F1F4F27
:1006A0000F731127E02E8C8D8E110CC00FB607FC36
:1006B000FACFE889F989808185FFF5CFCE010E94C4
:1006C0000703F1CFEB8DEC0FFD2FF11DE35AFF4F28
:1006D000F0820B8FEA89FB8980818062D2CFCF9331
:1006E000DF93EC01888D8823B9F0AA89BB89E8895A
:1006F000F9898C9185FD03C0808186FD0DC00FB600
:1007000007FCF7CF8C9185FFF2CF808185FFEDCF7D
:10071000CE010E940703E9CFDF91CF910895FC013C
:1007200001900020E9F73197AF01481B590BBC013C
:100730008FEE91E00C9498028F929F92AF92BF92AD
:100740000F931F93CF93DF93CDB7DEB7A1970FB66B
:10075000F894DEBF0FBECDBF19A2423008F44AE0C4
:100760008E010F5D1F4F842E912CB12CA12CA50161
:1007700094010E942F0EE62FB901CA01EA30F4F469
:10078000E05DD801EE938D01232B242B252B79F7E7
:1007900090E080E0109719F0CD010E948F03A196A0
:1007A0000FB6F894DEBF0FBECDBFDF91CF911F9182
:1007B0000F91BF90AF909F908F900895E95CE1CF2B
:1007C0004F925F926F927F928F929F92AF92BF9261
:1007D000CF92DF92EF92FF920F931F93CF936B0113
:1007E0007C01742EAC019B010E94A20D882399F01C
:1007F0008DEA91E0CF911F910F91FF90EF90DF90E4
:10080000CF90BF90AF909F908F907F906F905F90B0
:100810004F900C948F0346015701E894B7F82FEFDF
:100820003FEF4FE75FE7C501B4010E94A20D8111C0
:100830000DC02FEF3FEF4FE75FE7C501B4010E9406
:10084000D00B18161CF481EB91E0D4CF2FEF3FEFC3
:100850004FE75FE4C701B6010E94280D18161CF48B
:1008600085EB91E0C7CF2FEF3FEF4FE75FECC7017C
:10087000B6010E94D00B87FDF3CF20E030E0A90144
:10088000C701B6010E94D00B10E000E087FF0AC04C
:100890006DE28FEE91E00E9428038C01F7FAF0944C
:1008A000F7F8F094C0E060E070E080E09FE37C1631
:1008B00041F020E030E040E251E40E94D50BCF5FF0
:1008C000F6CFA70196010E94640B2B013C010E9408
:1008D000470C4B015C014AE00E949C037C01E00E46
:1008E000F11ECC23C1F1C501B4010E94760C9B011D
:1008F000AC01C301B2010E94630B4B015C016EE2CB
:100900008FEE91E00E942803E80EF91EC15018F105
:1009100020E030E040E251E4C501B4010E942D0D19
:100920002B013C010E94470C4B01B12CA12C4AE049
:10093000C501B4010E949C03E80EF91EC501B40173
:100940000E94760C9B01AC01C301B2010E94630BB3
:100950004B015C01DBCFC701CF911F910F91FF903D
:10096000EF90DF90CF90BF90AF909F908F907F904F
:100970006F905F904F9008951F920F920FB60F9255
:1009800011242F933F938F939F93AF93BF938091A5
:10099000E7019091E801A091E901B091EA0130915D
:1009A000E60123E0230F2D3758F50196A11DB11D57
:1009B0002093E6018093E7019093E801A093E90179
:1009C000B093EA018091EB019091EC01A091ED01CF
:1009D000B091EE010196A11DB11D8093EB019093A2
:1009E000EC01A093ED01B093EE01BF91AF919F9107
:1009F0008F913F912F910F900FBE0F901F901895E0
:100A000026E8230F0296A11DB11DD2CF1F920F928F
:100A10000FB60F9211242F933F934F935F936F93D1
:100A20007F938F939F93AF93BF93EF93FF93E09147
:100A30000201F09103010995FF91EF91BF91AF91F0
:100A40009F918F917F916F915F914F913F912F91E6
:100A50000F900FBE0F901F9018951F920F920FB618
:100A60000F9211242F933F934F935F936F937F9334
:100A70008F939F93AF93BF93EF93FF93E091000108
:100A8000F09101010995FF91EF91BF91AF919F9175
:100A90008F917F916F915F914F913F912F910F9027
:100AA0000FBE0F901F9018951F920F920FB60F92C6
:100AB00011242F933F934F935F936F937F938F9363
:100AC0009F93AF93BF93EF93FF938091D801909141
:100AD000D901A091DA01B091DB01892B8A2B8B2BF4
:100AE000D1F19091CF01E091D001F091D1018081BD
:100AF000892780838091D8019091D901A091DA0152
:100B0000B091DB01181619061A061B069CF4809199
:100B1000D8019091D901A091DA01B091DB01019740
:100B2000A109B1098093D8019093D901A093DA016A
:100B3000B093DB01FF91EF91BF91AF919F918F91A6
:100B40007F916F915F914F913F912F910F900FBEC9
:100B50000F901F901895809104010E946402EACFC3
:100B60001F920F920FB60F9211242F933F934F9322
:100B70005F936F937F938F939F93AF93BF93EF9305
:100B8000FF938FEE91E00E940703FF91EF91BF91D9
:100B9000AF919F918F917F916F915F914F913F9115
:100BA0002F910F900FBE0F901F9018951F920F92CC
:100BB0000FB60F9211242F938F939F93EF93FF9370
:100BC000E091FF01F09100028081E0910502F09137
:100BD000060282FD1BC09081809108028F5F8F7397
:100BE00020910902821741F0E0910802F0E0E15102
:100BF000FE4F958F80930802FF91EF919F918F9107
:100C00002F910F900FBE0F901F9018958081F4CFF9
:100C1000CF93DF93CDB7DEB729970FB6F894DEBF39
:100C20000FBECDBF8091F20080618EBB80E88093C3
:100C3000F2009EB39093F2009091E501911166C08D
:100C40008093610021E020936100000000009091FA
:100C5000F00094609EBB8093F0009EB39093F000F0
:100C60009091F200937F94609EBB8093F2009EB3BC
:100C70009093F2000000000000000000000000005F
:100C80000000000000000000000000000000000064
:100C90000000000000000000000000008093F2004F
:100CA00097EB9093F20000000000000000000000AD
:100CB0000000000000000000000000000000000034
:100CC0000000000000000000000000000000809311
:100CD000F20096EB9093F20000000000000000008C
:100CE0000000000000000000000000000000000004
:100CF00000000000000000000000000000000000F4
:100D00002093E5018093610010926100789484B58E
:100D1000826084BD84B5816084BD85B58B7F85BDCF
:100D200085B5826085BD85B5816085BD80916E0089
:100D3000816080936E0010928100809181008260BA
:100D400080938100809181008160809381008091F7
:100D500080008160809380008091B10084608093E6
:100D6000B1008091B00082608093B0008091B000AB
:100D700081608093B00080917A00846080937A00D3
:100D800080917A00826080937A0080917A008160FD
:100D900080937A0080917A00806880937A00109224
:100DA000C100E091FF01F091000282E08083E091B8
:100DB000FB01F091FC011082E091FD01F091FE0138
:100DC0008FEC808310920702E0910302F0910402FD
:100DD00086E08083E0910102F091020280818061CF
:100DE0008083E0910102F09102028081886080831B
:100DF000E0910102F0910202808180688083E0919D
:100E00000102F091020280818F7D808361E08CE09D
:100E10000E94450161E08DE00E94450161E08AE0A9
:100E20000E94450161E080E10E94450161E081E1AD
:100E30000E94450161E089E00E94450160E08EE08A
:100E40000E94450160E083E00E94450162E082E08B
:100E50000E94450161E08BE00E94450161E085E070
:100E60000E94450161E086E00E9445018FE592E025
:100E70009093030180930201809169008C608093BC
:100E80006900E99A89EB91E00E948F038AEC91E076
:100E90000E948F038091E401882309F4B8C261E0C5
:100EA00089E00E9445016CE370E089E00E948801BE
:100EB00061E080E10E94180160E081E10E94180178
:100EC00021E631E03A83298385E191E098878F8399
:100ED000EDEAF1E029813A81E217F30709F484C2CF
:100EE000F90101911191FA83E983EF81F88521904D
:100EF0003190F887EF832101032C000C66087708F6
:100F00000115110509F46CC2809104018B3009F0C0
:100F1000C1C0E6E9F0E0F491F987F7FDB9C161E0FD
:100F20008BE00E944501F985FF2321F029852230BD
:100F300009F0B5C14801B12CA12C60E072E18AE74B
:100F400090E0A50198010E94510E2B833C834D83B4
:100F50005E8369017A0131E0C31AD108E108F10822
:100F60008FEFC816D104E104F10409F00CF477C145
:100F700060E472E48FE090E0A50198010E94510EB8
:100F800069017A0191E0C91AD108E108F108E985FF
:100F9000E23009F018C182E0FFEFCF16D104E1047E
:100FA000F10409F00CF46FC060E970ED83E090E0AB
:100FB000A50198010E94510E69017A0181E0C81AC9
:100FC000D108E108F10883E09FEFC916D104E104DC
:100FD000F10409F00CF457C068E478EE81E090E089
:100FE000A50198010E94510E69017A0181E0C81A99
:100FF000D108E108F10884E09FEFC916D104E104AB
:10100000F10409F00CF43FC064E274EF80E090E07A
:10101000A50194010E94510E69017A0181E0C81A6C
:10102000D108E108F10885E03FEFC316D104E104DF
:10103000F10449F140F162E17AE780E090E0A50136
:1010400094010E94510E69017A01E1E0CE1AD108A3
:10105000E108F10886E0FFEFCF16D104E104F104C6
:1010600091F088F0CB80DC80ED80FE808AE0F59402
:10107000E794D794C7948A95D1F7F1E0CF1AD108B5
:10108000E108F10887E09091B100987F892B809367
:10109000B100EDC08F3F09F0FBC08BE080930401ED
:1010A000E6E9F0E0F491F987FF3F09F4F1C0F1308F
:1010B00049F170F0F23009F444C0F33009F464C02F
:1010C000998597FDE5C061E08BE00E9445012ECF38
:1010D00014BC15BC84B5826084BD85B5816085BDB6
:1010E000ECEDF0E08491E82FF0E0EE0FFF1FE1550A
:1010F000FF4F85919491E7EFF0E084918093D301C5
:1011000019860DCF1092800010928100809181008D
:10111000886080938100809181008160809381004C
:10112000ECEDF0E08491E82FF0E0EE0FFF1FE155C9
:10113000FF4F85919491E7EFF0E084918093D20185
:10114000EECE1092B0001092B1008091B00082609B
:101150008093B0008091B10081608093B100ECED8C
:10116000F0E08491E82FF0E0EE0FFF1FE155FF4F14
:10117000859194919093D1018093D001E7EFF0E0B5
:1011800084918093CF01CBCE109290001092910069
:10119000809191008860809391008091910081609E
:1011A00080939100ECEDF0E08491E82FF0E0EE0FF9
:1011B000FF1FE155FF4F85919491E7EFF0E0849197
:1011C0008093CE01ACCEEFEFCE16D104E104F10452
:1011D00009F00CF462C068E478EE81E090E0A501CB
:1011E00098010E94510E69017A01F1E0CF1AD108ED
:1011F000E108F108298584E0211116CF83E02FEF63
:10120000C216D104E104F10471F16CF162E17AE7F4
:1012100080E090E0A50194010E94510E69017A01DD
:1012200091E0C91AD108E108F10884E0EFEFCE1689
:10123000D104E104F104B9F0B0F0CB80DC80ED80A2
:10124000FE809AE0F594E794D794C7949A95D1F7E5
:10125000E1E0CE1AD108E108F10885E004C081E0A0
:10126000F985F11110CF95B5987F892B85BD2FEFAA
:101270003FEFA9014114510461047104D1F589853E
:10128000813009F48BC00CF074C0882309F477C056
:10129000C301B2010E942C021BCE82E0E1CFB12C2F
:1012A000A12C60E072E18AE790E0A50198010E941C
:1012B000510E69017A0181E0C81AD108E108F108EC
:1012C000C114D10491E0E906F10404F591E0F98537
:1012D000F13069F580918100887F892B80938100AE
:1012E0002FEF3FEFA901411451046104710409F487
:1012F00055C09801220F331FD1010E94760E28EEAF
:1013000033E040E050E00E942F0EB9CF68E478EE61
:1013100081E090E0A50198010E94510E69017A01D7
:10132000E1E0CE1AD108E108F10893E0D0CF298599
:10133000233009F09CCF80919100887F892B809386
:1013400091002FEF3FEFA901411451046104710492
:1013500081F6C09298002093D4013093D501409338
:10136000D6015093D7018091710082608093710003
:101370008FCF9985923021F1933059F389CFC7BC33
:101380002093E0013093E1014093E2015093E301A7
:1013900080916E00826080936E007ACFD092890037
:1013A000C09288002093DC013093DD014093DE0180
:1013B0005093DF0180916F00826080936F0068CF4F
:1013C000C092B3002093D8013093D9014093DA0141
:1013D0005093DB018091700082608093700058CF41
:1013E0008BE00E94640254CF61E089E00E944501D5
:1013F0006CE370E089E00E94880160E080E10E9477
:10140000180160E081E10E9418011092E401EEEE03
:10141000F0E024912983E3EDF0E01491112309F425
:101420006CC0EDEBF0E0E491EE2339F0F0E0E55430
:10143000FF4F849181110E94AF00E12FF0E0EE0F89
:10144000FF1FE956FF4FA591B491EC9139813E23DE
:1014500009F453C061E085E00E941801C12CD12C31
:101460007601C701B6010E949A0D4B015C0142E072
:101470000E94E0038AEC91E00E948F0320E030E0BC
:10148000A901C501B4010E94280D18160CF0D6C0A0
:101490002DEC3CEC4CE45DE3C701B6010E94640B0B
:1014A0006B017C0161E08AE00E94450160E570E02B
:1014B0008AE00E94880160E08CE00E94180161E0EF
:1014C0008DE00E9418016EE170E080E090E00E94E3
:1014D0002C0260E08CE00E94180160E08DE00E9428
:1014E00018012BED3FE049EC50E4C701B6010E9422
:1014F000D00B18160CF0B5CF86C060E085E00E94D6
:101500001801C12CD12C76018091AD00807F809391
:10151000AD0080E480937C0080917D0080628093A8
:101520007D000E94EE018C0180917D008F7D809373
:101530007D000E94EE01B801680F791F23E07695C7
:1015400067952A95E1F7072E000C880B990B0E94EE
:10155000780C2DEC3CEC4CE45FEB0E942D0D20E070
:1015600030EC4FE754E40E94D50B20E030E040E837
:101570005FE30E94640B2B013C01C701B6010E948E
:101580009A0D4B015C0142E00E94E0038AEC91E07D
:101590000E948F0320E030E0A901C501B4010E9440
:1015A000280D61E01816E4F58AE00E9445016DEC13
:1015B00070E08AE00E94880161E08CE00E941801DE
:1015C00060E08DE00E9418016EE170E080E090E044
:1015D0000E942C0260E08CE00E94180160E08DE027
:1015E0000E941801A3019201C701B6010E94640B79
:1015F0006B017C012BED3FE049EC50E40E94D00BE5
:1016000018160CF081CF80E090E0892B09F442CCD1
:101610000E94F302882309F43DCC0E9400003ACCDA
:101620008AE00E9445016AEA70E08AE00E9488012F
:1016300060E08CE00E94180161E0C3CF2DEC3CEC2F
:101640004CE45EE3C701B6010E94640B6B017C01B0
:1016500061E08AE00E94450161E08AE00E94180191
:1016600061E08CE00E94180160E02ACFEFEEF1E02B
:101670001382128288EE93E0A0E0B0E08483958329
:10168000A683B78389E091E09183808385EC90E025
:101690009587848784EC90E09787868780EC90E03C
:1016A000918B808B81EC90E0938B828B82EC90E02D
:1016B000958B848B86EC90E0978B868B118E128EA7
:1016C000138E148E08955058BB27AA270E947B0BB7
:1016D0000C94EE0C0E94E00C38F00E94E70C20F015
:1016E00039F49F3F19F426F40C94DD0C0EF4E095C8
:1016F000E7FB0C94D70CE92F0E94FF0C58F3BA17A4
:10170000620773078407950720F079F4A6F50C9417
:10171000210D0EF4E0950B2EBA2FA02D0B01B9016F
:1017200090010C01CA01A0011124FF27591B99F057
:10173000593F50F4503E68F11A16F040A22F232F63
:10174000342F4427585FF3CF469537952795A795B3
:10175000F0405395C9F77EF41F16BA0B620B730B5A
:10176000840BBAF09150A1F0FF0FBB1F661F771FCB
:10177000881FC2F70EC0BA0F621F731F841F48F480
:10178000879577956795B795F7959E3F08F0B0CF09
:101790009395880F08F09927EE0F979587950895F0
:1017A0000E94B30C08F481E008950E94E90B0C94A8
:1017B000EE0C0E94E70C58F00E94E00C40F029F477
:1017C0005F3F29F00C94D70C51110C94220D0C940E
:1017D000DD0C0E94FF0C68F39923B1F3552391F3BC
:1017E000951B550BBB27AA2762177307840738F090
:1017F0009F5F5F4F220F331F441FAA1FA9F335D0ED
:101800000E2E3AF0E0E832D091505040E695001CA0
:10181000CAF72BD0FE2F29D0660F771F881FBB1F5A
:10182000261737074807AB07B0E809F0BB0B802D38
:10183000BF01FF2793585F4F3AF09E3F510578F064
:101840000C94D70C0C94220D5F3FE4F3983ED4F334
:10185000869577956795B795F7959F5FC9F7880F38
:10186000911D9695879597F90895E1E0660F771F8A
:10187000881FBB1F621773078407BA0720F0621B1B
:10188000730B840BBA0BEE1F88F7E09508950E9446
:10189000070D88F09F5798F0B92F9927B751B0F0EE
:1018A000E1F0660F771F881F991F1AF0BA95C9F7E4
:1018B00014C0B13091F00E94210DB1E008950C9454
:1018C000210D672F782F8827B85F39F0B93FCCF307
:1018D000869577956795B395D9F73EF49095809561
:1018E000709561957F4F8F4F9F4F0895E89409C081
:1018F00097FB3EF490958095709561957F4F8F4F43
:101900009F4F9923A9F0F92F96E9BB279395F69558
:10191000879577956795B795F111F8CFFAF4BB0FD6
:1019200011F460FF1BC06F5F7F4F8F4F9F4F16C03A
:10193000882311F096E911C0772321F09EE8872FC4
:10194000762F05C0662371F096E8862F70E060E080
:101950002AF09A95660F771F881FDAF7880F9695F9
:10196000879597F90895990F0008550FAA0BE0E89D
:10197000FEEF16161706E807F907C0F01216130651
:10198000E407F50798F0621B730B840B950B39F491
:101990000A2661F0232B242B252B21F408950A26F7
:1019A00009F4A140A6958FEF811D811D089597F937
:1019B0009F6780E870E060E008959FEF80EC0895F5
:1019C00000240A941616170618060906089500241E
:1019D0000A9412161306140605060895092E039498
:1019E000000C11F4882352F0BB0F40F4BF2B11F40C
:1019F00060FF04C06F5F7F4F8F4F9F4F089557FD6B
:101A00009058440F551F59F05F3F71F04795880F6C
:101A100097FB991F61F09F3F79F087950895121603
:101A200013061406551FF2CF4695F1DF08C01616AF
:101A300017061806991FF1CF869571056105089460
:101A40000895E894BB2766277727CB0197F9089577
:101A50000E94B30C08F48FEF08950E94400D0C947F
:101A6000EE0C0E94E00C38F00E94E70C20F0952369
:101A700011F00C94D70C0C94DD0C11240C94220D55
:101A80000E94FF0C70F3959FC1F3950F50E0551F16
:101A9000629FF001729FBB27F00DB11D639FAA27C3
:101AA000F00DB11DAA1F649F6627B00DA11D661F12
:101AB000829F2227B00DA11D621F739FB00DA11D33
:101AC000621F839FA00D611D221F749F3327A00DED
:101AD000611D231F849F600D211D822F762F6A2F89
:101AE00011249F5750409AF0F1F088234AF0EE0FEE
:101AF000FF1FBB1F661F771F881F91505040A9F71B
:101B00009E3F510580F00C94D70C0C94220D5F3F42
:101B1000E4F3983ED4F3869577956795B795F79556
:101B2000E7959F5FC1F7FE2B880F911D96958795CE
:101B300097F908959F930E94A90D0F9007FCEE5FFF
:101B40000C94D20D0E94B30C880B990B08950C9441
:101B5000DD0C0E94070DD8F3E894E0E0BB279F5707
:101B6000F0F02AED3FE049EC06C0EE0FBB0F661F18
:101B7000771F881F28F0B23A62077307840728F09E
:101B8000B25A620B730B840BE3959A9572F7803807
:101B900030F49A95BB0F661F771F881FD2F79048C5
:101BA0000C94E80DEF93E0FF07C0A2EA2AED3FE0B6
:101BB00049EC5FEB0E947B0B0E94EE0C0F900394AC
:101BC00001FC9058E8E7F0E00C94F40D9F3F31F0F1
:101BD000915020F4879577956795B795880F911D5B
:101BE0009695879597F908959F938F937F936F9319
:101BF000FF93EF939B01AC010E942D0DEF91FF919C
:101C00000E94080E2F913F914F915F910C942D0DE2
:101C1000DF93CF931F930F93FF92EF92DF927B019D
:101C20008C01689406C0DA2EEF010E94400DFE017F
:101C3000E894A5912591359145915591A6F3EF0131
:101C40000E947B0BFE019701A801DA9469F7DF90EF
:101C5000EF90FF900F911F91CF91DF910895A1E236
:101C60001A2EAA1BBB1BFD010DC0AA1FBB1FEE1F16
:101C7000FF1FA217B307E407F50720F0A21BB30B61
:101C8000E40BF50B661F771F881F991F1A9469F7DD
:101C900060957095809590959B01AC01BD01CF0139
:101CA0000895052E97FB1EF400940E94680E57FDC0
:101CB00007D00E942F0E07FC03D04EF40C94680E40
:101CC00050954095309521953F4F4F4F5F4F089568
:101CD00090958095709561957F4F8F4F9F4F089598
:101CE000EE0FFF1F0590F491E02D09940E947D0EE8
:101CF000B7FF0895821B930B0895A29FB001B39F75
:101D0000C001A39F700D811D1124911DB29F700D04
:0C1D1000811D1124911D0895F894FFCF4F
:101D1C0063026302FF0000000028039802E702C57B
:101D2C0002D9026F037D007D00FA007D007D007DED
:101D3C00007D00FA007D007D007D007D00FA007DB5
:101D4C00007D007D007D0077017D007D007D00FA27
:101D5C00007D007D007D007D00FA007D007D007D12
:101D6C00007D00FA007D007D007D007D0077017D07
:101D7C00004A018801B801B8010000B801EE010B5E
:101D8C00020B0200000B024B02EE01EE010000B848
:101D9C00018801B80100004A018801B801B80100AE
:101DAC0000B801EE010B020B0200000B024B02EE1D
:101DBC0001EE010000B8018801B80100006E616EEF
:101DCC0000696E66006F766600496E697469616CB5
:0E1DDC00697A696E67202E2E2E000D0A000017
:00000001FF
